:100000000C9462000C9407050C94E0040C948A0094
:100010000C948A000C948A000C948A000C948A0038
:100020000C948A000C948A000C948A000C948A0028
:100030000C948A000C948A000C948A000C948A0018
:100040000C9496040C948A000C948A000C948A00F8
:100050000C948A000C948A000C948A000C948A00F8
:100060000C942E050C948A00000000002400270048
:100070002A0000000000250028002B0004040404CE
:100080000404040402020202020203030303030342
:10009000010204081020408001020408102001021F
:1000A00004081020000000080002010000030407FB
:1000B00000000000000000000000000023002600F7
:1000C0002900980A11241FBECFEFD8E0DEBFCDBFB4
:1000D00011E0A0E0B1E0EEE8FAE102C005900D9277
:1000E000A037B107D9F722E0A0E7B1E001C01D9227
:1000F000AC36B207E1F710E0C2E6D0E004C02197C9
:10010000FE010E943A0DC136D107C9F70E94790855
:100110000C94450D0C9400008091C10190E0209159
:10012000C201821B9109089581E08093BB0108956B
:100130008230D8F4E82FF0E0EE0FFF1FE050FF4FC1
:1001400024E930E031832083813041F080916900DF
:100150008C7F826080936900E89A0895809169009D
:10016000837F886080936900E99A08953FB7F89487
:100170008091BD019091BE01A091BF01B091C001DD
:1001800026B5A89B05C02F3F19F00196A11DB11DF2
:100190003FBFBA2FA92F982F8827820F911DA11D2D
:1001A000B11DBC01CD0142E0660F771F881F991F6A
:1001B0004A95D1F708958F929F92AF92BF92CF92B6
:1001C000DF92EF92FF926B017C010E94B6004B011F
:1001D0005C01C114D104E104F104F1F00E94B60005
:1001E000DC01CB0188199909AA09BB09883E934013
:1001F000A105B10570F321E0C21AD108E108F108A8
:1002000088EE880E83E0981EA11CB11CC114D10495
:10021000E104F10419F7DDCFFF90EF90DF90CF906C
:10022000BF90AF909F908F9008950895CF92DF92E6
:10023000EF92FF920F931F93CF93DF936C017A019C
:100240008B01C0E0D0E0CE15DF0589F0D8016D91BB
:100250008D01D601ED91FC910190F081E02DC60158
:100260000995892B11F47E0102C02196ECCFC701BC
:10027000DF91CF911F910F91FF90EF90DF90CF9082
:10028000089585ED8093BC008091BC0084FDFCCF77
:1002900010920902089540919201262F30E0240F18
:1002A000311D21323105DCF4209109022430C9F4DA
:1002B000FC0180E090E0861758F430919201219182
:1002C000DC01A059BE4FA30FB11D2C930196F3CFB3
:1002D00080919201680F6093920180E0089581E01F
:1002E000089582E008950895E091C2018091C101CE
:1002F000E81730F4F0E0ED53FE4F808190E0089570
:100300008FEF9FEF08959091C2018091C1019817DE
:1003100050F4E92FF0E0ED53FE4F208130E09F5F75
:100320009093C20102C02FEF3FEFC9010895CF9211
:10033000DF92EF92FF920F931F93CF93DF937C0195
:10034000262F972F8A0180912D02882391F0C62FA6
:10035000D72F6E01C40ED51ECC15DD0571F0699145
:10036000D701ED91FC910190F081E02DC701099535
:10037000F3CF642F822F0E944B01C801DF91CF91F0
:100380001F910F91FF90EF90DF90CF900895CF9342
:10039000DF931F92CDB7DEB7698320912D02222310
:1003A000D1F020912A02203240F021E030E0FC011F
:1003B0003383228380E090E015C080912B02E82FE8
:1003C000F0E0E65FFD4F998190838F5F80932B0271
:1003D00080932A0205C061E0CE0101960E944B0184
:1003E00081E090E00F90DF91CF9108950E94400D41
:1003F00090E0FC01EC55FF4F3491FC01E057FF4FBA
:100400002491FC01E458FF4FE491EE2309F43BC032
:10041000332339F1333091F038F43130A9F03230F0
:1004200001F584B58F7D12C0373091F03830A1F0DE
:100430003430B9F4809180008F7D03C080918000BA
:100440008F77809380000DC084B58F7784BD09C0FD
:100450008091B0008F7703C08091B0008F7D809332
:10046000B000F0E0EE0FFF1FEE58FF4FA591B491E2
:100470008FB7F894EC91611103C020952E2301C031
:100480002E2B2C938FBF0895CF93DF93EC0160E068
:100490008E810E94F80161E08E810E94F80160E087
:1004A0008E810E94F8018BE891E00197F1F7DF91CE
:1004B000CF910895CF93DF9390E0FC01E057FF4F79
:1004C0002491FC01E458FF4F8491882361F190E06E
:1004D000880F991FFC01E859FF4FC591D491FC0189
:1004E000EE58FF4FA591B491611109C09FB7F894E0
:1004F0008881209582238883EC912E230BC0623063
:1005000061F49FB7F8943881822F80958323888384
:10051000EC912E2B2C939FBF06C08FB7F894E881E7
:100520002E2B28838FBFDF91CF910895CF92DF923A
:10053000EF92FF920F931F93CF93DF93CDB7DEB768
:10054000C054D1400FB6F894DEBF0FBECDBF2FB759
:10055000F89480912E0290912F02A0913002B091D8
:1005600031022FBF40915F025091600260916102A1
:10057000709162028C019D01041B150B260B370B39
:10058000B901A801403D57406105710528F48091EB
:10059000630290916402BAC180935F0290936002FB
:1005A000A0936102B093620280915602882309F4FD
:1005B000AEC010925B0210925A0210925902109231
:1005C00058021092570261E0809165020E94F80182
:1005D0006AEF70E080E090E00E94DB0061E08091D3
:1005E00065020E945A0260E0809165020E94F80153
:1005F00064E170E080E090E00E94DB00F89461E04C
:10060000809165020E94F8018BE990E00197F1F773
:1006100062E0809165020E945A0283E290E00197B5
:10062000F1F780E00E942B08672B682B692B19F4E7
:1006300083E090E053C181E00E942B08672B682B78
:10064000692B19F484E090E049C18E010F5F1F4FC0
:100650006E012FEBC21A2EEFD20A780180E00E94C1
:100660002B08F701608371838283938381E00E946A
:100670002B08F7016483758386839783F8E0EF0E78
:10068000F11CEC14FD0451F720E030E0F80140814A
:10069000518162817381C480D580E680F7804115E5
:1006A00051056105710529F0C114D104E104F1047B
:1006B00019F482E090E012C1F90193E0F595E79515
:1006C0009A95E1F7EA5AFD4F8181880F4C155D0537
:1006D0006E057F0508F4816081832F5F3F4F085FBF
:1006E0001F4F2832310591F69091580280915702A0
:1006F000890F90915902890F90915A02890F909118
:100700005B02981709F4F0C081E090E0E7C0109117
:100710005C0281E080932D0210932C0210922B0238
:1007200010922A0260E082E392E00E94C701909159
:100730002A02913208F04AC0809109028111FCCF4F
:1007400022E02093090221E0209308022FEF20935A
:1007500007021092060290930502AAE0B2E045EE6D
:1007600051E0FA012E2F241B291718F42D91219303
:10077000F9CF1092E4019091E401110F192B10931D
:10078000E4019091E301913061F41092E3019091C2
:10079000E4019093BB009091BC0093FDF8CF95ECE1
:1007A00001C095EE9093BC00909109029230E1F364
:1007B000909107029F3F79F080910702803241F0CB
:1007C00080910702803331F084E005C081E003C0EE
:1007D00082E001C083E010922B0210922A02109254
:1007E0002D02882319F085E090E085C080915C029D
:1007F000909109029111FCCF91E09093090290939E
:1008000008022FEF209307021092060224E02093A3
:1008100005029093E4019091E401880F892B809365
:10082000E4018091E301813061F41092E301809151
:10083000E4018093BB008091BC0083FDF8CF85EC80
:1008400001C085EE8093BC00809109028130E1F304
:1008500080910602853018F41091060201C015E05F
:10086000A5EEB1E023EC31E0F9018E2F821B811758
:1008700018F48D918193F9CF1092C2011093C101A8
:1008800087E5E82E82E0F82E05E00E0D82E392E087
:100890000E948301F70181937F010E13F7CF61E07E
:1008A00070E080E090E00E94DB008091C2011817A8
:1008B00019F082E090E01FC0909158028091570299
:1008C000890F90915902890F90915A02890F909146
:1008D0005B029817A9F081E090E00DC0909364024C
:1008E00080936302789412C01092640210926302A3
:1008F00080E090E0F7CF909364028093630206C09B
:10090000109264021092630280E090E0C05CDE4FBF
:100910000FB6F894DEBF0FBECDBFDF91CF911F9110
:100920000F91FF90EF90DF90CF9008951F920F925C
:100930000FB60F9211242F933F938F939F93AF93F2
:10094000BF9380912E0290912F02A0913002B0911E
:1009500031023091BC0123E0230F2D3720F40196A2
:10096000A11DB11D05C026E8230F0296A11DB11DD2
:100970002093BC0180932E0290932F02A09330020B
:10098000B09331028091BD019091BE01A091BF0151
:10099000B091C0010196A11DB11D8093BD0190933E
:1009A000BE01A093BF01B093C001BF91AF919F91D1
:1009B0008F913F912F910F900FBE0F901F90189520
:1009C0001F920F920FB60F9211242F933F934F93C4
:1009D0005F936F937F938F939F93AF93BF93EF93A7
:1009E000FF93E0910201F09103010995FF91EF91CE
:1009F000BF91AF919F918F917F916F915F914F9137
:100A00003F912F910F900FBE0F901F9018951F923E
:100A10000F920FB60F9211242F933F934F935F9332
:100A20006F937F938F939F93AF93BF93EF93FF93B6
:100A3000E0910001F09101010995FF91EF91BF91C3
:100A4000AF919F918F917F916F915F914F913F9166
:100A50002F910F900FBE0F901F9018951F920F921D
:100A60000FB60F9211242F933F934F935F936F9381
:100A70007F938F939F93AF93BF93EF93FF93809157
:100A8000B900887F803609F49CC068F5883209F483
:100A90005BC090F4803109F454C038F4882309F421
:100AA000F6C0883009F44DC0F6C0883109F44CC056
:100AB000803209F45DC0EFC0803409F468C048F4A6
:100AC000803309F455C0883309F0E5C080930702EC
:100AD000D8C0803509F44FC0883509F45DC088342A
:100AE00009F0D9C0D6C0883909F4C7C0A8F488373E
:100AF00009F467C038F4883609F463C0803709F414
:100B000060C0C9C0883809F4B8C0803909F45FC032
:100B1000803809F0C0C05BC0803B09F486C038F45F
:100B2000803A09F466C0883A09F47FC0B4C0803CBA
:100B300009F4A7C0883C09F4A4C0883B09F48AC022
:100B4000AAC08091E40110C0909106028091050234
:100B5000981770F5E091060281E08E0F80930602EF
:100B6000F0E0EB51FE4F80818093BB0085EC86C0A6
:100B7000809307028EC0E091060281E08E0F809381
:100B800006028091BB00F0E0EB51FE4F8083909114
:100B90000602809105026EC0E091060281E08E0F90
:100BA000809306028091BB00F0E0EB51FE4F808302
:100BB0008091080281116DC081E08093E30184EA95
:100BC00061C083E0809309021092B601CFCF80917B
:100BD000B601803208F051C0E091B60181E08E0F7D
:100BE0008093B6018091BB00F0E0EA56FE4F80830F
:100BF000BDCF85EC8093BC00109209028091B601B4
:100C0000803230F4E091B601F0E0EA56FE4F1082F7
:100C10006091B60170E0E0919401F091950186E950
:100C200091E009951092B60136C084E080930902E4
:100C30001092930110929201E0919001F091910134
:100C4000099580919201811105C081E08093920104
:100C500010927001E091930181E08E0F80939301D7
:100C6000F0E0E059FE4F80818093BB0090919301AA
:100C700080919201981708F479CF85E88093BC00A1
:100C80000AC085EC8093BC001092090204C0109247
:100C900007020E944101FF91EF91BF91AF919F9197
:100CA0008F917F916F915F914F913F912F910F9015
:100CB0000FBE0F901F901895CF92DF92EF92FF9288
:100CC0000F931F93CF93DF937C016C0187E0C80ED5
:100CD000D11CC0E0D0E0062F10E0B8010C2E02C0FD
:100CE000759567950A94E2F76170F60181916F013D
:100CF0000E94F8012196C430D10579F7C701DF9130
:100D0000CF911F910F91FF90EF90DF90CF900C94B7
:100D10004402CF92DF92EF92FF920F931F93CF93F3
:100D2000DF93EC01F62E642F8C810E94F8018D81F7
:100D30008F3F19F060E00E94F8018F850F2D10E0C1
:100D400084FF25C06E0187E0C80ED11CE12CF12C78
:100D5000B8010E2C02C0759567950A94E2F7617090
:100D6000F60181916F010E94F801FFEFEF1AFF0A6F
:100D700088E0E816F10461F7CE01DF91CF911F9171
:100D80000F91FF90EF90DF90CF900C944402B80148
:100D900084E0759567958A95E1F7CE010E945C061F
:100DA0006F2DCE01DF91CF911F910F91FF90EF90AA
:100DB000DF90CF900C945C0641E00E94890681E0B0
:100DC00090E0089540E00C94890661E00E94E206FC
:100DD0008BE39FE10197F1F70895EF92FF920F9354
:100DE0001F93CF93DF93EC01623018F08F858860FA
:100DF0008F876B8B1C8A80E48D8B80E18E8B80E5E6
:100E00008F8B61E08C810E945A028D818F3F19F097
:100E100061E00E945A0261E08E810E945A027E01C6
:100E200087E0E80EF11C00E010E08F8584FD03C030
:100E300084E090E002C088E090E0081719074CF4C5
:100E400061E0F70181917F010E945A020F5F1F4FFD
:100E5000ECCF8BE39DE00197F1F760E08C810E947D
:100E6000F80160E08E810E94F8018D818F3F19F0BA
:100E700060E00E94F8016F8564FD1DC063E0CE0153
:100E80000E945C060BE416E4C8010197F1F763E0E9
:100E9000CE010E945C06C8010197F1F763E0CE0124
:100EA0000E945C0683E592E00197F1F762E0CE01D3
:100EB0000E945C0616C06062CE010E94E2068BE4CE
:100EC00096E40197F1F76F856062CE010E94E20619
:100ED00083E592E00197F1F76F856062CE010E9491
:100EE000E2066F856062CE010E94E20684E0888B94
:100EF0006CE0CE010E94E206CE010E94E50682E08F
:100F0000898B66E0CE01DF91CF911F910F91FF9009
:100F1000EF900C94E206843008F083E09091510247
:100F2000891710F08FEF890FE82FF0E0E25CFD4F9A
:100F3000648960688EE392E00C94E206009769F0A1
:100F4000FC0101900020E9F73197AF01481B590BD4
:100F5000BC018EE392E00C94160180E090E00895CD
:100F60008F929F92AF92BF92CF92DF92EF92FF92B9
:100F70000F931F93CF93DF93CDB7DEB7A1970FB633
:100F8000F894DEBF0FBECDBF6C01990FEE08FF08CD
:100F9000F7FE31C0E0913E02F0913F020190F081F6
:100FA000E02D6DE28EE392E009958C012227332734
:100FB000A9012C193D094E095F0919A2CE0181969C
:100FC0007C019AE0892E912CA12CB12CCA01B90187
:100FD000A50194010E94180D605DF70162937F01E5
:100FE000211531054105510589F7CF010E949E0762
:100FF000800F911F1DC0A701960119A28E010F5DE0
:101000001F4F8AE0C82ED12CE12CF12CCA01B90166
:10101000A70196010E94180D605DF80162938F018F
:10102000211531054105510589F7CF010E949E0721
:10103000A1960FB6F894DEBF0FBECDBFDF91CF9162
:101040001F910F91FF90EF90DF90CF90BF90AF90E6
:101050009F908F9008958F929F92AF92BF92CF9260
:10106000DF92EF92FF92CF93DF93A09166028823E5
:1010700011F03A2F01C030E08091670290E0880FB4
:10108000991F88549F4FC0906802D0906902E090E9
:101090006A02F0906B0240E050E0BA01FC01C59199
:1010A000D49128812A2323130FC04A015B012FEF1B
:1010B000821A920AA20AB20A4C155D056E057F05D6
:1010C00038F4B501A401EACF342F252FCB0104C099
:1010D00030E020E080E090E0632F722FDF91CF912D
:1010E000FF90EF90DF90CF90BF90AF909F908F9048
:1010F0000895789484B5826084BD84B5816084BD90
:1011000085B5826085BD85B5816085BD80916E00A5
:10111000816080936E0010928100809181008260D6
:101120008093810080918100816080938100809113
:1011300080008160809380008091B1008460809302
:10114000B1008091B00081608093B00080917A00FE
:10115000846080937A0080917A00826080937A0024
:1011600080917A00816080937A0080917A00806813
:1011700080937A001092C10062E08EE392E00E94B8
:10118000ED068EE392E00E94E5068FE298EFAFEF66
:10119000BFEF80935F0290936002A0936102B093CF
:1011A000620280915602882331F062E080916502EC
:1011B0000E945A0227C01092C2011092C1011092DF
:1011C0002B0210922A021092090281E080930802F9
:1011D0001092E30161E082E10E94F80161E083E1A5
:1011E0000E94F8018091B9008E7F8093B9008091B0
:1011F000B9008D7F8093B90088E48093B80085E4BE
:101200008093BC0061E08DE00E945A0290E4392E88
:10121000C0E0D0E005E111E062E080E00E945A0207
:1012200080E00E94980062E370E080E090E00E941D
:10123000DB008091BB01882349F08091B901909136
:10124000BA0101969093BA018093B901E090B90177
:10125000F090BA01E114F10409F434C161E08DE0C9
:101260000E94F80164E170E080E090E00E94DB0001
:1012700081E0E816F10469F082E0E816F10409F073
:1012800010C130927C0080917A00806480937A0053
:10129000E1C0809156028823A9F00E949602892B12
:1012A00039F0C12CD12C80ECE82E8FE7F82E35C018
:1012B0006091590270E080E090E00E94F40B6B01B5
:1012C0007C012BC00E949602892B59F770905A021C
:1012D0006091590270E080E090E00E94F60B6B0193
:1012E0007C01872D8F77682F70E080E090E00E946E
:1012F000F40B20E030E040E251E40E944C0B9B01F3
:10130000AC01C701B6010E94E00A6B017C0177FEC7
:1013100004C0F7FAF094F7F8F0948091560288230D
:1013200069F00E949602892B09F0F9C0609157027A
:1013300070E080E090E00E94F40B21C00E949602D1
:10134000892B09F0ECC06091570270E080E090E0DA
:101350000E94F60B2B013C016091580270E080E086
:1013600090E00E94F40B20E030E040E251E40E9463
:101370004C0B9B01AC01C301B2010E94E00A2B019E
:101380003C019B01AC010E94EF0C8111C8C0A70178
:101390009601C701B6010E94EF0C8111C0C08EE317
:1013A00092E00E94E50680E00E948B078CE191E0CC
:1013B0000E949E07C701B6010E94BE0B4B015C0153
:1013C000CB010E94B00783E291E00E949E07B40126
:1013D000990C880B990B0E94F60B9B01AC01C7017D
:1013E000B6010E94DF0A20E030E040E251E40E94B2
:1013F000820C0E94BE0BCB010E94B00781E00E94CC
:101400008B0785E291E00E949E07C301B2010E9412
:10141000BE0B6B017C01CB010E94B00783E291E01F
:101420000E949E07B601DD0C880B990B0E94F60BFB
:101430009B01AC01C301B2010E94DF0A20E030E051
:1014400040E251E40E94820C0E94BE0BCB010E943C
:10145000B00738C080917A0086FDFCCF809178007B
:101460002091790090E0922B9093B8018093B7017E
:101470008EE392E00E94E50680E00E948B0781E304
:1014800091E00E949E0781E00E948B078091B70146
:101490009091B8010E94B0071092BA011092B90160
:1014A00011C08EE392E00E94E50680E00E948B0767
:1014B00084E491E00E949E0760ED77E080E090E098
:1014C0000E94DB0060ED77E080E090E00E94DB00AE
:1014D0008EE392E00E94E50660E08DE00E94F80154
:1014E00083B7817F846083BF83B7816083BF80E0DF
:1014F0000E94980083B7816083BF889583B78E7FF1
:1015000083BF83B78E7F83BFE89810930101009358
:101510000001209709F480CE0E9400007DCE8EE36A
:1015200092E00E94E5068DE491E00E949E07CACFFA
:10153000E2E3F2E01382128288EE93E0A0E0B0E0F2
:1015400084839583A683B78388E091E09183808329
:10155000E6E5F2E010828CE5868382E1878383E111
:101560008087118612861386148689E090E096871C
:10157000858783E08787108A118A128A138A148AE2
:10158000158AEEE3F2E01382128228E131E0318322
:10159000208399E094839FEF95839AE0968395E06A
:1015A000978394E09087818786E0828713861486EC
:1015B00015861686178661E0CF010C94ED0650580B
:1015C000BB27AA270E94F70A0C94480C0E943A0CE9
:1015D00038F00E94410C20F039F49F3F19F426F4B2
:1015E0000C94370C0EF4E095E7FB0C94310CE92FCA
:1015F0000E94590C58F3BA176207730784079507BE
:1016000020F079F4A6F50C947B0C0EF4E0950B2EEB
:10161000BA2FA02D0B01B90190010C01CA01A00144
:101620001124FF27591B99F0593F50F4503E68F19F
:101630001A16F040A22F232F342F4427585FF3CFE0
:10164000469537952795A795F0405395C9F77EF4B1
:101650001F16BA0B620B730B840BBAF09150A1F0FA
:10166000FF0FBB1F661F771F881FC2F70EC0BA0F80
:10167000621F731F841F48F4879577956795B79508
:10168000F7959E3F08F0B0CF9395880F08F0992703
:10169000EE0F9795879508950E94600B0C94480C67
:1016A0000E94410C58F00E943A0C40F029F45F3F30
:1016B00029F00C94310C51110C947C0C0C94370CC7
:1016C0000E94590C68F39923B1F3552391F3951BAC
:1016D000550BBB27AA2762177307840738F09F5F53
:1016E0005F4F220F331F441FAA1FA9F335D00E2EC0
:1016F0003AF0E0E832D091505040E695001CCAF72D
:101700002BD0FE2F29D0660F771F881FBB1F2617EF
:1017100037074807AB07B0E809F0BB0B802DBF01C6
:10172000FF2793585F4F3AF09E3F510578F00C9495
:10173000310C0C947C0C5F3FE4F3983ED4F3869517
:1017400077956795B795F7959F5FC9F7880F911DB6
:101750009695879597F90895E1E0660F771F881FA2
:10176000BB1F621773078407BA0720F0621B730B55
:10177000840BBA0BEE1F88F7E09508950E94C50B05
:101780006894B1110C947C0C08950E94610C88F04F
:101790009F5798F0B92F9927B751B0F0E1F0660F35
:1017A000771F881F991F1AF0BA95C9F714C0B13076
:1017B00091F00E947B0CB1E008950C947B0C672F94
:1017C000782F8827B85F39F0B93FCCF386957795A5
:1017D0006795B395D9F73EF490958095709561958E
:1017E0007F4F8F4F9F4F0895E89409C097FB3EF4B9
:1017F00090958095709561957F4F8F4F9F4F99235E
:10180000A9F0F92F96E9BB279395F69587957795DB
:101810006795B795F111F8CFFAF4BB0F11F460FF9B
:101820001BC06F5F7F4F8F4F9F4F16C0882311F0F3
:1018300096E911C0772321F09EE8872F762F05C007
:10184000662371F096E8862F70E060E02AF09A95A2
:10185000660F771F881FDAF7880F9695879597F997
:10186000089597F99F6780E870E060E008959FEF22
:1018700080EC089500240A94161617061806090627
:10188000089500240A9412161306140605060895F6
:10189000092E0394000C11F4882352F0BB0F40F47E
:1018A000BF2B11F460FF04C06F5F7F4F8F4F9F4FBE
:1018B000089557FD9058440F551F59F05F3F71F040
:1018C0004795880F97FB991F61F09F3F79F08795A7
:1018D0000895121613061406551FF2CF4695F1DF30
:1018E00008C0161617061806991FF1CF86957105C0
:1018F000610508940895E894BB2766277727CB01F4
:1019000097F908950E94950C0C94480C0E943A0C8B
:1019100038F00E94410C20F0952311F00C94310C0A
:101920000C94370C11240C947C0C0E94590C70F30D
:10193000959FC1F3950F50E0551F629FF001729F74
:10194000BB27F00DB11D639FAA27F00DB11DAA1F83
:10195000649F6627B00DA11D661F829F2227B00DD0
:10196000A11D621F739FB00DA11D621F839FA00D5B
:10197000611D221F749F3327A00D611D231F849FAB
:10198000600D211D822F762F6A2F11249F57504002
:101990009AF0F1F088234AF0EE0FFF1FBB1F661F7D
:1019A000771F881F91505040A9F79E3F510580F046
:1019B0000C94310C0C947C0C5F3FE4F3983ED4F310
:1019C000869577956795B795F795E7959F5FC1F7EA
:1019D000FE2B880F911D9695879597F908950E9483
:1019E000F40C880B990B0895990F0008550FAA0B5A
:1019F000E0E8FEEF16161706E807F907C0F0121622
:101A00001306E407F50798F0621B730B840B950B24
:101A100039F40A2661F0232B242B252B21F4089579
:101A20000A2609F4A140A6958FEF811D811D089516
:101A3000A1E21A2EAA1BBB1BFD010DC0AA1FBB1FD2
:101A4000EE1FFF1FA217B307E407F50720F0A21B44
:101A5000B30BE40BF50B661F771F881F991F1A94B1
:101A600069F760957095809590959B01AC01BD01DB
:101A7000CF010895EE0FFF1F0590F491E02D09941A
:0E1A800081E090E0F8940C94450DF894FFCFAF
:101A8E001501150100000000C70197018C008301AC
:101A9E007401730100000000DC06160174656D70A0
:101AAE003A20002E0068756D6964697465203A20CD
:101ABE000068756D696469746520647520736F6C58
:101ACE00203A200070726F626C656D650046616928
:101ADE006C656420746F20726561642066726F6D30
:101AEE002044485431322073656E736F72210000AA
:00000001FF
