:100000000C94E8000C94B40B0C948D0B0C94660BC0
:100010000C943F0B0C9410010C9410010C94180BD1
:100020000C9410010C9410010C94DB0B0C944D0CEF
:100030000C9410010C9410010C9410010C941001FC
:100040000C9410010C9410010C9410010C941001EC
:100050000C9410010C9410010C9410010C94CE0A15
:100060000C9410010C9410010C9410010C941001CC
:100070000C9410010C9410010C9410010C941001BC
:100080000C9410010C9410010C9410010C941001AC
:100090000C9455020C9410010C9410010C94100156
:1000A0000C9410010C9410010C941001200A230AE6
:1000B000120A160A1A0A440A440A440A270A2B0A90
:1000C0002F0A350A390A440A3F0A070605040100C7
:1000D000080A0B0C0D09000000002300260029006F
:1000E0002C002F00080B000202020100090400008E
:1000F0000102020000052400100105240101010491
:1001000024020605240600010705810310004009AA
:10011000040100020A000000070502024000000777
:100120000583024000000403090412010002EF02EB
:1001300001404123418000010102030141726475C5
:10014000696E6F204C4C430041726475696E6F207C
:1001500059756E0000000000240027002A002D00C1
:10016000300000000000250028002B002E00310088
:10017000040404040403040502020202040302024C
:10018000020206060606060604040202020404042D
:100190000802011040804010204080408008020486
:1001A00001804020100201108010204040200000FB
:1001B000000200090F0000030401000C0000000011
:1001C000000000000000000000000000000011110D
:1001D00011241FBECFEFDAE0DEBFCDBF11E0A0E0FB
:1001E000B1E0EEE9F7E202C005900D92A03AB10746
:1001F000D9F723E0A0EAB1E001C01D92A230B20716
:10020000E1F710E0C8EED0E004C02197FE010E94A3
:10021000C213C73ED107C9F70E947D0E0C94CD13BF
:100220000C940000CF92DF92EF92FF920F931F93F6
:10023000CF93DF936C017A018B01C0E0D0E0CE1543
:10024000DF0589F0D8016D918D01D601ED91FC910A
:100250000190F081E02DC6010995892B11F47E01F2
:1002600002C02196ECCFC701DF91CF911F910F9172
:10027000FF90EF90DF90CF90089581E08093EB01A5
:10028000089585ED8093BC008091BC0084FDFCCF77
:1002900010923C0208954091C201262F30E0240FB5
:1002A000311D21323105DCF420913C022430C9F4A7
:1002B000FC0180E090E0861758F43091C201219152
:1002C000DC01A056BE4FA30FB11D2C930196F3CFB6
:1002D0008091C201680F6093C20180E0089581E0BF
:1002E000089582E008950895E091F1018091F00170
:1002F000E81730F4F0E0EE50FE4F808190E0089572
:100300008FEF9FEF08959091F1018091F001981780
:1003100050F4E92FF0E0EE50FE4F208130E09F5F77
:100320009093F10102C02FEF3FEFC9010895809132
:10033000F00190E02091F101821B91090895CF9284
:10034000DF92EF92FF920F931F93CF93DF937C0185
:10035000262F972F8A0180913D02882391F0C62F86
:10036000D72F6E01C40ED51ECC15DD0571F0699135
:10037000D701ED91FC910190F081E02DC701099525
:10038000F3CF642F822F0E944B01C801DF91CF91E0
:100390001F910F91FF90EF90DF90CF900895CF9332
:1003A000DF931F92CDB7DEB7698320913D022223F0
:1003B000D1F020915F02203240F021E030E0FC01DA
:1003C0003383228380E090E015C080913E02E82FC5
:1003D000F0E0E15CFD4F998190838F5F80933E0256
:1003E00080935F0205C061E0CE0101960E944B013F
:1003F00081E090E00F90DF91CF910895089580E023
:1004000090E00895CF93DF93EC0160E08E810E942D
:10041000F50961E08E810E94F50960E08E810E94FD
:10042000F5098BE891E00197F1F7DF91CF910895FD
:100430000E94C8134091F9025091FA022091F702EC
:100440003091F80242175307B4F49091E800957088
:10045000E1F39091E80092FD19C08093F100809142
:10046000F9029091FA0201968F739927892B19F45A
:100470008EEF8093E8008091F9029091FA02019644
:100480009093FA028093F90281E0089580E0089544
:10049000615030F02091F100FC0120830196F8CFEB
:1004A000289884E68093EE0108951F920F920FB66C
:1004B0000F9211242F933F934F935F936F937F93EA
:1004C0008F939F93AF93BF93EF93FF938091B90066
:1004D000887F803609F49CC068F5883209F45BC0D7
:1004E00090F4803109F454C038F4882309F4F6C03C
:1004F000883009F44DC0F6C0883109F44CC0803210
:1005000009F45DC0EFC0803409F468C048F480335A
:1005100009F455C0883309F0E5C080933A02D8C089
:10052000803509F44FC0883509F45DC0883409F07E
:10053000D9C0D6C0883909F4C7C0A8F4883709F4EF
:1005400067C038F4883609F463C0803709F460C0A6
:10055000C9C0883809F4B8C0803909F45FC0803850
:1005600009F0C0C05BC0803B09F486C038F4803A13
:1005700009F466C0883A09F47FC0B4C0803C09F42D
:10058000A7C0883C09F4A4C0883B09F48AC0AAC06B
:100590008091170210C0909139028091380298170B
:1005A00070F5E091390281E08E0F80933902F0E01E
:1005B000E85EFD4F80818093BB0085EC86C0809310
:1005C0003A028EC0E091390281E08E0F80933902A9
:1005D0008091BB00F0E0E85EFD4F8083909139028E
:1005E000809138026EC0E091390281E08E0F8093D5
:1005F00039028091BB00F0E0E85EFD4F808380917E
:100600003B0281116DC081E08093160284EA61C0D3
:1006100083E080933C021092E601CFCF8091E60107
:10062000803208F051C0E091E60181E08E0F8093A6
:10063000E6018091BB00F0E0EA53FE4F8083BDCF1E
:1006400085EC8093BC0010923C028091E6018032E0
:1006500030F4E091E601F0E0EA53FE4F1082609141
:10066000E60170E0E091C401F091C50186EC91E0F3
:1006700009951092E60136C084E080933C02109206
:10068000C3011092C201E091C001F091C10109952E
:100690008091C201811105C081E08093C201109256
:1006A000A001E091C30181E08E0F8093C301F0E0CF
:1006B000E056FE4F80818093BB009091C3018091F2
:1006C000C201981708F479CF85E88093BC000AC06E
:1006D00085EC8093BC0010923C0204C010923A0258
:1006E0000E944101FF91EF91BF91AF919F918F9136
:1006F0007F916F915F914F913F912F910F900FBE1E
:100700000F901F901895CF92DF92EF92FF920F9368
:100710001F93CF93DF937C016C0187E0C80ED11C3F
:10072000C0E0D0E0062F10E0B8010C2E02C0759595
:1007300067950A94E2F76170F60181916F010E945A
:10074000F5092196C430D10579F7C701DF91CF9122
:100750001F910F91FF90EF90DF90CF900C940202C9
:10076000CF92DF92EF92FF920F931F93CF93DF937D
:10077000EC01F62E642F8C810E94F5098D818F3F4C
:1007800019F060E00E94F5098F850F2D10E084FFBD
:1007900025C06E0187E0C80ED11CE12CF12CB801F8
:1007A0000E2C02C0759567950A94E2F76170F60108
:1007B00081916F010E94F509FFEFEF1AFF0A88E0AF
:1007C000E816F10461F7CE01DF91CF911F910F91EF
:1007D000FF90EF90DF90CF900C940202B80184E07C
:1007E000759567958A95E1F7CE010E9483036F2D79
:1007F000CE01DF91CF911F910F91FF90EF90DF908D
:10080000CF900C94830341E00E94B00381E090E01C
:10081000089540E00C94B00361E00E9409048BE36A
:100820009FE10197F1F708958F929F92AF92BF9247
:10083000CF92DF92EF92FF92CF93DF93A091940239
:10084000882311F03A2F01C030E08091950290E0AA
:10085000880F991F8A529F4FC0909602D09097029E
:10086000E0909802F090990240E050E0BA01FC015B
:10087000C591D49128812A2323130FC04A015B011B
:100880002FEF821A920AA20AB20A4C155D056E0574
:100890007F0538F4B501A401EACF342F252FCB0111
:1008A00004C030E020E080E090E0632F722FDF9101
:1008B000CF91FF90EF90DF90CF90BF90AF909F903F
:1008C0008F900895FC018091EF01811103C08FEF9B
:1008D0009FEF08959FB7F89482E08093E9002091FC
:1008E000F20030E01216130614F421E030E0211576
:1008F000310559F0289884E68093EE018091F1004B
:1009000080838091F200882319F09FBFC901089568
:100910008BE68093E800F9CF2FB7F89483E08093BB
:10092000E9009091E800892F807295FF04C09091B2
:10093000F20080E4891B2FBF0895CF93DF931F92AD
:10094000CDB7DEB76983DC01ED91FC910280F381C4
:10095000E02D41E050E0BE016F5F7F4F09950F90A1
:10096000DF91CF91089583E08093E9008091F200B8
:10097000882319F08AE38093E80008950E948C048C
:1009800090E00895CF93DF931F92CDB7DEB7FC01BF
:100990008485958597FD05C02FEF3FEF3587248728
:1009A0000BC0CE0101960E946204019719F489815F
:1009B00090E002C08FEF9FEF0F90DF91CF910895ED
:1009C0000F931F93CF93DF931F92CDB7DEB78C01A8
:1009D000FC018485958597FF0EC0CE0101960E948B
:1009E0006204019719F4298130E002C02FEF3FEF34
:1009F000F80135872487F801848595850F90DF916C
:100A0000CF911F910F9108958F929F92AF92BF92B5
:100A1000CF92DF92EF92FF920F931F93CF93DF93CA
:100A20005C016B017A0180910701882309F45BC0A6
:100A30008091EF01882309F456C08091ED0180FF79
:100A400005C08091E00082608093E000E70110E043
:100A50000AEF83E0882E9AE3992E2097D9F10E941D
:100A60008C0481110AC0015009F43DC061E070E0BE
:100A700080E090E00E94940AF0CF282F30E0C21767
:100A8000D3070CF48C2F4FB7F8948092E900909123
:100A9000E80095FF1DC0282F30E0C21BD30BF601E4
:100AA000982F915020F081918093F100FACFC20EDF
:100AB000D31E112319F09092E80009C08091E8003C
:100AC00085FD06C09092E80011E0209709F010E043
:100AD0004FBFC3CF1111C3CF5D9884E68093EC0163
:100AE0001E141F0444F081E090E0F501938382839B
:100AF00080E090E001C0C701DF91CF911F910F917D
:100B0000FF90EF90DF90CF90BF90AF909F908F902D
:100B10000895EF92FF920F931F93CF93DF93EC0111
:100B2000623018F08F8588608F876B8B1C8A80E419
:100B30008D8B80E18E8B80E58F8B61E08C810E94B4
:100B4000580A8D818F3F19F061E00E94580A61E0D8
:100B50008E810E94580A7E0187E0E80EF11C00E0B9
:100B600010E08F8584FD03C084E090E002C088E03F
:100B700090E0081719074CF461E0F70181917F01BB
:100B80000E94580A0F5F1F4FECCF8BE39DE0019747
:100B9000F1F760E08C810E94F50960E08E810E948F
:100BA000F5098D818F3F19F060E00E94F5096F858E
:100BB00064FD1DC063E0CE010E9483030BE416E4D4
:100BC000C8010197F1F763E0CE010E948303C801D9
:100BD0000197F1F763E0CE010E94830383E592E081
:100BE0000197F1F762E0CE010E94830316C06062B4
:100BF000CE010E9409048BE496E40197F1F76F851A
:100C00006062CE010E94090483E592E00197F1F74A
:100C10006F856062CE010E9409046F856062CE011B
:100C20000E94090484E0888B6CE0CE010E940904D4
:100C3000CE010E940C0482E0898B66E0CE01DF9138
:100C4000CF911F910F91FF90EF900C940904843085
:100C500008F083E090917F02891710F08FEF890FE1
:100C6000E82FF0E0E459FD4F648960688CE692E07B
:100C70000C940904009769F0FC0101900020E9F749
:100C80003197AF01481B590BBC018CE692E00C94E4
:100C9000120180E090E008958F929F92AF92BF92F0
:100CA000CF92DF92EF92FF920F931F93CF93DF9338
:100CB000CDB7DEB7A1970FB6F894DEBF0FBECDBF9C
:100CC0006C01990FEE08FF08F7FE31C0E0916C024D
:100CD000F0916D020190F081E02D6DE28CE692E0E2
:100CE00009958C0122273327A9012C193D094E09AA
:100CF0005F0919A2CE0181967C019AE0892E912C80
:100D0000A12CB12CCA01B901A50194010E94A01324
:100D1000605DF70162937F012115310541055105A1
:100D200089F7CF010E943A06800F911F1DC0A701CD
:100D3000960119A28E010F5D1F4F8AE0C82ED12C9B
:100D4000E12CF12CCA01B901A70196010E94A01360
:100D5000605DF80162938F01211531054105510550
:100D600089F7CF010E943A06A1960FB6F894DEBF2C
:100D70000FBECDBFDF91CF911F910F91FF90EF90EC
:100D8000DF90CF90BF90AF909F908F90089520916B
:100D90005F029091A602213208F04AC080913C0285
:100DA0008111FCCF32E030933C0231E030933B02C2
:100DB0003FEF30933A021092390220933802AFE3AA
:100DC000B2E048E152E0FA013E2F341B321718F42A
:100DD0003D913193F9CF1092170220911702990F8C
:100DE000922B9093170290911602913061F4109219
:100DF0001602909117029093BB009091BC0093FD56
:100E0000F8CF95EC01C095EE9093BC0090913C0218
:100E10009230E1F390913A029F3F79F080913A024B
:100E2000803241F080913A02803331F084E005C095
:100E300081E003C082E001C083E010923E02109284
:100E40005F0210923D020895CF92DF92EF92FF92DF
:100E50000F931F93CF93DF93CDB7DEB7C054D1402C
:100E60000FB6F894DEBF0FBECDBF2FB7F8948091B8
:100E7000120290911302A0911402B09115022FBF9B
:100E800040918D0250918E0260918F02709190027C
:100E90008C019D01041B150B260B370BB901A80112
:100EA000403D57406105710528F480919102909171
:100EB000920262C180938D0290938E02A0938F0262
:100EC000B093900280918402882309F4AEC01092FE
:100ED0008902109288021092870210928602109264
:100EE000850261E0809193020E94F5096AEF70E04B
:100EF00080E090E00E94940A61E0809193020E9459
:100F0000580A60E0809193020E94F50964E170E064
:100F100080E090E00E94940AF89461E0809193024E
:100F20000E94F5098BE990E00197F1F762E080916A
:100F300093020E94580A83E290E00197F1F780E063
:100F40000E941404672B682B692B19F483E090E04E
:100F5000FBC081E00E941404672B682B692B19F4F5
:100F600084E090E0F1C08E010F5F1F4F6E012FEB08
:100F7000C21A2EEFD20A780180E00E941404F70111
:100F8000608371838283938381E00E941404F7015C
:100F90006483758386839783F8E0EF0EF11CEC146D
:100FA000FD0451F720E030E0F80140815181628179
:100FB0007381C480D580E680F780411551056105B5
:100FC000710529F0C114D104E104F10419F482E09F
:100FD00090E0BAC0F90193E0F595E7959A95E1F7AD
:100FE000EC57FD4F8181880F4C155D056E057F051F
:100FF00008F4816081832F5F3F4F085F1F4F2832C5
:10100000310591F69091860280918502890F909129
:101010008702890F90918802890F90918902981711
:1010200009F498C081E090E08FC080918A0291E03D
:1010300090933D028093A60210923E0210925F02AE
:1010400060E080E692E00E94CF010E94C7068823FC
:1010500019F085E090E085C080918A0290913C0271
:101060009111FCCF91E090933C0290933B022FEFC3
:1010700020933A021092390224E020933802909390
:10108000170290911702880F892B80931702809185
:101090001602813061F4109216028091170280933B
:1010A000BB008091BC0083FDF8CF85EC01C085EECC
:1010B0008093BC0080913C028130E1F38091390241
:1010C000853018F41091390201C015E0A8E1B2E0B2
:1010D00022EF31E0F9018E2F821B811718F48D91D8
:1010E0008193F9CF1092F1011093F00185E8E82E79
:1010F00082E0F82E05E00E0D80E692E00E9483016A
:10110000F70181937F010E13F7CF61E070E080E07B
:1011100090E00E94940A8091F101181719F082E082
:1011200090E01FC09091860280918502890F909176
:101130008702890F90918802890F909189029817F0
:10114000A9F081E090E00DC090939202809391020B
:10115000789412C0109292021092910280E090E076
:10116000F7CF909392028093910206C01092920260
:101170001092910280E090E0C05CDE4F0FB6F894D0
:10118000DEBF0FBECDBFDF91CF911F910F91FF90BA
:10119000EF90DF90CF900895E82FF0E0EE0FFF1F63
:1011A000E85FFE4F2DE331E0318320838230D9F0B8
:1011B00028F4882341F0813071F008958330D9F00C
:1011C000843009F10895809169008C7F826080935A
:1011D0006900E89A089580916900837F8860809310
:1011E0006900E99A0895809169008F7C80628093FC
:1011F0006900EA9A0895809169008F7380688093EE
:101200006900EB9A089580916A008F7C80628093D8
:101210006A00EE9A089580919E0281110DC082E0CD
:1012200080939A0284E080939B0210929D02109218
:101230009C0281E080939E028AE992E00895FC017D
:101240008485958597FD0BC09FB7F89482E08093C5
:10125000E9008091F2009FBF90E0019608959FB74A
:10126000F89482E08093E9008091F2009FBF90E0C3
:1012700008953FB7F8948091FE029091FF02A091EB
:101280000003B091010326B5A89B05C02F3F19F0BC
:101290000196A11DB11D3FBFBA2FA92F982F8827F6
:1012A000820F911DA11DB11DBC01CD0142E0660F51
:1012B000771F881F991F4A95D1F708950895CF92F7
:1012C000DF92EF92FF920F931F93CF93DF931F92C2
:1012D000CDB7DEB7182F062FE42E862F880F8E5F2E
:1012E00099830E941A0283E00E941A02F12EC12EF5
:1012F0009981D92E8C2D8F19801798F4F601E7FE6D
:1013000002C0849101C080810E941A02182F80E0DF
:101310000E941A028123FFEFCF1ADF0A8111EACF60
:1013200001C081E00F90DF91CF911F910F91FF904D
:10133000EF90DF90CF900895DF92EF92FF920F939E
:101340001F93CF93DF93D82E8A017B01E40EF51E05
:10135000EB01CE15DF0571F0D7FE03C0FE018491CD
:1013600001C088810E941A0221968111F2CF8FEF6D
:101370009FEF01C0C801DF91CF911F910F91FF90A6
:10138000EF90DF9008950F931F93CF93DF931F92F9
:10139000CDB7DEB782E0898342E450E064EE70E0CE
:1013A00080E80E949C090E940B09DC0112960D91B5
:1013B0001C9113970115110569F0D801ED91FC916D
:1013C0000280F381E02DBE016F5F7F4FC801099558
:1013D00097FF07C089810F90DF91CF911F910F91E7
:1013E0000895F80100851185E5CF362F90E0FC01C6
:1013F000E255FE4F4491FC01E157FE4F2491FC0160
:10140000E059FE4F8491882309F451C04423E1F14F
:1014100050E0FA013197EF30F105B0F5EA5AFF4F8D
:101420000C94C213909180009F7707C09091800028
:101430009F7D03C090918000977F9093800024C08F
:1014400094B59F7702C094B59F7D94BD1DC09091C7
:1014500090009F7707C0909190009F7D03C090916E
:101460009000977F909390000FC09091C0009F775D
:1014700003C09091C0009F7D9093C00005C09091E3
:10148000C200977F9093C200E82FF0E0EE0FFF1F9D
:10149000EE59FE4FA591B4918FB7F894EC913111AC
:1014A00003C020952E2301C02E2B2C938FBF0895AF
:1014B000CF93DF9390E0FC01E157FE4F2491FC01B4
:1014C000E059FE4F8491882361F190E0880F991FC5
:1014D000FC01EC5AFE4FC591D491FC01EE59FE4F30
:1014E000A591B491611109C09FB7F89488812095A6
:1014F00082238883EC912E230BC0623061F49FB766
:10150000F8943881822F809583238883EC912E2B49
:101510002C939FBF06C08FB7F894E8812E2B2883A9
:101520008FBFDF91CF9108958F929F92AF92BF921C
:10153000CF92DF92EF92FF926B017C010E943909FA
:101540004B015C01C114D104E104F104F1F00E94EB
:101550003909DC01CB0188199909AA09BB09883E20
:101560009340A105B10570F321E0C21AD108E1084A
:10157000F10888EE880E83E0981EA11CB11CC114EE
:10158000D104E104F10419F7DDCFFF90EF90DF9073
:10159000CF90BF90AF909F908F9008951F920F9221
:1015A0000FB60F9211242F933F938F939F93AF9376
:1015B000BF938091120290911302A0911402B091F6
:1015C00015023091FD0223E0230F2D3720F4019600
:1015D000A11DB11D05C026E8230F0296A11DB11D56
:1015E0002093FD028093120290931302A0931402A1
:1015F000B09315028091FE029091FF02A09100032A
:10160000B09101030196A11DB11D8093FE0290933C
:10161000FF02A0930003B0930103BF91AF919F918C
:101620008F913F912F910F900FBE0F901F901895A3
:101630001F920F920FB60F9211242F933F934F9347
:101640005F936F937F938F939F93AF93BF93EF932A
:10165000FF93E0911001F09111010995FF91EF9135
:10166000BF91AF919F918F917F916F915F914F91BA
:101670003F912F910F900FBE0F901F9018951F92C2
:101680000F920FB60F9211242F933F934F935F93B6
:101690006F937F938F939F93AF93BF93EF93FF933A
:1016A000E0910E01F0910F010995FF91EF91BF912B
:1016B000AF919F918F917F916F915F914F913F91EA
:1016C0002F910F900FBE0F901F9018951F920F92A1
:1016D0000FB60F9211242F933F934F935F936F9305
:1016E0007F938F939F93AF93BF93EF93FF93E0917B
:1016F0000C01F0910D010995FF91EF91BF91AF9110
:101700009F918F917F916F915F914F913F912F9119
:101710000F900FBE0F901F9018951F920F920FB64B
:101720000F9211242F933F934F935F936F937F9367
:101730008F939F93AF93BF93EF93FF93E0910A0131
:10174000F0910B010995FF91EF91BF91AF919F919E
:101750008F917F916F915F914F913F912F910F905A
:101760000FBE0F901F9018951F920F920FB60F92F9
:1017700011242F933F934F935F936F937F938F9396
:101780009F93AF93BF93EF93FF93E0910801F09184
:1017900009010995FF91EF91BF91AF919F918F91B1
:1017A0007F916F915F914F913F912F910F900FBE5D
:1017B0000F901F9018951F920F920FB60F92112441
:1017C0008F939F938091E1009091E100937F90939C
:1017D000E10083FF0FC01092E90091E09093EB00CD
:1017E0001092EC0092E39093ED001092EF0198E0DC
:1017F0009093F00082FF20C093E09093E9009091D5
:10180000F200992319F09AE39093E8009091EC018B
:10181000992339F09091EC0191509093EC01992328
:1018200089F19091EE01992339F09091EE01915058
:101830009093EE01992341F184FF10C08091E20062
:101840008E7E81608093E2008091E1008F7E8093A4
:10185000E1008091ED018E7E806111C080FF16C095
:101860008091E2008E7E80618093E2008091E100B1
:101870008E7E8093E1008091ED018E7E8160809369
:10188000ED0104C05D9ACDCF289AD6CF9F918F915C
:101890000F900FBE0F901F9018951F920F920FB6CA
:1018A0000F921124CF92DF92EF92FF920F931F932A
:1018B0002F933F934F935F936F937F938F939F9358
:1018C000AF93BF93EF93FF93CF93DF93CDB7DEB783
:1018D0006C97DEBFCDBF1092E9008091E80083FFD6
:1018E000EDC168E0CE0145960E94480282EF8093E8
:1018F000E8008D8987FF05C09091E80090FFFCCF3C
:1019000003C09EEF9093E800982F907609F0C6C030
:101910009E892F89188D91110CC0803829F48091EF
:10192000FC028093F10002C01092F1001092F100CD
:1019300048C1422F50E0512B913051F4811141C1E7
:101940004130510509F03DC18091FC028D7F0BC0F3
:10195000933061F4811135C14130510509F031C135
:101960008091FC0282608093FC022BC1953041F48F
:101970008091E80080FFFCCF20682093E30021C124
:10198000963009F05FC0EB8CFC8C1092E90010924D
:10199000FA021092F902123091F51092F8021092A8
:1019A000F7020E94C30999E0BE016F5F7F4FDB0120
:1019B000E92F1D92EA95E9F799831A8391E09E83B6
:1019C00090EA98879AEF99872091F9023091FA026C
:1019D000275F3F4F3C832B838D831092E900109249
:1019E000FA021092F902F092F802E092F70249E04E
:1019F00050E080E00E949C090E94C309E2C0F0927E
:101A0000F802E092F7020E940B09DC011296ED90B9
:101A1000FC901397E114F10409F4C0C0D701ED91D3
:101A2000FC910480F581E02DBE016B5E7F4FC70104
:101A30000995009719F00CF0C4C0C7C0F701E08405
:101A4000F184E8CF973009F4C0C0983021F481E0E8
:101A50008093F100B6C0993009F0B3C0837009F0EB
:101A6000B4C0E7E4F1E081E021E036E3908199231E
:101A700061F08093E9002093EB0091919093EC004A
:101A80003093ED008F5F873089F78EE78093EA000F
:101A90001092EA008F898093EF0193C08B8D9C8D0B
:101AA0001092E9001092FA021092F9029093F80253
:101AB0008093F702898D811156C08E899D89913A54
:101AC00059F4813209F081C047E050E060E071E0F4
:101AD00080E00E949C0975C0913209F076C0833283
:101AE00089F4888D90E0982F88272F89822BA0E099
:101AF000B0E08093120190931301A0931401B0936E
:101B000015015FC0803269F48091E80082FFFCCF4C
:101B100067E080E091E00E9448028BEF8093E8004C
:101B200006C0823209F04DC08F89809307018091F1
:101B3000FB02882319F0EEEFFAE002C0E0E0F8E0E3
:101B40008091000190910101A0910201B0910301E7
:101B5000803B9440A105B10509F07BC0809107014D
:101B600080FF93C076C00E940B09DC0112960D9194
:101B70001C9113970115110541F1D801ED91FC91CC
:101B80000190F081E02DBE016B5E7F4FC801099589
:101B9000811117C0F80100851185ECCF113009F4CF
:101BA0004EC0133091F48F89882309F445C08230E8
:101BB00081F440E86BE088E491E00E945F098823AB
:101BC00021F08EEF8093E80079C081E28093EB00F2
:101BD00075C0813029F440E86BE08CE391E0EDCFF3
:101BE000833099F70E940B09DC011296ED90FC906E
:101BF00013978E010F5F1F4F6801E114F10479F014
:101C0000D701ED91FC910680F781E02DB801C70165
:101C10000995080F111DF701E084F184EECFD8017A
:101C20001C92F60101900020E9F73197BF016C1971
:101C30007D0940E0C601C1CF66E271E002C06AE200
:101C400071E06115710509F2FB01449150E080E8F3
:101C500040CF0FB6F894A89580916000886180937A
:101C60006000109260000FBEA895EE3F2AE0F207D8
:101C700039F08091FE0A9091FF0A91838083A1CF71
:101C80001092FF0A1092FE0A9CCFEE3F8AE0F807FE
:101C900031F0808191819093FF0A8093FE0A87E75B
:101CA00097E7918380839BE088E10FB6F894A8952D
:101CB000809360000FBE9093600083CF6C960FB648
:101CC000F894DEBF0FBECDBFDF91CF91FF91EF91B2
:101CD000BF91AF919F918F917F916F915F914F9144
:101CE0003F912F911F910F91FF90EF90DF90CF9038
:101CF0000F900FBE0F901F901895789484B5826056
:101D000084BD84B5816084BD85B5826085BD85B59F
:101D1000816085BD80916E00816080936E0010921D
:101D20008100809181008260809381008091810098
:101D30008160809381008091800081608093800029
:101D400080919100826080939100809191008160E8
:101D500080939100809190008160809390008091A9
:101D6000C10084608093C1008091C1008260809333
:101D7000C1008091C10081608093C1008091C30047
:101D800081608093C3008091C00082608093C00016
:101D90008091C20081608093C20080917A0084604B
:101DA00080937A0080917A00826080937A0080919B
:101DB0007A00816080937A0080917A0080688093B5
:101DC0007A001092EF011092FC021092ED018091C6
:101DD000D70081608093D70080EA8093D80089B5CE
:101DE000806189BD89B5826089BD09B400FEFDCFDF
:101DF00061E070E080E090E00E94940A8091D80059
:101E00008F7C80618093D8008091E000807F8093F8
:101E1000E0008091E1008E7E8093E1008DE0809370
:101E2000E200559A209AEEEFFFE7859194918B3F5F
:101E30009C4D19F481E08093FB0262E08CE692E015
:101E40000E9489058CE692E00E940C048FE298EFD4
:101E5000AFEFBFEF80938D0290938E02A0938F021D
:101E6000B093900280918402882331F062E08091E7
:101E700093020E94580A27C01092F1011092F001BB
:101E800010923E0210925F0210923C0281E0809319
:101E90003B021092160261E082E00E94F50961E0C7
:101EA00083E00E94F5098091B9008E7F8093B9008C
:101EB0008091B9008D7F8093B90088E48093B80049
:101EC00085E48093BC0061E08CE00E94580AC0E089
:101ED000D0E00EE519E060E08CE00E94F50962E0D8
:101EE00080E00E94580A80E00E94CC0862E370E023
:101EF00080E090E00E94940A8091EB01882349F0F1
:101F00008091E9019091EA0101969093EA01809312
:101F1000E901E090E901F090EA01E114F10409F42B
:101F20004AC161E08CE00E94F50968EC70E080E055
:101F300090E00E94940A81E0E816F10411F1E2E0D9
:101F4000EE16F10409F026C1EAECF0E084919091DC
:101F50007B0083FB222420F8312C910145E0220FE5
:101F6000331F4A95E1F79F7D292B20937B008770D3
:101F7000806480937C0080917A00806480937A00F2
:101F8000E2C0809184028823A9F00E942407892B53
:101F900039F0C12CD12C50ECE52E5FE7F52E34C082
:101FA0006091870270E080E090E00E947C126B01FB
:101FB0007C012AC00E942407892B59F7B09088021F
:101FC0006091870270E080E090E00E947E126B01D9
:101FD0007C016B2D6F7770E080E090E00E947C12B6
:101FE00020E030E040E251E40E94D4119B01AC01BA
:101FF000C701B6010E9468116B017C01B7FE04C0E5
:10200000F7FAF094F7F8F09480918402882369F04D
:102010000E942407892B09F0FBC06091850270E0C3
:1020200080E090E00E947C1221C00E942407892B4E
:1020300009F0EEC06091850270E080E090E00E94BF
:102040007E124B015C016091860270E080E090E0BE
:102050000E947C1220E030E040E251E40E94D41162
:102060009B01AC01C501B4010E9468114B015C01E8
:102070009B01AC010E9477138111CAC0A701960190
:10208000C701B6010E9477138111C2C08CE692E0AD
:102090000E940C0480E00E9427068DE491E00E94DB
:1020A0003A06C701B6010E9446122B013C01CB0142
:1020B0000E944C0684E591E00E943A06B201550C5C
:1020C000880B990B0E947E129B01AC01C701B601DF
:1020D0000E94671120E030E040E251E40E940A13C0
:1020E0000E944612CB010E944C0681E00E94270606
:1020F00086E591E00E943A06C501B4010E944612AD
:102100006B017C01CB010E944C0684E591E00E94AA
:102110003A06B601DD0C880B990B0E947E129B01DA
:10212000AC01C501B4010E94671120E030E040E23B
:1021300051E40E940A130E944612CB010E944C06F1
:102140000E94C70638C080917A0086FDFCCF80913E
:1021500078002091790090E0922B9093E801809391
:10216000E7018CE692E00E940C0480E00E942706C2
:1021700082E691E00E943A0681E00E942706809163
:10218000E7019091E8010E944C061092EA0110923A
:10219000E90111C08CE692E00E940C0480E00E94EC
:1021A000270685E791E00E943A0660ED77E080E03F
:1021B00090E00E94940A60ED77E080E090E00E9459
:1021C000940A8CE692E00E940C0460E08CE00E948D
:1021D000F50983B7817F846083BF83B7816083BF44
:1021E00080E00E94CC0883B7816083BF889583B765
:1021F0008E7F83BF83B78E7F83BFE89810930901DA
:1022000000930801209709F466CE0E94000063CE77
:102210008CE692E00E940C048EE791E00E943A0660
:102220008FCFE7EAF2E01382128288EE93E0A0E01B
:10223000B0E084839583A683B7832AE131E03183BC
:1022400020832FEF3FEF35872487E0E6F2E013820B
:10225000128284839583A683B7838CE291E0918375
:102260008083E4E8F2E010828CE5868382E0878355
:1022700083E08087118612861386148629E030E079
:10228000368725878787108A118A128A138A148ACB
:10229000158AECE6F2E0138212822EE331E03183FC
:1022A000208399E094839FEF95839AE096838783B8
:1022B00084E0808785E0818786E0828713861486A4
:1022C00015861686178661E0CF010C948905505853
:1022D000BB27AA270E947F110C94D0120E94C21221
:1022E00038F00E94C91220F039F49F3F19F426F407
:1022F0000C94BF120EF4E095E7FB0C94B912E92F91
:102300000E94E11258F3BA17620773078407950712
:1023100020F079F4A6F50C9403130EF4E0950B2E3F
:10232000BA2FA02D0B01B90190010C01CA01A00127
:102330001124FF27591B99F0593F50F4503E68F182
:102340001A16F040A22F232F342F4427585FF3CFC3
:10235000469537952795A795F0405395C9F77EF494
:102360001F16BA0B620B730B840BBAF09150A1F0DD
:10237000FF0FBB1F661F771F881FC2F70EC0BA0F63
:10238000621F731F841F48F4879577956795B795EB
:10239000F7959E3F08F0B0CF9395880F08F09927E6
:1023A000EE0F9795879508950E94E8110C94D0122E
:1023B0000E94C91258F00E94C21240F029F45F3FF7
:1023C00029F00C94B91251110C9404130C94BF12FF
:1023D0000E94E11268F39923B1F3552391F3951B01
:1023E000550BBB27AA2762177307840738F09F5F36
:1023F0005F4F220F331F441FAA1FA9F335D00E2EA3
:102400003AF0E0E832D091505040E695001CCAF70F
:102410002BD0FE2F29D0660F771F881FBB1F2617D2
:1024200037074807AB07B0E809F0BB0B802DBF01A9
:10243000FF2793585F4F3AF09E3F510578F00C9478
:10244000B9120C9404135F3FE4F3983ED4F38695DD
:1024500077956795B795F7959F5FC9F7880F911D99
:102460009695879597F90895E1E0660F771F881F85
:10247000BB1F621773078407BA0720F0621B730B38
:10248000840BBA0BEE1F88F7E09508950E944D1259
:102490006894B1110C94041308950E94E91288F015
:1024A0009F5798F0B92F9927B751B0F0E1F0660F18
:1024B000771F881F991F1AF0BA95C9F714C0B13059
:1024C00091F00E940313B1E008950C940313672F59
:1024D000782F8827B85F39F0B93FCCF38695779588
:1024E0006795B395D9F73EF4909580957095619571
:1024F0007F4F8F4F9F4F0895E89409C097FB3EF49C
:1025000090958095709561957F4F8F4F9F4F992340
:10251000A9F0F92F96E9BB279395F69587957795BE
:102520006795B795F111F8CFFAF4BB0F11F460FF7E
:102530001BC06F5F7F4F8F4F9F4F16C0882311F0D6
:1025400096E911C0772321F09EE8872F762F05C0EA
:10255000662371F096E8862F70E060E02AF09A9585
:10256000660F771F881FDAF7880F9695879597F97A
:10257000089597F99F6780E870E060E008959FEF05
:1025800080EC089500240A9416161706180609060A
:10259000089500240A9412161306140605060895D9
:1025A000092E0394000C11F4882352F0BB0F40F461
:1025B000BF2B11F460FF04C06F5F7F4F8F4F9F4FA1
:1025C000089557FD9058440F551F59F05F3F71F023
:1025D0004795880F97FB991F61F09F3F79F087958A
:1025E0000895121613061406551FF2CF4695F1DF13
:1025F00008C0161617061806991FF1CF86957105A3
:10260000610508940895E894BB2766277727CB01D6
:1026100097F908950E941D130C94D0120E94C212C3
:1026200038F00E94C91220F0952311F00C94B912D1
:102630000C94BF1211240C9404130E94E11270F345
:10264000959FC1F3950F50E0551F629FF001729F57
:10265000BB27F00DB11D639FAA27F00DB11DAA1F66
:10266000649F6627B00DA11D661F829F2227B00DB3
:10267000A11D621F739FB00DA11D621F839FA00D3E
:10268000611D221F749F3327A00D611D231F849F8E
:10269000600D211D822F762F6A2F11249F575040E5
:1026A0009AF0F1F088234AF0EE0FFF1FBB1F661F60
:1026B000771F881F91505040A9F79E3F510580F029
:1026C0000C94B9120C9404135F3FE4F3983ED4F3D6
:1026D000869577956795B795F795E7959F5FC1F7CD
:1026E000FE2B880F911D9695879597F908950E9466
:1026F0007C13880B990B0895990F0008550FAA0BAE
:10270000E0E8FEEF16161706E807F907C0F0121604
:102710001306E407F50798F0621B730B840B950B07
:1027200039F40A2661F0232B242B252B21F408955C
:102730000A2609F4A140A6958FEF811D811D0895F9
:10274000A1E21A2EAA1BBB1BFD010DC0AA1FBB1FB5
:10275000EE1FFF1FA217B307E407F50720F0A21B27
:10276000B30BE40BF50B661F771F881F991F1A9494
:1027700069F760957095809590959B01AC01BD01BE
:10278000CF010895EE0FFF1F0590F491E02D0994FD
:0E27900081E090E0F8940C94CD13F894FFCF04
:10279E0000E10000000000005E095E095E095E09AE
:1027AE005E09FFFFFFFF000000009D040405BE044C
:1027BE00B3041F09C204E00400000000CF019F0112
:1027CE00FF017301970183017401000000000304EF
:1027DE001201FF01FE0100C1808100000074656DD1
:1027EE00703A20002E0068756D6964697465203A30
:1027FE00200068756D696469746520647520736F57
:10280E006C203A200070726F626C656D65004661D7
:10281E00696C656420746F20726561642066726FE6
:10282E006D2044485431322073656E736F722100EF
:00000001FF
