:100000000C9462000C94B1060C948A060C948A003D
:100010000C948A000C948A000C948A000C948A0038
:100020000C948A000C948A000C948A000C948A0028
:100030000C948A000C948A000C948A000C948A0018
:100040000C9440060C948A000C94FE060C94D8067E
:100050000C948A000C948A000C948A000C948A00F8
:100060000C9430070C948A00000000002400270044
:100070002A0000000000250028002B0004040404CE
:100080000404040402020202020203030303030342
:10009000010204081020408001020408102001021F
:1000A00004081020000000080002010000030407FB
:1000B00000000000000000000000000023002600F7
:1000C0002900EB0C11241FBECFEFD8E0DEBFCDBF5F
:1000D00011E0A0E0B1E0E2EEFFE102C005900D9278
:1000E000AC38B107D9F723E0ACE8B1E001C01D920C
:1000F000A132B207E1F710E0C2E6D0E004C02197D8
:10010000FE010E94E40FC136D107C9F70E94C10B5E
:100110000C94EF0F0C9400008E3008F08E50877016
:10012000806480937C0080917A00806480937A0060
:1001300080917A0086FDFCCF809178002091790033
:1001400090E0922B08953FB7F8948091EC01909144
:10015000ED01A091EE01B091EF0126B5A89B05C07D
:100160002F3F19F00196A11DB11D3FBFBA2FA92F36
:10017000982F8827820F911DA11DB11DBC01CD01B3
:1001800042E0660F771F881F991F4A95D1F708959F
:100190000895CF92DF92EF92FF920F931F93CF9328
:1001A000DF936C017A018B01C0E0D0E0CE15DF0552
:1001B00089F0D8016D918D01D601ED91FC910190EE
:1001C000F081E02DC6010995892B11F47E0102C052
:1001D0002196ECCFC701DF91CF911F910F91FF9036
:1001E000EF90DF90CF900895FC01538D448D252F23
:1001F00030E0842F90E0821B930B541710F0CF96C1
:10020000089501970895FC01918D828D981761F0F2
:10021000828DDF01A80FB11D5D968C91928D9F5F3D
:100220009F73928F90E008958FEF9FEF0895FC01E8
:10023000918D828D981731F0828DE80FF11D858D9B
:1002400090E008958FEF9FEF0895FC01918D228D2E
:10025000892F90E0805C9F4F821B91098F739927B3
:10026000089582E692E00E94250121E0892B09F49D
:1002700020E0822F0895FC01848DDF01A80FB11DBD
:10028000A35ABF4F2C91848D90E001968F739927CC
:10029000848FA689B7892C93A089B1898C918064B9
:1002A0008C93938D848D981306C00288F389E02D7A
:1002B00080818F7D80830895EF92FF920F931F932B
:1002C000CF93DF93EC0181E0888F9B8D8C8D981309
:1002D00005C0E889F989808185FD24C0F62E0B8D43
:1002E00010E00F5F1F4F0F731127E02E8C8DE81267
:1002F0000CC00FB607FCFACFE889F989808185FF29
:10030000F5CFCE010E943B01F1CF8B8DFE01E80FAE
:10031000F11DE35AFF4FF0820B8FEA89FB89808140
:10032000806207C0EE89FF896083E889F98980814E
:100330008064808381E090E0DF91CF911F910F91E5
:10034000FF90EF900895CF93DF93EC01888D882381
:10035000C9F0EA89FB89808185FD05C0A889B98932
:100360008C9186FD0FC00FB607FCF5CF808185FF0D
:10037000F2CFA889B9898C9185FFEDCFCE010E947B
:100380003B01E7CFDF91CF91089580E090E0892B8A
:1003900029F00E94310181110C940000089585ED2F
:1003A0008093BC008091BC0084FDFCCF1092610260
:1003B00008954091C401262F30E0240F311D2132D1
:1003C0003105DCF4209161022430C9F4FC0180E0A5
:1003D00090E0861758F43091C4012191DC01AE55AC
:1003E000BE4FA30FB11D2C930196F3CF8091C40192
:1003F000680F6093C40180E0089581E0089582E071
:1004000008950895E091F2018091F101E81730F428
:10041000F0E0E55EFD4F808190E008958FEF9FEF63
:1004200008959091F2018091F101981750F4E92F0D
:10043000F0E0E55EFD4F208130E09F5F9093F20198
:1004400002C02FEF3FEFC90108958091F10190E0C4
:100450002091F201821B91090895CF92DF92EF92D1
:10046000FF920F931F93CF93DF937C01262F972F3B
:100470008A018091F701882391F0C62FD72F6E0152
:10048000C40ED51ECC15DD0571F06991D701ED9133
:10049000FC910190F081E02DC7010995F3CF642F05
:1004A000822F0E94D901C801DF91CF911F910F9136
:1004B000FF90EF90DF90CF900895CF93DF931F923E
:1004C000CDB7DEB769832091F7012223D1F02091C7
:1004D0001A02203240F021E030E0FC013383228315
:1004E00080E090E015C08091F801E82FF0E0E7503F
:1004F000FE4F998190838F5F8093F80180931A0259
:1005000005C061E0CE0101960E94D90181E090E032
:100510000F90DF91CF910895089580E090E00895C5
:10052000982F92959F702AEF929F800D1124089525
:100530000E94EA0F1F93CF93DF93EC0181E0809339
:10054000F70188E6809319021092F80110921A02BE
:1005500060E08FEF92E00E945D0281E00E947709E7
:10056000182F882319F08093A1013BC067E088E62B
:100570000E9433091092F2018093F1018FEF92E013
:100580000E9411028F770E94900288838FEF92E081
:100590000E9411020E94900289838FEF92E00E94D4
:1005A00011028F7B0E9490028A838FEF92E00E945B
:1005B00011028B838FEF92E00E9411020E94900241
:1005C0008C838FEF92E00E9411028F770E9490023D
:1005D0008D838FEF92E00E9411020E949002825E52
:1005E0008E83812FDF91CF911F91089584E391E055
:1005F0000E9431096091E9017091EA01072E000C17
:10060000880B990B0C94FF08CF92DF92EF92FF9228
:1006100088E491E00E94310960919D0170919E01F2
:1006200080919F019091A0010E941E0E072E000C48
:10063000880B990B0E94FF0880E591E00E94310928
:10064000C0909D01D0909E01E0909F01F090A0018C
:10065000C701B6010E941E0E072E000C880B990BD5
:100660000E94560E9B01AC01C701B6010E943F0DCE
:1006700020E030E040E251E40E94E20E0E941E0EB3
:10068000072E000C880B990B0E94FF0882E591E071
:100690000E9431096091990170919A0180919B01AA
:1006A00090919C010E941E0E072E000C880B990B46
:1006B0000E94FF0880E591E00E943109C0909901F5
:1006C000D0909A01E0909B01F0909C01C701B60187
:1006D0000E941E0E072E000C880B990B0E94560ECE
:1006E0009B01AC01C701B6010E943F0D20E030E044
:1006F00040E251E40E94E20E0E941E0E072E000C02
:10070000880B990B0E94FF088FE591E0FF90EF9016
:10071000DF90CF900C94AC0890E0FC01EC55FF4FBB
:100720003491FC01E057FF4F2491FC01E458FF4F46
:10073000E491EE2309F43BC0332339F1333091F0D7
:1007400038F43130A9F0323001F584B58F7D12C014
:10075000373091F03830A1F03430B9F48091800016
:100760008F7D03C0809180008F77809380000DC0C3
:1007700084B58F7784BD09C08091B0008F7703C0A6
:100780008091B0008F7D8093B000F0E0EE0FFF1FEE
:10079000EE58FF4FA591B4918FB7F894EC91611189
:1007A00003C020952E2301C02E2B2C938FBF0895BC
:1007B000CF93DF9390E0FC01E057FF4F2491FC01C1
:1007C000E458FF4F8491882361F190E0880F991FCE
:1007D000FC01E859FF4FC591D491FC01EE58FF4F41
:1007E000A591B491611109C09FB7F89488812095B3
:1007F00082238883EC912E230BC0623061F49FB773
:10080000F8943881822F809583238883EC912E2B56
:100810002C939FBF06C08FB7F894E8812E2B2883B6
:100820008FBFDF91CF9108958F929F92AF92BF9229
:10083000CF92DF92EF92FF926B017C010E94A300A6
:100840004B015C01C114D104E104F104F1F00E94F8
:10085000A300DC01CB0188199909AA09BB09883ECC
:100860009340A105B10570F321E0C21AD108E10857
:10087000F10888EE880E83E0981EA11CB11CC114FB
:10088000D104E104F10419F7DDCFFF90EF90DF9080
:10089000CF90BF90AF909F908F9008954F925F92AE
:1008A0006F927F92AF92BF92CF92DF92EF92FF92C0
:1008B0000F931F93CF93DF93CDB7DEB727970FB674
:1008C000F894DEBF0FBECDBF809191018111B0C001
:1008D000CE0101960E949A0281119CC01F81A12F16
:1008E000B0E020E833E341EE51E00E94BD0F2B0160
:1008F0003C01E2EBF7E09D0104E610E080E9E82E20
:10090000FF24F394CF01825B974082179307D4F4BE
:10091000CF0183709927892B99F4CF01B8010E94E8
:10092000780F892B31F4CF01B7010E94780F892B02
:1009300039F480E8480E81E5581E81E0681E711C7C
:100940003196E0CF0E8110E02E54384FC90164E695
:1009500070E00E94780F7C01C90160E971E00E949B
:10096000780F6C01E1E0F0E0590183E0A822BB249C
:10097000E017F1072CF5E230F10589F4A114B10478
:1009800071F4E114F10419F4C114D10441F480E8C4
:10099000480E8BE3581E86E2681E711C0FC0DF01F3
:1009A000AD5FBE4FAC91B0E020E831E541E050E0F2
:1009B0000E94BD0F460E571E681E791E3196D8CF75
:1009C0004A812B8130E0A0E1BEE00E94AE0F6B01B6
:1009D0007C01242F30E0ACE3B0E00E94AE0FC60EE5
:1009E000D71EE81EF91E8981C80ED11CE11CF11C1E
:1009F000AD81B0E0119720E831E541E050E00E9480
:100A0000C80FC60ED71EE81EF91E4C0C5D1C6E1CCE
:100A10007F1C03C0412C512C320140928D01509219
:100A20008E0160928F017092900181E0809391011C
:100A3000CE0101960E949A026D8170E080E090E004
:100A40004AE00E94BE0882E691E00E9431096E8170
:100A500070E080E090E04AE00E94BE0882E691E00B
:100A60000E9431096F8170E06E517109072E000CF0
:100A7000880B990B0E94FF0884E691E00E943109DF
:100A80006B8170E080E090E04AE00E94BE0887E65B
:100A900091E00E9431096A8170E080E090E04AE0D4
:100AA0000E94BE0887E691E00E943109698170E0EA
:100AB00080E090E04AE00E94BE088FE591E00E944D
:100AC000AC0868EC70E080E090E00E941404279687
:100AD0000FB6F894DEBF0FBECDBFDF91CF911F914F
:100AE0000F91FF90EF90DF90CF90BF90AF907F90ED
:100AF0006F905F904F9008958F929F92AF92BF92A8
:100B0000CF92DF92EF92FF92CF930E943C0B6EEB5D
:100B100070E080E090E00E94140480910B03882331
:100B2000A9F00E94D409892B39F0C12CD12C80EC7A
:100B3000E82E8FE7F82E35C060910E0370E080E05C
:100B400090E00E94540E6B017C012BC00E94D409DE
:100B5000892B59F7C0910F0360910E0370E080E07C
:100B600090E00E94560E6B017C018C2F8F77682FCE
:100B700070E080E090E00E94540E20E030E040E21F
:100B800051E40E94AC0D9B01AC01C701B6010E946B
:100B9000400D6B017C01C7FF04C0F7FAF094F7F831
:100BA000F094C0929D01D0929E01E0929F01F0923C
:100BB000A00180910B03882389F00E94D409892B1E
:100BC00029F060E070E080EC9FE729C060910C03A1
:100BD00070E080E090E00E94540E21C00E94D40991
:100BE000892B79F760910C0370E080E090E00E941F
:100BF000560E4B015C0180910D03682F70E080E080
:100C000090E00E94540E20E030E040E251E40E9467
:100C1000AC0D9B01AC01C501B4010E94400D609375
:100C2000990170939A0180939B0190939C019B0181
:100C3000AC010E944F0F811108C0A7019601C701A6
:100C4000B6010E944F0F882389F089E691E00E9447
:100C5000AC088FE591E0CF91FF90EF90DF90CF90BF
:100C6000BF90AF909F908F900C94AC08CF91FF9065
:100C7000EF90DF90CF90BF90AF909F908F900895AE
:100C80001F920F920FB60F9211242F933F938F93C1
:100C90009F93AF93BF938091F3019091F401A09142
:100CA000F501B091F6013091EB0123E0230F2D37D0
:100CB00020F40196A11DB11D05C026E8230F029660
:100CC000A11DB11D2093EB018093F3019093F401DA
:100CD000A093F501B093F6018091EC019091ED01A4
:100CE000A091EE01B091EF010196A11DB11D80937D
:100CF000EC019093ED01A093EE01B093EF01BF9151
:100D0000AF919F918F913F912F910F900FBE0F90B8
:100D10001F9018951F920F920FB60F9211242F93C8
:100D20003F934F935F936F937F938F939F93AF9373
:100D3000BF93EF93FF93E0910201F09103010995B6
:100D4000FF91EF91BF91AF919F918F917F916F91A3
:100D50005F914F913F912F910F900FBE0F901F9079
:100D600018951F920F920FB60F9211242F933F9355
:100D70004F935F936F937F938F939F93AF93BF93A3
:100D8000EF93FF93E0910001F09101010995FF912C
:100D9000EF91BF91AF919F918F917F916F915F91F3
:100DA0004F913F912F910F900FBE0F901F9018956C
:100DB0001F920F920FB60F9211242F933F934F93D0
:100DC0005F936F937F938F939F93AF93BF93EF93B3
:100DD000FF9382E692E00E943B01FF91EF91BF9169
:100DE000AF919F918F917F916F915F914F913F91C3
:100DF0002F910F900FBE0F901F9018951F920F927A
:100E00000FB60F9211242F938F939F93EF93FF931D
:100E1000E0917202F09173028081E0917802F0918A
:100E2000790282FD12C0908180917B028F5F8F7367
:100E300020917C02821751F0E0917B02F0E0EE59A4
:100E4000FD4F958F80937B0201C08081FF91EF91D0
:100E50009F918F912F910F900FBE0F901F9018951B
:100E60001F920F920FB60F9211242F933F934F931F
:100E70005F936F937F938F939F93AF93BF93EF9302
:100E8000FF938091B900887F803609F49CC068F593
:100E9000883209F45BC090F4803109F454C038F40E
:100EA000882309F4F6C0883009F44DC0F6C08831B3
:100EB00009F44CC0803209F45DC0EFC0803409F4FD
:100EC00068C048F4803309F455C0883309F0E5C0A0
:100ED00080935F02D8C0803509F44FC0883509F48B
:100EE0005DC0883409F0D9C0D6C0883909F4C7C0BC
:100EF000A8F4883709F467C038F4883609F463C069
:100F0000803709F460C0C9C0883809F4B8C0803996
:100F100009F45FC0803809F0C0C05BC0803B09F4B1
:100F200086C038F4803A09F466C0883A09F47FC074
:100F3000B4C0803C09F4A7C0883C09F4A4C0883B35
:100F400009F48AC0AAC080915C0210C090915E0230
:100F500080915D02981770F5E0915E0281E08E0F3E
:100F600080935E02F0E0E55CFD4F80818093BB00E2
:100F700085EC86C080935F028EC0E0915E0281E0C6
:100F80008E0F80935E028091BB00F0E0E55CFD4F28
:100F9000808390915E0280915D026EC0E0915E025E
:100FA00081E08E0F80935E028091BB00F0E0E55CF3
:100FB000FD4F80838091600281116DC081E080933C
:100FC0005B0284EA61C083E0809361021092E801D1
:100FD000CFCF8091E801803208F051C0E091E80164
:100FE00081E08E0F8093E8018091BB00F0E0E85330
:100FF000FE4F8083BDCF85EC8093BC0010926102D0
:101000008091E801803230F4E091E801F0E0E853AB
:10101000FE4F10826091E80170E0E091C601F0910E
:10102000C70188EC91E009951092E80136C084E090
:10103000809361021092C5011092C401E091C20137
:10104000F091C30109958091C401811105C081E02F
:101050008093C4011092A201E091C50181E08E0F3E
:101060008093C501F0E0EE55FE4F80818093BB0078
:101070009091C5018091C401981708F479CF85E853
:101080008093BC000AC085EC8093BC001092610282
:1010900004C010925F020E94CF01FF91EF91BF91B7
:1010A000AF919F918F917F916F915F914F913F9100
:1010B0002F910F900FBE0F901F9018958F929F92B7
:1010C000AF92BF92CF92DF92EF92FF92CF93DF93D6
:1010D000A0911B03882311F03A2F01C030E08091CA
:1010E0001C0390E0880F991F88549F4FC0901D03E8
:1010F000D0901E03E0901F03F090200340E050E0EA
:10110000BA01FC01C591D49128812A2323130FC071
:101110004A015B012FEF821A920AA20AB20A4C1509
:101120005D056E057F0538F4B501A401EACF342FC3
:10113000252FCB0104C030E020E080E090E0632F59
:10114000722FDF91CF91FF90EF90DF90CF90BF9003
:10115000AF909F908F900895009769F0FC010190E7
:101160000020E9F73197AF01481B590BBC0182E61B
:1011700092E00C94C90080E090E008958F929F92D5
:10118000AF92BF920F931F93CF93DF93CDB7DEB78C
:10119000A1970FB6F894DEBF0FBECDBF19A24230A3
:1011A00008F44AE08E010F5D1F4F842E912CA12C74
:1011B000B12CA50194010E948C0FE62FB901CA0140
:1011C00001501109EA3014F4E05D01C0E95CD80176
:1011D000EC93232B242B252B61F7C8010E94AC082C
:1011E000A1960FB6F894DEBF0FBECDBFDF91CF91B1
:1011F0001F910F91BF90AF909F908F900895CF92C5
:10120000DF92EF92FF92CF93DF9397FF21C06B01A4
:101210007C01E0916202F09163020190F081E02D87
:101220006DE282E692E00995EC0166277727CB0113
:101230006C197D098E099F094AE00E94BE088C0F37
:101240009D1FDF91CF91FF90EF90DF90CF90089599
:101250004AE0DF91CF91FF90EF90DF90CF900C9418
:10126000BE080C94AC08909161029111FCCF91E002
:1012700090936102909360022FEF20935F0210928F
:101280005E02260F20935D0290935C0290915C02B7
:10129000880F892B80935C0280915B02813061F41E
:1012A00010925B0280915C028093BB008091BC0035
:1012B00083FDF8CF85EC01C085EE8093BC00809162
:1012C00061028130E1F380915E02861710F4609133
:1012D0005E02ABE3B2E02BE132E0F9018E2F821B1C
:1012E000861718F48D918193F9CF862F0895382FA2
:1012F00020911A0290911902213208F049C0809180
:1013000061028111FCCF42E04093610230936002A0
:101310003FEF30935F0210925E0220935D02A9EFCF
:10132000B1E04BE352E0FA013E2F341B321718F4C0
:101330003D913193F9CF10925C0220915C02990F9C
:10134000922B90935C0290915B02913061F4109229
:101350005B0290915C029093BB009091BC0093FD66
:10136000F8CF95EC01C095EE9093BC00909161028E
:101370009230E1F390915F029F3F79F080915F029C
:10138000803241F080915F02803331F084E005C00B
:1013900081E003C082E001C083E01092F801109266
:1013A0001A021092F7010895CF92DF92EF92FF9206
:1013B0000F931F93CF93DF93CDB7DEB7C054D140C7
:1013C0000FB6F894DEBF0FBECDBF2FB7F894809153
:1013D000F3019091F401A091F501B091F6012FBFB6
:1013E00040911403509115036091160370911703F7
:1013F0008C019D01041B150B260B370BB901A801AD
:10140000403D57406105710528F480911803909183
:10141000190322C18093140390931503A09316031C
:10142000B093170380910B03882309F4AEC0109288
:10143000100310920F0310920E0310920D031092DE
:101440000C0361E080911A030E948C036AEF70E044
:1014500080E090E00E94140461E080911A030E94F1
:10146000D80360E080911A030E948C0364E170E06D
:1014700080E090E00E941404F89461E080911A03E7
:101480000E948C038BE990E00197F1F762E0809174
:101490001A030E94D80383E290E00197F1F780E0FD
:1014A0000E945E08672B682B692B19F483E090E09B
:1014B000BBC081E00E945E08672B682B692B19F482
:1014C00084E090E0B1C08E010F5F1F4F6E012FEBE3
:1014D000C21A2EEFD20A780180E00E945E08F7015E
:1014E000608371838283938381E00E945E08F701A9
:1014F0006483758386839783F8E0EF0EF11CEC1408
:10150000FD0451F720E030E0F80140815181628113
:101510007381C480D580E680F7804115510561054F
:10152000710529F0C114D104E104F10419F482E039
:1015300090E07AC0F90193E0F595E7959A95E1F787
:10154000E55FFC4F8181880F4C155D056E057F05B9
:1015500008F4816081832F5F3F4F085F1F4F28325F
:10156000310591F690910D0380910C03890F9091B4
:101570000E03890F90910F03890F90911003981714
:1015800009F458C081E090E04FC08091110391E0D0
:101590009093F701809319021092F80110921A02A9
:1015A00060E08FEF92E00E945D0281E00E94770987
:1015B000882319F085E090E044C065E08091110334
:1015C0000E943309F82E1092F2018093F1010CE091
:1015D00013E085E0E82EE00E8FEF92E00E9411020A
:1015E000F80181938F01EE12F7CF61E070E080E0A7
:1015F00090E00E9414048091F201F81619F082E044
:1016000090E01FC090910D0380910C03890F909181
:101610000E03890F90910F03890F90911003981773
:10162000A9F081E090E00DC0909319038093180316
:10163000789412C0109219031092180380E090E081
:10164000F7CF909319038093180306C010921903E3
:101650001092180380E090E0C05CDE4F0FB6F89463
:10166000DEBF0FBECDBFDF91CF911F910F91FF90D5
:10167000EF90DF90CF9008951092F2011092F10157
:101680001092F80110921A021092610281E0809388
:10169000600210925B0261E082E10E948C0361E0D3
:1016A00083E10E948C03E9EBF0E080818E7F8083F0
:1016B00080818D7F808388E48093B80085E4809367
:1016C000BC000895CF93C62F91E09093F70198E660
:1016D000909319021092F80110921A02682F8FEF5E
:1016E00092E00E945D026C2F8FEF92E00E945D02FB
:1016F00081E0CF910C9477090F931F93CF938B01C7
:1017000091E09093F70198E6909319021092F801F6
:1017100010921A02682F8FEF92E00E945D0281E022
:101720000E947709C82F81110EC061E088E60E94EF
:1017300033091092F2018093F1018FEF92E00E9441
:101740001102F80180838C2FCF911F910F91089582
:10175000CF93DF931F92CDB7DEB7BE016F5F7F4F90
:101760008FE00E947C0B698160FF06C06E7F8FE076
:101770000E94620B81E001C080E00F90DF91CF9169
:101780000895CF93DF931F92CDB7DEB7789484B5D9
:10179000826084BD84B5816084BD85B5826085BD6D
:1017A00085B5816085BD80916E00816080936E00FB
:1017B00010928100809181008260809381008091ED
:1017C000810081608093810080918000816080939E
:1017D00080008091B10084608093B1008091B0005E
:1017E00081608093B00080917A00846080937A0059
:1017F00080917A00826080937A0080917A00816083
:1018000080937A0080917A00806880937A001092A9
:10181000C100E0917202F091730282E08083E09156
:101820006E02F0916F021082E0917002F0917102ED
:1018300081E1808310927A02E0917602F091770242
:1018400086E08083E0917402F0917502808180616E
:101850008083E0917402F0917502808188608083BA
:10186000E0917402F0917502808180688083E0913C
:101870007402F091750280818F7D80838FE298EFF2
:10188000AFEFBFEF8093140390931503A09316035B
:10189000B093170380910B03882331F062E08091AD
:1018A0001A030E94D80302C00E943C0BBE016F5F66
:1018B0007F4F8EE00E947C0B69816E7F8EE00E94DC
:1018C000620BBE016F5F7F4F8EE00E947C0B6981CF
:1018D00064608EE00E94620B65E087E00E94620B0C
:1018E00060E888E00E94620B60E889E00E94620B79
:1018F00061E88AE00E94620B0E94A80B0E944E04DD
:1019000004E013E00E947C058EE00E948C0090931E
:10191000EA018093E90164EF71E080E090E00E94C9
:10192000140460E088E00E948C0364EF71E080E0C2
:1019300090E00E9414040E9404030E94F6020E9498
:101940004E0464EF71E080E090E00E9414040E9475
:10195000A80B882329F10E947C058EE00E948C0050
:101960009093EA018093E90164EF71E080E090E0F8
:101970000E94140460E088E00E948C0364EF71E030
:1019800080E090E00E9414040E9404030E94F6028A
:101990000E944E0464EF71E080E090E00E94140425
:1019A00083B7817F846083BF83B7816083BF1093D7
:1019B000010100930001809169008C7F8093690090
:1019C000E89A83B7816083BF889583B78E7F83BF92
:1019D0000E94C50197CFE2E6F2E01382128288EE00
:1019E00093E0A0E0B0E084839583A683B78324E1ED
:1019F00031E03183208325EC30E03587248724ECE7
:101A000030E03787268720EC30E0318B208B21ECCB
:101A100030E0338B228B22EC30E0358B248B26ECAC
:101A200030E0378B268B118E128E138E148EEFEFD3
:101A3000F2E01382128284839583A683B78386E2C1
:101A400091E0918380830E943C0BEBE0F3E01082F5
:101A50008CE5868382E1878383E180871186128605
:101A60001386148689E090E09687858783E08787D0
:101A7000108A118A128A138A148A158A0895505876
:101A8000BB27AA270E94570D0C94A80E0E949A0EFD
:101A900038F00E94A10E20F039F49F3F19F426F48B
:101AA0000C94970E0EF4E095E7FB0C94910EE92F41
:101AB0000E94B90E58F3BA17620773078407950797
:101AC00020F079F4A6F50C94DB0E0EF4E0950B2EC5
:101AD000BA2FA02D0B01B90190010C01CA01A00180
:101AE0001124FF27591B99F0593F50F4503E68F1DB
:101AF0001A16F040A22F232F342F4427585FF3CF1C
:101B0000469537952795A795F0405395C9F77EF4EC
:101B10001F16BA0B620B730B840BBAF09150A1F035
:101B2000FF0FBB1F661F771F881FC2F70EC0BA0FBB
:101B3000621F731F841F48F4879577956795B79543
:101B4000F7959E3F08F0B0CF9395880F08F099273E
:101B5000EE0F9795879508950E94C00D0C94A80EDE
:101B60000E94A10E58F00E949A0E40F029F45F3FA7
:101B700029F00C94910E51110C94DC0E0C94970EDC
:101B80000E94B90E68F39923B1F3552391F3951B85
:101B9000550BBB27AA2762177307840738F09F5F8E
:101BA0005F4F220F331F441FAA1FA9F335D00E2EFB
:101BB0003AF0E0E832D091505040E695001CCAF768
:101BC0002BD0FE2F29D0660F771F881FBB1F26172B
:101BD00037074807AB07B0E809F0BB0B802DBF0102
:101BE000FF2793585F4F3AF09E3F510578F00C94D1
:101BF000910E0C94DC0E5F3FE4F3983ED4F386958F
:101C000077956795B795F7959F5FC9F7880F911DF1
:101C10009695879597F90895E1E0660F771F881FDD
:101C2000BB1F621773078407BA0720F0621B730B90
:101C3000840BBA0BEE1F88F7E09508950E94250EDD
:101C40006894B1110C94DC0E08950E94C10E88F0C6
:101C50009F5798F0B92F9927B751B0F0E1F0660F70
:101C6000771F881F991F1AF0BA95C9F714C0B130B1
:101C700091F00E94DB0EB1E008950C94DB0E672F0B
:101C8000782F8827B85F39F0B93FCCF386957795E0
:101C90006795B395D9F73EF49095809570956195C9
:101CA0007F4F8F4F9F4F0895E89409C097FB3EF4F4
:101CB00090958095709561957F4F8F4F9F4F992399
:101CC000A9F0F92F96E9BB279395F6958795779517
:101CD0006795B795F111F8CFFAF4BB0F11F460FFD7
:101CE0001BC06F5F7F4F8F4F9F4F16C0882311F02F
:101CF00096E911C0772321F09EE8872F762F05C043
:101D0000662371F096E8862F70E060E02AF09A95DD
:101D1000660F771F881FDAF7880F9695879597F9D2
:101D2000089597F99F6780E870E060E008959FEF5D
:101D300080EC089500240A94161617061806090662
:101D4000089500240A941216130614060506089531
:101D5000092E0394000C11F4882352F0BB0F40F4B9
:101D6000BF2B11F460FF04C06F5F7F4F8F4F9F4FF9
:101D7000089557FD9058440F551F59F05F3F71F07B
:101D80004795880F97FB991F61F09F3F79F08795E2
:101D90000895121613061406551FF2CF4695F1DF6B
:101DA00008C0161617061806991FF1CF86957105FB
:101DB000610508940895E894BB2766277727CB012F
:101DC00097F908950E94F50E0C94A80E0E949A0EA1
:101DD00038F00E94A10E20F0952311F00C94910E82
:101DE0000C94970E11240C94DC0E0E94B90E70F323
:101DF000959FC1F3950F50E0551F629FF001729FB0
:101E0000BB27F00DB11D639FAA27F00DB11DAA1FBE
:101E1000649F6627B00DA11D661F829F2227B00D0B
:101E2000A11D621F739FB00DA11D621F839FA00D96
:101E3000611D221F749F3327A00D611D231F849FE6
:101E4000600D211D822F762F6A2F11249F5750403D
:101E50009AF0F1F088234AF0EE0FFF1FBB1F661FB8
:101E6000771F881F91505040A9F79E3F510580F081
:101E70000C94910E0C94DC0E5F3FE4F3983ED4F387
:101E8000869577956795B795F795E7959F5FC1F725
:101E9000FE2B880F911D9695879597F908950E94BE
:101EA000540F880B990B0895990F0008550FAA0B32
:101EB000E0E8FEEF16161706E807F907C0F012165D
:101EC0001306E407F50798F0621B730B840B950B60
:101ED00039F40A2661F0232B242B252B21F40895B5
:101EE0000A2609F4A140A6958FEF811D811D089552
:101EF00097FB072E16F4009407D077FD09D00E94B7
:101F0000D00F07FC05D03EF4909581959F4F089522
:101F1000709561957F4F0895A1E21A2EAA1BBB1BF5
:101F2000FD010DC0AA1FBB1FEE1FFF1FA217B307A5
:101F3000E407F50720F0A21BB30BE40BF50B661FBB
:101F4000771F881F991F1A9469F76095709580957F
:101F500090959B01AC01BD01CF010895A29FB001F6
:101F6000B39FC001A39F700D811D1124911DB29FCD
:101F7000700D811D1124911D08950E94AE0FA59F23
:101F8000900DB49F900DA49F800D911D1124089574
:101F9000B7FF0C94BD0F0E94BD0F821B930B0895D9
:101FA000AA1BBB1B51E107C0AA1FBB1FA617B7077F
:101FB00010F0A61BB70B881F991F5A95A9F780959B
:101FC0009095BC01CD010895EE0FFF1F0590F4918F
:101FD000E02D099481E090E0F8940C94EF0FF894D0
:021FE000FFCF31
:101FE200C800C8001F1C1F1E1F1E1F1F1E1F1E1FF2
:101FF200000000005C01C900F400A30125010301F7
:102002001701000000005D022D028D02010225026F
:10201200110202020968756D69646974652064754C
:1020220020736F6C203A20000974656D703A2000AD
:102032002E000A68756D6964697465203A20000D86
:102042000A002F002009003A004661696C6564208D
:10205200746F20726561642066726F6D204448540B
:0C20620031322073656E736F7221000034
:00000001FF
