:100000000C9438010C94C8020C94A1020C94600169
:100010000C9460010C9460010C9460010C946001DC
:100020000C9460010C9460010C9460010C946001CC
:100030000C9460010C9460010C9460010C946001BC
:100040000C9457020C9460010C9415030C94EF026D
:100050000C9460010C9460010C9460010C9460019C
:100060000C940E0B0C94600150415F4D41580050B0
:10007000415F484947480050415F4C4F570050414D
:100080005F4D494E0031362062697473003820623A
:100090006974730044697361626C6564006E5246F2
:1000A00032344C30312B006E524632344C303100F9
:1000B0003235304B42505300324D42505300314D97
:1000C000425053001112131415160A0B0C0D0E0F8B
:1000D0000001020304055354415455530909203DBE
:1000E000203078253032782052585F44523D2578B0
:1000F0002054585F44533D2578204D41585F525459
:100100003D25782052585F505F4E4F3D2578205452
:10011000585F46554C4C3D25780D0A005041205003
:100120006F77657209203D2025530D0A007E007708
:10013000006F006800435243204C656E6774680985
:10014000203D2025530D0A0094008D0085004D6F41
:1001500064656C0909203D2025530D0A00A7009D08
:100160000044617461205261746509203D2025536B
:100170000D0A00BE00B800B00044594E50442F464E
:1001800045415455524500434F4E46494709005298
:10019000465F53455455500052465F434809004559
:1001A0004E5F52584144445200454E5F4141090060
:1001B00052585F50575F50302D360054585F4144BD
:1001C0004452090052585F414444525F50322D3529
:1001D0000052585F414444525F50302D31006661F7
:1001E000696C6564004E6F772073656E64696E6735
:1001F0000000000000240027002A00000000002565
:100200000028002B00040404040404040402020275
:100210000202020303030303030102040810204047
:1002200080010204081020010204081020000000D0
:1002300008000201000003040700000000000000A5
:10024000000D0A002530327800203078002553094F
:10025000203D000D0A0020307825303278002553EB
:1002600009203D0000000000230026002900F011B5
:1002700011241FBECFEFD8E0DEBFCDBF23E0AEEB31
:10028000B1E001C01D92A537B207E1F711E0A0E08F
:10029000B1E0E6EDFFE202C005900D92AE3BB10782
:1002A000D9F711E0C8E3D1E004C02197FE010E9414
:1002B000DE17C733D107C9F70E94430E0C94E91724
:1002C0000C9400000895CF92DF92EF92FF920F936B
:1002D0001F93CF93DF936C017A018B01C0E0D0E0D4
:1002E000CE15DF0589F0D8016D918D01D601ED9114
:1002F000FC910190F081E02DC6010995892B11F444
:100300007E0102C02196ECCFC701DF91CF911F91F2
:100310000F91FF90EF90DF90CF900895FC01538DE7
:10032000448D252F30E0842F90E0821B930B5417CF
:1003300010F0CF96089501970895FC01918D828D5C
:10034000981761F0828DDF01A80FB11D5D968C9129
:10035000928D9F5F9F73928F90E008958FEF9FEF34
:100360000895FC01918D828D981731F0828DE80FF0
:10037000F11D858D90E008958FEF9FEF089583E440
:1003800092E00E94B00921E0892B09F420E0822F3D
:100390000895EF92FF920F931F93CF93DF93EC0199
:1003A00081E0888F9B8D8C8D981305C0E889F98931
:1003B000808185FD24C0F62E0B8D10E00F5F1F4F4E
:1003C0000F731127E02E8C8DE8120CC00FB607FCBE
:1003D000FACFE889F989808185FFF5CFCE010E94A7
:1003E000ED0AF1CF8B8DFE01E80FF11DE35AFF4FAF
:1003F000F0820B8FEA89FB898081806207C0EE89D9
:10040000FF896083E889F98980818064808381E045
:1004100090E0DF91CF911F910F91FF90EF900895A1
:10042000CF93DF93EC01888D8823C9F0EA89FB899B
:10043000808185FD05C0A889B9898C9186FD0FC092
:100440000FB607FCF5CF808185FFF2CFA889B98967
:100450008C9185FFEDCFCE010E94ED0AE7CFDF91B1
:10046000CF9108953FB7F8948091CE019091CF013C
:10047000A091D001B091D10126B5A89B05C02F3F16
:1004800019F00196A11DB11D3FBFBA2FA92F982FBA
:100490008827820F911DA11DB11DBC01CD0142E035
:1004A000660F771F881F991F4A95D1F708951F92ED
:1004B0000F920FB60F9211242F933F938F939F9318
:1004C000AF93BF938091D4019091D501A091D601B3
:1004D000B091D7013091CD0123E0230F2D3720F4C7
:1004E0000196A11DB11D05C026E8230F0296A11D8E
:1004F000B11D2093CD018093D4019093D501A09399
:10050000D601B093D7018091CE019091CF01A091F7
:10051000D001B091D1010196A11DB11D8093CE01F2
:100520009093CF01A093D001B093D101BF91AF912F
:100530009F918F913F912F910F900FBE0F901F9021
:1005400018951F920F920FB60F9211242F933F937D
:100550004F935F936F937F938F939F93AF93BF93CB
:10056000EF93FF93E0910E01F0910F010995FF9138
:10057000EF91BF91AF919F918F917F916F915F911B
:100580004F913F912F910F900FBE0F901F90189594
:100590001F920F920FB60F9211242F933F934F93F8
:1005A0005F936F937F938F939F93AF93BF93EF93DB
:1005B000FF93E0910C01F0910D010995FF91EF91EE
:1005C000BF91AF919F918F917F916F915F914F916B
:1005D0003F912F910F900FBE0F901F9018951F9273
:1005E0000F920FB60F9211242F933F934F935F9367
:1005F0006F937F938F939F93AF93BF93EF93FF93EB
:1006000083E492E00E94ED0AFF91EF91BF91AF91D8
:100610009F918F917F916F915F914F913F912F911A
:100620000F900FBE0F901F9018951F920F920FB64C
:100630000F9211242F938F939F93EF93FF93E09149
:100640005302F09154028081E0915902F0915A02D4
:1006500082FD12C0908180915C028F5F8F73209128
:100660005D02821751F0E0915C02F0E0ED5BFD4F1E
:10067000958F80935C0201C08081FF91EF919F91E3
:100680008F912F910F900FBE0F901F9018958F9202
:100690009F92AF92BF92CF92DF92EF92FF92CF9351
:1006A000DF93A091FC02882311F03A2F01C030E0C3
:1006B0008091FD0290E0880F991F8C599D4FC0904A
:1006C000FE02D090FF02E0900003F090010340E0B2
:1006D00050E0BA01FC01C591D49128812A2323134B
:1006E0000FC04A015B012FEF821A920AA20AB20AD6
:1006F0004C155D056E057F0538F4B501A401EACF00
:10070000342F252FCB0104C030E020E080E090E0C2
:10071000632F722FDF91CF91FF90EF90DF90CF90FA
:10072000BF90AF909F908F900895009769F0FC0163
:1007300001900020E9F73197AF01481B590BBC012C
:1007400083E492E00C94630180E090E00895CF93FD
:10075000DF930E949503EC018DE491E00E949503E4
:100760008C0F9D1FDF91CF910895909142029111BE
:10077000FCCF91E090934202909341022FEF20939F
:10078000400210923F02260F20933E0290933D02BA
:1007900090913D02880F892B80933D0280913C020D
:1007A000813061F410923C0280913D028093BB0045
:1007B0008091BC0083FDF8CF85EC01C085EE80936D
:1007C000BC00809142028130E1F380913F028617A4
:1007D00010F460913F02ACE1B2E02CEF31E0F9019E
:1007E0008E2F821B861718F48D918193F9CF862F57
:1007F0000895382F2091FB019091FA01213208F0E1
:1008000049C0809142028111FCCF42E040934202F4
:10081000309341023FEF3093400210923F02209309
:100820003E02AAEDB1E04CE152E0FA013E2F341B4A
:10083000321718F43D913193F9CF10923D02209177
:100840003D02990F922B90933D0290913C02913082
:1008500061F410923C0290913D029093BB00909104
:10086000BC0093FDF8CF95EC01C095EE9093BC00D1
:10087000909142029230E1F3909140029F3F79F0D3
:1008800080914002803241F080914002803331F00B
:1008900084E005C081E003C082E001C083E01092E3
:1008A000D9011092FB011092D80108958230910570
:1008B00038F0880F991F880F991F05970197F1F756
:1008C00008958F929F92AF92BF920F931F93CF93F1
:1008D000DF93CDB7DEB7A1970FB6F894DEBF0FBE9A
:1008E000CDBF19A2423008F44AE08E010F5D1F4FC0
:1008F000842E912CA12CB12CA50194010E94861765
:10090000E62FB901CA0101501109EA3014F4E05D83
:1009100001C0E95CD801EC93232B242B252B61F734
:10092000C8010E949503A1960FB6F894DEBF0FBED2
:10093000CDBFDF91CF911F910F91BF90AF909F904E
:100940008F9008950C949503E0914302F091440236
:100950000190F081E02D682F83E492E009944F929A
:100960005F926F927F928F929F92AF92BF92CF923F
:10097000DF92EF92FF926B017C01B42E9B01AC01E0
:100980000E946D17882319F089E891E027C026019D
:100990003701E89477F82FEF3FEF4FE75FE7C301A8
:1009A000B2010E946D1781110DC02FEF3FEF4FE78D
:1009B0005FE7C301B2010E94A31518161CF48DE86D
:1009C00091E00CC02FEF3FEF4FE75FE4C701B601A6
:1009D0000E94FB16181684F481E991E0FF90EF90D5
:1009E000DF90CF90BF90AF909F908F907F906F904F
:1009F0005F904F900C9495032FEF3FEF4FE75FEC24
:100A0000C701B6010E94A31587FDE6CF20E030E0C4
:100A1000A901C701B6010E94A31587FF09C08DE295
:100A20000E94A4044C01F7FAF094F7F8F09402C085
:100A3000812C912CA12C60E070E080E09FE3AB144E
:100A400041F020E030E040E251E40E94A815A39478
:100A5000F6CF9B01AC01C701B6010E9437152B01EF
:100A60003C010E941A166B017C010E9449169B01F1
:100A7000AC01C301B2010E9436152B013C014AE0D2
:100A8000C701B6010E9461047C01E80CF91CBB207F
:100A900029F08EE20E94A404E80EF91EDB2CDD2072
:100AA00021F120E030E040E251E4C301B2010E94B4
:100AB00000172B013C010E941A164B01A12CB12CEE
:100AC0004AE0C501B4010E946104E80EF91EC501A7
:100AD000B4010E9449169B01AC01C301B2010E94FE
:100AE00036152B013C01DA94DACFC701FF90EF9065
:100AF000DF90CF90BF90AF909F908F907F906F903E
:100B00005F904F900895CF92DF92EF92FF92CF9334
:100B1000DF936C01990FEE08FF08F7FE12C08DE21B
:100B20000E94A404EC0166277727CB016C197D098C
:100B30008E099F094AE00E9461047C01EC0EFD1EB3
:100B400006C04AE0C701B6010E9461047C018DE441
:100B500091E00E9495038E0D9F1DDF91CF91FF9034
:100B6000EF90DF90CF9008950F931F93CF93DF9373
:100B70008C01C0E0D0E0F801EC0FFD1F649166230A
:100B800071F0E0914302F09144020190F081E02D78
:100B900083E492E00995892B11F02196ECCF8DE446
:100BA00091E00E9495038C0F9D1FDF91CF911F91C3
:100BB0000F91089590E0FC01E35DFD4F3491FC013D
:100BC000E75EFD4F2491FC01EB5FFD4FE491EE23C6
:100BD00009F43BC0332339F1333091F038F431302C
:100BE000A9F0323001F584B58F7D12C0373091F015
:100BF0003830A1F03430B9F4809180008F7D03C08B
:100C0000809180008F77809380000DC084B58F77AE
:100C100084BD09C08091B0008F7703C08091B0007F
:100C20008F7D8093B000F0E0EE0FFF1FE550FE4F88
:100C3000A591B4918FB7F894EC91611103C0209500
:100C40002E2301C02E2B2C938FBF08951092D30119
:100C50001092D2011092D9011092FB01109242021F
:100C600081E08093410210923C0261E082E10E94A7
:100C7000DA0561E083E10E94DA05E9EBF0E08081CA
:100C80008E7F808380818D7F808388E48093B8000D
:100C900085E48093BC000895CF93DF939CB59F7D3E
:100CA0009CBD9CB5937F9CBD9CB59C7F9CBD9DB518
:100CB00091609DBDC2E0D3E0682F8A810E94DA0571
:100CC0008C899D89DF91CF910C94560481E00C941E
:100CD0004C0680E00C944C06CF93DF931F92CDB767
:100CE000DEB789830E94690689818F710E943C0C5E
:100CF0008FEF0E943C0C89830E94660689810F90C9
:100D0000DF91CF910895EF92FF920F931F93CF93AE
:100D1000DF931F92CDB7DEB7E42E9F938F938EE5BE
:100D200092E09F938F9369830E945B126981E60E24
:100D30000F900F900F900F9006E512E06E1591F056
:100D4000FF24F394F60E862F0E946C061F928F9359
:100D50001F930F930E945B120F900F900F900F90B4
:100D60006F2DECCF83E592E09F938F930E945B12EF
:100D70000F900F900F90DF91CF911F910F91FF90E7
:100D8000EF9008952F923F924F925F926F927F92D1
:100D90008F929F92AF92BF92CF92DF92EF92FF928B
:100DA0000F931F93CF93DF931F92CDB7DEB7562ECD
:100DB000342E6DB67EB69F938F938DE492E09F9311
:100DC0008F930E945B12350C0F900F900F900F9035
:100DD00089E4C82E82E0D82E94E4A92E92E0B92EA0
:100DE000531409F44EC08DB69EB690911003092F8E
:100DF00010E02DB73EB7201B310B0FB6F8943EBF65
:100E00000FBE2DBFEDB7FEB731967F01222423948C
:100E1000250C99830E946906852D8F710E943C0CD8
:100E2000270199819E0D941549F08FEF99830E94B7
:100E30003C0CF20181932F019981F5CF0E94660647
:100E4000DF92CF920E945B120E0D1F1D0F900F902C
:100E5000015011090E151F0568F0F80180811F92DD
:100E60008F93BF92AF920E945B120F900F900F90E2
:100E70000F90EECF0FB6F8949EBE0FBE8DBE522CD3
:100E8000AFCF81E492E09F938F930E945B120F900B
:100E90000F900FB6F8947EBE0FBE6DBE0F90DF911F
:100EA000CF911F910F91FF90EF90DF90CF90BF9067
:100EB000AF909F908F907F906F905F904F903F90FA
:100EC0002F900895CF93DF931F92CDB7DEB789831C
:100ED0000E94690689810E943C0C89830E946606F3
:100EE00089810F90DF91CF9108951F93CF93DF9366
:100EF00000D0CDB7DEB76A8389830E9469068981F5
:100F00008F7180620E943C0C182F6A81862F0E948C
:100F10003C0C0E946606812F0F900F90DF91CF91BD
:100F20001F910895EF92FF920F931F93CF93DF933A
:100F300000D01F92CDB7DEB7162F4A837B838983FB
:100F40000E94690689818F7180620E943C0C082F83
:100F5000E12E7B81F72E4A81140F1E1531F0F70127
:100F600081917F010E943C0CF8CF0E946606802F81
:100F70000F900F900F90DF91CF911F910F91FF90E5
:100F8000EF900895209102033091030340910403F0
:100F9000509105032417350721F0682F822F0C94F8
:100FA000DA050895CF93DF9390E0FC01E75EFD4FF3
:100FB0002491FC01EB5FFD4F8491882361F190E067
:100FC000880F991FFC01EF50FE4FC591D491FC0191
:100FD000E550FE4FA591B491611109C09FB7F894F7
:100FE0008881209582238883EC912E230BC0623068
:100FF00061F49FB7F8943881822F8095832388838A
:10100000EC912E2B2C939FBF06C08FB7F894E881EC
:101010002E2B28838FBFDF91CF9108958F929F92BF
:10102000AF92BF92CF92DF92EF92FF926B017C0161
:101030000E9432024B015C01C114D104E104F104AD
:10104000F1F00E943202DC01CB0188199909AA094A
:10105000BB09883E9340A105B10570F321E0C21A97
:10106000D108E108F10888EE880E83E0981EA11CE3
:10107000B11CC114D104E104F10419F7DDCFFF90D4
:10108000EF90DF90CF90BF90AF909F908F9008959A
:10109000CF92DF92EF92FF920F931F93CF93DF9344
:1010A000CDB7DEB7C054D1400FB6F894DEBF0FBE47
:1010B000CDBF2FB7F8948091D4019091D501A09124
:1010C000D601B091D7012FBF4091F5025091F602A1
:1010D0006091F7027091F8028C019D01041B150BC1
:1010E000260B370BB901A801403D5740610571053A
:1010F00028F48091F9029091FA0222C18093F502BE
:101100009093F602A093F702B093F8028091EC025C
:10111000882309F4AEC01092F1021092F0021092EE
:10112000EF021092EE021092ED0261E08091FB025C
:101130000E94DA056AEF70E080E090E00E940E08FD
:1011400061E08091FB020E94D20760E08091FB0287
:101150000E94DA0564E170E080E090E00E940E08F1
:10116000F89461E08091FB020E94DA058BE990E03F
:101170000197F1F762E08091FB020E94D20783E2BF
:1011800090E00197F1F780E00E944703672B682BFE
:10119000692B19F483E090E0BBC081E00E94470313
:1011A000672B682B692B19F484E090E0B1C08E01A5
:1011B0000F5F1F4F6E012FEBC21A2EEFD20A78017C
:1011C00080E00E944703F7016083718382839383E9
:1011D00081E00E944703F7016483758386839783C8
:1011E000F8E0EF0EF11CEC14FD0451F720E030E0C4
:1011F000F8014081518162817381C480D580E6808D
:10120000F780411551056105710529F0C114D1041C
:10121000E104F10419F482E090E07AC0F90193E06E
:10122000F595E7959A95E1F7E451FD4F8181880F97
:101230004C155D056E057F0508F4816081832F5F85
:101240003F4F085F1F4F2832310591F69091EE0213
:101250008091ED02890F9091EF02890F9091F00239
:10126000890F9091F102981709F458C081E090E03D
:101270004FC08091F20291E09093D8018093FA01DF
:101280001092D9011092FB0160E080EE92E00E9482
:10129000540A81E00E94F903882319F085E090E068
:1012A00044C065E08091F2020E94B503F82E1092CE
:1012B000D3018093D2010DEE12E085E0E82EE00E1E
:1012C00080EE92E00E94080AF80181938F01EE12ED
:1012D000F7CF61E070E080E090E00E940E0880911E
:1012E000D301F81619F082E090E01FC09091EE0251
:1012F0008091ED02890F9091EF02890F9091F00299
:10130000890F9091F1029817A9F081E090E00DC04B
:101310009093FA028093F902789412C01092FA0224
:101320001092F90280E090E0F7CF9093FA02809358
:10133000F90206C01092FA021092F90280E090E0E1
:10134000C05CDE4F0FB6F894DEBF0FBECDBFDF919D
:10135000CF911F910F91FF90EF90DF90CF90089564
:10136000FC01918D228D892F90E0805C9F4F821B24
:1013700091098F739927089580E090E0892B29F0D7
:101380000E94BF0181110C940000089585ED8093A7
:10139000BC008091BC0084FDFCCF109242020895F5
:1013A00040914A03262F30E0240F311D21323105B0
:1013B000DCF4209142022430C9F4FC0180E090E08A
:1013C000861758F430914A032191DC01A85DBC4F87
:1013D000A30FB11D2C930196F3CF80914A03680FA0
:1013E00060934A0380E0089581E0089582E00895C3
:1013F0000895E091D3018091D201E81730F4F0E034
:10140000E450FE4F808190E008958FEF9FEF0895A4
:101410009091D3018091D201981750F4E92FF0E018
:10142000E450FE4F208130E09F5F9093D30102C0D3
:101430002FEF3FEFC90108958091D20190E02091F4
:10144000D301821B91090895CF92DF92EF92FF9210
:101450000F931F93CF93DF937C01262F972F8A0141
:101460008091D801882391F0C62FD72F6E01C40E2A
:10147000D51ECC15DD0571F06991D701ED91FC9178
:101480000190F081E02DC7010995F3CF642F822FE1
:101490000E94D009C801DF91CF911F910F91FF9059
:1014A000EF90DF90CF900895CF93DF931F92CDB749
:1014B000DEB769832091D8012223D1F02091FB016E
:1014C000203240F021E030E0FC013383228380E0D1
:1014D00090E015C08091D901E82FF0E0E652FE4F70
:1014E000998190838F5F8093D9018093FB0105C020
:1014F00061E0CE0101960E94D00981E090E00F905A
:10150000DF91CF910895089580E090E00895982F9D
:1015100092959F702AEF929F800D112408950E944A
:10152000E4171F93CF93DF93EC0181E08093D80100
:1015300088E68093FA011092D9011092FB0160E0D5
:1015400080EE92E00E94540A81E00E94F903182F75
:10155000882319F0809327033BC067E088E60E9448
:10156000B5031092D3018093D20180EE92E00E94E5
:10157000080A8F770E94870A888380EE92E00E9493
:10158000080A0E94870A898380EE92E00E94080A76
:101590008F7B0E94870A8A8380EE92E00E94080A6D
:1015A0008B8380EE92E00E94080A0E94870A8C8357
:1015B00080EE92E00E94080A8F770E94870A8D834E
:1015C00080EE92E00E94080A0E94870A825E8E8363
:1015D000812FDF91CF911F910895FC01848DDF0150
:1015E000A80FB11DA35ABF4F2C91848D90E0019696
:1015F0008F739927848FA689B7892C93A089B18985
:101600008C9180648C93938D848D981306C002888E
:10161000F389E02D80818F7D808308951F920F9242
:101620000FB60F9211242F933F934F935F936F93B5
:101630007F938F939F93AF93BF93EF93FF9380918B
:10164000B900887F803609F49CC068F5883209F4B7
:101650005BC090F4803109F454C038F4882309F455
:10166000F6C0883009F44DC0F6C0883109F44CC08A
:10167000803209F45DC0EFC0803409F468C048F4DA
:10168000803309F455C0883309F0E5C080934002E7
:10169000D8C0803509F44FC0883509F45DC088345E
:1016A00009F0D9C0D6C0883909F4C7C0A8F4883772
:1016B00009F467C038F4883609F463C0803709F448
:1016C00060C0C9C0883809F4B8C0803909F45FC067
:1016D000803809F0C0C05BC0803B09F486C038F494
:1016E000803A09F466C0883A09F47FC0B4C0803CEF
:1016F00009F4A7C0883C09F4A4C0883B09F48AC057
:10170000AAC080913D0210C090913F0280913E029C
:10171000981770F5E0913F0281E08E0F80933F02B1
:10172000F0E0E45EFD4F80818093BB0085EC86C0D5
:10173000809340028EC0E0913F0281E08E0F809343
:101740003F028091BB00F0E0E45EFD4F808390910A
:101750003F0280913E026EC0E0913F0281E08E0F19
:1017600080933F028091BB00F0E0E45EFD4F8083F8
:101770008091410281116DC081E080933C0284EA36
:1017800061C083E08093420210926E03CFCF8091BC
:101790006E03803208F051C0E0916E0381E08E0F3D
:1017A00080936E038091BB00F0E0E25BFC4F80838E
:1017B000BDCF85EC8093BC001092420280916E03F5
:1017C000803230F4E0916E03F0E0E25BFC4F108277
:1017D00060916E0370E0E0914C03F0914D038EE454
:1017E00093E0099510926E0336C084E08093420224
:1017F00010924B0310924A03E0914803F091490381
:10180000099580914A03811105C081E080934A03C4
:1018100010922803E0914B0381E08E0F80934B03DD
:10182000F0E0E85DFC4F80818093BB0090914B031A
:1018300080914A03981708F479CF85E88093BC001B
:101840000AC085EC8093BC001092420204C0109242
:1018500040020E94C609FF91EF91BF91AF919F9105
:101860008F917F916F915F914F913F912F910F9049
:101870000FBE0F901F9018958EBD00000DB407FE8F
:10188000FDCF8EB508954F925F926F927F92AF9287
:10189000BF92CF92DF92EF92FF920F931F93CF935D
:1018A000DF93CDB7DEB727970FB6F894DEBF0FBE34
:1018B000CDBF80911F038111B0C0CE0101960E945F
:1018C000910A81119CC01F81A12FB0E020E833E371
:1018D00041EE51E00E94B7172B013C01E2EBF7E02B
:1018E0009D0104E610E080E9E82EFF24F394CF0187
:1018F000825B974082179307D4F4CF0183709927B6
:10190000892B99F4CF01B8010E947217892B31F409
:10191000CF01B7010E947217892B39F480E8480E75
:1019200081E5581E81E0681E711C3196E0CF0E8162
:1019300010E02E54384FC90164E670E00E9472171F
:101940007C01C90160E971E00E9472176C01E1E05D
:10195000F0E0590183E0A822BB24E017F1072CF541
:10196000E230F10589F4A114B10471F4E114F10439
:1019700019F4C114D10441F480E8480E8BE3581ED9
:1019800086E2681E711C0FC0DF01AD5CBE4FAC91DA
:10199000B0E020E831E541E050E00E94B717460E84
:1019A000571E681E791E3196D8CF4A812B8130E0B0
:1019B000A0E1BEE00E94A8176B017C01242F30E05B
:1019C000ACE3B0E00E94A817C60ED71EE81EF91EB1
:1019D0008981C80ED11CE11CF11CAD81B0E01197CA
:1019E00020E831E541E050E00E94C217C60ED71E44
:1019F000E81EF91E4C0C5D1C6E1C7F1C03C0412CA4
:101A0000512C320140921B0350921C0360921D0323
:101A100070921E0381E080931F03CE0101960E9405
:101A2000910A6D8170E080E090E04AE00E946104DC
:101A300085E991E00E94A2046E8170E080E090E070
:101A40004AE00E94610485E991E00E94A2048F812E
:101A500090E04E976C01092E000CEE08FF0897FFEE
:101A60000CC08DE20E94A40466277727CB016C1975
:101A70007D098E099F094AE003C04AE0C701B6010B
:101A80000E94610487E991E00E94A2046B8170E0EA
:101A900080E090E04AE00E9461048AE991E00E94BF
:101AA000A2046A8170E080E090E04AE00E94610454
:101AB0008AE991E00E94A204698170E080E090E0F0
:101AC0004AE00E9461048DE491E00E94950327960C
:101AD0000FB6F894DEBF0FBECDBFDF91CF911F913F
:101AE0000F91FF90EF90DF90CF90BF90AF907F90DD
:101AF0006F905F904F900895CF92DF92EF92FF9298
:101B0000CF930E9426066EEB70E080E090E00E948A
:101B10000E088091EC02882389F00E944808892BE6
:101B200029F060E070E080EC9FE72DC06091EF024B
:101B300070E080E090E00E94491625C00E944808AD
:101B4000892B79F7C091F0026091EF0270E080E09C
:101B500090E00E944B166B017C018C2F8F77682FD1
:101B600070E080E090E00E94491620E030E040E222
:101B700051E40E94A8159B01AC01C701B6010E9467
:101B80003715C7FD90586093C4017093C5018093C9
:101B9000C6019093C7018091EC02882389F00E94CE
:101BA0004808892B29F060E070E080EC9FE729C0AD
:101BB0006091ED0270E080E090E00E94491621C043
:101BC0000E944808892B79F76091ED0270E080E06F
:101BD00090E00E944B166B017C018091EE02682F11
:101BE00070E080E090E00E94491620E030E040E2A2
:101BF00051E40E94A8159B01AC01C701B6010E94E7
:101C000037156093C8017093C9018093CA019093FE
:101C1000CB019B01AC010E946D1781110EC0609138
:101C2000C4017091C5018091C6019091C7019B01CB
:101C3000AC010E946D17882349F08CE991E0CF91A7
:101C4000FF90EF90DF90CF900C94A703CF91FF907F
:101C5000EF90DF90CF90089580E480937C00809196
:101C60007A00806480937A0080917A0086FDFCCFB0
:101C7000809178002091790090E0922B9093C3019D
:101C80008093C2010895789484B5826084BD84B540
:101C9000816084BD85B5826085BD85B5816085BD67
:101CA00080916E00816080936E001092810080911F
:101CB00081008260809381008091810081608093A7
:101CC0008100809180008160809380008091B100CC
:101CD00084608093B1008091B00081608093B000F7
:101CE00080917A00846080937A0080917A0082608B
:101CF00080937A0080917A00816080937A0080914D
:101D00007A00806880937A001092C10081E080930D
:101D1000BE01E0915302F091540282E08083E09191
:101D20004F02F09150021082E0915102F091520264
:101D300081E1808310925B02E0915702F09158029A
:101D400086E08083E0915502F091560280818061A7
:101D50008083E0915502F0915602808188608083F3
:101D6000E0915502F0915602808180688083E09175
:101D70005502F091560280818F7D808389E991E040
:101D80000E94A70380E491E00E94A7030E94430CF5
:101D90000E942C0E0E947C0D61E088E00E94D20718
:101DA0008FE298EFAFEFBFEF8093F5029093F602CA
:101DB000A093F702B093F8028091EC02882331F0EF
:101DC00062E08091FB020E94D20702C00E942606B8
:101DD0008091020390910303209104033091050345
:101DE0008217930719F061E00E94D20780910403E3
:101DF00090910503209102033091030328173907BE
:101E000019F061E00E94D207CFB7F8948091CC011D
:101E1000811127C0EFE0F2E08491E3E2F2E09491D7
:101E2000E82FF0E0EE0FFF1FEF50FE4FA591B491A9
:101E3000EC91E92321F461E08AE00E94DA0561E097
:101E40008AE00E94D2078CB580618CBD8CB580641D
:101E50008CBD61E08DE00E94D20761E08BE00E94C2
:101E6000D2078091CC018F5F8093CC01CFBF80E0FF
:101E70000E94C20781E00E944C0665E070E080E0AD
:101E800090E00E940E086CE080E00E9475076FE50C
:101E900084E00E94750786E00E946C06877DC82F4B
:101EA000C0628BE990E0A0E0B0E0809312039093D1
:101EB0001303A0931403B09315036C2F86E00E94C4
:101EC000750786E00E946C068C1709F485C286E0CF
:101ED0000E946C0686E00E946C0645E550E060E0DA
:101EE00070E04093120350931303609314037093B4
:101EF0001503682F677D86E00E94750786E00E94C3
:101F00006C060E94690680E50E943C0C83E70E94F3
:101F10003C0C0E94660660E08DE10E94750760E05F
:101F20008CE10E94750710920A0360E787E00E9427
:101F300075076CE485E00E94750782EE0E946207D7
:101F400081EE0E94620780E00E946C0681FD0BC05A
:101F5000682F626080E00E94750765E070E080E0B5
:101F600090E00E940E0880E00E946C06682F6E7F51
:101F700080E00E9475076FE381E00E9475078DE1A4
:101F80000E946C06682F66608DE10E9475078CE1E7
:101F90000E946C06682F63608CE10E94750781E0E7
:101FA00080930A036FE584E00E94750780E28093C6
:101FB00009034091100366E071E08AE00E949207F5
:101FC0004091100366E071E080E10E949207609109
:101FD000090381E10E947507EBECF0E084914091E8
:101FE000100360E071E00E949207E5ECF0E084915C
:101FF000609109030E94750782E00E946C06E1ED82
:10200000F0E0E49161E070E001C0660FEA95EAF764
:10201000682B82E00E94750780E00E94C2078091D1
:102020001203909113030E9456048DE10E946C06E6
:1020300081FF09C080911203909113030E945604FE
:1020400081EE0E94620780E00E946C06682F6E7F1E
:1020500080E00E94750782E00E946C06E0EDF0E0EF
:10206000E49161E070E001C0660FEA95EAF7682B41
:1020700082E00E9475078FEF0E946207282F30E0F0
:10208000982F91701F929F9335952795277033272E
:102090003F932F9384FB992790F91F929F9385FB81
:1020A000992790F91F929F9386FB992790F91F9289
:1020B0009F931F928F9386ED90E09F938F930E9442
:1020C0005B1242E06AE081ED91E00E94C20644E0CA
:1020D0006CE084EC91E00E94830641E060E18BEBD0
:1020E00091E00E94C20646E061E180EB91E00E942F
:1020F000830641E061E089EA91E00E94830641E0C5
:1021000062E08FE991E00E94830641E065E088E9A2
:1021100091E00E94830641E066E08FE891E00E9432
:10212000830641E060E087E891E00E94830642E098
:102130006CE189E791E00E94830686E00E946C06CC
:1021400088722DB73EB7225F3F4F0FB6F8943EBF5F
:102150000FBE2DBF803241F021E090E0883009F0C1
:1021600020E0E22FF92F02C0E2E0F0E0EE0FFF1FC7
:10217000ED58FE4F859194919F938F9381E691E066
:102180009F938F930E945B12E0910803F0E0EE0FA3
:10219000FF1FE35AFE4F859194919F938F938EE496
:1021A00091E09F938F930E945B1280E00E946C06E7
:1021B000C82F81E00E946C06EDB7FEB738960FB6C7
:1021C000F894FEBF0FBEEDBFC3FD02C0882329F007
:1021D000C2FD06C0E1E0F0E005C0E0E0F0E002C0D2
:1021E000E2E0F0E0EE0FFF1FE85BFE4F8591949177
:1021F0009F938F9385E391E09F938F930E945B124F
:1022000086E00E946C068670E82FF0E0E35DFE4FEA
:10221000859194919F938F938CE191E09F938F93FD
:102220000E945B122DB73EB7285F3F4F0FB6F89460
:102230003EBF0FBE2DBF61E088E00E94DA0561E07D
:1022400088E00E94DA0589E991E00E94A7030E94D4
:10225000430C0E942C0E0E947C0D62E370E080E033
:1022600090E00E940E0886E491E00E94A204609132
:10227000C4017091C5018091C6019091C70142E0EF
:102280000E94AF048DE491E00E94950380E591E007
:102290000E94A2046091C8017091C9018091CA0195
:1022A0009091CB0142E00E94AF048DE491E00E9446
:1022B000950384E691E00E94A2048091C20190916E
:1022C000C3010E9483056CE271E080E090E00E940F
:1022D0000E088091C0019091C10101969093C101B7
:1022E0008093C00181E08093BF0185EE91E00E9460
:1022F000B40587E791E00E94A2048091C00190910B
:10230000C1010E948305C0910903DC2FCF3008F082
:10231000DEE080910A03811102C0CD1B01C0C0E044
:102320000E94690680EA0E943C0C0EEB11E0D1503D
:1023300030F0F80181918F010E943C0CF8CFCC2342
:1023400029F080E00E943C0CC150F9CF0E94660643
:1023500081E00E94C2078FB7F894C090D401D0905A
:10236000D501E090D601F090D7018FBF8FEF0E948A
:1023700062078073C1F42FB7F8948091D4019091D3
:10238000D501A091D601B091D7012FBF8C199D091D
:10239000AE09BF0980369105A105B10538F381E08A
:1023A000809311030CC080E00E94C20760E787E0C1
:1023B0000E94750784FF07C081EE0E9462078EEDC0
:1023C00091E00E94B40568E873E180E090E00E942B
:1023D0000E080E94BC092FCF81E08093080377CDBF
:1023E000E3E4F2E01382128288EE93E0A0E0B0E032
:1023F00084839583A683B78324E131E031832083EE
:1024000025EC30E03587248724EC30E037872687B9
:1024100020EC30E0318B208B21EC30E0338B228BB1
:1024200022EC30E0358B248B26EC30E0378B268B8A
:10243000118E128E138E148EE0EEF2E01382128251
:1024400084839583A683B78386E291E0918380831A
:102450000E942606E2E0F3E089E090E09183808329
:102460002AE030E033832283168220E2278310861D
:1024700025E0268745E050E060E070E0448B558B16
:10248000668B778B1186ECEEF2E010822CE52683CA
:1024900022E1278323E12087118612861386148682
:1024A0009687858783E08787108A118A128A138A24
:1024B000148A158A0895A0E0B0E0E1E6F2E10C94F8
:1024C0000D15AE01495F5F4FDA016D917D91AD0150
:1024D0000FE613E0F80182819381DC0113962C91C1
:1024E0001397286013962C930E948112D80112969C
:1024F000ED91FC9113972381277F2383E4E00C94D3
:102500002915ACE0B0E0E7E8F2E10C94FF147C019F
:102510006B018A01FC0117821682838181FFBDC194
:10252000CE0101964C01F7019381F60193FD85914F
:1025300093FF81916F01882309F4ABC1853239F48F
:1025400093FD859193FF81916F01853229F4B70145
:1025500090E00E946914E7CF512C312C20E020320A
:10256000A0F48B3269F030F4803259F0833269F490
:1025700020612CC08D3239F0803339F4216026C0BF
:102580002260246023C0286021C027FD27C030EDD1
:10259000380F3A3078F426FF06C0FAE05F9E300D1F
:1025A0001124532E13C08AE0389E300D1124332E8F
:1025B00020620CC08E3221F426FD6BC1206406C05F
:1025C0008C3611F4206802C0883641F4F60193FD80
:1025D000859193FF81916F018111C1CF982F9F7DCC
:1025E0009554933028F40C5F1F4FFFE3F9830DC01F
:1025F000833631F0833771F0833509F05BC022C038
:10260000F801808189830E5F1F4F44244394512C2D
:10261000540115C03801F2E06F0E711CF801A08062
:10262000B18026FF03C0652D70E002C06FEF7FEF21
:10263000C5012C870E945E142C0183012C852F7705
:10264000222E17C03801F2E06F0E711CF801A08035
:10265000B18026FF03C0652D70E002C06FEF7FEFF1
:10266000C5012C870E9453142C012C852068222E32
:10267000830123FC1BC0832D90E048165906B0F45B
:10268000B70180E290E00E9469143A94F4CFF5011A
:1026900027FC859127FE81915F01B70190E00E94A0
:1026A000691431103A94F1E04F1A51084114510461
:1026B00071F7E5C0843611F0893639F5F80127FF46
:1026C00007C060817181828193810C5F1F4F08C0B8
:1026D00060817181072E000C880B990B0E5F1F4FD4
:1026E0002F76722E97FF09C0909580957095619511
:1026F0007F4F8F4F9F4F2068722E2AE030E0A40159
:102700000E94A114A82EA81844C0853729F42F7E52
:10271000B22E2AE030E025C0F22FF97FBF2E8F368F
:10272000C1F018F4883579F0B4C0803719F08837D3
:1027300021F0AFC02F2F2061B22EB4FE0DC08B2D23
:102740008460B82E09C024FF0AC09F2F9660B92E5E
:1027500006C028E030E005C020E130E002C020E102
:1027600032E0F801B7FE07C06081718182819381F8
:102770000C5F1F4F06C06081718180E090E00E5FAA
:102780001F4FA4010E94A114A82EA818FB2DFF77AB
:102790007F2E76FE0BC0372D3E7FA51450F474FEBD
:1027A0000AC072FC08C0372D3E7E05C0BA2C372DFA
:1027B00003C0BA2C01C0B52C34FF0DC0FE01EA0DD8
:1027C000F11D8081803311F4397E09C032FF06C0CB
:1027D000B394B39404C0832F867809F0B39433FD87
:1027E00013C030FF06C05A2CB31418F4530C5B18F6
:1027F000B32CB31468F4B70180E290E03C870E94E8
:102800006914B3943C85F5CFB31410F43B1801C0A0
:10281000312C34FF12C0B70180E390E03C870E9466
:1028200069143C8532FF17C031FD03C088E790E092
:1028300002C088E590E0B7010CC0832F867859F07C
:1028400031FF02C08BE201C080E237FD8DE2B701AB
:1028500090E00E946914A51438F4B70180E390E079
:102860000E9469145A94F7CFAA94F401EA0DF11D5D
:102870008081B70190E00E946914A110F5CF332048
:1028800009F451CEB70180E290E00E9469143A94B5
:10289000F6CFF7018681978102C08FEF9FEF2C96CC
:1028A000E2E10C941B15FC01059061507040011091
:1028B000D8F7809590958E0F9F1F0895FC01615069
:1028C000704001900110D8F7809590958E0F9F1F52
:1028D00008950F931F93CF93DF93FB01238121FD75
:1028E00003C08FEF9FEF28C022FF16C0468157819B
:1028F000248135814217530744F4A081B1819D01A1
:102900002F5F3F4F318320838C93268137812F5F48
:102910003F4F3783268310C0EB01092F182F008407
:10292000F185E02D0995892BE1F68E819F81019635
:102930009F838E83812F902FDF91CF911F910F91D5
:102940000895FA01AA27283051F1203181F1E89445
:102950006F936E7F6E5F7F4F8F4F9F4FAF4FB1E092
:102960003ED0B4E03CD0670F781F891F9A1FA11D8D
:10297000680F791F8A1F911DA11D6A0F711D811D8E
:10298000911DA11D20D009F468943F912AE0269F53
:1029900011243019305D3193DEF6CF010895462FB2
:1029A0004770405D4193B3E00FD0C9F7F6CF462F93
:1029B0004F70405D4A3318F0495D31FD40524193FC
:1029C00002D0A9F7EACFB4E0A695979587957795B9
:1029D0006795BA95C9F700976105710508959B0140
:1029E000AC010A2E06945795479537952795BA95C9
:1029F000C9F7620F731F841F951FA01D08952F92A2
:102A00003F924F925F926F927F928F929F92AF927E
:102A1000BF92CF92DF92EF92FF920F931F93CF93CB
:102A2000DF93CDB7DEB7CA1BDB0B0FB6F894DEBF62
:102A30000FBECDBF09942A88398848885F846E8488
:102A40007D848C849B84AA84B984C884DF80EE80D2
:102A5000FD800C811B81AA81B981CE0FD11D0FB6DB
:102A6000F894DEBF0FBECDBFED0108955058BB27CF
:102A7000AA270E944E150C94C1160E94B31638F076
:102A80000E94BA1620F039F49F3F19F426F40C94F2
:102A9000B0160EF4E095E7FB0C94AA16E92F0E94FD
:102AA000D21658F3BA17620773078407950720F008
:102AB00079F4A6F50C94F4160EF4E0950B2EBA2FCB
:102AC000A02D0B01B90190010C01CA01A001112434
:102AD000FF27591B99F0593F50F4503E68F11A16E0
:102AE000F040A22F232F342F4427585FF3CF469571
:102AF00037952795A795F0405395C9F77EF41F1693
:102B0000BA0B620B730B840BBAF09150A1F0FF0F5C
:102B1000BB1F661F771F881FC2F70EC0BA0F621F48
:102B2000731F841F48F4879577956795B795F79538
:102B30009E3F08F0B0CF9395880F08F09927EE0FCD
:102B40009795879508950E94861608F481E0089568
:102B50000E94BC150C94C1160E94BA1658F00E942F
:102B6000B31640F029F45F3F29F00C94AA165111D6
:102B70000C94F5160C94B0160E94D21668F39923A3
:102B8000B1F3552391F3951B550BBB27AA27621769
:102B90007307840738F09F5F5F4F220F331F441F76
:102BA000AA1FA9F335D00E2E3AF0E0E832D09150AA
:102BB0005040E695001CCAF72BD0FE2F29D0660F97
:102BC000771F881FBB1F261737074807AB07B0E8DA
:102BD00009F0BB0B802DBF01FF2793585F4F3AF0E0
:102BE0009E3F510578F00C94AA160C94F5165F3FA1
:102BF000E4F3983ED4F3869577956795B795F79566
:102C00009F5FC9F7880F911D9695879597F908954D
:102C1000E1E0660F771F881FBB1F621773078407E9
:102C2000BA0720F0621B730B840BBA0BEE1F88F7F8
:102C3000E09508950E94DA1688F09F5798F0B92F12
:102C40009927B751B0F0E1F0660F771F881F991FE1
:102C50001AF0BA95C9F714C0B13091F00E94F41679
:102C6000B1E008950C94F416672F782F8827B85F89
:102C700039F0B93FCCF3869577956795B395D9F739
:102C80003EF490958095709561957F4F8F4F9F4F43
:102C90000895E89409C097FB3EF49095809570954F
:102CA00061957F4F8F4F9F4F9923A9F0F92F96E998
:102CB000BB279395F695879577956795B795F1110D
:102CC000F8CFFAF4BB0F11F460FF1BC06F5F7F4FAA
:102CD0008F4F9F4F16C0882311F096E911C07723BC
:102CE00021F09EE8872F762F05C0662371F096E8C5
:102CF000862F70E060E02AF09A95660F771F881F94
:102D0000DAF7880F9695879597F90895990F000837
:102D1000550FAA0BE0E8FEEF16161706E807F907AD
:102D2000C0F012161306E407F50798F0621B730B48
:102D3000840B950B39F40A2661F0232B242B252BC9
:102D400021F408950A2609F4A140A6958FEF811D6C
:102D5000811D089597F99F6780E870E060E008950D
:102D60009FEF80EC089500240A94161617061806A3
:102D70000906089500240A9412161306140605067F
:102D80000895092E0394000C11F4882352F0BB0F10
:102D900040F4BF2B11F460FF04C06F5F7F4F8F4F73
:102DA0009F4F089557FD9058440F551F59F05F3FAE
:102DB00071F04795880F97FB991F61F09F3F79F05D
:102DC00087950895121613061406551FF2CF4695DF
:102DD000F1DF08C0161617061806991FF1CF869561
:102DE0007105610508940895E894BB276627772745
:102DF000CB0197F908950E94861608F48FEF089585
:102E00000E9413170C94C1160E94B31638F00E944A
:102E1000BA1620F0952311F00C94AA160C94B01653
:102E200011240C94F5160E94D21670F3959FC1F3ED
:102E3000950F50E0551F629FF001729FBB27F00D68
:102E4000B11D639FAA27F00DB11DAA1F649F6627BD
:102E5000B00DA11D661F829F2227B00DA11D621F0C
:102E6000739FB00DA11D621F839FA00D611D221FC6
:102E7000749F3327A00D611D231F849F600D211DAA
:102E8000822F762F6A2F11249F5750409AF0F1F02D
:102E900088234AF0EE0FFF1FBB1F661F771F881F96
:102EA00091505040A9F79E3F510580F00C94AA160E
:102EB0000C94F5165F3FE4F3983ED4F3869577952E
:102EC0006795B795F795E7959F5FC1F7FE2B880F3C
:102ED000911D9695879597F908950E948616880BFF
:102EE000990B089597FB072E16F4009407D077FDF1
:102EF00009D00E94CA1707FC05D03EF49095819531
:102F00009F4F0895709561957F4F0895A1E21A2E05
:102F1000AA1BBB1BFD010DC0AA1FBB1FEE1FFF1F7D
:102F2000A217B307E407F50720F0A21BB30BE40BCD
:102F3000F50B661F771F881F991F1A9469F7609514
:102F40007095809590959B01AC01BD01CF010895CE
:102F5000A29FB001B39FC001A39F700D811D1124DA
:102F6000911DB29F700D811D1124911D08950E9425
:102F7000A817A59F900DB49F900DA49F800D911D43
:102F800011240895B7FF0C94B7170E94B717821B3E
:102F9000930B0895AA1BBB1B51E107C0AA1FBB1FBF
:102FA000A617B70710F0A61BB70B881F991F5A95D5
:102FB000A9F780959095BC01CD010895EE0FFF1FF4
:102FC0000590F491E02D099481E090E0F8940C9440
:062FD000E917F894FFCFA1
:102FD600314E6F646500324E6F64650062016201B6
:102FE60000000000C90163018E011002B0099D01B5
:102FF600B10100000000540A240A840AF8091C0AD8
:10300600080AF9091F1C1F1E1F1E1F1F1E1F1E1F39
:1030160073746172740074656D703A20000D0A0055
:1030260068756D6964697465206465206C276169DB
:10303600723A200068756D6964697465206475204C
:10304600736F6C203A20006E756DC3A9726F206491
:1030560075206D7367203A20006E616E00696E669A
:10306600006F7666002F002009003A004661696C01
:10307600656420746F20726561642066726F6D20CE
:0E30860044485431322073656E736F7221001E
:00000001FF
