:100000000C9438010C947F0E0C94580E0C946001E3
:100010000C9460010C9460010C9460010C946001DC
:100020000C9460010C9460010C9460010C946001CC
:100030000C9460010C9460010C9460010C946001BC
:100040000C940E0E0C9460010C948E030C946803B7
:100050000C9460010C9460010C9460010C9460019C
:100060000C94C0030C94600150415F4D4158005006
:10007000415F484947480050415F4C4F570050414D
:100080005F4D494E0031362062697473003820623A
:100090006974730044697361626C6564006E5246F2
:1000A00032344C30312B006E524632344C303100F9
:1000B0003235304B42505300324D42505300314D97
:1000C000425053001112131415160A0B0C0D0E0F8B
:1000D0000001020304055354415455530909203DBE
:1000E000203078253032782052585F44523D2578B0
:1000F0002054585F44533D2578204D41585F525459
:100100003D25782052585F505F4E4F3D2578205452
:10011000585F46554C4C3D25780D0A005041205003
:100120006F77657209203D2025530D0A007E007708
:10013000006F006800435243204C656E6774680985
:10014000203D2025530D0A0094008D0085004D6F41
:1001500064656C0909203D2025530D0A00A7009D08
:100160000044617461205261746509203D2025536B
:100170000D0A00BE00B800B00044594E50442F464E
:1001800045415455524500434F4E46494709005298
:10019000465F53455455500052465F434809004559
:1001A0004E5F52584144445200454E5F4141090060
:1001B00052585F50575F50302D360054585F4144BD
:1001C0004452090052585F414444525F50322D3529
:1001D0000052585F414444525F50302D31006661F7
:1001E000696C6564004E6F772073656E64696E6735
:1001F000000D0A00253032780020307800255309A0
:10020000203D000D0A00203078253032780025533B
:1002100009203D0000000000230026002900000006
:100220000000240027002A0000000000250028000C
:100230002B00040404040404040402020202020267
:10024000030303030303010204081020408001029A
:100250000408102001020408102000000008000219
:100260000100000304070000000000000000BD12B0
:1002700011241FBECFEFD8E0DEBFCDBF23E0AEEB31
:10028000B1E001C01D92A637B207E1F711E0A0E08E
:10029000B1E0E0E7F1E302C005900D92AE3BB1079B
:1002A000D9F711E0C8E3D1E004C02197FE010E9414
:1002B000AB18C733D107C9F70E94A60E0C94B61825
:1002C0000C940000FC01538D448D252F30E0842FC9
:1002D00090E0821B930B541710F0CF96089501976E
:1002E0000895FC01918D828D981761F0828DDF0158
:1002F000A80FB11D5D968C91928D9F5F9F73928F19
:1003000090E008958FEF9FEF0895FC01918D828D0D
:10031000981731F0828DE80FF11D858D90E00895DA
:100320008FEF9FEF0895FC01918D228D892F90E032
:10033000805C9F4F821B91098F739927089584E9F0
:1003400092E00E94930121E0892B09F420E0822FA2
:100350000895FC01848DDF01A80FB11DA35ABF4F82
:100360002C91848D90E001968F739927848FA689B4
:10037000B7892C93A089B1898C9180648C93938DDB
:10038000848D981306C00288F389E02D80818F7DCB
:1003900080830895EF92FF920F931F93CF93DF9383
:1003A000EC0181E0888F9B8D8C8D981305C0E889C6
:1003B000F989808185FD24C0F62E0B8D10E00F5F3A
:1003C0001F4F0F731127E02E8C8DE8120CC00FB653
:1003D00007FCFACFE889F989808185FFF5CFCE0146
:1003E0000E94A901F1CF8B8DFE01E80FF11DE35AA8
:1003F000FF4FF0820B8FEA89FB898081806207C002
:10040000EE89FF896083E889F9898081806480832F
:1004100081E090E0DF91CF911F910F91FF90EF90DD
:100420000895CF93DF93EC01888D8823C9F0EA8982
:10043000FB89808185FD05C0A889B9898C9186FDDD
:100440000FC00FB607FCF5CF808185FFF2CFA889DA
:10045000B9898C9185FFEDCFCE010E94A901E7CF2C
:10046000DF91CF91089580E090E0892B29F00E94E0
:100470009F0181110C940000089585ED8093BC00CC
:100480008091BC0084FDFCCF1092930208954091AE
:10049000FD01262F30E0240F311D21323105DCF41F
:1004A000209193022430C9F4FC0180E090E086178B
:1004B00058F43091FD012191DC01A552BE4FA30FEC
:1004C000B11D2C930196F3CF8091FD01680F6093CD
:1004D000FD0180E0089581E0089582E00895089587
:1004E000E091240280912302E81730F4F0E0E35B0E
:1004F000FD4F808190E008958FEF9FEF08959091D8
:10050000240280912302981750F4E92FF0E0E35B76
:10051000FD4F208130E09F5F9093240202C02FEFB7
:100520003FEFC90108958091230290E020912402B9
:10053000821B91090895CF92DF92EF92FF920F9361
:100540001F93CF93DF937C01262F972F8A018091F1
:100550002902882391F0C62FD72F6E01C40ED51E15
:10056000CC15DD0571F06991D701ED91FC910190F9
:10057000F081E02DC7010995F3CF642F822F0E94EF
:100580004702C801DF91CF911F910F91FF90EF902B
:10059000DF90CF900895CF93DF931F92CDB7DEB752
:1005A0006983209129022223D1F020914C0220322C
:1005B00040F021E030E0FC013383228380E090E0D2
:1005C00015C080912A02E82FF0E0E55DFD4F99818A
:1005D00090838F5F80932A0280934C0205C061E074
:1005E000CE0101960E94470281E090E00F90DF91DA
:1005F000CF910895089580E090E00895982F929506
:100600009F702AEF929F800D1124089581E08093BE
:10061000CC0108950E94B1181F93CF93DF93EC0192
:1006200081E08093290288E680934B0210922A028F
:1006300010924C0260E081E393E00E94CB0281E0E3
:100640000E94A707182F882319F08093DA013BC076
:1006500067E088E60E9463071092240280932302D9
:1006600081E393E00E947F028F770E94FE028883DD
:1006700081E393E00E947F020E94FE02898381E36E
:1006800093E00E947F028F7B0E94FE028A8381E3B7
:1006900093E00E947F028B8381E393E00E947F02BC
:1006A0000E94FE028C8381E393E00E947F028F7799
:1006B0000E94FE028D8381E393E00E947F020E94EC
:1006C000FE02825E8E83812FDF91CF911F9108956C
:1006D0001F920F920FB60F9211242F933F934F93B7
:1006E0005F936F937F938F939F93AF93BF93EF939A
:1006F000FF9384E992E00E94A901FF91EF91BF91DD
:10070000AF919F918F917F916F915F914F913F91A9
:100710002F910F900FBE0F901F9018951F920F9260
:100720000FB60F9211242F938F939F93EF93FF9304
:10073000E091A402F091A5028081E091AA02F091DB
:10074000AB0282FD12C090818091AD028F5F8F73EA
:100750002091AE02821751F0E091AD02F0E0EC562C
:10076000FD4F958F8093AD0201C08081FF91EF9185
:100770009F918F912F910F900FBE0F901F90189502
:100780001F920F920FB60F9211242F933F934F9306
:100790005F936F937F938F939F93AF93BF93EF93E9
:1007A000FF938091B900887F803609F49CC068F57A
:1007B000883209F45BC090F4803109F454C038F4F5
:1007C000882309F4F6C0883009F44DC0F6C088319A
:1007D00009F44CC0803209F45DC0EFC0803409F4E4
:1007E00068C048F4803309F455C0883309F0E5C087
:1007F00080939102D8C0803509F44FC0883509F440
:100800005DC0883409F0D9C0D6C0883909F4C7C0A2
:10081000A8F4883709F467C038F4883609F463C04F
:10082000803709F460C0C9C0883809F4B8C080397D
:1008300009F45FC0803809F0C0C05BC0803B09F498
:1008400086C038F4803A09F466C0883A09F47FC05B
:10085000B4C0803C09F4A7C0883C09F4A4C0883B1C
:1008600009F48AC0AAC080918E0210C090919002B3
:1008700080918F02981770F5E091900281E08E0FC1
:1008800080939002F0E0E359FD4F80818093BB009C
:1008900085EC86C0809391028EC0E091900281E049
:1008A0008E0F809390028091BB00F0E0E359FD4FE2
:1008B00080839091900280918F026EC0E0919002AF
:1008C00081E08E0F809390028091BB00F0E0E359AD
:1008D000FD4F80838091920281116DC081E08093F1
:1008E0008D0284EA61C083E080939302109221021A
:1008F000CFCF80912102803208F051C0E0912102D7
:1009000081E08E0F809321028091BB00F0E0EF5FC9
:10091000FD4F8083BDCF85EC8093BC001092930285
:1009200080912102803230F4E0912102F0E0EF5F0B
:10093000FD4F10826091210270E0E091FF01F09183
:10094000000281E092E009951092210236C084E015
:10095000809393021092FE011092FD01E091FB0141
:10096000F091FC0109958091FD01811105C081E0A4
:100970008093FD011092DB01E091FE0181E08E0F7A
:100980008093FE01F0E0E552FE4F80818093BB0032
:100990009091FE018091FD01981708F479CF85E8C8
:1009A0008093BC000AC085EC8093BC001092930237
:1009B00004C0109291020E943D02FF91EF91BF91FD
:1009C000AF919F918F917F916F915F914F913F91E7
:1009D0002F910F900FBE0F901F9018958EBD0000A5
:1009E0000DB407FEFDCF8EB508954F925F926F92C2
:1009F0007F92AF92BF92CF92DF92EF92FF920F93CE
:100A00001F93CF93DF93CDB7DEB727970FB6F89438
:100A1000DEBF0FBECDBF8091D2018111B0C0CE012B
:100A200001960E940C0381119CC01F81A12FB0E090
:100A300020E833E341EE51E00E9484182B013C0191
:100A4000E2EBF7E09D0104E610E080E9E82EFF24E8
:100A5000F394CF01825B974082179307D4F4CF01C0
:100A600083709927892B99F4CF01B8010E943F1810
:100A7000892B31F4CF01B7010E943F18892B39F43B
:100A800080E8480E81E5581E81E0681E711C319691
:100A9000E0CF0E8110E02E54384FC90164E670E0BB
:100AA0000E943F187C01C90160E971E00E943F1873
:100AB0006C01E1E0F0E0590183E0A822BB24E017DB
:100AC000F1072CF5E230F10589F4A114B10471F4B9
:100AD000E114F10419F4C114D10441F480E8480E82
:100AE0008BE3581E86E2681E711C0FC0DF01A15FF8
:100AF000BE4FAC91B0E020E831E541E050E00E940B
:100B00008418460E571E681E791E3196D8CF4A812A
:100B10002B8130E0A0E1BEE00E9475186B017C01E2
:100B2000242F30E0ACE3B0E00E947518C60ED71E4B
:100B3000E81EF91E8981C80ED11CE11CF11CAD8193
:100B4000B0E0119720E831E541E050E00E948F18B5
:100B5000C60ED71EE81EF91E4C0C5D1C6E1C7F1CB9
:100B600003C0412C512C32014092CE015092CF0152
:100B70006092D0017092D10181E08093D201CE01C8
:100B800001960E940C036D8170E080E090E04AE0E5
:100B90000E94920989E891E00E94D3096E8170E079
:100BA00080E090E04AE00E94920989E891E00E948A
:100BB000D3098F8190E04E976C01092E000CEE084E
:100BC000FF0897FF0CC08DE20E94D50966277727A2
:100BD000CB016C197D098E099F094AE003C04AE0E8
:100BE000C701B6010E9492098BE891E00E94D309E7
:100BF0006B8170E080E090E04AE00E9492098EE80C
:100C000091E00E94D3096A8170E080E090E04AE0C0
:100C10000E9492098EE891E00E94D309698170E0F8
:100C200080E090E04AE00E9492098DE491E00E9409
:100C3000430727960FB6F894DEBF0FBECDBFDF91F6
:100C4000CF911F910F91FF90EF90DF90CF90BF90C9
:100C5000AF907F906F905F904F900895CF92DF920A
:100C6000EF92FF92CF930E946C096EEB70E080E0F0
:100C700090E00E94D40D80913D03882389F00E946A
:100C80000408892B29F060E070E080EC9FE72DC01C
:100C90006091400370E080E090E00E94161725C04C
:100CA0000E940408892B79F7C091410360914003A9
:100CB00070E080E090E00E9418176B017C018C2F9F
:100CC0008F77682F70E080E090E00E94161720E098
:100CD00030E040E251E40E9475169B01AC01C7016F
:100CE000B6010E940416C7FD90586093C40170932A
:100CF000C5018093C6019093C70180913D0388236D
:100D000089F00E940408892B29F060E070E080ECF3
:100D10009FE729C060913E0370E080E090E00E9470
:100D2000161721C00E940408892B79F760913E03B1
:100D300070E080E090E00E9418176B017C018091C8
:100D40003F03682F70E080E090E00E94161720E0DB
:100D500030E040E251E40E9475169B01AC01C701EE
:100D6000B6010E9404166093C8017093C901809374
:100D7000CA019093CB019B01AC010E943A188111EA
:100D80000EC06091C4017091C5018091C60190911F
:100D9000C7019B01AC010E943A18882349F080E901
:100DA00091E0CF91FF90EF90DF90CF900C9455079A
:100DB000CF91FF90EF90DF90CF90089580E48093E3
:100DC0007C0080917A00806480937A0080917A0020
:100DD00086FDFCCF809178002091790090E0922BE5
:100DE0009093C3018093C20108958F929F92AF9216
:100DF000BF92CF92DF92EF92FF92CF93DF93A091B9
:100E00004D03882311F03A2F01C030E080914E034A
:100E100090E0880F991F8C5E9D4FC0904F03D0903B
:100E20005003E0905103F090520340E050E0BA01CB
:100E3000FC01C591D49128812A2323130FC04A01B4
:100E40005B012FEF821A920AA20AB20A4C155D05C5
:100E50006E057F0538F4B501A401EACF342F252FA4
:100E6000CB0104C030E020E080E090E0632F722FDF
:100E7000DF91CF91FF90EF90DF90CF90BF90AF9038
:100E80009F908F900895009769F0FC0101900020D9
:100E9000E9F73197AF01481B590BBC0184E992E097
:100EA0000C94E60C80E090E00895CF93DF930E94CD
:100EB0004307EC018DE491E00E9443078C0F9D1FD6
:100EC000DF91CF910895909193029111FCCF91E021
:100ED00090939302909392022FEF2093910210929D
:100EE0009002260F20938F0290938E0290918E0293
:100EF000880F892B80938E0280918D02813061F45E
:100F000010928D0280918E028093BB008091BC0074
:100F100083FDF8CF85EC01C085EE8093BC00809105
:100F200093028130E1F380919002861710F4609172
:100F30009002ADE6B2E02DE432E0F9018E2F821B83
:100F4000861718F48D918193F9CF862F0895382F45
:100F500020914C0290914B02213208F049C08091BF
:100F600093028111FCCF42E04093930230939202AE
:100F70003FEF309391021092900220938F02ABE2E8
:100F8000B2E04DE652E0FA013E2F341B321718F45E
:100F90003D913193F9CF10928E0220918E02990FDC
:100FA000922B90938E0290918D02913061F4109269
:100FB0008D0290918E029093BB009091BC0093FDA6
:100FC000F8CF95EC01C095EE9093BC009091930200
:100FD0009230E1F3909191029F3F79F080919102DC
:100FE000803241F080919102803331F084E005C07D
:100FF00081E003C082E001C083E010922A021092D7
:101000004C02109229020895CF92DF92EF92FF9244
:101010000F931F93CF93DF93CDB7DEB7C054D1406A
:101020000FB6F894DEBF0FBECDBF2FB7F8948091F6
:10103000250290912602A0912702B09128022FBF8D
:1010400040914603509147036091480370914903D2
:101050008C019D01041B150B260B370BB901A80150
:10106000403D57406105710528F480914A039091F5
:101070004B0322C18093460390934703A0934803F8
:10108000B093490380913D03882309F4AEC01092C8
:101090004203109241031092400310923F031092BA
:1010A0003E0361E080914C030E94410D6AEF70E0C5
:1010B00080E090E00E94D40D61E080914C030E949A
:1010C0008D0D60E080914C030E94410D64E170E061
:1010D00080E090E00E94D40DF89461E080914C0390
:1010E0000E94410D8BE990E00197F1F762E0809159
:1010F0004C030E948D0D83E290E00197F1F780E0B0
:101100000E94F506672B682B692B19F483E090E0A9
:10111000BBC081E00E94F506672B682B692B19F490
:1011200084E090E0B1C08E010F5F1F4F6E012FEB86
:10113000C21A2EEFD20A780180E00E94F506F7016C
:10114000608371838283938381E00E94F506F701B7
:101150006483758386839783F8E0EF0EF11CEC14AB
:10116000FD0451F720E030E0F801408151816281B7
:101170007381C480D580E680F780411551056105F3
:10118000710529F0C114D104E104F10419F482E0DD
:1011900090E07AC0F90193E0F595E7959A95E1F72B
:1011A000E35CFC4F8181880F4C155D056E057F0562
:1011B00008F4816081832F5F3F4F085F1F4F283203
:1011C000310591F690913F0380913E03890F9091F4
:1011D0004003890F90914103890F90914203981722
:1011E00009F458C081E090E04FC08091430391E042
:1011F0009093290280934B0210922A0210924C0283
:1012000060E081E393E00E94CB0281E00E94A707A7
:10121000882319F085E090E044C065E080914303A5
:101220000E946307F82E10922402809323020EE39B
:1012300013E085E0E82EE00E81E393E00E947F0258
:10124000F80181938F01EE12F7CF61E070E080E04A
:1012500090E00E94D40D80912402F81619F082E0EB
:1012600090E01FC090913F0380913E03890F9091C1
:101270004003890F90914103890F90914203981781
:10128000A9F081E090E00DC090934B0380934A0356
:10129000789412C010924B0310924A0380E090E0C1
:1012A000F7CF90934B0380934A0306C010924B03F1
:1012B00010924A0380E090E0C05CDE4F0FB6F894D5
:1012C000DEBF0FBECDBFDF91CF911F910F91FF9079
:1012D000EF90DF90CF900895109224021092230295
:1012E00010922A0210924C021092930281E0809395
:1012F000920210928D0261E082E10E94410D61E054
:1013000083E10E94410DE9EBF0E080818E7F8083D4
:1013100080818D7F808388E48093B80085E480930A
:10132000BC0008958F929F92AF92BF920F931F932C
:10133000CF93DF93CDB7DEB7A1970FB6F894DEBF9A
:101340000FBECDBF19A2423008F44AE08E010F5DF6
:101350001F4F842E912CA12CB12CA50194010E9429
:101360005318E62FB901CA0101501109EA3014F4EB
:10137000E05D01C0E95CD801EC93232B242B252BE5
:1013800061F7C8010E944307A1960FB6F894DEBF2B
:101390000FBECDBFDF91CF911F910F91BF90AF9046
:1013A0009F908F9008950C944307E0919402F091E0
:1013B00095020190F081E02D682F84E992E0099474
:1013C0004F925F926F927F928F929F92AF92BF9255
:1013D000CF92DF92EF92FF926B017C01B42E9B01C2
:1013E000AC010E943A18882319F082EB91E027C0E3
:1013F00026013701E89477F82FEF3FEF4FE75FE7DB
:10140000C301B2010E943A1881110DC02FEF3FEFC6
:101410004FE75FE7C301B2010E94701618161CF473
:1014200086EB91E00CC02FEF3FEF4FE75FE4C70181
:10143000B6010E94C817181684F48AEB91E0FF9059
:10144000EF90DF90CF90BF90AF909F908F907F9064
:101450006F905F904F900C9443072FEF3FEF4FE753
:101460005FECC701B6010E94701687FDE6CF20E051
:1014700030E0A901C701B6010E94701687FF09C0BC
:101480008DE20E94D5094C01F7FAF094F7F8F09438
:1014900002C0812C912CA12C60E070E080E09FE3E1
:1014A000AB1441F020E030E040E251E40E947516B8
:1014B000A394F6CF9B01AC01C701B6010E940416AC
:1014C0002B013C010E94E7166B017C010E9416175C
:1014D0009B01AC01C301B2010E9403162B013C0128
:1014E0004AE0C701B6010E9492097C01E80CF91C90
:1014F000BB2029F08EE20E94D509E80EF91EDB2CF4
:10150000DD2021F120E030E040E251E4C301B201EE
:101510000E94CD172B013C010E94E7164B01A12C24
:10152000B12C4AE0C501B4010E949209E80EF91EEF
:10153000C501B4010E9416179B01AC01C301B201A1
:101540000E9403162B013C01DA94DACFC701FF9009
:10155000EF90DF90CF90BF90AF909F908F907F9053
:101560006F905F904F900895CF92DF92EF92FF922D
:10157000CF93DF936C01990FEE08FF08F7FE12C0BE
:101580008DE20E94D509EC0166277727CB016C1903
:101590007D098E099F094AE00E9492097C01EC0EA8
:1015A000FD1E06C04AE0C701B6010E9492097C01F7
:1015B0008DE491E00E9443078E0D9F1DDF91CF9136
:1015C000FF90EF90DF90CF900895CF93C62F91E0DA
:1015D0009093290298E690934B0210922A0210925F
:1015E0004C02682F81E393E00E94CB026C2F81E3D1
:1015F00093E00E94CB0281E0CF910C94A7070F9358
:101600001F93CF938B0191E09093290298E69093DA
:101610004B0210922A0210924C02682F81E393E051
:101620000E94CB0281E00E94A707C82F81110EC043
:1016300061E088E60E9463071092240280932302EF
:1016400081E393E00E947F02F80180838C2FCF9189
:101650001F910F910895CF93DF931F92CDB7DEB7FF
:10166000BE016F5F7F4F8FE00E94FF0A698160FFBC
:1016700006C06E7F8FE00E94E50A81E001C080E035
:101680000F90DF91CF9108950F931F93CF93DF9326
:101690008C01C0E0D0E0F801EC0FFD1F64916623DF
:1016A00071F0E0919402F09195020190F081E02DAB
:1016B00084E992E00995892B11F02196ECCF8DE415
:1016C00091E00E9443078C0F9D1FDF91CF911F91E6
:1016D0000F91089520915303309154034091550385
:1016E000509156032417350721F0682F822F0C9450
:1016F000410D0895CF93DF939CB59F7D9CBD9CB514
:10170000937F9CBD9CB59C7F9CBD9DB591609DBD0C
:10171000C3E5D3E0682F8A810E94410D8C899D89A1
:10172000DF91CF910C94C90D81E00C947A0B80E08D
:101730000C947A0B1F93CF93DF9300D0CDB7DEB715
:101740006A8389830E94970B89818F7180620E94CE
:10175000EE04182F6A81862F0E94EE040E94940BDB
:10176000812F0F900F90DF91CF911F910895CF930C
:10177000DF931F92CDB7DEB789830E94970B8981D3
:101780000E94EE0489830E94940B89810F90DF915F
:10179000CF910895CF93DF931F92CDB7DEB78983A2
:1017A0000E94970B89818F710E94EE048FEF0E9437
:1017B000EE0489830E94940B89810F90DF91CF9171
:1017C0000895EF92FF920F931F93CF93DF931F9291
:1017D000CDB7DEB7E42E9F938F938EE092E09F9378
:1017E0008F9369830E9428136981E60E0F900F90F2
:1017F0000F900F9006E012E06E1591F0FF24F39425
:10180000F60E862F0E94CA0B1F928F931F930F9381
:101810000E9428130F900F900F900F906F2DECCF18
:1018200083E092E09F938F930E9428130F900F9074
:101830000F90DF91CF911F910F91FF90EF9008953E
:101840002F923F924F925F926F927F928F929F92D0
:10185000AF92BF92CF92DF92EF92FF920F931F93BE
:10186000CF93DF931F92CDB7DEB7562E342E6DB6D1
:101870007EB69F938F938DEF91E09F938F930E94FD
:101880002813350C0F900F900F900F9089EFC82EF2
:1018900081E0D82E94EFA92E91E0B92E531409F4CB
:1018A0004EC08DB69EB690916103092F10E02DB702
:1018B0003EB7201B310B0FB6F8943EBF0FBE2DBFB5
:1018C000EDB7FEB731967F0122242394250C99832E
:1018D0000E94970B852D8F710E94EE04270199813C
:1018E0009E0D941549F08FEF99830E94EE04F2014A
:1018F00081932F019981F5CF0E94940BDF92CF92B3
:101900000E9428130E0D1F1D0F900F9001501109FA
:101910000E151F0568F0F80180811F928F93BF920A
:10192000AF920E9428130F900F900F900F90EECF60
:101930000FB6F8949EBE0FBE8DBE522CAFCF81EF76
:1019400091E09F938F930E9428130F900F900FB6F2
:10195000F8947EBE0FBE6DBE0F90DF91CF911F91A8
:101960000F91FF90EF90DF90CF90BF90AF909F903E
:101970008F907F906F905F904F903F902F90089541
:101980003FB7F89480916C0390916D03A0916E0322
:10199000B0916F0326B5A89B05C02F3F19F00196A3
:1019A000A11DB11D3FBFBA2FA92F982F8827820FE5
:1019B000911DA11DB11DBC01CD0142E0660F771F35
:1019C000881F991F4A95D1F708950895CF92DF9205
:1019D000EF92FF920F931F93CF93DF936C017A01E5
:1019E0008B01C0E0D0E0CE15DF0589F0D8016D9104
:1019F0008D01D601ED91FC910190F081E02DC601A1
:101A00000995892B11F47E0102C02196ECCFC70104
:101A1000DF91CF911F910F91FF90EF90DF90CF90CA
:101A20000895EF92FF920F931F93CF93DF9300D00F
:101A30001F92CDB7DEB7162F4A837B8389830E941E
:101A4000970B89818F7180620E94EE04082FE12E2E
:101A50007B81F72E4A81140F1E1531F0F701819119
:101A60007F010E94EE04F8CF0E94940B802F0F900C
:101A70000F900F90DF91CF911F910F91FF90EF90FA
:101A8000089590E0FC01E65AFD4F3491FC01EA5BB9
:101A9000FD4F2491FC01EE5CFD4FE491EE2309F42F
:101AA0003BC0332339F1333091F038F43130A9F0B1
:101AB000323001F584B58F7D12C0373091F0383067
:101AC000A1F03430B9F4809180008F7D03C0809103
:101AD00080008F77809380000DC084B58F7784BDA0
:101AE00009C08091B0008F7703C08091B0008F7DD6
:101AF0008093B000F0E0EE0FFF1FE85DFD4FA59171
:101B0000B4918FB7F894EC91611103C020952E2306
:101B100001C02E2B2C938FBF0895CF93DF9390E0BD
:101B2000FC01EA5BFD4F2491FC01EE5CFD4F8491CA
:101B3000882361F190E0880F991FFC01E25EFD4F60
:101B4000C591D491FC01E85DFD4FA591B49161115F
:101B500009C09FB7F8948881209582238883EC91EF
:101B60002E230BC0623061F49FB7F8943881822F26
:101B7000809583238883EC912E2B2C939FBF06C0E6
:101B80008FB7F894E8812E2B28838FBFDF91CF91F8
:101B900008958230910538F0880F991F880F991F9A
:101BA00005970197F1F708958F929F92AF92BF9298
:101BB000CF92DF92EF92FF926B017C010E94C00CEA
:101BC0004B015C01C114D104E104F104F1F00E9465
:101BD000C00CDC01CB0188199909AA09BB09883E10
:101BE0009340A105B10570F321E0C21AD108E108C4
:101BF000F10888EE880E83E0981EA11CB11CC11468
:101C0000D104E104F10419F7DDCFFF90EF90DF90EC
:101C1000CF90BF90AF909F908F9008951F920F929A
:101C20000FB60F9211242F933F938F939F93AF93EF
:101C3000BF938091250290912602A0912702B09136
:101C4000280230916B0323E0230F2D3720F40196F7
:101C5000A11DB11D05C026E8230F0296A11DB11DCF
:101C600020936B038093250290932602A093270272
:101C7000B093280280916C0390916D03A0916E0344
:101C8000B0916F030196A11DB11D80936C039093D9
:101C90006D03A0936E03B0936F03BF91AF919F91BB
:101CA0008F913F912F910F900FBE0F901F9018951D
:101CB0001F920F920FB60F9211242F933F934F93C1
:101CC0005F936F937F938F939F93AF93BF93EF93A4
:101CD000FF93E0910E01F0910F010995FF91EF91B3
:101CE000BF91AF919F918F917F916F915F914F9134
:101CF0003F912F910F900FBE0F901F9018951F923C
:101D00000F920FB60F9211242F933F934F935F932F
:101D10006F937F938F939F93AF93BF93EF93FF93B3
:101D2000E0910C01F0910D010995FF91EF91BF91A8
:101D3000AF919F918F917F916F915F914F913F9163
:101D40002F910F900FBE0F901F901895CF93DF9398
:101D50001F92CDB7DEB7789484B5826084BD84B518
:101D6000816084BD85B5826085BD85B5816085BD96
:101D700080916E00816080936E001092810080914E
:101D800081008260809381008091810081608093D6
:101D90008100809180008160809380008091B100FB
:101DA00084608093B1008091B00081608093B00026
:101DB00080917A00846080937A0080917A008260BA
:101DC00080937A0080917A00816080937A0080917C
:101DD0007A00806880937A001092C10081E080933D
:101DE000BE01E091A402F091A50282E08083E0911F
:101DF000A002F091A1021082E091A202F091A30250
:101E000081E180831092AC02E091A802F091A902D6
:101E100086E08083E091A602F091A7028081806134
:101E20008083E091A602F091A70280818860808380
:101E3000E091A602F091A702808180688083E09102
:101E4000A602F091A70280818F7D80838DE891E0CA
:101E50000E94550780E491E00E9455070E94F50416
:101E60000E94DE060E942E0661E088E00E948D0D31
:101E70008FE298EFAFEFBFEF809346039093470355
:101E8000A0934803B093490380913D03882331F028
:101E900062E080914C030E948D0D02C00E946C098B
:101EA00062E082E00E948D0D60E087E00E94E50A1A
:101EB00060E088E00E94E50A60E089E00E94E50AAF
:101EC00061E08AE00E94E50A0E942B0BBE016F5F71
:101ED0007F4F8EE00E94FF0A69816E7F8EE00E9434
:101EE000E50ABE016F5F7F4F8EE00E94FF0A6981A5
:101EF00064608EE00E94E50A65E087E00E94E50AE2
:101F000060E888E00E94E50A60E889E00E94E50A4E
:101F100061E88AE00E94E50A0E942B0BBE016F5F18
:101F20007F4F8EE00E94FF0A698161608EE00E940F
:101F3000E50A86E093E090930D0180930C01809177
:101F400069008C7F826080936900E89A80915303D6
:101F500090915403209155033091560382179307B3
:101F600019F061E00E948D0D809155039091560308
:101F700020915303309154032817390719F061E079
:101F80000E948D0D1FB7F8948091CD01811127C05B
:101F9000ECE3F2E08491E0E5F2E09491E82FF0E0E8
:101FA000EE0FFF1FE25EFD4FA591B491EC91E92386
:101FB00021F461E08AE00E94410D61E08AE00E9424
:101FC0008D0D8CB580618CBD8CB580648CBD61E05D
:101FD0008DE00E948D0D61E08BE00E948D0D80915F
:101FE000CD018F5F8093CD011FBF80E00E946A0BFF
:101FF00081E00E947A0B65E070E080E090E00E9452
:10200000D40D6CE080E00E949A0B6FE584E00E94A2
:102010009A0B86E00E94CA0B877D182F10628BE90D
:1020200090E0A0E0B0E08093630390936403A093FA
:102030006503B0936603612F86E00E949A0B86E0E9
:102040000E94CA0B811709F494C286E00E94CA0B51
:1020500086E00E94CA0B45E550E060E070E04093E6
:102060006303509364036093650370936603682F62
:10207000677D86E00E949A0B86E00E94CA0B0E9450
:10208000970B80E50E94EE0483E70E94EE040E9415
:10209000940B60E08DE10E949A0B60E08CE10E945D
:1020A0009A0B10925B0360E787E00E949A0B6CE446
:1020B00085E00E949A0B82EE0E94B70B81EE0E948F
:1020C000B70B80E00E94CA0B81FD0BC0682F6260D5
:1020D00080E00E949A0B65E070E080E090E00E9452
:1020E000D40D80E00E94CA0B682F6E7F80E00E94B2
:1020F0009A0B6FE381E00E949A0B8DE10E94CA0B5C
:10210000682F66608DE10E949A0B8CE10E94CA0BD9
:10211000682F63608CE10E949A0B81E080935B03DF
:102120006FE584E00E949A0B80E280935A0340910D
:10213000610366E071E08AE00E94110D4091610345
:1021400066E071E080E10E94110D60915A0381E127
:102150000E949A0BEBECF0E084914091610360E007
:1021600071E00E94110DE5ECF0E0849160915A035A
:102170000E949A0B82E00E94CA0BE1EDF0E0E4912C
:1021800061E070E001C0660FEA95EAF7682B82E033
:102190000E949A0B80E00E946A0B809163039091E9
:1021A00064030E94C90D8DE10E94CA0B81FF09C022
:1021B00080916303909164030E94C90D81EE0E9497
:1021C000B70B80E00E94CA0B682F6E7F80E00E94F0
:1021D0009A0B82E00E94CA0BE0EDF0E0E49161E02E
:1021E00070E001C0660FEA95EAF7682B82E00E9472
:1021F0009A0B8FEF0E94B70B282F30E0982F917029
:102200001F929F9335952795277033273F932F93E0
:1022100084FB992790F91F929F9385FB992790F94A
:102220001F929F9386FB992790F91F929F931F926D
:102230008F9386ED90E09F938F930E94281342E046
:102240006AE081ED91E00E94200C44E06CE084ECB7
:1022500091E00E94E10B41E060E18BEB91E00E9494
:10226000200C46E061E180EB91E00E94E10B41E04F
:1022700061E089EA91E00E94E10B41E062E08FE9D0
:1022800091E00E94E10B41E065E088E991E00E9465
:10229000E10B41E066E08FE891E00E94E10B41E054
:1022A00060E087E891E00E94E10B42E06CE189E7A1
:1022B00091E00E94E10B86E00E94CA0B88720FB683
:1022C000F894DEBF0FBECDBF803241F021E090E038
:1022D000883009F020E0E22FF92F02C0E2E0F0E0C0
:1022E000EE0FFF1FED58FE4F859194919F938F93B2
:1022F00081E691E09F938F930E942813E091590308
:10230000F0E0EE0FFF1FE35AFE4F859194919F93EB
:102310008F938EE491E09F938F930E94281380E027
:102320000E94CA0B182F81E00E94CA0B0FB6F894C6
:10233000DEBF0FBECDBF13FD02C0882329F012FD02
:1023400006C0E1E0F0E005C0E0E0F0E002C0E2E05D
:10235000F0E0EE0FFF1FE85BFE4F859194919F9395
:102360008F9385E391E09F938F930E94281386E0DB
:102370000E94CA0B8670E82FF0E0E35DFE4F859166
:1023800094919F938F938CE191E09F938F930E9400
:1023900028130FB6F894DEBF0FBECDBF61E088E012
:1023A0000E94410D83B7817F846083BF83B78160C2
:1023B00083BF60E088E00E94410D83B7816083BFE6
:1023C000889583B78E7F83BF8091CC01882309F4E1
:1023D000CDC00E942B0B882309F4C6C061E088E0C1
:1023E0000E94410D8DE891E00E9455070E94F5047E
:1023F0000E94DE060E942E0662E370E080E090E01C
:102400000E94D40D86E491E00E94D3096091C4013A
:102410007091C5018091C6019091C70142E00E9470
:10242000E0098DE491E00E94430780E591E00E947D
:10243000D3096091C8017091C9018091CA0190913E
:10244000CB0142E00E94E0098DE491E00E94430745
:1024500084E691E00E94D3098091C2019091C3016A
:102460000E94B40A6CE271E080E090E00E94D40D1A
:102470008091C0019091C10101969093C101809318
:10248000C00181E08093BF0185EE91E00E94440B82
:1024900087E791E00E94D3098091C0019091C1012A
:1024A0000E94B40A10915A03012F1F3008F00EE069
:1024B00080915B03811102C0101B01C010E00E94DB
:1024C000970B80EA0E94EE048EEBE82E81E0F82E56
:1024D000015030F0F70181917F010E94EE04F8CFA6
:1024E000112329F080E00E94EE041150F9CF0E94E0
:1024F000940B81E00E946A0B8FB7F894C09025027C
:10250000D0902602E0902702F09028028FBF8FEF34
:102510000E94B70B8073C1F42FB7F8948091250205
:1025200090912602A0912702B09128022FBF8C190A
:102530009D09AE09BF0980369105A105B10538F3A3
:1025400081E0809362030CC080E00E946A0B60E728
:1025500087E00E949A0B84FF07C081EE0E94B70BB0
:102560008EED91E00E94440B1092CC010E94330248
:1025700015CF81E08093590368CDE4E9F2E013823E
:10258000128288EE93E0A0E0B0E084839583A68376
:10259000B78320E231E03183208325EC30E03587BA
:1025A000248724EC30E03787268720EC30E0318B1D
:1025B000208B21EC30E0338B228B22EC30E0358B0A
:1025C000248B26EC30E0378B268B118E128E138EE7
:1025D000148EE1E3F3E01382128284839583A68351
:1025E000B78382E391E0918380830E946C09E3E5E5
:1025F000F3E089E090E0918380832AE030E0338348
:102600002283168220E22783108625E0268745E074
:1026100050E060E070E0448B558B668B778B1186C1
:10262000EDE3F3E010822CE5268322E1278323E10A
:10263000208711861286138614869687858783E005
:102640008787108A118A128A138A148A158A089534
:10265000A0E0B0E0EEE2F3E10C94DA15AE01495FE0
:102660005F4FDA016D917D91AD0100E713E0F80154
:1026700082819381DC0113962C9113972860139625
:102680002C930E944E13D8011296ED91FC91139752
:102690002381277F2383E4E00C94F615ACE0B0E0BF
:1026A000E4E5F3E10C94CC157C016B018A01FC019B
:1026B00017821682838181FFBDC1CE0101964C0134
:1026C000F7019381F60193FD859193FF81916F014D
:1026D000882309F4ABC1853239F493FD859193FFCA
:1026E00081916F01853229F4B70190E00E9436157F
:1026F000E7CF512C312C20E02032A0F48B3269F04E
:1027000030F4803259F0833269F420612CC08D326C
:1027100039F0803339F4216026C02260246023C060
:10272000286021C027FD27C030ED380F3A3078F4FB
:1027300026FF06C0FAE05F9E300D1124532E13C011
:102740008AE0389E300D1124332E20620CC08E3268
:1027500021F426FD6BC1206406C08C3611F420687C
:1027600002C0883641F4F60193FD859193FF819173
:102770006F018111C1CF982F9F7D9554933028F41C
:102780000C5F1F4FFFE3F9830DC0833631F08337B1
:1027900071F0833509F05BC022C0F8018081898324
:1027A0000E5F1F4F44244394512C540115C038012F
:1027B000F2E06F0E711CF801A080B18026FF03C00B
:1027C000652D70E002C06FEF7FEFC5012C870E947E
:1027D0002B152C0183012C852F77222E17C0380151
:1027E000F2E06F0E711CF801A080B18026FF03C0DB
:1027F000652D70E002C06FEF7FEFC5012C870E944E
:1028000020152C012C852068222E830123FC1BC05F
:10281000832D90E048165906B0F4B70180E290E0AD
:102820000E9436153A94F4CFF50127FC859127FED6
:1028300081915F01B70190E00E94361531103A9402
:10284000F1E04F1A51084114510471F7E5C0843684
:1028500011F0893639F5F80127FF07C060817181D1
:10286000828193810C5F1F4F08C060817181072EA8
:10287000000C880B990B0E5F1F4F2F76722E97FF5F
:1028800009C090958095709561957F4F8F4F9F4FB0
:102890002068722E2AE030E0A4010E946E15A82E56
:1028A000A81844C0853729F42F7EB22E2AE030E0E4
:1028B00025C0F22FF97FBF2E8F36C1F018F488356E
:1028C00079F0B4C0803719F0883721F0AFC02F2FCE
:1028D0002061B22EB4FE0DC08B2D8460B82E09C0CD
:1028E00024FF0AC09F2F9660B92E06C028E030E072
:1028F00005C020E130E002C020E132E0F801B7FE7F
:1029000007C060817181828193810C5F1F4F06C077
:102910006081718180E090E00E5F1F4FA4010E94F2
:102920006E15A82EA818FB2DFF777F2E76FE0BC004
:10293000372D3E7FA51450F474FE0AC072FC08C007
:10294000372D3E7E05C0BA2C372D03C0BA2C01C0EE
:10295000B52C34FF0DC0FE01EA0DF11D80818033DE
:1029600011F4397E09C032FF06C0B394B39404C099
:10297000832F867809F0B39433FD13C030FF06C06F
:102980005A2CB31418F4530C5B18B32CB31468F41A
:10299000B70180E290E03C870E943615B3943C85F5
:1029A000F5CFB31410F43B1801C0312C34FF12C022
:1029B000B70180E390E03C870E9436153C8532FFEA
:1029C00017C031FD03C088E790E002C088E590E0C1
:1029D000B7010CC0832F867859F031FF02C08BE21B
:1029E00001C080E237FD8DE2B70190E00E9436150C
:1029F000A51438F4B70180E390E00E9436155A948C
:102A0000F7CFAA94F401EA0DF11D8081B70190E09F
:102A10000E943615A110F5CF332009F451CEB7012D
:102A200080E290E00E9436153A94F6CFF701868155
:102A3000978102C08FEF9FEF2C96E2E10C94E8158E
:102A4000FC010590615070400110D8F78095909579
:102A50008E0F9F1F0895FC0161507040019001107E
:102A6000D8F7809590958E0F9F1F08950F931F9311
:102A7000CF93DF93FB01238121FD03C08FEF9FEFF5
:102A800028C022FF16C04681578124813581421714
:102A9000530744F4A081B1819D012F5F3F4F3183E3
:102AA00020838C93268137812F5F3F4F3783268386
:102AB00010C0EB01092F182F0084F185E02D099536
:102AC000892BE1F68E819F8101969F838E83812FD2
:102AD000902FDF91CF911F910F910895FA01AA27AE
:102AE000283051F1203181F1E8946F936E7F6E5F51
:102AF0007F4F8F4F9F4FAF4FB1E03ED0B4E03CD0FF
:102B0000670F781F891F9A1FA11D680F791F8A1FE1
:102B1000911DA11D6A0F711D811D911DA11D20D048
:102B200009F468943F912AE0269F11243019305D02
:102B30003193DEF6CF010895462F4770405D4193F3
:102B4000B3E00FD0C9F7F6CF462F4F70405D4A3340
:102B500018F0495D31FD4052419302D0A9F7EACF08
:102B6000B4E0A6959795879577956795BA95C9F737
:102B700000976105710508959B01AC010A2E06942A
:102B80005795479537952795BA95C9F7620F731FE3
:102B9000841F951FA01D08952F923F924F925F9220
:102BA0006F927F928F929F92AF92BF92CF92DF925D
:102BB000EF92FF920F931F93CF93DF93CDB7DEB7C2
:102BC000CA1BDB0B0FB6F894DEBF0FBECDBF099456
:102BD0002A88398848885F846E847D848C849B84AD
:102BE000AA84B984C884DF80EE80FD800C811B81BB
:102BF000AA81B981CE0FD11D0FB6F894DEBF0FBEEA
:102C0000CDBFED0108955058BB27AA270E941B167F
:102C10000C948E170E94801738F00E94871720F0BE
:102C200039F49F3F19F426F40C947D170EF4E095C7
:102C3000E7FB0C947717E92F0E949F1758F3BA17F8
:102C4000620773078407950720F079F4A6F50C94C2
:102C5000C1170EF4E0950B2EBA2FA02D0B01B90170
:102C600090010C01CA01A0011124FF27591B99F002
:102C7000593F50F4503E68F11A16F040A22F232F0E
:102C8000342F4427585FF3CF469537952795A7955E
:102C9000F0405395C9F77EF41F16BA0B620B730B05
:102CA000840BBAF09150A1F0FF0FBB1F661F771F76
:102CB000881FC2F70EC0BA0F621F731F841F48F42B
:102CC000879577956795B795F7959E3F08F0B0CFB4
:102CD0009395880F08F09927EE0F9795879508959B
:102CE0000E94531708F481E008950E9489160C94FD
:102CF0008E170E94871758F00E94801740F029F421
:102D00005F3F29F00C94771751110C94C2170C9463
:102D10007D170E949F1768F39923B1F3552391F310
:102D2000951B550BBB27AA2762177307840738F03A
:102D30009F5F5F4F220F331F441FAA1FA9F335D097
:102D40000E2E3AF0E0E832D091505040E695001C4B
:102D5000CAF72BD0FE2F29D0660F771F881FBB1F05
:102D6000261737074807AB07B0E809F0BB0B802DE3
:102D7000BF01FF2793585F4F3AF09E3F510578F00F
:102D80000C9477170C94C2175F3FE4F3983ED4F38A
:102D9000869577956795B795F7959F5FC9F7880FE3
:102DA000911D9695879597F90895E1E0660F771F35
:102DB000881FBB1F621773078407BA0720F0621BC6
:102DC000730B840BBA0BEE1F88F7E09508950E94F1
:102DD000A71788F09F5798F0B92F9927B751B0F0EF
:102DE000E1F0660F771F881F991F1AF0BA95C9F78F
:102DF00014C0B13091F00E94C117B1E008950C9455
:102E0000C117672F782F8827B85F39F0B93FCCF307
:102E1000869577956795B395D9F73EF4909580950B
:102E2000709561957F4F8F4F9F4F0895E89409C02B
:102E300097FB3EF490958095709561957F4F8F4FED
:102E40009F4F9923A9F0F92F96E9BB279395F69503
:102E5000879577956795B795F111F8CFFAF4BB0F81
:102E600011F460FF1BC06F5F7F4F8F4F9F4F16C0E5
:102E7000882311F096E911C0772321F09EE8872F6F
:102E8000762F05C0662371F096E8862F70E060E02B
:102E90002AF09A95660F771F881FDAF7880F9695A4
:102EA000879597F90895990F0008550FAA0BE0E848
:102EB000FEEF16161706E807F907C0F012161306FC
:102EC000E407F50798F0621B730B840B950B39F43C
:102ED0000A2661F0232B242B252B21F408950A26A2
:102EE00009F4A140A6958FEF811D811D089597F9E2
:102EF0009F6780E870E060E008959FEF80EC0895A0
:102F000000240A94161617061806090608950024C8
:102F10000A9412161306140605060895092E039442
:102F2000000C11F4882352F0BB0F40F4BF2B11F4B6
:102F300060FF04C06F5F7F4F8F4F9F4F089557FD15
:102F40009058440F551F59F05F3F71F04795880F17
:102F500097FB991F61F09F3F79F0879508951216AE
:102F600013061406551FF2CF4695F1DF08C016165A
:102F700017061806991FF1CF86957105610508940B
:102F80000895E894BB2766277727CB0197F9089522
:102F90000E94531708F48FEF08950E94E0170C94D5
:102FA0008E170E94801738F00E94871720F0952313
:102FB00011F00C9477170C947D1711240C94C21700
:102FC0000E949F1770F3959FC1F3950F50E0551F16
:102FD000629FF001729FBB27F00DB11D639FAA276E
:102FE000F00DB11DAA1F649F6627B00DA11D661FBD
:102FF000829F2227B00DA11D621F739FB00DA11DDE
:10300000621F839FA00D611D221F749F3327A00D97
:10301000611D231F849F600D211D822F762F6A2F33
:1030200011249F5750409AF0F1F088234AF0EE0F98
:10303000FF1FBB1F661F771F881F91505040A9F7C5
:103040009E3F510580F00C9477170C94C2175F3F98
:10305000E4F3983ED4F3869577956795B795F79501
:10306000E7959F5FC1F7FE2B880F911D9695879579
:1030700097F908950E945317880B990B089597FBB1
:10308000072E16F4009407D077FD09D00E949718F8
:1030900007FC05D03EF4909581959F4F089570955B
:1030A00061957F4F0895A1E21A2EAA1BBB1BFD015B
:1030B0000DC0AA1FBB1FEE1FFF1FA217B307E40717
:1030C000F50720F0A21BB30BE40BF50B661F771F6F
:1030D000881F991F1A9469F760957095809590954F
:1030E0009B01AC01BD01CF010895A29FB001B39F28
:1030F000C001A39F700D811D1124911DB29F700D01
:10310000811D1124911D08950E947518A59F900D91
:10311000B49F900DA49F800D911D11240895B7FFB9
:103120000C9484180E948418821B930B0895AA1B88
:10313000BB1B51E107C0AA1FBB1FA617B70710F0A2
:10314000A61BB70B881F991F5A95A9F780959095D4
:10315000BC01CD010895EE0FFF1F0590F491E02D05
:10316000099481E090E0F8940C94B618F894FFCF9D
:10317000314E6F646500324E6F646500E50CE50CFE
:103180001F1C1F1E1F1E1F1F1E1F1E1F00000000D2
:10319000CA01E60C62011102930171018501000070
:1031A0000000CB029B02FB026F0293027F027002BF
:1031B00073746172740074656D703A20000D0A00BA
:1031C00068756D6964697465206465206C27616940
:1031D000723A200068756D696469746520647520B1
:1031E000736F6C203A20006E756DC3A9726F2064F6
:1031F00075206D7367203A20002F002009003A00E7
:103200004661696C656420746F2072656164206634
:10321000726F6D2044485431322073656E736F7243
:0E32200021006E616E00696E66006F766600BA
:00000001FF
