:100000000C946F000C94AD0C0C94860C0C9497001F
:100010000C9497000C9497000C9497000C94970004
:100020000C9497000C9497000C9497000C949700F4
:100030000C9497000C9497000C9497000C949700E4
:100040000C943C0C0C9497000C9463010C943D01AF
:100050000C9497000C9497000C9497000C949700C4
:100060000C94E9070C9497001112131415160A0B3F
:100070000C0D0E0F0001020304056661696C6564D6
:1000800000000000002300260029000000000024DA
:100090000027002A0000000000250028002B000493
:1000A000040404040404040202020202020303031F
:1000B0000303030102040810204080010204081019
:1000C00020010204081020000000080002010000C6
:1000D0000304070000000000000000000A101124C3
:1000E0001FBECFEFD8E0DEBFCDBF23E0AEEBB1E067
:1000F00001C01D92A037B207E1F711E0A0E0B1E026
:10010000E4E5F6E202C005900D92AE3BB107D9F7E7
:1001100010E0CFE6D0E004C02197FE010E941D133D
:10012000CE36D107C9F70E94D40C0C9428130C9436
:100130000000FC01538D448D252F30E0842F90E08A
:10014000821B930B541710F0CF96089501970895D2
:10015000FC01918D828D981761F0828DDF01A80FCF
:10016000B11D5D968C91928D9F5F9F73928F90E0F1
:1001700008958FEF9FEF0895FC01918D828D981760
:1001800031F0828DE80FF11D858D90E008958FEF9D
:100190009FEF089580E492E00E94870621E0892B7A
:1001A00009F420E0822F0895EF92FF920F931F939E
:1001B000CF93DF93EC0181E0888F9B8D8C8D98131A
:1001C00005C0E889F989808185FD24C0F62E0B8D54
:1001D00010E00F5F1F4F0F731127E02E8C8DE81278
:1001E0000CC00FB607FCFACFE889F989808185FF3A
:1001F000F5CFCE010E94C807F1CF8B8DFE01E80F2D
:10020000F11DE35AFF4FF0820B8FEA89FB89808151
:10021000806207C0EE89FF896083E889F98980815F
:100220008064808381E090E0DF91CF911F910F91F6
:10023000FF90EF900895CF93DF93EC01888D882392
:10024000C9F0EA89FB89808185FD05C0A889B98943
:100250008C9186FD0FC00FB607FCF5CF808185FF1E
:10026000F2CFA889B9898C9185FFEDCFCE010E948C
:10027000C807E7CFDF91CF9108951F920F920FB675
:100280000F9211242F933F934F935F936F937F931C
:100290008F939F93AF93BF93EF93FF9380E492E08C
:1002A0000E94C807FF91EF91BF91AF919F918F91ED
:1002B0007F916F915F914F913F912F910F900FBE62
:1002C0000F901F9018951F920F920FB60F92112446
:1002D0002F938F939F93EF93FF93E0915002F091B0
:1002E00051028081E0915602F091570282FD12C0C6
:1002F0009081809159028F5F8F7320915A028217EB
:1003000051F0E0915902F0E0E05CFD4F958F809351
:10031000590201C08081FF91EF919F918F912F91A0
:100320000F900FBE0F901F9018958F929F92AF92D3
:10033000BF92CF92DF92EF92FF92CF93DF93A09183
:10034000F902882311F03A2F01C030E08091FA02BF
:1003500090E0880F991F8F579F4FC090FB02D0905D
:10036000FC02E090FD02F090FE0240E050E0BA0195
:10037000FC01C591D49128812A2323130FC04A017F
:100380005B012FEF821A920AA20AB20A4C155D0590
:100390006E057F0538F4B501A401EACF342F252F6F
:1003A000CB0104C030E020E080E090E0632F722FAA
:1003B000DF91CF91FF90EF90DF90CF90BF90AF9003
:1003C0009F908F900895009769F0FC0101900020A4
:1003D000E9F73197AF01481B590BBC0180E492E06B
:1003E0000C94440B80E090E00895CF93DF930E943B
:1003F000E301EC018DE491E00E94E3018C0F9D1F6D
:10040000DF91CF91089590913F029111FCCF91E03F
:1004100090933F0290933E022FEF20933D02109263
:100420003C02260F20933B0290933A0290913A02AD
:10043000880F892B80933A0280913902813061F4D0
:100440001092390280913A028093BB008091BC00E7
:1004500083FDF8CF85EC01C085EE8093BC008091D0
:100460003F028130E1F380913C02861710F46091E5
:100470003C02A9E1B2E029EF31E0F9018E2F821BA5
:10048000861718F48D918193F9CF862F0895382F10
:100490002091F8019091F701213208F049C0809134
:1004A0003F028111FCCF42E040933F0230933E0275
:1004B0003FEF30933D0210923C0220933B02A7EDA8
:1004C000B1E049E152E0FA013E2F341B321718F433
:1004D0003D913193F9CF10923A0220913A02990F4F
:1004E000922B90933A0290913902913061F41092DC
:1004F000390290913A029093BB009091BC0093FD19
:10050000F8CF95EC01C095EE9093BC0090913F021E
:100510009230E1F390913D029F3F79F080913D024E
:10052000803241F080913D02803331F084E005C09B
:1005300081E003C082E001C083E01092D6011092F6
:10054000F8011092D5010895CF92DF92EF92FF92B9
:100550000F931F93CF93DF93CDB7DEB7C054D14035
:100560000FB6F894DEBF0FBECDBF2FB7F8948091C1
:10057000D1019091D201A091D301B091D4012FBFAC
:100580004091F2025091F3026091F4027091F502F1
:100590008C019D01041B150B260B370BB901A8011B
:1005A000403D57406105710528F48091F602909115
:1005B000F70222C18093F2029093F302A093F40217
:1005C000B093F5028091E902882309F4AEC010923D
:1005D000EE021092ED021092EC021092EB021092D9
:1005E000EA0261E08091F8020E946F0B6AEF70E00E
:1005F00080E090E00E94020C61E08091F8020E948D
:10060000BB0B60E08091F8020E946F0B64E170E028
:1006100080E090E00E94020CF89461E08091F80282
:100620000E946F0B8BE990E00197F1F762E08091F7
:10063000F8020E94BB0B83E290E00197F1F780E0A3
:100640000E949501672B682B692B19F483E090E0D9
:10065000BBC081E00E949501672B682B692B19F4C0
:1006600084E090E0B1C08E010F5F1F4F6E012FEB51
:10067000C21A2EEFD20A780180E00E949501F7019C
:10068000608371838283938381E00E949501F701E7
:100690006483758386839783F8E0EF0EF11CEC1476
:1006A000FD0451F720E030E0F80140815181628182
:1006B0007381C480D580E680F780411551056105BE
:1006C000710529F0C114D104E104F10419F482E0A8
:1006D00090E07AC0F90193E0F595E7959A95E1F7F6
:1006E000E751FD4F8181880F4C155D056E057F0533
:1006F00008F4816081832F5F3F4F085F1F4F2832CE
:10070000310591F69091EB028091EA02890F909168
:10071000EC02890F9091ED02890F9091EE029817EB
:1007200009F458C081E090E04FC08091EF0291E061
:100730009093D5018093F7011092D6011092F801A1
:1007400060E08DED92E00E942B0781E00E9447025D
:10075000882319F085E090E044C065E08091EF02C5
:100760000E940302F82E1092D0018093CF010AEE6E
:1007700012E085E0E82EE00E8DED92E00E94DF06AB
:10078000F80181938F01EE12F7CF61E070E080E015
:1007900090E00E94020C8091D001F81619F082E0DE
:1007A00090E01FC09091EB028091EA02890F909136
:1007B000EC02890F9091ED02890F9091EE0298174B
:1007C000A9F081E090E00DC09093F7028093F602CB
:1007D000789412C01092F7021092F60280E090E036
:1007E000F7CF9093F7028093F60206C01092F702BB
:1007F0001092F60280E090E0C05CDE4F0FB6F894F5
:10080000DEBF0FBECDBFDF91CF911F910F91FF9043
:10081000EF90DF90CF9008951092D0011092CF0109
:100820001092D6011092F80110923F0281E080935D
:100830003E021092390261E082E10E946F0B61E09A
:1008400083E10E946F0BE9EBF0E080818E7F808373
:1008500080818D7F808388E48093B80085E48093D5
:10086000BC0008952091FF023091000340910103E4
:10087000509102032417350721F0682F822F0C9422
:100880006F0B0895CF93DF939CB59F7D9CBD9CB566
:10089000937F9CBD9CB59C7F9CBD9DB591609DBD8B
:1008A000CFEFD2E0682F8A810E946F0B8C899D89DF
:1008B000DF91CF910C94F70B80E00C9442041F93CE
:1008C000CF93DF9300D0CDB7DEB76A8389830E94D0
:1008D0005C0489818F7180620E941709182F6A81D8
:1008E000862F0E94170981E00E944204812F0F90F9
:1008F0000F90DF91CF911F910895CF930E945C04D8
:1009000081EE0E941709C82F81E00E9442048C2FBB
:10091000CF9108958F929F92AF92BF920F931F93A2
:10092000CF93DF93CDB7DEB7A1970FB6F894DEBFB4
:100930000FBECDBF19A2423008F44AE08E010F5D10
:100940001F4F842E912CA12CB12CA50194010E9443
:10095000C512E62FB901CA0101501109EA3014F499
:10096000E05D01C0E95CD801EC93232B242B252BFF
:1009700061F7C8010E94E301A1960FB6F894DEBFAB
:100980000FBECDBFDF91CF911F910F91BF90AF9060
:100990009F908F900895E0914002F0914102019064
:1009A000F081E02D682F80E492E00994CF92DF92ED
:1009B000EF92FF92CF93DF936C01990FEE08FF083F
:1009C000F7FE12C08DE20E94CB04EC016627772768
:1009D000CB016C197D098E099F094AE00E948A04A7
:1009E0007C01EC0EFD1E06C04AE0C701B6010E9464
:1009F0008A047C018DE491E00E94E3018E0D9F1D2D
:100A0000DF91CF91FF90EF90DF90CF9008950C94FD
:100A1000E3014F925F926F927F928F929F92AF927B
:100A2000BF92CF92DF92EF92FF926B017C01B42EC6
:100A30009B01AC010E94AC12882319F089E891E077
:100A400027C026013701E89477F82FEF3FEF4FE7F3
:100A50005FE7C301B2010E94AC1281110DC02FEFFC
:100A60003FEF4FE75FE7C301B2010E94E2101816A3
:100A70001CF48DE891E00CC02FEF3FEF4FE75FE4EF
:100A8000C701B6010E943A12181684F481E991E078
:100A9000FF90EF90DF90CF90BF90AF909F908F909E
:100AA0007F906F905F904F900C94E3012FEF3FEF9A
:100AB0004FE75FECC701B6010E94E21087FDE6CF69
:100AC00020E030E0A901C701B6010E94E21087FFD3
:100AD00009C08DE20E94CB044C01F7FAF094F7F8BC
:100AE000F09402C0812C912CA12C60E070E080E099
:100AF0009FE3AB1441F020E030E040E251E40E947B
:100B0000E710A394F6CF9B01AC01C701B6010E9488
:100B100076102B013C010E9459116B017C010E944F
:100B200088119B01AC01C301B2010E9475102B0119
:100B30003C014AE0C701B6010E948A047C01E80C2E
:100B4000F91CBB2029F08EE20E94CB04E80EF91EAE
:100B5000DB2CDD2021F120E030E040E251E4C30154
:100B6000B2010E943F122B013C010E9459114B011E
:100B7000A12CB12C4AE0C501B4010E948A04E80E00
:100B8000F91EC501B4010E9488119B01AC01C3018B
:100B9000B2010E9475102B013C01DA94DACFC70133
:100BA000FF90EF90DF90CF90BF90AF909F908F908D
:100BB0007F906F905F904F900895CF93C62F91E0F4
:100BC0009093D50198E69093F7011092D601109278
:100BD000F801682F8DED92E00E942B076C2F8DEDB0
:100BE00092E00E942B0781E0CF910C9447020F9373
:100BF0001F93CF938B0191E09093D50198E690934A
:100C0000F7011092D6011092F801682F8DED92E055
:100C10000E942B0781E00E944702C82F81110EC05D
:100C200061E088E60E9403021092D0018093CF0118
:100C30008DED92E00E94DF06F80180838C2FCF912A
:100C40001F910F910895CF93DF931F92CDB7DEB719
:100C5000BE016F5F7F4F8FE00E94F705698160FFE3
:100C600006C06E7F8FE00E94DD0581E001C080E05C
:100C70000F90DF91CF9108951F93CF93DF931F9231
:100C8000CDB7DEB789830E945C0489818F710E9491
:100C900017098FEF0E941709182F81E00E94420464
:100CA000812F0F90DF91CF911F910895EF92FF92C6
:100CB0000F931F93CF93DF9300D01F92CDB7DEB772
:100CC000162F4A837B8389830E945C0489818F71FC
:100CD00080620E941709082FE12E7B81F72E4A813E
:100CE000140F1E1531F0F70181917F010E94170941
:100CF000F8CF81E00E944204802F0F900F900F9058
:100D0000DF91CF911F910F91FF90EF900895FC011B
:100D1000918D228D892F90E0805C9F4F821B9109DD
:100D20008F739927089580E090E0892B29F00E9425
:100D3000CA0081110C940000089585ED8093BC00D9
:100D40008091BC0084FDFCCF10923F020895409139
:100D50004603262F30E0240F311D21323105DCF40B
:100D600020913F022430C9F4FC0180E090E0861716
:100D700058F4309146032191DC01AC5DBC4FA30FC8
:100D8000B11D2C930196F3CF80914603680F6093B9
:100D9000460380E0089581E0089582E00895089573
:100DA000E091D0018091CF01E81730F4F0E0E750F6
:100DB000FE4F808190E008958FEF9FEF089590910E
:100DC000D0018091CF01981750F4E92FF0E0E7505F
:100DD000FE4F208130E09F5F9093D00102C02FEF43
:100DE0003FEFC90108958091CF0190E02091D0019B
:100DF000821B91090895CF92DF92EF92FF920F9399
:100E00001F93CF93DF937C01262F972F8A01809128
:100E1000D501882391F0C62FD72F6E01C40ED51EA1
:100E2000CC15DD0571F06991D701ED91FC91019030
:100E3000F081E02DC7010995F3CF642F822F0E9426
:100E4000A706C801DF91CF911F910F91FF90EF90FE
:100E5000DF90CF900895CF93DF931F92CDB7DEB789
:100E600069832091D5012223D1F02091F80120320D
:100E700040F021E030E0FC013383228380E090E009
:100E800015C08091D601E82FF0E0E952FE4F99811C
:100E900090838F5F8093D6018093F80105C061E055
:100EA000CE0101960E94A70681E090E00F90DF91AD
:100EB000CF910895089580E090E00895982F92953D
:100EC0009F702AEF929F800D1124089581E08093F6
:100ED000CC0108950E9423131F93CF93DF93EC015D
:100EE00081E08093D50188E68093F7011092D601C6
:100EF0001092F80160E08DED92E00E942B0781E0F6
:100F00000E944702182F882319F0809323033BC0C7
:100F100067E088E60E9403021092D0018093CF011F
:100F20008DED92E00E94DF068F770E945E07888336
:100F30008DED92E00E94DF060E945E0789838DEDB1
:100F400092E00E94DF068F7B0E945E078A838DED10
:100F500092E00E94DF068B838DED92E00E94DF0617
:100F60000E945E078C838DED92E00E94DF068F77F2
:100F70000E945E078D838DED92E00E94DF060E9445
:100F80005E07825E8E83812FDF91CF911F9108953E
:100F9000FC01848DDF01A80FB11DA35ABF4F2C9116
:100FA000848D90E001968F739927848FA689B789E5
:100FB0002C93A089B1898C9180648C93938D848DBE
:100FC000981306C00288F389E02D80818F7D80838D
:100FD00008951F920F920FB60F9211242F933F93F3
:100FE0004F935F936F937F938F939F93AF93BF9331
:100FF000EF93FF938091B900887F803609F49CC0FD
:1010000068F5883209F45BC090F4803109F454C06B
:1010100038F4882309F4F6C0883009F44DC0F6C0CE
:10102000883109F44CC0803209F45DC0EFC08034CF
:1010300009F468C048F4803309F455C0883309F0D6
:10104000E5C080933D02D8C0803509F44FC0883593
:1010500009F45DC0883409F0D9C0D6C0883909F4D4
:10106000C7C0A8F4883709F467C038F4883609F493
:1010700063C0803709F460C0C9C0883809F4B8C0BB
:10108000803909F45FC0803809F0C0C05BC0803B84
:1010900009F486C038F4803A09F466C0883A09F445
:1010A0007FC0B4C0803C09F4A7C0883C09F4A4C048
:1010B000883B09F48AC0AAC080913A0210C090917E
:1010C0003C0280913B02981770F5E0913C0281E070
:1010D0008E0F80933C02F0E0E75EFD4F80818093AD
:1010E000BB0085EC86C080933D028EC0E0913C023F
:1010F00081E08E0F80933C028091BB00F0E0E75EC0
:10110000FD4F808390913C0280913B026EC0E09144
:101110003C0281E08E0F80933C028091BB00F0E0A6
:10112000E75EFD4F808380913E0281116DC081E0BA
:101130008093390284EA61C083E080933F02109279
:101140006A03CFCF80916A03803208F051C0E091EA
:101150006A0381E08E0F80936A038091BB00F0E008
:10116000E65BFC4F8083BDCF85EC8093BC00109282
:101170003F0280916A03803230F4E0916A03F0E02C
:10118000E65BFC4F108260916A0370E0E0914803D7
:10119000F09149038AE493E0099510926A0336C0FE
:1011A00084E080933F021092470310924603E0913F
:1011B0004403F0914503099580914603811105C0D0
:1011C00081E08093460310922403E091470381E07D
:1011D0008E0F80934703F0E0EC5DFC4F808180939D
:1011E000BB009091470380914603981708F479CF8C
:1011F00085E88093BC000AC085EC8093BC00109207
:101200003F0204C010923D020E949D06FF91EF91A3
:10121000BF91AF919F918F917F916F915F914F910E
:101220003F912F910F900FBE0F901F9018958EBD7C
:1012300000000DB407FEFDCF8EB508954F925F926A
:101240006F927F92AF92BF92CF92DF92EF92FF9216
:101250000F931F93CF93DF93CDB7DEB727970FB6CA
:10126000F894DEBF0FBECDBF80911B038111B0C0CB
:10127000CE0101960E946C0781119CC01F81A12F95
:10128000B0E020E833E341EE51E00E94F6122B017A
:101290003C01E2EBF7E09D0104E610E080E9E82E76
:1012A000FF24F394CF01825B974082179307D4F415
:1012B000CF0183709927892B99F4CF01B8010E943F
:1012C000B112892B31F4CF01B7010E94B112892BE1
:1012D00039F480E8480E81E5581E81E0681E711CD3
:1012E0003196E0CF0E8110E02E54384FC90164E6EC
:1012F00070E00E94B1127C01C90160E971E00E94B6
:10130000B1126C01E1E0F0E0590183E0A822BB24B6
:10131000E017F1072CF5E230F10589F4A114B104CE
:1013200071F4E114F10419F4C114D10441F480E81A
:10133000480E8BE3581E86E2681E711C0FC0DF0149
:10134000AD5CBE4FAC91B0E020E831E541E050E04B
:101350000E94F612460E571E681E791E3196D8CF8F
:101360004A812B8130E0A0E1BEE00E94E7126B01D0
:101370007C01242F30E0ACE3B0E00E94E712C60EFF
:10138000D71EE81EF91E8981C80ED11CE11CF11C74
:10139000AD81B0E0119720E831E541E050E00E94D6
:1013A0000113C60ED71EE81EF91E4C0C5D1C6E1CE8
:1013B0007F1C03C0412C512C3201409217035092E4
:1013C00018036092190370921A0381E080931B0343
:1013D000CE0101960E946C076D8170E080E090E084
:1013E0004AE00E948A0485E991E00E9407056E8127
:1013F00070E080E090E04AE00E948A0485E991E094
:101400000E9407058F8190E04E976C01092E000C19
:10141000EE08FF0897FF0CC08DE20E94CB04662700
:101420007727CB016C197D098E099F094AE003C01B
:101430004AE0C701B6010E948A0487E991E00E9450
:1014400007056B8170E080E090E04AE00E948A042A
:101450008AE991E00E9407056A8170E080E090E0EF
:101460004AE00E948A048AE991E00E9407056981A6
:1014700070E080E090E04AE00E948A048DE491E010
:101480000E94E30127960FB6F894DEBF0FBECDBFD2
:10149000DF91CF911F910F91FF90EF90DF90CF9050
:1014A000BF90AF907F906F905F904F900895CF92D4
:1014B000DF92EF92FF92CF930E940C046EEB70E0EC
:1014C00080E090E00E94020C8091E902882389F07C
:1014D0000E94A402892B29F060E070E080EC9FE775
:1014E0002DC06091EC0270E080E090E00E948811D5
:1014F00025C00E94A402892B79F7C091ED0260916A
:10150000EC0270E080E090E00E948A116B017C01A7
:101510008C2F8F77682F70E080E090E00E94881118
:1015200020E030E040E251E40E94E7109B01AC0172
:10153000C701B6010E947610C7FD90586093C401A0
:101540007093C5018093C6019093C7018091E90211
:10155000882389F00E94A402892B29F060E070E0C2
:1015600080EC9FE729C06091EA0270E080E090E0A3
:101570000E94881121C00E94A402892B79F76091F2
:10158000EA0270E080E090E00E948A116B017C0129
:101590008091EB02682F70E080E090E00E9488115B
:1015A00020E030E040E251E40E94E7109B01AC01F2
:1015B000C701B6010E9476106093C8017093C901FB
:1015C0008093CA019093CB019B01AC010E94AC12A5
:1015D00081110EC06091C4017091C5018091C60156
:1015E0009091C7019B01AC010E94AC12882349F085
:1015F0008CE991E0CF91FF90EF90DF90CF900C9429
:10160000F501CF91FF90EF90DF90CF90089580E4A7
:1016100080937C0080917A00806480937A0080912E
:101620007A0086FDFCCF809178002091790090E0CF
:10163000922B9093C3018093C20108953FB7F89411
:1016400080916C0390916D03A0916E03B0916F0334
:1016500026B5A89B05C02F3F19F00196A11DB11D0D
:101660003FBFBA2FA92F982F8827820F911DA11D48
:10167000B11DBC01CD0142E0660F771F881F991F85
:101680004A95D1F708950895CF92DF92EF92FF9295
:101690000F931F93CF93DF936C017A018B01C0E00E
:1016A000D0E0CE15DF0589F0D8016D918D01D6010E
:1016B000ED91FC910190F081E02DC6010995892BF7
:1016C00011F47E0102C02196ECCFC701DF91CF91CA
:1016D0001F910F91FF90EF90DF90CF90089590E0D1
:1016E000FC01E953FF4F3491FC01ED54FF4F24916D
:1016F000FC01E156FF4FE491EE2309F43BC0332394
:1017000039F1333091F038F43130A9F0323001F54D
:1017100084B58F7D12C0373091F03830A1F034306D
:10172000B9F4809180008F7D03C0809180008F7715
:10173000809380000DC084B58F7784BD09C08091EF
:10174000B0008F7703C08091B0008F7D8093B00090
:10175000F0E0EE0FFF1FEB56FF4FA591B4918FB74E
:10176000F894EC91611103C020952E2301C02E2B1B
:101770002C938FBF0895CF93DF9390E0FC01ED543D
:10178000FF4F2491FC01E156FF4F8491882361F1C2
:1017900090E0880F991FFC01E557FF4FC591D49148
:1017A000FC01EB56FF4FA591B491611109C09FB7A1
:1017B000F8948881209582238883EC912E230BC096
:1017C000623061F49FB7F8943881822F809583232B
:1017D0008883EC912E2B2C939FBF06C08FB7F89473
:1017E000E8812E2B28838FBFDF91CF91089582301F
:1017F000910538F0880F991F880F991F0597019759
:10180000F1F708958F929F92AF92BF92CF92DF929D
:10181000EF92FF926B017C010E941E0B4B015C0159
:10182000C114D104E104F104F1F00E941E0BDC01AB
:10183000CB0188199909AA09BB09883E9340A105E3
:10184000B10570F321E0C21AD108E108F10888EE71
:10185000880E83E0981EA11CB11CC114D104E104C0
:10186000F10419F7DDCFFF90EF90DF90CF90BF909C
:10187000AF909F908F9008951F920F920FB60F9286
:1018800011242F933F938F939F93AF93BF93809196
:10189000D1019091D201A091D301B091D4013091A6
:1018A0006B0323E0230F2D3720F40196A11DB11DFA
:1018B00005C026E8230F0296A11DB11D20936B03DE
:1018C0008093D1019093D201A093D301B093D4011E
:1018D00080916C0390916D03A0916E03B0916F03A2
:1018E0000196A11DB11D80936C0390936D03A0938D
:1018F0006E03B0936F03BF91AF919F918F913F9112
:101900002F910F900FBE0F901F9018951F920F925E
:101910000FB60F9211242F933F934F935F936F93C2
:101920007F938F939F93AF93BF93EF93FF93E09138
:101930000E01F0910F010995FF91EF91BF91AF91C9
:101940009F918F917F916F915F914F913F912F91D7
:101950000F900FBE0F901F9018951F920F920FB609
:101960000F9211242F933F934F935F936F937F9325
:101970008F939F93AF93BF93EF93FF93E0910C01ED
:10198000F0910D010995FF91EF91BF91AF919F915A
:101990008F917F916F915F914F913F912F910F9018
:1019A0000FBE0F901F901895CF93DF931F92CDB766
:1019B000DEB7789484B5826084BD84B5816084BDCF
:1019C00085B5826085BD85B5816085BD80916E00DD
:1019D000816080936E00109281008091810082600E
:1019E000809381008091810081608093810080914B
:1019F00080008160809380008091B100846080933A
:101A0000B1008091B00081608093B00080917A0035
:101A1000846080937A0080917A00826080937A005B
:101A200080917A00816080937A0080917A0080684A
:101A300080937A001092C100E0915002F09151021F
:101A400082E08083E0914C02F0914D021082E0919F
:101A50004E02F0914F0281E1808310925802E09192
:101A60005402F091550286E08083E0915202F09199
:101A70005302808180618083E0915202F091530291
:101A8000808188608083E0915202F09153028081CE
:101A900080688083E0915202F091530280818F7DB3
:101AA000808389E991E00E94F50180E491E00E9441
:101AB000F5010E941E090E94070B0E94570A61E06F
:101AC00088E00E94BB0B8FE298EFAFEFBFEF8093EF
:101AD000F2029093F302A093F402B093F502809186
:101AE000E902882331F062E08091F8020E94BB0B8A
:101AF00002C00E940C0462E082E00E94BB0B60E81E
:101B000087E00E94DD0560E888E00E94DD0560E86E
:101B100089E00E94DD0560E88AE00E94DD050E9400
:101B20002306BE016F5F7F4F8EE00E94F70569813B
:101B300061608EE00E94DD0586E697E090930D01DE
:101B400080930C01809169008C7F82608093690092
:101B5000E89A8091FF029091000320910103309157
:101B600002038217930719F061E00E94BB0B80917A
:101B70000103909102032091FF0230910003281786
:101B8000390719F061E00E94BB0B1FB7F8948091F0
:101B9000CD01811127C0E9EAF0E08491EDEBF0E09E
:101BA0009491E82FF0E0EE0FFF1FE557FF4FA5914E
:101BB000B491EC91E92321F461E08AE00E946F0B7B
:101BC00061E08AE00E94BB0B8CB580618CBD8CB556
:101BD00080648CBD61E08DE00E94BB0B61E08BE016
:101BE0000E94BB0B8091CD018F5F8093CD011FBF01
:101BF00080E00E94320481E00E94420465E070E0CF
:101C000080E090E00E94020C6CE080E00E945F04A3
:101C10006FE584E00E945F0486E00E943C06877DB9
:101C2000182F10628BE990E0A0E0B0E080930F03E2
:101C300090931003A0931103B0931203612F86E0D9
:101C40000E945F0486E00E943C06811709F4DBC114
:101C500086E00E943C0686E00E943C0645E550E096
:101C600060E070E040930F03509310036093110302
:101C700070931203682F677D86E00E945F0486E000
:101C80000E943C060E945C0480E50E94170983E7DD
:101C90000E94170981E00E94420460E08DE10E94E9
:101CA0005F0460E08CE10E945F041092070360E72C
:101CB00087E00E945F046CE485E00E945F040E945C
:101CC0005C0482EE0E94170981E00E9442040E9497
:101CD0007D0480E00E943C0681FD0BC0682F62609D
:101CE00080E00E945F0465E070E080E090E00E9488
:101CF000020C80E00E943C06682F6E7F80E00E940C
:101D00005F046FE381E00E945F048DE10E943C0666
:101D1000682F66608DE10E945F048CE10E943C06A2
:101D2000682F63608CE10E945F0481E08093070369
:101D30006FE584E00E945F0480E280930603409197
:101D40000D0366E071E08AE00E94560640910D03A3
:101D500066E071E080E10E9456066091060381E131
:101D60000E945F04EFE6F0E0849140910D0360E093
:101D700071E00E945606E9E6F0E084916091060366
:101D80000E945F0482E00E943C06E5E7F0E0E491F7
:101D900061E070E001C0660FEA95EAF7682B82E027
:101DA0000E945F0480E00E94320480910F039091B2
:101DB00010030E94F70B8DE10E943C0681FF08C0D2
:101DC00080910F03909110030E94F70B0E947D04F5
:101DD00080E00E943C06682F6E7F80E00E945F04D6
:101DE00082E00E943C06E4E7F0E0E49161E070E00C
:101DF00001C0660FEA95EAF7682B82E00E945F0453
:101E000081E08093BE0161E088E00E946F0B83B7A0
:101E1000817F846083BF83B7816083BF60E088E097
:101E20000E946F0B83B7816083BF889583B78E7FD5
:101E300083BF8091CC01882309F4E2C00E9423066D
:101E4000882309F4DBC061E088E00E946F0B89E918
:101E500091E00E94F5010E941E090E94070B0E945A
:101E6000570A62E370E080E090E00E94020C86E492
:101E700091E00E9407056091C4017091C5018091B5
:101E8000C6019091C70142E00E9409058DE491E0EE
:101E90000E94E30180E591E00E9407056091C8017E
:101EA0007091C9018091CA019091CB0142E00E94DA
:101EB00009058DE491E00E94E30184E691E00E942F
:101EC00007058091C2019091C3010E94D6046CE283
:101ED00071E080E090E00E94020C8091C00190913E
:101EE000C10101969093C1018093C00181E080936C
:101EF000BF0187E791E00E9407058091C0019091A2
:101F0000C1010E94D60410910603012F1F3008F072
:101F10000EE080910703811102C0101B01C010E088
:101F20000E945C0480EA0E9417098EEBE82E81E093
:101F3000F82E015030F0F70181917F010E941709BE
:101F4000F8CF112329F080E00E9417091150F9CF32
:101F500081E00E94420481E00E9432048FB7F8942D
:101F6000C090D101D090D201E090D301F090D40183
:101F70008FBF0E945C048FEF0E941709182F81E029
:101F80000E9442041073C1F42FB7F8948091D101DC
:101F90009091D201A091D301B091D4012FBF8C199F
:101FA0009D09AE09BF0980369105A105B10508F369
:101FB00081E080930E032BC080E00E94320460E732
:101FC00087E00E945F0484FF19C00E947D041FC047
:101FD000E0914002F09141020190F081E02D80E417
:101FE00092E009950F5F1F4F892B21F0F801649152
:101FF0006111EECF8DE491E00E94E3011092CC01DB
:102000000E94930600CF81E08093050321CE0AE76A
:1020100010E0ECCFE0E4F2E01382128288EE93E06D
:10202000A0E0B0E084839583A683B78324E131E008
:102030003183208325EC30E03587248724EC30E0A1
:102040003787268720EC30E0318B208B21EC30E085
:10205000338B228B22EC30E0358B248B26EC30E066
:10206000378B268B118E128E138E148EEDEDF2E0CF
:102070001382128284839583A683B78386E291E0DC
:10208000918380830E940C04EFEFF2E089E090E0FE
:10209000918380832AE030E033832283168220E21A
:1020A0002783108625E0268745E050E060E070E059
:1020B000448B558B668B778B1186E9EEF2E01082AC
:1020C0002CE5268322E1278323E1208711861286CF
:1020D000138614869687858783E08787108A118AFE
:1020E000128A138A148A158A08955058BB27AA2782
:1020F0000E948D100C9400120E94F21138F00E9480
:10210000F91120F039F49F3F19F426F40C94EF11E3
:102110000EF4E095E7FB0C94E911E92F0E941112EF
:1021200058F3BA17620773078407950720F079F40C
:10213000A6F50C9433120EF4E0950B2EBA2FA02DB9
:102140000B01B90190010C01CA01A0011124FF2764
:10215000591B99F0593F50F4503E68F11A16F0405F
:10216000A22F232F342F4427585FF3CF469537955E
:102170002795A795F0405395C9F77EF41F16BA0B23
:10218000620B730B840BBAF09150A1F0FF0FBB1FD1
:10219000661F771F881FC2F70EC0BA0F621F731F1A
:1021A000841F48F4879577956795B795F7959E3F77
:1021B00008F0B0CF9395880F08F09927EE0F979508
:1021C000879508950E94C51108F481E008950E9442
:1021D000FB100C9400120E94F91158F00E94F211A9
:1021E00040F029F45F3F29F00C94E91151110C944F
:1021F00034120C94EF110E94111268F39923B1F379
:10220000552391F3951B550BBB27AA27621773071C
:10221000840738F09F5F5F4F220F331F441FAA1FB0
:10222000A9F335D00E2E3AF0E0E832D0915050406C
:10223000E695001CCAF72BD0FE2F29D0660F771F1A
:10224000881FBB1F261737074807AB07B0E809F000
:10225000BB0B802DBF01FF2793585F4F3AF09E3F85
:10226000510578F00C94E9110C9434125F3FE4F3BB
:10227000983ED4F3869577956795B795F7959F5FC8
:10228000C9F7880F911D9695879597F90895E1E014
:10229000660F771F881FBB1F621773078407BA0773
:1022A00020F0621B730B840BBA0BEE1F88F7E095CE
:1022B00008950E94191288F09F5798F0B92F992716
:1022C000B751B0F0E1F0660F771F881F991F1AF021
:1022D000BA95C9F714C0B13091F00E943312B1E041
:1022E00008950C943312672F782F8827B85F39F040
:1022F000B93FCCF3869577956795B395D9F73EF4BA
:1023000090958095709561957F4F8F4F9F4F089561
:10231000E89409C097FB3EF490958095709561957F
:102320007F4F8F4F9F4F9923A9F0F92F96E9BB2735
:102330009395F695879577956795B795F111F8CFB1
:10234000FAF4BB0F11F460FF1BC06F5F7F4F8F4F1C
:102350009F4F16C0882311F096E911C0772321F012
:102360009EE8872F762F05C0662371F096E8862FAA
:1023700070E060E02AF09A95660F771F881FDAF701
:10238000880F9695879597F90895990F0008550F2E
:10239000AA0BE0E8FEEF16161706E807F907C0F0EB
:1023A00012161306E407F50798F0621B730B840BF3
:1023B000950B39F40A2661F0232B242B252B21F4CD
:1023C00008950A2609F4A140A6958FEF811D811D6D
:1023D000089597F99F6780E870E060E008959FEFA7
:1023E00080EC089500240A941616170618060906AC
:1023F000089500240A94121613061406050608957B
:10240000092E0394000C11F4882352F0BB0F40F402
:10241000BF2B11F460FF04C06F5F7F4F8F4F9F4F42
:10242000089557FD9058440F551F59F05F3F71F0C4
:102430004795880F97FB991F61F09F3F79F087952B
:102440000895121613061406551FF2CF4695F1DFB4
:1024500008C0161617061806991FF1CF8695710544
:10246000610508940895E894BB2766277727CB0178
:1024700097F908950E94C51108F48FEF08950E94FE
:1024800052120C9400120E94F21138F00E94F911BD
:1024900020F0952311F00C94E9110C94EF11112404
:1024A0000C9434120E94111270F3959FC1F3950F92
:1024B00050E0551F629FF001729FBB27F00DB11DC8
:1024C000639FAA27F00DB11DAA1F649F6627B00D58
:1024D000A11D661F829F2227B00DA11D621F739F41
:1024E000B00DA11D621F839FA00D611D221F749F4F
:1024F0003327A00D611D231F849F600D211D822F96
:10250000762F6A2F11249F5750409AF0F1F08823BC
:102510004AF0EE0FFF1FBB1F661F771F881F9150E9
:102520005040A9F79E3F510580F00C94E9110C949E
:1025300034125F3FE4F3983ED4F386957795679520
:10254000B795F795E7959F5FC1F7FE2B880F911D13
:102550009695879597F908950E94C511880B990B58
:10256000089597FB072E16F4009407D077FD09D045
:102570000E94091307FC05D03EF4909581959F4F6A
:102580000895709561957F4F0895A1E21A2EAA1BB8
:10259000BB1BFD010DC0AA1FBB1FEE1FFF1FA21713
:1025A000B307E407F50720F0A21BB30BE40BF50B10
:1025B000661F771F881F991F1A9469F76095709599
:1025C000809590959B01AC01BD01CF010895A29F1C
:1025D000B001B39FC001A39F700D811D1124911DF7
:1025E000B29F700D811D1124911D08950E94E71264
:1025F000A59F900DB49F900DA49F800D911D112457
:102600000895B7FF0C94F6120E94F612821B930BEA
:102610000895AA1BBB1B51E107C0AA1FBB1FA61729
:10262000B70710F0A61BB70B881F991F5A95A9F77B
:1026300080959095BC01CD010895EE0FFF1F059088
:10264000F491E02D099481E090E0F8940C94281323
:04265000F894FFCF2C
:10265400314E6F646500324E6F646500430B430B6B
:1026640000000000D400440B99001B018706A80059
:10267400BC00000000002B07FB065B07CF06F30637
:10268400DF06D0061F1C1F1E1F1E1F1F1E1F1E1F1E
:1026940073746172740074656D703A20000D0A00E1
:1026A40068756D6964697465206465206C27616967
:1026B400723A200068756D696469746520647520D8
:1026C400736F6C203A20006E756DC3A9726F20641D
:1026D40075206D7367203A20006E616E00696E6626
:1026E400006F7666002F002009003A004661696C8D
:1026F400656420746F20726561642066726F6D205A
:0E27040044485431322073656E736F722100A9
:00000001FF
