:100000000C945D000C9485000C9485000C94850084
:100010000C9485000C9485000C9485000C9485004C
:100020000C9485000C9485000C9485000C9485003C
:100030000C9485000C9485000C9485000C9485002C
:100040000C94FF020C9485000C946F030C944903EC
:100050000C9485000C9485000C9485000C9485000C
:100060000C9485000C94850000000008000201003B
:100070000003040700000000000000000000000072
:10008000250028002B0000000000240027002A0083
:10009000040404040404040402020202020203032E
:1000A0000303030301020408102040800102040836
:1000B0001020010204081020A10311241FBECFEF5D
:1000C000D8E0DEBFCDBF11E0A0E0B1E0EAEEFBE09A
:1000D00002C005900D92A035B107D9F721E0A0E547
:1000E000B1E001C01D92AF3FB207E1F710E0CDE5EE
:1000F000D0E004C02197FE010E94E805CC35D1076D
:10010000C9F70E94DB030C94F3050C94000090E007
:10011000FC01EC55FF4F2491FC01E057FF4F849107
:10012000882399F090E0880F991FFC01EA57FF4F50
:10013000A591B491FC01E458FF4F859194918FB73C
:10014000F894EC91E22BEC938FBF089590E0FC01C2
:10015000E859FF4F3491FC01EC55FF4F2491FC010D
:10016000E057FF4FE491EE2309F43BC0332339F10C
:10017000333091F038F43130A9F0323001F584B5E4
:100180008F7D12C0373091F03830A1F03430B9F49F
:10019000809180008F7D03C0809180008F77809355
:1001A00080000DC084B58F7784BD09C08091B000F8
:1001B0008F7703C08091B0008F7D8093B000F0E016
:1001C000EE0FFF1FE458FF4FA591B4918FB7F8943D
:1001D000EC91611103C020952E2301C02E2B2C938E
:1001E0008FBF0895DF92EF92FF920F931F93CF93EB
:1001F000DF93C82F8B01D42EF22E60E080915C013A
:100200000E94A6008091600190916101DC01ED9156
:10021000FC910190F081E02D6C2F099501151105DD
:1002200061F461E080915C01DF91CF911F910F91AA
:10023000FF90EF90DF900C94A600E02EC02FD12FFE
:100240008C2F8E198F1568F7809160019091610154
:10025000DC01ED91FC910190F081E02D6881099520
:10026000D11088832196ECCFCF93DF931F92CDB727
:10027000DEB78FEF898321E041E0BE016F5F7F4FE2
:1002800087E00E94F20089810F90DF91CF9108955D
:1002900060E080915B010C94A6000F931F93CF93B5
:1002A000DF9300D0CDB7DEB70AE511E0F801108288
:1002B0000E944801F801858183608A8321E040E043
:1002C000BE016E5F7F4F80E20E94F20080E789836B
:1002D00021E040E0BE016F5F7F4F87E20E94F200A5
:1002E00061E0F80181810E94A6000F900F90DF91DC
:1002F000CF911F910F9108953FB7F89480915601C7
:1003000090915701A0915801B091590126B5A89B31
:1003100005C02F3F19F00196A11DB11D3FBFBA2F97
:10032000A92F982F8827820F911DA11DB11DBC01F7
:10033000CD0142E0660F771F881F991F4A95D1F7BC
:100340000895CF92DF92EF92FF920F931F93CF9376
:10035000DF936C017A018B01C0E0D0E0CE15DF05A0
:1003600089F0D8016D918D01D601ED91FC9101903C
:10037000F081E02DC6010995892B11F47E0102C0A0
:100380002196ECCFC701DF91CF911F910F91FF9084
:10039000EF90DF90CF900895FC01918D828D98179A
:1003A00061F0828DDF01A80FB11D5D968C91928D59
:1003B0009F5F9F73928F90E008958FEF9FEF089556
:1003C000FC01918D828D981731F0828DE80FF11D1F
:1003D000858D90E008958FEF9FEF0895FC01918D3A
:1003E000228D892F90E0805C9F4F821B91098F7333
:1003F0009927089582E691E00E94EE0121E0892B81
:1004000009F420E0822F0895FC01848DDF01A80FFC
:10041000B11DA35ABF4F2C91848D90E001968F732C
:100420009927848FA689B7892C93A089B1898C914B
:1004300080648C93938D848D981306C00288F38911
:10044000E02D80818F7D80830895EF92FF920F933E
:100450001F93CF93DF93EC0181E0888F9B8D8C8D70
:10046000981305C0E889F989808185FD24C0F62E9E
:100470000B8D10E00F5F1F4F0F731127E02E8C8D37
:10048000E8120CC00FB607FCFACFE889F989808121
:1004900085FFF5CFCE010E940402F1CF8B8DFE01C6
:1004A000E80FF11DE35AFF4FF0820B8FEA89FB89B9
:1004B0008081806207C0EE89FF896083E889F989BD
:1004C00080818064808381E090E0DF91CF911F91F3
:1004D0000F91FF90EF900895CF93DF93EC01888DFB
:1004E0008823C9F0EA89FB89808185FD05C0A88938
:1004F000B9898C9186FD0FC00FB607FCF5CF8081BE
:1005000085FFF2CFA889B9898C9185FFEDCFCE0107
:100510000E940402E7CFDF91CF91089580E090E040
:10052000892B29F00E94FA0181110C940000089592
:100530000895CF93CFB7F89480915001811124C0D2
:10054000EAE9F0E08491EEEAF0E09491E82FF0E03F
:10055000EE0FFF1FEA57FF4FA591B491EC91E923ED
:1005600021F461E08AE00E94A6008AE00E948700F0
:100570008CB580618CBD8CB580648CBD8DE00E9493
:1005800087008BE00E948700809150018F5F8093ED
:100590005001CFBF8CB5837F8CBD8CB58C7F8160C3
:1005A0008CBD8DB58E7F8DBDCF9108956EBD000041
:1005B0000DB407FEFDCF8EB50895009769F0FC01DC
:1005C00001900020E9F73197AF01481B590BBC019E
:1005D00082E691E00C94A10180E090E00895CF9331
:1005E000DF930E94DD02EC018CE191E00E94DD02CC
:1005F0008C0F9D1FDF91CF9108950E94EE051F92F1
:100600000F920FB60F9211242F933F938F939F93C6
:10061000AF93BF938091520190915301A0915401E7
:10062000B09155013091510123E0230F2D3720F473
:100630000196A11DB11D05C026E8230F0296A11D3C
:10064000B11D209351018093520190935301A093C7
:100650005401B09355018091560190915701A0919A
:100660005801B09159010196A11DB11D8093560109
:1006700090935701A0935801B0935901BF91AF9146
:100680009F918F913F912F910F900FBE0F901F90D0
:1006900018951F920F920FB60F9211242F933F932C
:1006A0004F935F936F937F938F939F93AF93BF937A
:1006B000EF93FF9382E691E00E940402FF91EF9195
:1006C000BF91AF919F918F917F916F915F914F916A
:1006D0003F912F910F900FBE0F901F9018951F9272
:1006E0000F920FB60F9211242F938F939F93EF9336
:1006F000FF93E0917201F09173018081E0917801A4
:10070000F091790182FD12C0908180917B018F5F11
:100710008F7320917C01821751F0E0917B01F0E012
:10072000EE59FE4F958F80937B0101C08081FF9130
:10073000EF919F918F912F910F900FBE0F901F906F
:100740001895EAE5F1E088E0818397E0928391E0F3
:10075000938390E19483178216828583E2E6F1E029
:100760001382128288EE93E0A0E0B0E08483958348
:10077000A683B78380E191E09183808385EC90E04C
:100780009587848784EC90E09787868780EC90E05B
:10079000918B808B81EC90E0938B828B82EC90E04C
:1007A000958B848B86EC90E0978B868B118E128EC6
:1007B000138E148E0895CF93DF93CDB7DEB7AA972B
:1007C0000FB6F894DEBF0FBECDBF789484B58260BB
:1007D00084BD84B5816084BD85B5826085BD85B5E5
:1007E000816085BD80916E00816080936E00109263
:1007F00081008091810082608093810080918100DE
:10080000816080938100809180008160809380006E
:100810008091B10084608093B1008091B0008160CC
:100820008093B00080917A00846080937A008091F8
:100830007A00826080937A0080917A008160809350
:100840007A0080917A00806880937A001092C100CB
:10085000E0917201F091730182E08083E0916E017A
:10086000F0916F011082E0917001F09171018FECB5
:10087000808310927A01E0917601F091770186E011
:100880008083E0917401F0917501808180618083A3
:10089000E0917401F0917501808188608083E0911E
:1008A0007401F0917501808180688083E09174010A
:1008B000F091750180818F7D808389E080935B0159
:1008C0008AE080935C0180E091E0909361018093E5
:1008D000600189E00E94870080915C010E9487008E
:1008E0000E94480161E080915C010E94A600809115
:1008F000600190916101DC01ED91FC910280F38136
:10090000E02D099581E080935D0194E090935E0174
:100910008AA721E040E0BE01665D7F4F85E20E942C
:10092000F20080915E0189A721E040E0BE01675D91
:100930007F4F81E30E94F20080915E0188A721E051
:1009400040E0BE01685D7F4F82E30E94F2000E949A
:100950004D0120E040E060E070E082EE0E94F20095
:1009600025E040E06FE171E08AE20E94F20025E0BC
:1009700040E06FE171E080E30E94F2000E944801D4
:1009800025E040E065E271E08BE20E94F20061E068
:1009900080915B010E94A6008BE291E00E94EF0231
:1009A0003324339490E4292E2AE0822E912CA12C1A
:1009B000B12C2FB7F8948091520190915301A091DE
:1009C0005401B09155012FBF8AA39BA3ACA3BDA333
:1009D00080E391E00E94DD020E94340180915A017F
:1009E000882331F00E9434018073C1F310925A01C0
:1009F0000E94480130925A0180915F0182608FA36A
:100A000021E040E0BE01695D7F4F80E20E94F2007C
:100A100020E040E060E070E081EE0E94F200209172
:100A20005E0140E0BE016E5D7F4F80EA0E94F200F1
:100A300061E080915B010E94A6000E9448018091C4
:100A40005A01882331F00E9434018073C1F30E945F
:100A50004D010E94340186FF30C020915E0141E0CB
:100A6000BE016E5D7F4F81E60E94F2002EA221E062
:100A700040E0BE016A5D7F4F87E20E94F20086E49B
:100A800091E00E94DD028FB7F8944091520150919D
:100A9000530160915401709155018FBF8AA19BA1B0
:100AA000ACA1BDA19A01AB01281B390B4A0B5B0B12
:100AB00019A28E010F5D1F4F29C021E041E0BE0148
:100AC0006F5F7F4F87E10E94F200898180FFC5CF71
:100AD0002FB7F8948091520190915301A091540145
:100AE000B09155012FBF4AA15BA16CA17DA1841BD0
:100AF000950BA60BB70B893E9340A105B10508F4F1
:100B0000A8CF8AE391E00E94EF023DC0CA01B9017B
:100B1000A50194010E94C605605DD8016E938D0108
:100B2000211531054105510589F7CD010E94DD02EE
:100B30008DE491E00E94EF020E947C016B017C0138
:100B400088EE482E83E0582E612C712C0E947C0187
:100B5000DC01CB018C199D09AE09BF09883E934089
:100B6000A105B10558F0B1E04B1A510861087108B0
:100B7000E8EECE0EE3E0DE1EE11CF11C4114510450
:100B80006104710419F70E948E0213CFA1E21A2E9C
:100B9000AA1BBB1BFD010DC0AA1FBB1FEE1FFF1F21
:100BA000A217B307E407F50720F0A21BB30BE40B71
:100BB000F50B661F771F881F991F1A9469F76095B8
:100BC0007095809590959B01AC01BD01CF01089572
:100BD000EE0FFF1F0590F491E02D099481E090E065
:0A0BE000F8940C94F305F894FFCF8D
:100BEA00060100000000D6029902980200000000E7
:100BFA002502A101EE01CC01E0016C020D0A006E92
:100C0A0072663032006E7266303100476F20210002
:100C1A0050696E67202E2E2E200050617320646565
:100C2A0020706F6E6700506F6E673A20006D730018
:00000001FF
