:100000000C945D000C9495020C946E020C94850087
:100010000C9485000C9485000C9485000C9485004C
:100020000C9485000C9485000C9485000C9485003C
:100030000C9485000C9485000C9485000C9485002C
:100040000C9424020C9485000C9485000C9485007B
:100050000C9485000C9485000C9485000C9485000C
:100060000C94BC020C9485000000000024002700C2
:100070002A0000000000250028002B0004040404CE
:100080000404040402020202020203030303030342
:10009000010204081020408001020408102001021F
:1000A00004081020000000080002010000030407FB
:1000B00000000000000000005D0911241FBECFEF0A
:1000C000D8E0DEBFCDBF11E0A0E0B1E0E4E5F4E1AF
:1000D00002C005900D92A634B107D9F722E0A6E43C
:1000E000B1E001C01D92A733B207E1F710E0CDE502
:1000F000D0E004C02197FE010E941D0ACC35D10733
:10010000C9F70E9464070C94280A0C940000089513
:10011000CF92DF92EF92FF920F931F93CF93DF93D3
:100120006C017A018B01C0E0D0E0CE15DF0589F0CB
:10013000D8016D918D01D601ED91FC910190F08176
:10014000E02DC6010995892B11F47E0102C021968C
:10015000ECCFC701DF91CF911F910F91FF90EF90EE
:10016000DF90CF90089585ED8093BC008091BC0016
:1001700084FDFCCF10920E02089540916901262F54
:1001800030E0240F311D21323105DCF420910E02C4
:100190002430C9F4FC0180E090E0861758F43091D7
:1001A00069012191DC01A95BBE4FA30FB11D2C9306
:1001B0000196F3CF80916901680F6093690180E037
:1001C000089581E0089582E008950895E091120273
:1001D00080911102E81730F4F0E0E853FE4F80817F
:1001E00090E008958FEF9FEF089590911202809113
:1001F0001102981750F4E92FF0E0E853FE4F2081E8
:1002000030E09F5F9093120202C02FEF3FEFC901D1
:1002100008958091110290E020911202821B9109B1
:100220000895CF92DF92EF92FF920F931F93CF9397
:10023000DF937C01262F972F8A018091A6018823C6
:1002400091F0C62FD72F6E01C40ED51ECC15DD053B
:1002500071F06991D701ED91FC910190F081E02D51
:10026000C7010995F3CF642F822F0E94BD00C801FA
:10027000DF91CF911F910F91FF90EF90DF90CF9082
:100280000895CF93DF931F92CDB7DEB76983209196
:10029000A6012223D1F020910F02203240F021E06C
:1002A00030E0FC013383228380E090E015C0809130
:1002B0001002E82FF0E0E955FE4F998190838F5F9F
:1002C0008093100280930F0205C061E0CE01019679
:1002D0000E94BD0081E090E00F90DF91CF910895E2
:1002E000982F92959F702AEF929F800D1124089568
:1002F000089580E090E00895CF93DF93EC0160E0F3
:100300008E810E94040661E08E810E94040660E0F6
:100310008E810E9404068BE891E00197F1F7DF914E
:10032000CF91089561E08DE00E94500661E08DE07C
:100330000E94040681E090E090939B0180939A01D3
:1003400008950E94230A1F93CF93DF93EC0181E06D
:100350008093A60188E68093C70110921002109244
:100360000F0260E083E192E00E94410181E00E947F
:100370004805182F882319F0809346013BC067E099
:1003800088E60E940405109212028093110283E114
:1003900092E00E94F5008F770E947001888383E1CC
:1003A00092E00E94F5000E947001898383E192E04F
:1003B0000E94F5008F7B0E9470018A8383E192E0A6
:1003C0000E94F5008B8383E192E00E94F5000E9479
:1003D00070018C8383E192E00E94F5008F770E9488
:1003E00070018D8383E192E00E94F5000E9470010C
:1003F000825E8E83812FDF91CF911F9108953FB749
:10040000F8948091A1019091A201A091A301B091D3
:10041000A40126B5A89B05C02F3F19F00196A11D88
:10042000B11D3FBFBA2FA92F982F8827820F911D8A
:10043000A11DB11DBC01CD0142E0660F771F881FD1
:10044000991F4A95D1F708951F920F920FB60F92F8
:1004500011242F933F938F939F93AF93BF938091DA
:100460009D0190919E01A0919F01B091A0013091BA
:100470009C0123E0230F2D3720F40196A11DB11D0F
:1004800005C026E8230F0296A11DB11D20939C01F3
:1004900080939D0190939E01A0939F01B093A00132
:1004A0008091A1019091A201A091A301B091A4011A
:1004B0000196A11DB11D8093A1019093A201A0936B
:1004C000A301B093A401BF91AF919F918F913F91F0
:1004D0002F910F900FBE0F901F9018951F920F92A3
:1004E0000FB60F9211242F933F934F935F936F9307
:1004F0007F938F939F93AF93BF93EF93FF93E0917D
:100500000201F09103010995FF91EF91BF91AF9125
:100510009F918F917F916F915F914F913F912F911B
:100520000F900FBE0F901F9018951F920F920FB64D
:100530000F9211242F933F934F935F936F937F9369
:100540008F939F93AF93BF93EF93FF93E09100013D
:10055000F09101010995FF91EF91BF91AF919F91AA
:100560008F917F916F915F914F913F912F910F905C
:100570000FBE0F901F9018951F920F920FB60F92FB
:1005800011242F933F934F935F936F937F938F9398
:100590009F93AF93BF93EF93FF938091B900887FB0
:1005A000803609F49CC068F5883209F45BC090F489
:1005B000803109F454C038F4882309F4F6C0883037
:1005C00009F44DC0F6C0883109F44CC0803209F4FA
:1005D0005DC0EFC0803409F468C048F4803309F48A
:1005E00055C0883309F0E5C080930B02D8C0803530
:1005F00009F44FC0883509F45DC0883409F0D9C0CA
:10060000D6C0883909F4C7C0A8F4883709F467C090
:1006100038F4883609F463C0803709F460C0C9C073
:10062000883809F4B8C0803909F45FC0803809F00F
:10063000C0C05BC0803B09F486C038F4803A09F43E
:1006400066C0883A09F47FC0B4C0803C09F4A7C0F2
:10065000883C09F4A4C0883B09F48AC0AAC08091F0
:10066000080210C090910A0280910902981770F553
:10067000E0910A0281E08E0F80930A02F0E0E851D7
:10068000FE4F80818093BB0085EC86C080930B0277
:100690008EC0E0910A0281E08E0F80930A02809161
:1006A000BB00F0E0E851FE4F808390910A028091F8
:1006B00009026EC0E0910A0281E08E0F80930A0267
:1006C0008091BB00F0E0E851FE4F808380910D02E5
:1006D00081116DC081E080930C0284EA61C083E0E7
:1006E00080930E0210928D01CFCF80918D018032C8
:1006F00008F051C0E0918D0181E08E0F80938D0153
:100700008091BB00F0E0E359FE4F8083BDCF85ECC4
:100710008093BC0010920E0280918D01803230F4E3
:10072000E0918D01F0E0E359FE4F108260918D0160
:1007300070E0E0916B01F0916C018DE691E009951C
:1007400010928D0136C084E080930E0210926A01EF
:1007500010926901E0916701F0916801099580911B
:100760006901811105C081E0809369011092470100
:10077000E0916A0181E08E0F80936A01F0E0E95B0D
:10078000FE4F80818093BB0090916A018091690146
:10079000981708F479CF85E88093BC000AC085ECEF
:1007A0008093BC0010920E0204C010920B020E94B3
:1007B000B300FF91EF91BF91AF919F918F917F9186
:1007C0006F915F914F913F912F910F900FBE0F90BE
:1007D0001F901895CF92DF92EF92FF920F931F9385
:1007E000CF93DF937C016C0187E0C80ED11CC0E081
:1007F000D0E0062F10E0B8010C2E02C07595679569
:100800000A94E2F76170F60181916F010E9404067B
:100810002196C430D10579F7C701DF91CF911F919F
:100820000F91FF90EF90DF90CF900C947C01CF92CE
:10083000DF92EF92FF920F931F93CF93DF93EC0120
:10084000F62E642F8C810E9404068D818F3F19F053
:1008500060E00E9404068F850F2D10E084FF25C004
:100860006E0187E0C80ED11CE12CF12CB8010E2CD2
:1008700002C0759567950A94E2F76170F60181915F
:100880006F010E940406FFEFEF1AFF0A88E0E816E6
:10089000F10461F7CE01DF91CF911F910F91FF908D
:1008A000EF90DF90CF900C947C01B80184E07595B7
:1008B00067958A95E1F7CE010E94EA036F2DCE017C
:1008C000DF91CF911F910F91FF90EF90DF90CF902C
:1008D0000C94EA0341E00E94170481E090E008953F
:1008E00040E00C94170461E00E9470048BE39FE1E8
:1008F0000197F1F70895009769F0FC01019000203D
:10090000E9F73197AF01481B590BBC018FE192E029
:100910000C94880080E090E008958F929F92AF92AF
:10092000BF920F931F93CF93DF93CDB7DEB7A197FD
:100930000FB6F894DEBF0FBECDBF19A2423008F447
:100940004AE08E010F5D1F4F842E912CA12CB12CFB
:10095000A50194010E94C509E62FB901CA01015001
:100960001109EA3014F4E05D01C0E95CD801EC93B0
:10097000232B242B252B61F7C8010E947B04A19611
:100980000FB6F894DEBF0FBECDBFDF91CF911F91A0
:100990000F91BF90AF909F908F900895CF92DF926C
:1009A000EF92FF92CF93DF936C01990FEE08FF084F
:1009B000F7FE1FC0E0911F02F09120020190F0812C
:1009C000E02D6DE28FE192E00995EC016627772733
:1009D000CB016C197D098E099F094AE00E948D04A4
:1009E0008C0F9D1FDF91CF91FF90EF90DF90CF9004
:1009F00008954AE0C701B601DF91CF91FF90EF90D3
:100A0000DF90CF900C948D0490910E029111FCCF49
:100A100091E090930E0290930D022FEF20930B0222
:100A200010920A02260F20930902909308029091D7
:100A30000802880F892B8093080280910C02813074
:100A400061F410920C02809108028093BB008091A7
:100A5000BC0083FDF8CF85EC01C085EE8093BC001F
:100A600080910E028130E1F380910A02861710F422
:100A700060910A02A8EEB1E028EC31E0F9018E2F76
:100A8000821B861718F48D918193F9CF862F0895D4
:100A9000382F20910F029091C701213208F049C0F0
:100AA00080910E028111FCCF42E040930E02309300
:100AB0000D023FEF30930B0210920A0220930902BD
:100AC000A7EAB1E048EE51E0FA013E2F341B32179D
:100AD00018F43D913193F9CF109208022091080249
:100AE000990F922B9093080290910C02913061F42F
:100AF00010920C02909108029093BB009091BC0060
:100B000093FDF8CF95EC01C095EE9093BC009091C9
:100B10000E029230E1F390910B029F3F79F08091A9
:100B20000B02803241F080910B02803331F084E07F
:100B300005C081E003C082E001C083E01092100292
:100B400010920F021092A6010895CF93C62F91E044
:100B50009093A60198E69093C7011092100210920C
:100B60000F02682F83E192E00E9441016C2F83E124
:100B700092E00E94410181E0CF910C9448050F93CF
:100B80001F93CF938B0191E09093A60198E69093E9
:100B9000C7011092100210920F02682F83E192E0B9
:100BA0000E94410181E00E944805C82F81110EC0BA
:100BB00061E088E60E9404051092120280931102FF
:100BC00083E192E00E94F500F80180838C2FCF91A1
:100BD0001F910F910895CF93DF931F92CDB7DEB78A
:100BE000BE016F5F7F4F8FE00E94BF05698160FF8C
:100BF00006C06E7F8FE00E94A50581E001C080E005
:100C00000F90DF91CF91089590E0FC01EC55FF4FDC
:100C10003491FC01E057FF4F2491FC01E458FF4F51
:100C2000E491EE2309F43BC0332339F1333091F0E2
:100C300038F43130A9F0323001F584B58F7D12C01F
:100C4000373091F03830A1F03430B9F48091800021
:100C50008F7D03C0809180008F77809380000DC0CE
:100C600084B58F7784BD09C08091B0008F7703C0B1
:100C70008091B0008F7D8093B000F0E0EE0FFF1FF9
:100C8000EE58FF4FA591B4918FB7F894EC91611194
:100C900003C020952E2301C02E2B2C938FBF0895C7
:100CA000CF93DF9390E0FC01E057FF4F2491FC01CC
:100CB000E458FF4F8491882361F190E0880F991FD9
:100CC000FC01E859FF4FC591D491FC01EE58FF4F4C
:100CD000A591B491611109C09FB7F89488812095BE
:100CE00082238883EC912E230BC0623061F49FB77E
:100CF000F8943881822F809583238883EC912E2B62
:100D00002C939FBF06C08FB7F894E8812E2B2883C1
:100D10008FBFDF91CF910895EF92FF920F931F93B2
:100D2000CF93DF93EC01623018F08F8588608F8756
:100D30006B8B1C8A80E48D8B80E18E8B80E58F8BA2
:100D400061E08C810E9450068D818F3F19F061E037
:100D50000E94500661E08E810E9450067E0187E06D
:100D6000E80EF11C00E010E08F8584FD03C084E0F4
:100D700090E002C088E090E0081719074CF461E0A9
:100D8000F70181917F010E9450060F5F1F4FECCF4A
:100D90008BE39DE00197F1F760E08C810E940406EF
:100DA00060E08E810E9404068D818F3F19F060E023
:100DB0000E9404066F8564FD1DC063E0CE010E94A1
:100DC000EA030BE416E4C8010197F1F763E0CE01F2
:100DD0000E94EA03C8010197F1F763E0CE010E9487
:100DE000EA0383E592E00197F1F762E0CE010E9409
:100DF000EA0316C06062CE010E9470048BE496E4A0
:100E00000197F1F76F856062CE010E94700483E55F
:100E100092E00197F1F76F856062CE010E94700445
:100E20006F856062CE010E94700484E0888B6CE064
:100E3000CE010E947004CE010E94730482E0898B6F
:100E400066E0CE01DF91CF911F910F91FF90EF905F
:100E50000C9470048F929F92AF92BF92CF92DF92C8
:100E6000EF92FF926B017C010E94FF014B015C013C
:100E7000C114D104E104F104F1F00E94FF01DC018E
:100E8000CB0188199909AA09BB09883E9340A1059D
:100E9000B10570F321E0C21AD108E108F10888EE2B
:100EA000880E83E0981EA11CB11CC114D104E1047A
:100EB000F10419F7DDCFFF90EF90DF90CF90BF9056
:100EC000AF909F908F900895CF93DF93CDB7DEB70B
:100ED00027970FB6F894DEBF0FBECDBF789484B5C8
:100EE000826084BD84B5816084BD85B5826085BD26
:100EF00085B5816085BD80916E00816080936E00B4
:100F000010928100809181008260809381008091A5
:100F10008100816080938100809180008160809356
:100F200080008091B10084608093B1008091B00016
:100F300081608093B00080917A00846080937A0011
:100F400080917A00826080937A0080917A0081603B
:100F500080937A0080917A00806880937A00109262
:100F6000C10062E081E00E94500662E080E00E94E1
:100F7000500661E08CE00E94040662E08FE192E09E
:100F80000E948C068FE192E00E947304BE016F5FA5
:100F90007F4F8EE00E94BF0569816E7F8EE00E94C8
:100FA000A505BE016F5F7F4F8EE00E94BF0569817E
:100FB00064608EE00E94A50565E087E00E94A505BB
:100FC00060E888E00E94A50560E889E00E94A50528
:100FD00061E88AE00E94A5050E94EB0582E991E0A4
:100FE0009093010180930001809169008C7F809330
:100FF0006900E89A04E610E080E9E82EFF24F39403
:101000000E94EB05882309F4F8C00E94EB0580914B
:1010100092018111A8C0CE0101960E94A301811105
:1010200094C0DF80AD2DB0E020E833E341EE51E025
:101030000E94F6092B013C01E2EBF7E09D01CF0194
:10104000825B974082179307D4F4CF01837099276E
:10105000892B99F4CF01B8010E94B109892B31F491
:10106000CF01B7010E94B109892B39F480E8480EFD
:1010700081E5581E81E0681E711C3196E0CF2E80FC
:10108000312C2E54384FC901B8010E94B1096C01AE
:10109000C901B7010E94B1095C01E1E0F0E049013A
:1010A00093E089229924E215F3052CF5E230F1054D
:1010B00089F48114910471F4C114D10419F4A114B8
:1010C000B10441F480E8480E8BE3581E86E2681EA6
:1010D000711C0FC0DF01AD5FBE4FAC91B0E020E8E6
:1010E00031E541E050E00E94F609460E571E681EA9
:1010F000791E3196D8CF4A812B8130E0A0E1BEE045
:101100000E94E7094B015C01242F30E0ACE3B0E022
:101110000E94E709860E971EA81EB91E8981880EB7
:10112000911CA11CB11CAD81B0E0119720E831E504
:1011300041E050E00E94010A860E971EA81EB91ECB
:10114000480C591C6A1C7B1C03C0412C512C3201D9
:1011500040928E0150928F016092900170929101A5
:1011600091E090939201CE0101960E94A3018FE13C
:1011700092E00E9473046D8170E080E090E04AE0AC
:101180000E948D048EE291E00E947B046E8170E0EB
:1011900080E090E04AE00E948D048EE291E00E949F
:1011A0007B048F8190E04E970E94CE0483E491E00F
:1011B0000E947B046B8170E080E090E04AE00E9436
:1011C0008D0480E391E00E947B046A8170E080E0FE
:1011D00090E04AE00E948D0480E391E00E947B044D
:1011E000698170E080E090E04AE00E948D0468EC44
:1011F00070E080E090E00E942A0780919A0190912F
:101200009B01892B09F451C08FE192E00E94730485
:10121000E1E0809132028111E0E0E195F0E0E15EF1
:10122000FD4F648960688FE192E00E94700482E360
:1012300091E00E947B04E0913202E23010F4E15030
:1012400001C0E1E0F0E0E15EFD4F648960688FE19C
:1012500092E00E94700480E480937C0080917A0088
:10126000806480937A0080917A0086FDFCCF809123
:1012700078002091790090E0922B0E94CE0460EDDE
:1012800077E080E090E00E942A078FE192E00E94E0
:10129000730460E08DE00E94040610929B0110929E
:1012A0009A018FE192E00E94730480E090E0892B24
:1012B00009F4A6CE0E940000A3CEE3E1F2E013827F
:1012C000128288EE93E0A0E0B0E084839583A68349
:1012D000B78384E191E0918380831092120210928F
:1012E00011021092100210920F0210920E0281E071
:1012F00080930D0210920C0261E082E10E940406CC
:1013000061E083E10E940406E9EBF0E080818E7FDA
:10131000808380818D7F808388E48093B80085E41A
:101320008093BC00EFE1F2E01382128286E291E04A
:101330009183808389E084838FEF85838AE086832D
:1013400087E0878384E0808785E0818786E08287E5
:101350001386148615861686178661E0CF010C94D5
:101360008C0697FB072E16F4009407D077FD09D062
:101370000E94090A07FC05D03EF4909581959F4F85
:101380000895709561957F4F0895A1E21A2EAA1BCA
:10139000BB1BFD010DC0AA1FBB1FEE1FFF1FA21725
:1013A000B307E407F50720F0A21BB30BE40BF50B22
:1013B000661F771F881F991F1A9469F760957095AB
:1013C000809590959B01AC01BD01CF010895A29F2E
:1013D000B001B39FC001A39F700D811D1124911D09
:1013E000B29F700D811D1124911D08950E94E7097F
:1013F000A59F900DB49F900DA49F800D911D112469
:101400000895B7FF0C94F6090E94F609821B930B0E
:101410000895AA1BBB1B51E107C0AA1FBB1FA6173B
:10142000B70710F0A61BB70B881F991F5A95A9F78D
:1014300080959095BC01CD010895EE0FFF1F05909A
:10144000F491E02D099481E090E0F8940C94280A3E
:04145000F894FFCF3E
:10145400870087001F1C1F1E1F1E1F1F1E1F1E1F0D
:1014640000000000410111017901E5000901F500C6
:10147400E600000000006A048800790178012F006A
:101484003A0068756D696469746520647520736FCA
:061494006C203A2000006C
:00000001FF
