:100000000C9476000C949E000C949E000C949E0020
:100010000C949E000C949E000C949E000C949E00E8
:100020000C949E000C949E000C949E000C949E00D8
:100030000C949E000C949E000C949E000C949E00C8
:100040000C948B040C949E000C94D1050C94AB057D
:100050000C949E000C949E000C949E000C949E00A8
:100060000C9403060C949E004572724A616E4665BC
:10007000624D61724170724D61794A756E4A756C5C
:100080004175675365704F63744E6F7644656300C6
:1000900000000000240027002A00000000002500C6
:1000A00028002B00040404040404040402020202D5
:1000B000020203030303030301020408102040802B
:1000C00001020408102001020408102000000008AA
:1000D000000201000003040700000000000000000F
:1000E00000000000230026002900B50F11241FBEC8
:1000F000CFEFD8E0DEBFCDBF11E0A0E0B1E0ECE78C
:10010000F6E202C005900D92A63EB107D9F723E0B2
:10011000A6EEB1E001C01D92AD37B207E1F710E0E5
:10012000C6E7D0E004C02197FE010E941713C5372F
:10013000D107C9F70E94100D0C943C130C940000D9
:10014000CF92DF92EF92FF920F931F93CF93DF93A3
:100150006C017A018B01C0E0D0E0CE15DF0589F09B
:10016000D8016D918D01D601ED91FC910190F08146
:10017000E02DC6010995892B11F47E0102C021965C
:10018000ECCFC701DF91CF911F910F91FF90EF90BE
:10019000DF90CF900895FC01918D828D981761F0CA
:1001A000828DDF01A80FB11D5D968C91928D9F5FAE
:1001B0009F73928F90E008958FEF9FEF0895FC0159
:1001C000918D828D981731F0828DE80FF11D858D0C
:1001D00090E008958FEF9FEF0895FC01918D228D9F
:1001E000892F90E0805C9F4F821B91098F73992724
:1001F000089588EB92E00E94ED0021E0892B09F43C
:1002000020E0822F0895FC01848DDF01A80FB11D2D
:10021000A35ABF4F2C91848D90E001968F7399273C
:10022000848FA689B7892C93A089B1898C91806429
:100230008C93938D848D981306C00288F389E02DEA
:1002400080818F7D80830895EF92FF920F931F939B
:10025000CF93DF93EC0181E0888F9B8D8C8D981379
:1002600005C0E889F989808185FD24C0F62E0B8DB3
:1002700010E00F5F1F4F0F731127E02E8C8DE812D7
:100280000CC00FB607FCFACFE889F989808185FF99
:10029000F5CFCE010E940301F1CF8B8DFE01E80F57
:1002A000F11DE35AFF4FF0820B8FEA89FB898081B1
:1002B000806207C0EE89FF896083E889F9898081BF
:1002C0008064808381E090E0DF91CF911F910F9156
:1002D000FF90EF900895CF93DF93EC01888D8823F2
:1002E000C9F0EA89FB89808185FD05C0A889B989A3
:1002F0008C9186FD0FC00FB607FCF5CF808185FF7E
:10030000F2CFA889B9898C9185FFEDCFCE010E94EB
:100310000301E7CFDF91CF91089580E090E0892B32
:1003200029F00E94F90081110C940000089585EDD8
:100330008093BC008091BC0084FDFCCF1092B7027A
:10034000089540911E02262F30E0240F311D2132E6
:100350003105DCF42091B7022430C9F4FC0180E0BF
:1003600090E0861758F430911E022191DC01A450D0
:10037000BE4FA30FB11D2C930196F3CF80911E02A7
:10038000680F60931E0280E0089581E0089582E086
:1003900008950895E0915A0380915903E81730F4C5
:1003A000F0E0EF58FD4F808190E008958FEF9FEFD0
:1003B000089590915A0380915903981750F4E92FAA
:1003C000F0E0EF58FD4F208130E09F5F90935A039B
:1003D00002C02FEF3FEFC90108958091590390E0CB
:1003E00020915A03821B91090895CF92DF92EF92D8
:1003F000FF920F931F93CF93DF937C01262F972FAC
:100400008A0180914F02882391F0C62FD72F6E0169
:10041000C40ED51ECC15DD0571F06991D701ED91A3
:10042000FC910190F081E02DC7010995F3CF642F75
:10043000822F0E94A101C801DF91CF911F910F91DE
:10044000FF90EF90DF90CF900895CF93DF931F92AE
:10045000CDB7DEB7698320914F022223D1F02091DE
:100460005703203240F021E030E0FC013383228347
:1004700080E090E015C080915803E82FF0E0E05B49
:10048000FD4F998190838F5F80935803809357032A
:1004900005C061E0CE0101960E94A10181E090E0DB
:1004A0000F90DF91CF9108956F927F928F929F92DC
:1004B000AF92BF92CF92DF92EF92FF920F931F9372
:1004C000CF93DF93EC01EE81AE2FB0E020E833E371
:1004D00041EE51E00E94F0124B015C0122EB37E04B
:1004E000FD0104E610E080E9E82EFF24F394C90141
:1004F000825B97408E179F07DCF4C90183709927B0
:10050000892B99F4C901B8010E94AB12892B31F4EF
:10051000C901B7010E94AB12892B39F480E8880E1B
:1005200081E5981E81E0A81EB11C2F5F3F4FDFCFF1
:100530006D80712CEE54F84FCF0164E670E00E949C
:10054000AB127C01CF0160E971E00E94AB126C013B
:1005500001E010E0E370FF27061517052CF50230C7
:10056000110581F4309771F4E114F10419F4C11408
:10057000D10441F480E8880E8BE3981E86E2A81E21
:10058000B11C0FC0D801A150BF4FAC91B0E020E822
:1005900031E541E050E00E94F012860E971EA81E41
:1005A000B91E0F5F1F4FD8CF49812A8130E0A0E1EB
:1005B000BEE00E94E1126B017C01242F30E0ACE32D
:1005C000B0E00E94E112DC01CB018C0D9D1DAE1D3F
:1005D000BF1D28816C017D01C20ED11CE11CF11CE4
:1005E000AC81B0E0119720E831E541E050E00E9495
:1005F000FB12DC01CB018C0D9D1DAE1DBF1DBC018E
:10060000CD01680D791D8A1D9B1DDF91CF911F9132
:100610000F91FF90EF90DF90CF90BF90AF909F90A1
:100620008F907F906F9008956F927F928F929F929C
:10063000AF92BF92CF92DF92EF92FF920F931F93F0
:10064000CF93DF93EA012CE3C22ED12CE12CF12CC5
:10065000A70196010E94BF126883CA01B901A701D0
:1006600096010E94BF126983CA01B90128E130E0F6
:1006700040E050E00E94BF1269017A016A83CA011A
:10068000B9016C5F7F4F8F4F9F4F27E030E040E014
:1006900050E00E94BF126F5F6B83812C912C54013C
:1006A00040E034E6632E712C00E911E0242F30E0A5
:1006B0002E54384FF901E370FF27309789F4C901B0
:1006C000B3010E94AB12892B31F4C901B8010E9419
:1006D000AB12892B29F48EE691E0A0E0B0E004C0D3
:1006E0008DE691E0A0E0B0E0880E991EAA1EBB1E28
:1006F000D501C401AA27BB27C816D906EA06FB06FE
:1007000010F04F5FD3CF4E83309799F4C90164E660
:1007100070E00E94AB12892B39F4C90160E971E0E5
:100720000E94AB12892B29F48EE691E0A0E0B0E0A4
:1007300004C08DE691E0A0E0B0E0881A990AAA0A08
:10074000BB0AC818D908EA08FB08C90164E670E0CA
:100750000E94AB128C01C90160E971E00E94AB12EA
:10076000A0E0B1E020E0213041F4309751F40115D0
:10077000110529F4009729F402C04C9103C04DE102
:1007800001C04CE150E060E070E0C416D506E6061A
:10079000F70640F0C41AD50AE60AF70A2F5F119649
:1007A0002C3009F72F5F2D83C394CC82DF91CF913A
:1007B0001F910F91FF90EF90DF90CF90BF90AF907F
:1007C0009F908F907F906F900895CF92DF92EF92DD
:1007D000FF92C090F801D090F901E090FA01F090FA
:1007E000FB016C157D058E059F0571F06B017C0189
:1007F00041EF51E00E941403C092F801D092F90138
:10080000E092FA01F092FB01FF90EF90DF90CF9021
:100810000895982F92959F702AEF929F800D112432
:1008200008950E941D13CF93DF93CDB7DEB72797AE
:100830000FB6F894DEBF0FBECDBF81E080934F02AC
:1008400088E680937002109258031092570360E07C
:100850008BE593E00E94250281E00E949F08882397
:1008600031F08093E60160E070E0CB013FC067E0CB
:1008700088E60E945B0810925A03809359038BE527
:1008800093E00E94D9018F770E94090489838BE548
:1008900093E00E94D9010E9409048A838BE593E0CA
:1008A0000E94D9018F7B0E9409048B838BE593E022
:1008B0000E94D9018C838BE593E00E94D9010E94AC
:1008C00009048D838BE593E00E94D9018F770E9404
:1008D00009048E838BE593E00E94D9010E940904EC
:1008E000825E8F83CE0101960E94540227960FB636
:1008F000F894DEBF0FBECDBFDF91CF9108952FB723
:10090000F89460914602709147028091480290915C
:1009100049022FBF08951F920F920FB60F92112414
:100920002F933F938F939F93AF93BF9380914602F2
:1009300090914702A0914802B0914902309145023E
:1009400023E0230F2D3720F40196A11DB11D05C012
:1009500026E8230F0296A11DB11D20934502809326
:10096000460290934702A0934802B09349028091B7
:100970004A0290914B02A0914C02B0914D02019617
:10098000A11DB11D80934A0290934B02A0934C028B
:10099000B0934D02BF91AF919F918F913F912F9155
:1009A0000F900FBE0F901F901895DC01ED91FC91F8
:1009B0000190F081E02D09948F929F92AF92BF92A7
:1009C000CF92DF92EF92FF926B017C010E94E503D0
:1009D0008090F501912CA12CB12CC701B6010E9489
:1009E000E5038091F50190E00A971CF084E991E01D
:1009F00002C08CE291E00E9459084AE050E0C50133
:100A0000B4010E941508C701B6010E94E503809059
:100A1000F701912C8EE4881A88EF980A092C000CB3
:100A2000AA08BB08C701B6010E94E5032091F601A0
:100A300083E0289F90011124A7EEB1E080E090E0D0
:100A4000FC01E20FF31FE859FF4FE491ED9301968B
:100A500083309105A9F71092EA0187EE91E00E9498
:100A600059084AE050E0C501B4010E94150860E24F
:100A700088EB92E00E94D504C701B6010E94E5030D
:100A80008090F301912CA12CB12CC701B6010E94DA
:100A9000E5038091F30190E00A971CF084E991E06E
:100AA00002C08CE291E00E9459084AE050E0C50182
:100AB000B4010E9415086AE388EB92E00E94D50415
:100AC000C701B6010E94E5038090F201912CA12C90
:100AD000B12CC701B6010E94E5038091F20190E0BC
:100AE0000A971CF084E991E002C08CE291E00E9438
:100AF00059084AE050E0C501B4010E9415086AE3B4
:100B000088EB92E00E94D504C701B6010E94E5037C
:100B10008090F101912CA12CB12CC701B6010E944B
:100B2000E5038091F10190E00A971CF084E991E0DF
:100B300002C08CE291E00E9459084AE050E0C501F1
:100B4000B401FF90EF90DF90CF90BF90AF909F9057
:100B50008F900C9415081F920F920FB60F921124CC
:100B60002F933F934F935F936F937F938F939F93B5
:100B7000AF93BF93EF93FF9388EB92E00E94030142
:100B8000FF91EF91BF91AF919F918F917F916F9165
:100B90005F914F913F912F910F900FBE0F901F903B
:100BA00018951F920F920FB60F9211242F938F93C7
:100BB0009F93EF93FF93E091C802F091C902808167
:100BC000E091CE02F091CF0282FD12C0908180911F
:100BD000D1028F5F8F732091D202821751F0E09182
:100BE000D102F0E0E854FD4F958F8093D10201C00F
:100BF0008081FF91EF919F918F912F910F900FBE68
:100C00000F901F9018951F920F920FB60F921124FC
:100C10002F933F934F935F936F937F938F939F9304
:100C2000AF93BF93EF93FF938091B900887F803695
:100C300009F49CC068F5883209F45BC090F48031F7
:100C400009F454C038F4882309F4F6C0883009F454
:100C50004DC0F6C0883109F44CC0803209F45DC043
:100C6000EFC0803409F468C048F4803309F455C0FB
:100C7000883309F0E5C08093B502D8C0803509F407
:100C80004FC0883509F45DC0883409F0D9C0D6C09A
:100C9000883909F4C7C0A8F4883709F467C038F464
:100CA000883609F463C0803709F460C0C9C0883849
:100CB00009F4B8C0803909F45FC0803809F0C0C0B9
:100CC0005BC0803B09F486C038F4803A09F466C002
:100CD000883A09F47FC0B4C0803C09F4A7C0883CBE
:100CE00009F4A4C0883B09F48AC0AAC08091B2026A
:100CF00010C09091B4028091B302981770F5E09102
:100D0000B40281E08E0F8093B402F0E0EF56FD4F05
:100D100080818093BB0085EC86C08093B5028EC035
:100D2000E091B40281E08E0F8093B4028091BB0009
:100D3000F0E0EF56FD4F80839091B4028091B302B2
:100D40006EC0E091B40281E08E0F8093B402809176
:100D5000BB00F0E0EF56FD4F80838091B602811119
:100D60006DC081E08093B10284EA61C083E080932A
:100D7000B70210924202CFCF80914202803208F037
:100D800051C0E091420281E08E0F80934202809137
:100D9000BB00F0E0EE5DFD4F8083BDCF85EC80931E
:100DA000BC001092B70280914202803230F4E09190
:100DB0004202F0E0EE5DFD4F10826091420270E071
:100DC000E0912002F091210282E292E009951092D6
:100DD000420236C084E08093B70210921F02109244
:100DE0001E02E0911C02F0911D02099580911E02E5
:100DF000811105C081E080931E021092FC01E091F8
:100E00001F0281E08E0F80931F02F0E0E450FE4F3E
:100E100080818093BB0090911F0280911E029817E1
:100E200008F479CF85E88093BC000AC085EC8093F4
:100E3000BC001092B70204C01092B5020E94970144
:100E4000FF91EF91BF91AF919F918F917F916F91A2
:100E50005F914F913F912F910F900FBE0F901F9078
:100E600018951092B70281E08093B6021092B102F9
:100E700061E082E10E94990A61E083E10E94990A9F
:100E8000E9EBF0E080818E7F808380818D7F80839D
:100E900088E48093B80085E48093BC0008958F9225
:100EA0009F92AF92BF92CF92DF92EF92FF92CF9339
:100EB000DF93A0917703882311F03A2F01C030E02F
:100EC0008091780390E0880F991F80529F4FC090C7
:100ED0007903D0907A03E0907B03F0907C0340E0AC
:100EE00050E0BA01FC01C591D49128812A23231333
:100EF0000FC04A015B012FEF821A920AA20AB20ABE
:100F00004C155D056E057F0538F4B501A401EACFE7
:100F1000342F252FCB0104C030E020E080E090E0AA
:100F2000632F722FDF91CF91FF90EF90DF90CF90E2
:100F3000BF90AF909F908F9008953FB7F8948091A5
:100F40004A0290914B02A0914C02B0914D0226B5FD
:100F5000A89B05C02F3F19F00196A11DB11D3FBFF1
:100F6000BA2FA92F982F8827820F911DA11DB11D7F
:100F7000BC01CD0142E0660F771F881F991F4A957B
:100F8000D1F70895009769F0FC0101900020E9F77E
:100F90003197AF01481B590BBC0188EB92E00C94D0
:100FA000A00080E090E008958F929F92AF92BF9250
:100FB0000F931F93CF93DF93CDB7DEB7A1970FB6F3
:100FC000F894DEBF0FBECDBF19A2423008F44AE04C
:100FD0008E010F5D1F4F842E912CA12CB12CA501E9
:100FE00094010E94BF12E62FB901CA0101501109F4
:100FF000EA3014F4E05D01C0E95CD801EC93232BE6
:10100000242B252B61F7C8010E94C207A1960FB6B9
:10101000F894DEBF0FBECDBFDF91CF911F910F912E
:10102000BF90AF909F908F900895CF92DF92EF92F4
:10103000FF92CF93DF936B017C014115510581F441
:10104000E091B802F091B9020190F081E02D88EBB7
:1010500092E0DF91CF91FF90EF90DF90CF900994D5
:101060004A305105E1F497FF19C06DE288EB92E038
:101070000E94D504EC0166277727CB016C197D0906
:101080008E099F094AE00E94D4078C0F9D1FDF91B3
:10109000CF91FF90EF90DF90CF9008954AE0C70185
:1010A000B601DF91CF91FF90EF90DF90CF900C943D
:1010B000D4070C94C2079091B7029111FCCF91E034
:1010C0009093B7029093B6022FEF2093B50210923F
:1010D000B402260F2093B3029093B2029091B20211
:1010E000880F892B8093B2028091B102813061F424
:1010F0001092B1028091B2028093BB008091BC003B
:1011000083FDF8CF85EC01C085EE8093BC00809113
:10111000B7028130E1F38091B402861710F4609138
:10112000B402A1E9B2E021E732E0F9018E2F821B7F
:10113000861718F48D918193F9CF862F0895382F53
:101140002091570390917002213208F049C080919C
:10115000B7028111FCCF42E04093B7023093B60250
:101160003FEF3093B5021092B4022093B302A0E592
:10117000B2E041E952E0FA013E2F341B321718F475
:101180003D913193F9CF1092B2022091B202990FA2
:10119000922B9093B2029091B102913061F410922F
:1011A000B1029091B2029093BB009091BC0093FD6C
:1011B000F8CF95EC01C095EE9093BC009091B702EA
:1011C0009230E1F39091B5029F3F79F08091B502A2
:1011D000803241F08091B502803331F084E005C067
:1011E00081E003C082E001C083E0109258031092B6
:1011F000570310924F020895CF93C62F91E090931A
:101200004F0298E690937002109258031092570381
:10121000682F8BE593E00E9425026C2F8BE593E00D
:101220000E94250281E0CF910C949F080F931F9399
:10123000CF938B0191E090934F0298E690937002C8
:101240001092580310925703682F8BE593E00E9489
:10125000250281E00E949F08C82F81110EC061E025
:1012600088E60E945B0810925A03809359038BE52D
:1012700093E00E94D901F80180838C2FCF911F91B8
:101280000F9108950F931F93CF93DF931F92CDB7C4
:10129000DEB7182F062FBE016F5F7F4F8EE00E94D2
:1012A00016092981115081E090E001C0880F1A953C
:1012B000EAF7002319F0622F682B03C08095682F8E
:1012C00062238EE00E94FC080F90DF91CF911F9166
:1012D0000F9108951F93CF93DF931F92CDB7DEB781
:1012E000182FBE016F5F7F4F8FE00E941609698142
:1012F000115081E090E001C0880F1A95EAF7262F7F
:10130000282339F0809568238FE00E94FC0881E053
:1013100001C080E00F90DF91CF911F9108958F92CF
:101320009F92AF92BF92CF92DF92EF92FF92CF93B4
:10133000DF936B017C019B01AC010E949A12882310
:1013400019F089ED91E027C046015701E894B7F8FC
:101350002FEF3FEF4FE75FE7C501B4010E949A12FC
:1013600081110DC02FEF3FEF4FE75FE7C501B401DB
:101370000E94D01018161CF48DED91E00CC02FEFD8
:101380003FEF4FE75FE4C701B6010E94281218162D
:1013900074F481EE91E0DF91CF91FF90EF90DF90B8
:1013A000CF90BF90AF909F908F900C94C2072FEF7B
:1013B0003FEF4FE75FECC701B6010E94D01087FDF9
:1013C000E8CF20E030E0A901C701B6010E94D010AB
:1013D00087FF0BC06DE288EB92E00E94D504EC0120
:1013E000F7FAF094F7F8F09402C0C0E0D0E02AE0F9
:1013F00037ED43EA5BE3C701B6010E9464104B017D
:101400005C010E9447116B017C010E9476119B01D7
:10141000AC01C501B4010E9463104B015C014AE0BC
:10142000C701B6010E94D407C80FD91F6EE288EB2E
:1014300092E00E94D504C80FD91F20E030E040E2BE
:1014400051E4C501B4010E942D124B015C010E94C0
:1014500047116B01E12CF12C4AE0C701B6010E9453
:10146000D407C80FD91FC701B6010E9476119B018E
:10147000AC01C501B4010E94631020E030E040E2FD
:1014800051E40E942D120E94471180E090E04AE052
:101490000E94D4078C0F9D1FDF91CF91FF90EF909A
:1014A000DF90CF90BF90AF909F908F900895AF92B4
:1014B000BF92CF92DF92EF92FF920F931F93CF9341
:1014C000DF9300D000D0CDB7DEB78C0149835A83BB
:1014D0006B837C83CE0101966C01580194E0A90EC8
:1014E000B11CE12CF12CC8010E944D10F601619154
:1014F0006F01861731F0C8010E945510FFEFEF1AF7
:10150000FF0A0F5F1F4F0A151B0569F781E0EF28DF
:1015100009F480E00F900F900F900F90DF91CF9122
:101520001F910F91FF90EF90DF90CF90BF90AF9001
:10153000089590E0FC01E453FF4F3491FC01E8541E
:10154000FF4F2491FC01EC55FF4FE491EE2309F489
:101550003BC0332339F1333091F038F43130A9F006
:10156000323001F584B58F7D12C0373091F03830BC
:10157000A1F03430B9F4809180008F7D03C0809158
:1015800080008F77809380000DC084B58F7784BDF5
:1015900009C08091B0008F7703C08091B0008F7D2B
:1015A0008093B000F0E0EE0FFF1FE656FF4FA591CD
:1015B000B4918FB7F894EC91611103C020952E235C
:1015C00001C02E2B2C938FBF0895CF93DF9390E013
:1015D000FC01E854FF4F2491FC01EC55FF4F84912E
:1015E000882361F190E0880F991FFC01E057FF4FBD
:1015F000C591D491FC01E656FF4FA591B4916111BC
:1016000009C09FB7F8948881209582238883EC9144
:101610002E230BC0623061F49FB7F8943881822F7B
:10162000809583238883EC912E2B2C939FBF06C03B
:101630008FB7F894E8812E2B28838FBFDF91CF914D
:1016400008958F929F92AF92BF92CF92DF92EF92C6
:10165000FF926B017C010E949D074B015C01C1144C
:10166000D104E104F104F1F00E949D07DC01CB01FB
:1016700088199909AA09BB09883E9340A105B105BB
:1016800070F321E0C21AD108E108F10888EE880E53
:1016900083E0981EA11CB11CC114D104E104F10423
:1016A00019F7DDCFFF90EF90DF90CF90BF90AF9014
:1016B0009F908F900895CF92DF92EF92FF920F93B9
:1016C0001F93CF93DF93CDB7DEB7C054D1400FB691
:1016D000F894DEBF0FBECDBF0E947F04009170035F
:1016E0001091710320917203309173036B017C019F
:1016F000C01AD10AE20AF30A40EDC41647E0D40644
:10170000E104F10428F4809174039091750322C1DF
:1017100060937003709371038093720390937303CB
:1017200080916703882309F4AEC010926C03109275
:101730006B0310926A03109269031092680361E0D0
:10174000809176030E94990A6AEF70E080E090E051
:101750000E94210B61E0809176030E94E50A60E01F
:10176000809176030E94990A64E170E080E090E045
:101770000E94210BF89461E0809176030E94990AFF
:101780008BE990E00197F1F762E0809176030E9487
:10179000E50A83E290E00197F1F780E00E944F07AD
:1017A000672B682B692B19F483E090E0BBC081E0C4
:1017B0000E944F07672B682B692B19F484E090E097
:1017C000B1C08E010F5F1F4F6E018FEBC81A8EEFF5
:1017D000D80A780180E00E944F07F7016083718387
:1017E0008283938381E00E944F07F70164837583AE
:1017F00086839783F8E0EF0EF11CEC14FD0451F79B
:1018000020E030E0F8014081518162817381C48021
:10181000D580E680F780411551056105710529F0F5
:10182000C114D104E104F10419F482E090E07AC01B
:10183000F90193E0F595E7959A95E1F7E959FC4FA1
:101840008181880F4C155D056E057F0508F4816068
:1018500081832F5F3F4F085F1F4F2832310591F67C
:101860009091690380916803890F90916A03890FB1
:1018700090916B03890F90916C03981709F458C0ED
:1018800081E090E04FC080916D0391E090934F0212
:1018900080937002109258031092570360E08BE51A
:1018A00093E00E94250281E00E949F08882319F09E
:1018B00085E090E044C065E080916D030E945B0884
:1018C000F82E10925A038093590308E613E085E03E
:1018D000E82EE00E8BE593E00E94D901F801819398
:1018E0008F01EE12F7CF61E070E080E090E00E949F
:1018F000210B80915A03F81619F082E090E01FC086
:101900009091690380916803890F90916A03890F10
:1019100090916B03890F90916C039817A9F081E067
:1019200090E00DC09093750380937403789412C077
:10193000109275031092740380E090E0F7CF9093BB
:1019400075038093740306C010927503109274039C
:1019500080E090E0C05CDE4F0FB6F894DEBF0FBEB3
:10196000CDBFDF91CF911F910F91FF90EF90DF904E
:10197000CF900895CF92DF92EF92FF92CF93DF93B3
:10198000C82F80916703882389F00E945B0B892B05
:1019900029F060E070E080EC9FE73BC060916A0353
:1019A00070E080E090E00E94761125C00E945B0B01
:1019B000892B79F7D0916B0360916A0370E080E026
:1019C00090E00E9478116B017C014D2F4F77642FBE
:1019D00070E080E090E00E94761120E030E040E28C
:1019E00051E40E94D5109B01AC01C701B6010E94D1
:1019F0006410D7FD9058CC2361F026E636E646EE1B
:101A00005FE30E942D1220E030E040E052E40E94AB
:101A10006410DF91CF91FF90EF90DF90CF90089509
:101A2000CF93DF93CDB7DEB72A970FB6F894DEBF1A
:101A30000FBECDBF789484B5826084BD84B58160CB
:101A400084BD85B5826085BD85B5816085BD809189
:101A50006E00816080936E00109281008091810001
:101A600082608093810080918100816080938100F9
:101A7000809180008160809380008091B1008460BB
:101A80008093B1008091B00081608093B00080911C
:101A90007A00846080937A0080917A0082608093DB
:101AA0007A0080917A00816080937A0080917A0038
:101AB000806880937A001092C100E091C802F09192
:101AC000C90282E08083E091C402F091C5021082D5
:101AD000E091C602F091C70281E180831092D002AA
:101AE000E091CC02F091CD0286E08083E091CA02C1
:101AF000F091CB02808180618083E091CA02F091F5
:101B0000CB02808188608083E091CA02F091CB0291
:101B1000808180688083E091CA02F091CB0280814D
:101B20008F7D80838FE298EFAFEFBFEF80937003DC
:101B300090937103A0937203B09373038091670332
:101B4000882331F062E0809176030E94E50A0AC0A2
:101B500010925A031092590310925803109257038F
:101B60000E94310760E087E00E94FC0860E088E0A6
:101B70000E94FC0860E089E00E94FC0861E08AE0C5
:101B80000E94FC0860E08BE00E94FC0860E08CE0B2
:101B90000E94FC0861E08DE00E94FC0881E00E9448
:101BA0006A0982E00E946A0960E081E00E944209BD
:101BB00060E082E00E944209BE016F5F7F4F8EE0CD
:101BC0000E941609698164608EE00E94FC0886E428
:101BD00095E6A2E688879987AA871B86BE01685F7B
:101BE0007F4F8EE291E00E9422138E52914063E07B
:101BF00070E00E94AB126F5F6E8387E591E00E94F8
:101C000017108D838AE591E00E941710825B8F8305
:101C10008FE591E00E9417108B8382E691E00E948D
:101C200017108A8385E691E00E9417108983CE0100
:101C300001960E945402665F7F4F8F4F9F4FAE0107
:101C40004F5F5F4F0E94140381E080934F0288E64C
:101C500080937002109258031092570360E08BE556
:101C600093E00E94250229811AE0822F612F0E94B1
:101C70009F12682F660F860F682F660F620F8BE525
:101C800093E00E9425022A81822F612F0E949F12D9
:101C9000682F660F860F682F660F620F8BE593E043
:101CA0000E9425022B81822F612F0E949F12682F94
:101CB000660F860F682F660F620F8BE593E00E9418
:101CC00025026C818BE593E00E9425022D81822FF5
:101CD000612F0E949F12682F660F860F682F660F74
:101CE000620F8BE593E00E9425022E81822F612FE7
:101CF0000E949F12682F660F860F682F660F620F73
:101D00008BE593E00E9425022F812E51822F612FB7
:101D10000E949F12682F660F680F660F620F8BE597
:101D200093E00E94250281E00E949F08BE01685F47
:101D30007F4F8FE00E94160968856F778FE00E94C1
:101D4000FC080E947F044AE00E94D40788E691E0E4
:101D50000E9459080E9413040E94DC0480E791E06D
:101D60000E94C207809143029091440281339547BB
:101D70000CF46AC080E00E94BA0C2B013C0181E0A7
:101D80000E94BA0C4B015C0180916703882369F0C3
:101D90000E945B0B892B09F0DFC06091680370E043
:101DA00080E090E00E94761121C00E945B0B892B9D
:101DB00009F0D2C06091680370E080E090E00E947A
:101DC00078116B017C016091690370E080E090E024
:101DD0000E94761120E030E040E251E40E94D510EC
:101DE0009B01AC01C701B6010E9464106B017C012C
:101DF0009B01AC010E949A128111AEC0A301920115
:101E0000C301B2010E949A128111A6C0A5019401DA
:101E1000C501B4010E949A1281119EC0B301A201B2
:101E200080E090E00E94570AB501A40184E090E0B0
:101E30000E94570AB701A60188E090E00E94570A65
:101E4000109244021092430264EF71E080E090E04F
:101E50000E94210B80914302909144028C509E4F2E
:101E6000909344028093430261E081E00E94420922
:101E700081E00E946A09882309F455C00E947F040A
:101E80004AE00E94D40783E791E00E9459080E942B
:101E900013040E94DC0444E050E060E070E0CE01F6
:101EA00001960E943D1089809A80AB80BC8044E0FE
:101EB00050E064E070E0CE0101960E943D10C980C0
:101EC000DA80EB80FC8044E050E068E070E0CE0116
:101ED00001960E943D1049805A806B807C808DE77E
:101EE00091E00E945908C301B2010E948F0981E963
:101EF00091E00E94590885E991E00E945908C501C6
:101F0000B4010E948F0983EA91E00E945908C70139
:101F1000B6010E948F0988EA91E00E94590880E783
:101F200091E00E94C20782E00E946A09882389F03A
:101F30000E947F044AE00E94D4078DEA91E00E944B
:101F400059080E9413040E94DC0480E791E00E947B
:101F5000C2070E948D0106CF87EB91E00E94C20765
:101F600080E791E00E94C2076BCFE8EBF2E01382BA
:101F7000128288EE93E0A0E0B0E084839583A6838C
:101F8000B78320E131E03183208325EC30E03587D1
:101F9000248724EC30E03787268720EC30E0318B33
:101FA000208B21EC30E0338B228B22EC30E0358B20
:101FB000248B26EC30E0378B268B118E128E138EFD
:101FC000148EEBE5F3E01382128284839583A6835B
:101FD000B78380E291E09183808384E690E09093E0
:101FE00056038093550310925A031092590310928E
:101FF0005803109257030E943107E7E6F3E010827E
:102000008CE5868382E1878383E18087118612864F
:102010001386148689E090E09687858783E087871A
:10202000108A118A128A138A148A158A0895FC016B
:1020300088279927E89421912032E9F3293010F07C
:102040002E30C8F32B3241F02D3239F4689404C09D
:102050000E943510820F911D219120532A30C0F328
:102060001EF4909581959F4F08957AE0979F902D4B
:10207000879F802D910D11240895DC01CB01FC0177
:10208000F999FECF06C0F2BDE1BDF89A319600B4D1
:102090000D9241505040B8F70895F999FECF92BD86
:1020A00081BDF89A992780B50895262FF999FECF1A
:1020B0001FBA92BD81BD20BD0FB6F894FA9AF99A65
:1020C0000FBE019608955058BB27AA270E947B1087
:1020D0000C94EE110E94E01138F00E94E71120F0FC
:1020E00039F49F3F19F426F40C94DD110EF4E095B9
:1020F000E7FB0C94D711E92F0E94FF1158F3BA1790
:10210000620773078407950720F079F4A6F50C940D
:1021100021120EF4E0950B2EBA2FA02D0B01B90160
:1021200090010C01CA01A0011124FF27591B99F04D
:10213000593F50F4503E68F11A16F040A22F232F59
:10214000342F4427585FF3CF469537952795A795A9
:10215000F0405395C9F77EF41F16BA0B620B730B50
:10216000840BBAF09150A1F0FF0FBB1F661F771FC1
:10217000881FC2F70EC0BA0F621F731F841F48F476
:10218000879577956795B795F7959E3F08F0B0CFFF
:102190009395880F08F09927EE0F979587950895E6
:1021A0000E94B31108F481E008950E94E9100C9494
:1021B000EE110E94E71158F00E94E01140F029F45E
:1021C0005F3F29F00C94D71151110C9422120C94FA
:1021D000DD110E94FF1168F39923B1F3552391F3A8
:1021E000951B550BBB27AA2762177307840738F086
:1021F0009F5F5F4F220F331F441FAA1FA9F335D0E3
:102200000E2E3AF0E0E832D091505040E695001C96
:10221000CAF72BD0FE2F29D0660F771F881FBB1F50
:10222000261737074807AB07B0E809F0BB0B802D2E
:10223000BF01FF2793585F4F3AF09E3F510578F05A
:102240000C94D7110C9422125F3FE4F3983ED4F320
:10225000869577956795B795F7959F5FC9F7880F2E
:10226000911D9695879597F90895E1E0660F771F80
:10227000881FBB1F621773078407BA0720F0621B11
:10228000730B840BBA0BEE1F88F7E09508950E943C
:10229000071288F09F5798F0B92F9927B751B0F0DF
:1022A000E1F0660F771F881F991F1AF0BA95C9F7DA
:1022B00014C0B13091F00E942112B1E008950C9445
:1022C0002112672F782F8827B85F39F0B93FCCF3F8
:1022D000869577956795B395D9F73EF49095809557
:1022E000709561957F4F8F4F9F4F0895E89409C077
:1022F00097FB3EF490958095709561957F4F8F4F39
:102300009F4F9923A9F0F92F96E9BB279395F6954E
:10231000879577956795B795F111F8CFFAF4BB0FCC
:1023200011F460FF1BC06F5F7F4F8F4F9F4F16C030
:10233000882311F096E911C0772321F09EE8872FBA
:10234000762F05C0662371F096E8862F70E060E076
:102350002AF09A95660F771F881FDAF7880F9695EF
:10236000879597F90895990F0008550FAA0BE0E893
:10237000FEEF16161706E807F907C0F01216130647
:10238000E407F50798F0621B730B840B950B39F487
:102390000A2661F0232B242B252B21F408950A26ED
:1023A00009F4A140A6958FEF811D811D089597F92D
:1023B0009F6780E870E060E008959FEF80EC0895EB
:1023C00000240A9416161706180609060895002414
:1023D0000A9412161306140605060895092E03948E
:1023E000000C11F4882352F0BB0F40F4BF2B11F402
:1023F00060FF04C06F5F7F4F8F4F9F4F089557FD61
:102400009058440F551F59F05F3F71F04795880F62
:1024100097FB991F61F09F3F79F0879508951216F9
:1024200013061406551FF2CF4695F1DF08C01616A5
:1024300017061806991FF1CF869571056105089456
:102440000895E894BB2766277727CB0197F908956D
:102450000E94B31108F48FEF08950E9440120C946B
:10246000EE110E94E01138F00E94E71120F0952350
:1024700011F00C94D7110C94DD1111240C9422123C
:102480000E94FF1170F3959FC1F3950F50E0551F07
:10249000629FF001729FBB27F00DB11D639FAA27B9
:1024A000F00DB11DAA1F649F6627B00DA11D661F08
:1024B000829F2227B00DA11D621F739FB00DA11D29
:1024C000621F839FA00D611D221F749F3327A00DE3
:1024D000611D231F849F600D211D822F762F6A2F7F
:1024E00011249F5750409AF0F1F088234AF0EE0FE4
:1024F000FF1FBB1F661F771F881F91505040A9F711
:102500009E3F510580F00C94D7110C9422125F3F2E
:10251000E4F3983ED4F3869577956795B795F7954C
:10252000E7959F5FC1F7FE2B880F911D96958795C4
:1025300097F908950E94B311880B990B0895991B80
:1025400079E004C0991F961708F0961B881F7A95AA
:10255000C9F78095089597FB072E16F4009407D0CD
:1025600077FD09D00E94031307FC05D03EF4909537
:1025700081959F4F0895709561957F4F0895A1E2D1
:102580001A2EAA1BBB1BFD010DC0AA1FBB1FEE1FED
:10259000FF1FA217B307E407F50720F0A21BB30B38
:1025A000E40BF50B661F771F881F991F1A9469F7B4
:1025B00060957095809590959B01AC01BD01CF0110
:1025C0000895A29FB001B39FC001A39F700D811D0C
:1025D0001124911DB29F700D811D1124911D08952C
:1025E0000E94E112A59F900DB49F900DA49F800DB5
:1025F000911D11240895B7FF0C94F0120E94F0125F
:10260000821B930B0895AA1BBB1B51E107C0AA1F95
:10261000BB1FA617B70710F0A61BB70B881F991F83
:102620005A95A9F780959095BC01CD010895EE0FBC
:10263000FF1F0590F491E02D099481E090E0F8945B
:102640000C943C13FB0151915523A9F0BF01DC010F
:102650004D9145174111E1F759F4CD01019000204A
:1026600049F04D9140154111C9F3FB014111EFCFE4
:0C26700081E090E001970895F894FFCFFE
:10267C001F1C1F1E1F1E1F1F1E1F1E1F00000000E1
:10268C002401A000ED00CB00DF006B010000000076
:10269C002502F501ED01D901CA01C90130004A61D9
:1026AC006E4665624D61724170724D61794A756E0C
:1026BC004A756C4175675365704F63744E6F764401
:1026CC006563004665622031342032303138003287
:1026DC00323A32383A343600205374617274200026
:1026EC000D0A0020414C41524D5F312000094448F5
:1026FC005431323D3E2048756D69646974793A20D5
:10270C00002025090054656D7065726174757265E1
:10271C003A2000202A432000202A46090020414C60
:10272C0041524D5F3220004661696C656420746FC4
:10273C0020726561642066726F6D2044485431329A
:10274C002073656E736F7221006E616E00696E6628
:06275C00006F766600002C
:00000001FF
