:100000000C9476000C949E000C949E000C949E0020
:100010000C949E000C949E000C949E000C949E00E8
:100020000C949E000C949E000C949E000C949E00D8
:100030000C949E000C949E000C949E000C949E00C8
:100040000C9428030C949E000C9491050C94790355
:100050000C949E000C949E000C949E000C949E00A8
:100060000C944D060C949E00000000002400270014
:100070002A0000000000250028002B0004040404CE
:100080000404040402020202020203030303030342
:10009000010204081020408001020408102001021F
:1000A00004081020000000080002010000030407FB
:1000B00000000000000000004572724A616E466553
:1000C000624D61724170724D61794A756E4A756C0C
:1000D0004175675365704F63744E6F764465630076
:1000E00000000000230026002900990E11241FBEE5
:1000F000CFEFD8E0DEBFCDBF11E0A0E0B1E0ECEA89
:10010000F3E202C005900D92A63AB107D9F723E0B9
:10011000A6EAB1E001C01D92AB33B207E1F710E0EF
:10012000C6E7D0E004C02197FE010E94C911C5377F
:10013000D107C9F70E949F0C0C94D4110C940000B5
:10014000CF93DF9390E0FC01E057FF4F2491FC0137
:10015000E458FF4F8491882361F190E0880F991F44
:10016000FC01E859FF4FC591D491FC01EE58FF4FB7
:10017000A591B491611109C09FB7F8948881209529
:1001800082238883EC912E230BC0623061F49FB7E9
:10019000F8943881822F809583238883EC912E2BCD
:1001A0002C939FBF06C08FB7F894E8812E2B28832D
:1001B0008FBFDF91CF9108953FB7F8948091AB0145
:1001C0009091AC01A091AD01B091AE0126B5A89B74
:1001D00005C02F3F19F00196A11DB11D3FBFBA2FD9
:1001E000A92F982F8827820F911DA11DB11DBC0139
:1001F000CD0142E0660F771F881F991F4A95D1F7FE
:1002000008958F929F92AF92BF92CF92DF92EF921A
:10021000FF926B017C010E94DC004B015C01C11468
:10022000D104E104F104F1F00E94DC00DC01CB0117
:1002300088199909AA09BB09883E9340A105B1050F
:1002400070F321E0C21AD108E108F10888EE880EA7
:1002500083E0981EA11CB11CC114D104E104F10477
:1002600019F7DDCFFF90EF90DF90CF90BF90AF9068
:100270009F908F9008952FB7F8946091A701709187
:10028000A8018091A9019091AA012FBF0895CF9252
:10029000DF92EF92FF920F931F93CF93DF936C0146
:1002A0007A018B01C0E0D0E0CE15DF0589F0D801DE
:1002B0006D918D01D601ED91FC910190F081E02DC1
:1002C000C6010995892B11F47E0102C02196ECCF5D
:1002D000C701DF91CF911F910F91FF90EF90DF90B9
:1002E000CF90089586E792E00E94C10321E0892B18
:1002F00009F420E0822F089590E0FC01EC55FF4FB7
:100300003491FC01E057FF4F2491FC01E458FF4F6A
:10031000E491EE2309F43BC0332339F1333091F0FB
:1003200038F43130A9F0323001F584B58F7D12C038
:10033000373091F03830A1F03430B9F4809180003A
:100340008F7D03C0809180008F77809380000DC0E7
:1003500084B58F7784BD09C08091B0008F7703C0CA
:100360008091B0008F7D8093B000F0E0EE0FFF1F12
:10037000EE58FF4FA591B4918FB7F894EC916111AD
:1003800003C020952E2301C02E2B2C938FBF0895E0
:10039000CF92DF92EF92FF920F931F93CF93DF9351
:1003A000CDB7DEB7C054D1400FB6F894DEBF0FBE54
:1003B000CDBF0E943B0100912E0310912F0320918D
:1003C0003003309131036B017C01C01AD10AE20A7B
:1003D000F30A40EDC41647E0D406E104F10428F422
:1003E000809132039091330323C160932E03709365
:1003F0002F0380933003909331038091250388234A
:1004000009F4AEC010922A03109229031092280317
:10041000109227031092260361E0809134030E941A
:100420007C016AEF70E080E090E00E94010161E0F1
:10043000809134030E94A00060E0809134030E9408
:100440007C0164E170E080E090E00E940101F8949A
:1004500061E0809134030E947C018BE990E0019778
:10046000F1F762E0809134030E94A00083E290E003
:100470000197F1F780E00E94510C672B682B692BE4
:1004800019F483E090E0BCC081E00E94510C672B1E
:10049000682B692B19F484E090E0B2C08E010F5FE5
:1004A0001F4F6E018FEBC81A8EEFD80A780180E0DB
:1004B0000E94510CF701608371838283938381E0F2
:1004C0000E94510CF7016483758386839783F8E05B
:1004D000EF0EF11CEC14FD0451F720E030E0F801C0
:1004E0004081518162817381C480D580E680F7802C
:1004F000411551056105710529F0C114D104E104CC
:10050000F10419F482E090E07BC0F90193E0F595E5
:10051000E7959A95E1F7EB5DFC4F8181880F4C15CB
:100520005D056E057F0508F4816081832F5F3F4F75
:10053000085F1F4F2832310591F690912703809173
:100540002603890F90912803890F90912903890F21
:1005500090912A03981709F459C081E090E050C0A7
:1005600080912B0391E090930D0280932E021092C4
:1005700016031092150360E089E193E00E94650480
:1005800081E00E94570A882319F085E090E045C079
:1005900065E080912B030E94130A10921803809348
:1005A000170306E213E085E0F82EF00E89E193E0F0
:1005B0000E941904F80181938F01FE12F7CF61E0C8
:1005C00070E080E090E00E9401019091170380911B
:1005D0001803981719F082E090E01FC0909127034C
:1005E00080912603890F90912803890F9091290308
:1005F000890F90912A039817A9F081E090E00DC02F
:100600009093330380933203789412C01092330393
:100610001092320380E090E0F7CF90933303809301
:10062000320306C0109233031092320380E090E050
:10063000C05CDE4F0FB6F894DEBF0FBECDBFDF91BA
:10064000CF911F910F91FF90EF90DF90CF90089581
:100650001F920F920FB60F9211242F933F938F93F7
:100660009F93AF93BF938091A7019091A801A09110
:10067000A901B091AA013091A60123E0230F2D37E3
:1006800020F40196A11DB11D05C026E8230F029696
:10069000A11DB11D2093A6018093A7019093A801ED
:1006A000A093A901B093AA018091AB019091AC01F4
:1006B000A091AD01B091AE010196A11DB11D809335
:1006C000AB019093AC01A093AD01B093AE01BF918B
:1006D000AF919F918F913F912F910F900FBE0F90EF
:1006E0001F901895DC01ED91FC910190F081E02DB7
:1006F00009941F920F920FB60F9211242F933F93DC
:100700004F935F936F937F938F939F93AF93BF9319
:10071000EF93FF9386E792E00E94C305FF91EF916C
:10072000BF91AF919F918F917F916F915F914F9109
:100730003F912F910F900FBE0F901F901895FC01C5
:10074000918D828D981761F0828DDF01A80FB11D08
:100750005D968C91928D9F5F9F73928F90E008952C
:100760008FEF9FEF0895FC01918D828D981731F0E6
:10077000828DE80FF11D858D90E008958FEF9FEF3A
:100780000895FC01918D228D892F90E0805C9F4F10
:10079000821B91098F739927089580E090E0892B3F
:1007A00029F00E94720181110C940000089585EDDA
:1007B0008093BC008091BC0084FDFCCF1092750238
:1007C00008954091E701262F30E0240F311D21329A
:1007D0003105DCF4209175022430C9F4FC0180E07D
:1007E00090E0861758F43091E7012191DC01AB537A
:1007F000BE4FA30FB11D2C930196F3CF8091E7015B
:10080000680F6093E70180E0089581E0089582E039
:1008100008950895E091180380911703E81730F4C4
:10082000F0E0E15DFD4F808190E008958FEF9FEF54
:1008300008959091180380911703981750F4E92FA9
:10084000F0E0E15DFD4F208130E09F5F9093180361
:1008500002C02FEF3FEFC90108958091170390E088
:1008600020911803821B91090895CF92DF92EF9295
:10087000FF920F931F93CF93DF937C01262F972F27
:100880008A0180910D02882391F0C62FD72F6E0127
:10089000C40ED51ECC15DD0571F06991D701ED911F
:1008A000FC910190F081E02DC7010995F3CF642FF1
:1008B000822F0E94E103C801DF91CF911F910F9118
:1008C000FF90EF90DF90CF900895CF93DF931F922A
:1008D000CDB7DEB7698320910D022223D1F020919C
:1008E0001503203240F021E030E0FC013383228305
:1008F00080E090E015C080911603E82FF0E0E25F01
:10090000FD4F998190838F5F809316038093150329
:1009100005C061E0CE0101960E94E10381E090E014
:100920000F90DF91CF9108954F925F926F927F92D7
:100930008F929F92AF92BF92CF92DF92EF92FF92EF
:100940000F931F93CF93DF934B015C018091C10103
:100950009091C201A091C301B091C401881699067B
:10096000AA06BB0609F4C2C08CE3C82ED12CE12C28
:10097000F12CC501B401A70196010E947111609389
:10098000BA01CA01B901A70196010E9471116093D1
:10099000BB01CA01B90128E130E040E050E00E940B
:1009A000711169017A016093BC01CA01B9016C5FE0
:1009B0007F4F8F4F9F4F27E030E040E050E00E9494
:1009C00071116F5F6093BD01412C512C320140E0E9
:1009D00004E610E0C0E9D1E0242F30E02E54384F77
:1009E000F901E370FF27309789F4C901B8010E942B
:1009F0005D11892B31F4C901BE010E945D11892B63
:100A000029F48EE691E0A0E0B0E004C08DE691E02C
:100A1000A0E0B0E0480E591E6A1E7B1ED301C20141
:100A2000AA27BB27C816D906EA06FB0610F04F5FB7
:100A3000D3CF4093C001309799F4C90164E670E0C8
:100A40000E945D11892B39F4C90160E971E00E94AF
:100A50005D11892B29F48EE691E0A0E0B0E004C09E
:100A60008DE691E0A0E0B0E0481A590A6A0A7B0AD4
:100A7000C418D508E608F708C90164E670E00E94CA
:100A80005D11EC01C90160E971E00E945D11A0E017
:100A9000B1E020E0213039F4309749F4209729F46F
:100AA000009729F402C04C9103C04DE101C04CE114
:100AB00050E060E070E0C416D506E606F70640F0A8
:100AC000C41AD50AE60AF70A2F5F11962C3011F7DF
:100AD0002F5F2093BF01C394C092BE018092C101D9
:100AE0009092C201A092C301B092C401DF91CF9154
:100AF0001F910F91FF90EF90DF90CF90BF90AF903C
:100B00009F908F907F906F905F904F900895982F57
:100B100092959F702AEF929F800D112408950E9454
:100B2000CF111F920F920FB60F9211242F938F9314
:100B30009F93EF93FF93E0918602F091870280816B
:100B4000E0918C02F0918D0282FD12C09081809123
:100B50008F028F5F8F7320919002821751F0E09186
:100B60008F02F0E0EA58FD4F958F80938F0201C00D
:100B70008081FF91EF919F918F912F910F900FBEE8
:100B80000F901F901895FC01848DDF01A80FB11DF7
:100B9000A35ABF4F2C91848D90E001968F739927B3
:100BA000848FA689B7892C93A089B1898C918064A0
:100BB0008C93938D848D981306C00288F389E02D61
:100BC00080818F7D80830895EF92FF920F931F9312
:100BD000CF93DF93EC0181E0888F9B8D8C8D9813F0
:100BE00005C0E889F989808185FD24C0F62E0B8D2A
:100BF00010E00F5F1F4F0F731127E02E8C8DE8124E
:100C00000CC00FB607FCFACFE889F989808185FF0F
:100C1000F5CFCE010E94C305F1CF8B8DFE01E80F09
:100C2000F11DE35AFF4FF0820B8FEA89FB89808127
:100C3000806207C0EE89FF896083E889F989808135
:100C40008064808381E090E0DF91CF911F910F91CC
:100C5000FF90EF900895CF93DF93EC01888D882368
:100C6000C9F0EA89FB89808185FD05C0A889B98919
:100C70008C9186FD0FC00FB607FCF5CF808185FFF4
:100C8000F2CFA889B9898C9185FFEDCFCE010E9462
:100C9000C305E7CFDF91CF9108951F920F920FB652
:100CA0000F9211242F933F934F935F936F937F93F2
:100CB0008F939F93AF93BF93EF93FF938091B9006E
:100CC000887F803609F49CC068F5883209F45BC0DF
:100CD00090F4803109F454C038F4882309F4F6C044
:100CE000883009F44DC0F6C0883109F44CC0803218
:100CF00009F45DC0EFC0803409F468C048F4803363
:100D000009F455C0883309F0E5C080937302D8C058
:100D1000803509F44FC0883509F45DC0883409F086
:100D2000D9C0D6C0883909F4C7C0A8F4883709F4F7
:100D300067C038F4883609F463C0803709F460C0AE
:100D4000C9C0883809F4B8C0803909F45FC0803858
:100D500009F0C0C05BC0803B09F486C038F4803A1B
:100D600009F466C0883A09F47FC0B4C0803C09F435
:100D7000A7C0883C09F4A4C0883B09F48AC0AAC073
:100D80008091700210C09091720280917102981748
:100D900070F5E091720281E08E0F80937202F0E0B4
:100DA000E15BFD4F80818093BB0085EC86C0809322
:100DB00073028EC0E091720281E08E0F8093720206
:100DC0008091BB00F0E0E15BFD4F80839091720267
:100DD000809171026EC0E091720281E08E0F80936B
:100DE00072028091BB00F0E0E15BFD4F8083809157
:100DF000740281116DC081E080936F0284EA61C04A
:100E000083E08093750210920B02CFCF80910B028A
:100E1000803208F051C0E0910B0281E08E0F809388
:100E20000B028091BB00F0E0E551FE4F8083BDCF07
:100E300085EC8093BC001092750280910B02803289
:100E400030F4E0910B02F0E0E551FE4F108260912A
:100E50000B0270E0E091E901F091EA018BEE91E084
:100E6000099510920B0236C084E0809375021092AF
:100E7000E8011092E701E091E501F091E6010995A2
:100E80008091E701811105C081E08093E701109214
:100E9000C501E091E80181E08E0F8093E801F0E068
:100EA000EB53FE4F80818093BB009091E8018091CD
:100EB000E701981708F479CF85E88093BC000AC051
:100EC00085EC8093BC001092750204C010927302EE
:100ED0000E94D703FF91EF91BF91AF919F918F91A6
:100EE0007F916F915F914F913F912F910F900FBE26
:100EF0000F901F9018951092750281E080937402F4
:100F000010926F0261E082E10E947C0161E083E166
:100F10000E947C01E9EBF0E080818E7F80838081FC
:100F20008D7F808388E48093B80085E48093BC0043
:100F300008958F929F92AF92BF92CF92DF92EF92DD
:100F4000FF926B017C010E9494048090BE01912C61
:100F5000A12CB12CC701B6010E9494048091BE015E
:100F600090E00A971CF088E591E002C088E991E0E2
:100F70000E94110A4AE050E0C501B4010E94CD0967
:100F8000C701B6010E9494048090C001912C8EE4A8
:100F9000881A88EF980A092C000CAA08BB08C70118
:100FA000B6010E9494042091BF0183E0289F900124
:100FB0001124A0EBB1E080E090E0FC01E20FF31F10
:100FC000E854FF4FE491ED93019683309105A9F722
:100FD0001092B30180EB91E00E94110A4AE050E0C8
:100FE000C501B4010E94CD0960E286E792E00E944B
:100FF0007203C701B6010E9494048090BC01912C39
:10100000A12CB12CC701B6010E9494048091BC01AF
:1010100090E00A971CF088E591E002C088E991E031
:101020000E94110A4AE050E0C501B4010E94CD09B6
:101030006AE386E792E00E947203C701B6010E944C
:1010400094048090BB01912CA12CB12CC701B60156
:101050000E9494048091BB0190E00A971CF088E5FF
:1010600091E002C088E991E00E94110A4AE050E054
:10107000C501B4010E94CD096AE386E792E00E94AF
:101080007203C701B6010E9494048090BA01912CAA
:10109000A12CB12CC701B6010E9494048091BA0121
:1010A00090E00A971CF088E591E002C088E991E0A1
:1010B0000E94110A4AE050E0C501B401FF90EF9090
:1010C000DF90CF90BF90AF909F908F900C94CD0900
:1010D0004F925F926F927F928F929F92AF92BF9248
:1010E000CF92DF92EF92FF920F931F93CF93DF93F4
:1010F00081E080930D0288E680932E021092160301
:101100001092150360E089E193E00E94650481E09C
:101110000E94570A882331F08093AF0160E070E0AD
:10112000CB01D7C067E088E60E94130A109218032B
:101130008093170389E193E00E9419048F770E943E
:101140008705582E89E193E00E9419040E948705C3
:10115000682E89E193E00E9419048F7B0E94870525
:10116000782E89E193E00E94190489E193E00E94BE
:1011700019040E948705482E89E193E00E94190412
:101180008F770E948705082F89E193E00E94190458
:101190000E948705EEE1E80FAE2FB0E020E833E3D0
:1011A00041EE51E00E94A2114B015C0122EB37E0BD
:1011B000FD01C4E6D0E080E9E82EFF24F394C901E4
:1011C000825B97408E179F07DCF4C90183709927D3
:1011D000892B99F4C901BE010E945D11892B31F45C
:1011E000C901B7010E945D11892B39F480E8880E8E
:1011F00081E5981E81E0A81EB11C2F5F3F4FDFCF15
:10120000EE54F84FCF0164E670E00E945D117C015E
:10121000CF0160E971E00E945D116C01C1E0D0E096
:1012200010E0E370FF27C017D10724F5C230D105C5
:1012300081F4309771F4E114F10419F4C114D1046C
:1012400041F480E8880E8BE3981E86E2A81EB11C4C
:101250000FC0DE01A150BF4FAC91B0E020E831E5F6
:1012600041E050E00E94A211860E971EA81EB91EF2
:101270002196D9CF272D30E0A0E1BEE00E94931146
:101280006B017C01262D30E0ACE3B0E00E949311AD
:10129000DC01CB018C0D9D1DAE1DBF1D6C017D01C0
:1012A000C50CD11CE11CF11CA42DB0E0119720E865
:1012B00031E541E050E00E94AD11DC01CB018C0D25
:1012C0009D1DAE1DBF1DBC01CD01680D791D8A1D80
:1012D0009B1DDF91CF911F910F91FF90EF90DF90B9
:1012E000CF90BF90AF909F908F907F906F905F90C6
:1012F0004F900895009769F0FC0101900020E9F7F4
:101300003197AF01481B590BBC0186E792E00C9462
:10131000470180E090E008958F929F92AF92BF9234
:101320000F931F93CF93DF93CDB7DEB7A1970FB67F
:10133000F894DEBF0FBECDBF19A2423008F44AE0D8
:101340008E010F5D1F4F842E912CA12CB12CA50175
:1013500094010E947111E62FB901CA0101501109CF
:10136000EA3014F4E05D01C0E95CD801EC93232B72
:10137000242B252B61F7C8010E947A09A1960FB68C
:10138000F894DEBF0FBECDBFDF91CF911F910F91BB
:10139000BF90AF909F908F900895CF92DF92EF9281
:1013A000FF92CF93DF936B017C014115510581F4CE
:1013B000E0917602F09177020190F081E02D86E7CE
:1013C00092E0DF91CF91FF90EF90DF90CF90099462
:1013D0004A305105E1F497FF19C06DE286E792E0CB
:1013E0000E947203EC0166277727CB016C197D09F7
:1013F0008E099F094AE00E948C098C0F9D1FDF9186
:10140000CF91FF90EF90DF90CF9008954AE0C70111
:10141000B601DF91CF91FF90EF90DF90CF900C94C9
:101420008C090C947A09909175029111FCCF91E08E
:1014300090937502909374022FEF20937302109291
:101440007202260F209371029093700290917002A5
:10145000880F892B8093700280916F02813061F434
:1014600010926F02809170028093BB008091BC004B
:1014700083FDF8CF85EC01C085EE8093BC008091A0
:1014800075028130E1F380917202861710F4609149
:101490007202AFE4B2E02FE232E0F9018E2F821B3C
:1014A000861718F48D918193F9CF862F0895382FE0
:1014B0002091150390912E02213208F049C08091AD
:1014C00075028111FCCF42E04093750230937402A3
:1014D0003FEF309373021092720220937102AEE0DC
:1014E000B2E04FE452E0FA013E2F341B321718F4F9
:1014F0003D913193F9CF1092700220917002990FB3
:10150000922B9093700290916F02913061F410923F
:101510006F02909170029093BB009091BC0093FD7C
:10152000F8CF95EC01C095EE9093BC0090917502B8
:101530009230E1F3909173029F3F79F080917302B2
:10154000803241F080917302803331F084E005C035
:1015500081E003C082E001C083E010921603109284
:10156000150310920D020895CF93C62F91E090932A
:101570000D0298E690932E02109216031092150316
:10158000682F89E193E00E9465046C2F89E193E064
:101590000E94650481E0CF910C94570A0F931F932A
:1015A000CF938B0191E090930D0298E690932E02D9
:1015B0001092160310921503682F89E193E00E94A0
:1015C000650481E00E94570AC82F81110EC061E0B6
:1015D00088E60E94130A109218038093170389E18A
:1015E00093E00E941904F80180838C2FCF911F9102
:1015F0000F9108951F93CF93DF931F92CDB7DEB75E
:10160000182FBE016F5F7F4F8FE00E94CE0A698165
:10161000115081E090E001C0880F1A95EAF7262F5B
:10162000282339F0809568238FE00E94B40A81E076
:1016300001C080E00F90DF91CF911F9108950F932B
:101640001F93CF93DF931F92CDB7DEB7182F062FCE
:10165000BE016F5F7F4F8EE00E94CE0A298111503C
:1016600081E090E001C0880F1A95EAF7002319F095
:10167000622F682B03C08095682F62238EE00E9442
:10168000B40A0F90DF91CF911F910F9108958F921F
:101690009F92AF92BF92CF92DF92EF92FF92CF9341
:1016A000DF936B017C019B01AC010E9458118823E0
:1016B00019F08AE991E027C046015701E894B7F88C
:1016C0002FEF3FEF4FE75FE7C501B4010E945811CC
:1016D00081110DC02FEF3FEF4FE75FE7C501B40168
:1016E0000E948E0F18161CF48EE991E00CC02FEFAB
:1016F0003FEF4FE75FE4C701B6010E94E6101816FE
:1017000074F482EA91E0DF91CF91FF90EF90DF9047
:10171000CF90BF90AF909F908F900C947A092FEF4D
:101720003FEF4FE75FECC701B6010E948E0F87FDC8
:10173000E8CF20E030E0A901C701B6010E948E0F7A
:1017400087FF0BC06DE286E792E00E947203EC0116
:10175000F7FAF094F7F8F09402C0C0E0D0E02AE085
:1017600037ED43EA5BE3C701B6010E94220F4B014C
:101770005C010E9405106B017C010E9434109B01EA
:10178000AC01C501B4010E94210F4B015C014AE08C
:10179000C701B6010E948C09C80FD91F6EE286E707
:1017A00092E00E947203C80FD91F20E030E040E2AF
:1017B00051E4C501B4010E94EB104B015C010E9491
:1017C00005106B01E12CF12C4AE0C701B6010E9423
:1017D0008C09C80FD91FC701B6010E9434109B01A4
:1017E000AC01C501B4010E94210F20E030E040E2CD
:1017F00051E40E94EB100E94051080E090E04AE066
:101800000E948C098C0F9D1FDF91CF91FF90EF906C
:10181000DF90CF90BF90AF909F908F900895AF9240
:10182000BF92CF92DF92EF92FF920F931F93CF93CD
:10183000DF9300D000D0CDB7DEB78C0149835A8347
:101840006B837C83CE0101966C01580194E0A90E54
:10185000B11CE12CF12CC8010E940B0FF601619123
:101860006F01861731F0C8010E94130FFFEFEF1AC6
:10187000FF0A0F5F1F4F0A151B0569F781E0EF286C
:1018800009F480E00F900F900F900F90DF91CF91AF
:101890001F910F91FF90EF90DF90CF90BF90AF908E
:1018A00008958F929F92AF92BF92CF92DF92EF9264
:1018B000FF92CF93DF93A0913503882311F03A2F45
:1018C00001C030E08091360390E0880F991F80526C
:1018D0009F4FC0903703D0903803E0903903F090C9
:1018E0003A0340E050E0BA01FC01C591D49128814F
:1018F0002A2323130FC04A015B012FEF821A920A99
:10190000A20AB20A4C155D056E057F0538F4B501D3
:10191000A401EACF342F252FCB0104C030E020E012
:1019200080E090E0632F722FDF91CF91FF90EF90D6
:10193000DF90CF90BF90AF909F908F900895CF93FE
:10194000DF9300D000D0CDB7DEB7789484B5826045
:1019500084BD84B5816084BD85B5826085BD85B553
:10196000816085BD80916E00816080936E001092D1
:10197000810080918100826080938100809181004C
:1019800081608093810080918000816080938000DD
:101990008091B10084608093B1008091B00081603B
:1019A0008093B00080917A00846080937A00809167
:1019B0007A00826080937A0080917A0081608093BF
:1019C0007A0080917A00806880937A001092C1003A
:1019D000E0918602F091870282E08083E0918202AA
:1019E000F09183021082E0918402F091850281E1FE
:1019F000808310928E02E0918A02F0918B0286E041
:101A00008083E0918802F0918902808180618083E7
:101A1000E0918802F0918902808188608083E09162
:101A20008802F0918902808180688083E091880239
:101A3000F091890280818F7D80838FE298EFAFEFF4
:101A4000BFEF80932E0390932F03A0933003B093A6
:101A5000310380912503882331F062E080913403C3
:101A60000E94A0000AC0109218031092170310924F
:101A70001603109215030E947B0760E087E00E9426
:101A8000B40A60E088E00E94B40A60E089E00E9445
:101A9000B40A61E08AE00E94B40A60E08BE00E9430
:101AA000B40A60E08CE00E94B40A61E08DE00E941C
:101AB000B40A81E00E94FA0A82E00E94FA0A60E019
:101AC00081E00E941F0B60E082E00E941F0BBE01BC
:101AD0006F5F7F4F8EE00E94CE0A698164608EE066
:101AE0000E94B40A62E087E00E94B40A65E088E0E0
:101AF0000E94B40A60E889E00E94B40A61E88AE0C2
:101B00000E94B40A81E00E94FA0A81E00E94FA0A67
:101B10000E943B014AE00E948C098CE291E00E9405
:101B2000110A0E9468080E94990784E391E00E94CC
:101B30007A09809125038823A9F00E94C801892B86
:101B400039F0C12CD12C80ECE82E8FE7F82E35C06F
:101B50006091280370E080E090E00E9434106B01F7
:101B60007C012BC00E94C801892B59F710912903D1
:101B70006091280370E080E090E00E9436106B01D5
:101B80007C01812F8F77682F70E080E090E00E94C9
:101B9000341020E030E040E251E40E94930F9B01BA
:101BA000AC01C701B6010E94220F6B017C0117FF37
:101BB00004C0F7FAF094F7F8F09480912503882395
:101BC00069F00E94C801892B09F0AAC06091260320
:101BD00070E080E090E00E94341022C00E94C801B2
:101BE000892B09F09DC06091260370E080E090E0B1
:101BF0000E9436104B015C0180912703682F70E032
:101C000080E090E00E94341020E030E040E251E4B7
:101C10000E94930F9B01AC01C501B4010E94220FE9
:101C20004B015C019B01AC010E945811811178C0ED
:101C3000A7019601C701B6010E945811811170C019
:101C4000B701A60180E090E00E940F0CB501A4014D
:101C500088E090E00E940F0C61E081E00E941F0B81
:101C600081E00E94FA0A882309F441C00E943B01E6
:101C70004AE00E948C0987E391E00E94110A0E94C9
:101C800068080E94990744E050E060E070E0CE01EF
:101C900001960E94FB0EC980DA80EB80FC8044E054
:101CA00050E068E070E0CE0101960E94FB0E898052
:101CB0009A80AB80BC8081E491E00E94110AC5014A
:101CC000B4010E94470B85E591E00E94110A89E565
:101CD00091E00E94110AC701B6010E94470B87E6F6
:101CE00091E00E94110A84E391E00E947A0982E067
:101CF0000E94FA0A882389F00E943B014AE00E9470
:101D00008C098CE691E00E94110A0E9468080E94EA
:101D1000990784E391E00E947A090E94CD0309CFDC
:101D200086E791E00E947A0984E391E00E947A09B3
:101D300093CFE6E7F2E01382128288EE93E0A0E010
:101D4000B0E084839583A683B78320E131E03183BB
:101D5000208325EC30E03587248724EC30E037877A
:101D6000268720EC30E0318B208B21EC30E0338B68
:101D7000228B22EC30E0358B248B26EC30E0378B45
:101D8000268B118E128E138E148EE9E1F3E01382EE
:101D9000128284839583A683B78380E291E0918346
:101DA000808384E690E09093140380931303109251
:101DB00018031092170310921603109215030E9435
:101DC0007B07E5E2F3E010828CE5868382E187837E
:101DD00083E18087118612861386148689E090E05D
:101DE0009687858783E08787108A118A128A138AEB
:101DF000148A158A0895DC01CB01FC01F999FECF04
:101E000006C0F2BDE1BDF89A319600B40D92415082
:101E10005040B8F70895F999FECF92BD81BDF89A68
:101E2000992780B50895262FF999FECF1FBA92BD44
:101E300081BD20BD0FB6F894FA9AF99A0FBE0196AB
:101E400008955058BB27AA270E94390F0C94AC1054
:101E50000E949E1038F00E94A51020F039F49F3F98
:101E600019F426F40C949B100EF4E095E7FB0C9407
:101E70009510E92F0E94BD1058F3BA176207730737
:101E80008407950720F079F4A6F50C94DF100EF482
:101E9000E0950B2EBA2FA02D0B01B90190010C017A
:101EA000CA01A0011124FF27591B99F0593F50F492
:101EB000503E68F11A16F040A22F232F342F4427EA
:101EC000585FF3CF469537952795A795F0405395E2
:101ED000C9F77EF41F16BA0B620B730B840BBAF0B2
:101EE0009150A1F0FF0FBB1F661F771F881FC2F71D
:101EF0000EC0BA0F621F731F841F48F48795779531
:101F00006795B795F7959E3F08F0B0CF9395880FEA
:101F100008F09927EE0F9795879508950E94711004
:101F200008F481E008950E94A70F0C94AC100E9461
:101F3000A51058F00E949E1040F029F45F3F29F050
:101F40000C94951051110C94E0100C949B100E946D
:101F5000BD1068F39923B1F3552391F3951B550BED
:101F6000BB27AA2762177307840738F09F5F5F4F6C
:101F7000220F331F441FAA1FA9F335D00E2E3AF0AB
:101F8000E0E832D091505040E695001CCAF72BD0C3
:101F9000FE2F29D0660F771F881FBB1F2617370714
:101FA0004807AB07B0E809F0BB0B802DBF01FF2746
:101FB00093585F4F3AF09E3F510578F00C9495107E
:101FC0000C94E0105F3FE4F3983ED4F38695779548
:101FD0006795B795F7959F5FC9F7880F911D9695FF
:101FE000879597F90895E1E0660F771F881FBB1F5B
:101FF000621773078407BA0720F0621B730B840B08
:10200000BA0BEE1F88F7E09508950E94C51088F07E
:102010009F5798F0B92F9927B751B0F0E1F0660FAC
:10202000771F881F991F1AF0BA95C9F714C0B130ED
:1020300091F00E94DF10B1E008950C94DF10672F3B
:10204000782F8827B85F39F0B93FCCF3869577951C
:102050006795B395D9F73EF4909580957095619505
:102060007F4F8F4F9F4F0895E89409C097FB3EF430
:1020700090958095709561957F4F8F4F9F4F9923D5
:10208000A9F0F92F96E9BB279395F6958795779553
:102090006795B795F111F8CFFAF4BB0F11F460FF13
:1020A0001BC06F5F7F4F8F4F9F4F16C0882311F06B
:1020B00096E911C0772321F09EE8872F762F05C07F
:1020C000662371F096E8862F70E060E02AF09A951A
:1020D000660F771F881FDAF7880F9695879597F90F
:1020E0000895990F0008550FAA0BE0E8FEEF1616A9
:1020F0001706E807F907C0F012161306E407F507FC
:1021000098F0621B730B840B950B39F40A2661F06F
:10211000232B242B252B21F408950A2609F4A14012
:10212000A6958FEF811D811D089597F99F6780E81F
:1021300070E060E008959FEF80EC089500240A9419
:102140001616170618060906089500240A94121692
:102150001306140605060895092E0394000C11F4C5
:10216000882352F0BB0F40F4BF2B11F460FF04C072
:102170006F5F7F4F8F4F9F4F089557FD9058440FCB
:10218000551F59F05F3F71F04795880F97FB991FD6
:1021900061F09F3F79F08795089512161306140693
:1021A000551FF2CF4695F1DF08C016161706180620
:1021B000991FF1CF86957105610508940895E894FB
:1021C000BB2766277727CB0197F908950E947110E6
:1021D00008F48FEF08950E94FE100C94AC100E943A
:1021E0009E1038F00E94A51020F0952311F00C9459
:1021F00095100C949B1011240C94E0100E94BD10BB
:1022000070F3959FC1F3950F50E0551F629FF00149
:10221000729FBB27F00DB11D639FAA27F00DB11D62
:10222000AA1F649F6627B00DA11D661F829F2227EB
:10223000B00DA11D621F739FB00DA11D621F839F72
:10224000A00D611D221F749F3327A00D611D231F48
:10225000849F600D211D822F762F6A2F11249F5796
:1022600050409AF0F1F088234AF0EE0FFF1FBB1F99
:10227000661F771F881F91505040A9F79E3F510558
:1022800080F00C9495100C94E0105F3FE4F3983EBE
:10229000D4F3869577956795B795F795E7959F5F02
:1022A000C1F7FE2B880F911D9695879597F9089594
:1022B0000E947110880B990B089597FB072E16F456
:1022C000009407D077FD09D00E94B51107FC05D016
:1022D0003EF4909581959F4F0895709561957F4F3D
:1022E0000895A1E21A2EAA1BBB1BFD010DC0AA1F57
:1022F000BB1FEE1FFF1FA217B307E407F50720F06F
:10230000A21BB30BE40BF50B661F771F881F991FE9
:102310001A9469F760957095809590959B01AC0132
:10232000BD01CF010895A29FB001B39FC001A39F3B
:10233000700D811D1124911DB29F700D811D1124FE
:10234000911D08950E949311A59F900DB49F900D2B
:10235000A49F800D911D11240895B7FF0C94A21124
:102360000E94A211821B930B0895AA1BBB1B51E173
:1023700007C0AA1FBB1FA617B70710F0A61BB70BF5
:10238000881F991F5A95A9F780959095BC01CD019A
:102390000895EE0FFF1F0590F491E02D099481E060
:0C23A00090E0F8940C94D411F894FFCF56
:1023AC001F1C1F1E1F1E1F1F1E1F1E1F00000000B4
:1023BC00E4054701C1039F03B3032B060000000093
:1023CC00650435042D0419040A04090420537461AE
:1023DC00727420000D0A0020414C41524D5F312097
:1023EC00000944485431323D3E2048756D6964699A
:1023FC0074793A20002025090054656D706572616E
:10240C00747572653A2000202A43200020414C410B
:10241C00524D5F3220004661696C656420746F20F8
:10242C00726561642066726F6D20444854313220AD
:10243C0073656E736F72210030006E616E00696E91
:06244C0066006F766600D9
:00000001FF
