:100000000C9471000C9471090C944A090C94990099
:100010000C9499000C9499000C9499000C949900FC
:100020000C9499000C9499000C9499000C949900EC
:100030000C9499000C9499000C9499000C949900DC
:100040000C9400090C9499000C9448050C9422051A
:100050000C9499000C9499000C9499000C949900BC
:100060000C947A050C9499004572724A616E46654B
:10007000624D61724170724D61794A756E4A756C5C
:100080004175675365704F63744E6F7644656300C6
:1000900000000000240027002A00000000002500C6
:1000A00028002B00040404040404040402020202D5
:1000B000020203030303030301020408102040802B
:1000C00001020408102001020408102000000008AA
:1000D000000201000003040700000000000000000F
:1000E0003D0C11241FBECFEFD8E0DEBFCDBF11E025
:1000F000A0E0B1E0ECEBFAE102C005900D92A03D6A
:10010000B107D9F723E0A0EDB1E001C01D92AD34F5
:10011000B207E1F710E0C1E7D0E004C02197FE018B
:100120000E94370DC037D107C9F70E94E3090C942C
:100130005C0D0C940000FC01918D828D981761F08C
:10014000828DDF01A80FB11D5D968C91928D9F5F0E
:100150009F73928F90E008958FEF9FEF0895FC01B9
:10016000918D828D981731F0828DE80FF11D858D6C
:1001700090E008958FEF9FEF0895FC01918D228DFF
:10018000892F90E0805C9F4F821B91098F73992784
:10019000089588E992E00E94BD0021E0892B09F4CE
:1001A00020E0822F0895FC01848DDF01A80FB11D8E
:1001B000A35ABF4F2C91848D90E001968F7399279D
:1001C000848FA689B7892C93A089B1898C9180648A
:1001D0008C93938D848D981306C00288F389E02D4B
:1001E00080818F7D80830895EF92FF920F931F93FC
:1001F000CF93DF93EC0181E0888F9B8D8C8D9813DA
:1002000005C0E889F989808185FD24C0F62E0B8D13
:1002100010E00F5F1F4F0F731127E02E8C8DE81237
:100220000CC00FB607FCFACFE889F989808185FFF9
:10023000F5CFCE010E94D300F1CF8B8DFE01E80FE8
:10024000F11DE35AFF4FF0820B8FEA89FB89808111
:10025000806207C0EE89FF896083E889F98980811F
:100260008064808381E090E0DF91CF911F910F91B6
:10027000FF90EF900895CF93DF93EC01888D882352
:10028000C9F0EA89FB89808185FD05C0A889B98903
:100290008C9186FD0FC00FB607FCF5CF808185FFDE
:1002A000F2CFA889B9898C9185FFEDCFCE010E944C
:1002B000D300E7CFDF91CF91089580E090E0892BC4
:1002C00029F00E94C90081110C940000089585ED69
:1002D0008093BC008091BC0084FDFCCF109237035A
:1002E000089540910802262F30E0240F311D21325D
:1002F0003105DCF4209137032430C9F4FC0180E09F
:1003000090E0861758F4309108022191DC01AA513F
:10031000BE4FA30FB11D2C930196F3CF809108021D
:10032000680F6093080280E0089581E0089582E0FC
:1003300008950895E0913B0380913A03E81730F463
:10034000F0E0EC5AFD4F808190E008958FEF9FEF31
:10035000089590913B0380913A03981750F4E92F48
:10036000F0E0EC5AFD4F208130E09F5F90933B031B
:1003700002C02FEF3FEFC901089580913A0390E04A
:1003800020913B03821B91090895CF92DF92EF9257
:10039000FF920F931F93CF93DF937C01262F972F0C
:1003A0008A0180913202882391F0C62FD72F6E01E7
:1003B000C40ED51ECC15DD0571F06991D701ED9104
:1003C000FC910190F081E02DC7010995F3CF642FD6
:1003D000822F0E947101C801DF91CF911F910F916F
:1003E000FF90EF90DF90CF900895CF93DF931F920F
:1003F000CDB7DEB76983209132022223D1F020915C
:100400003803203240F021E030E0FC0133832283C6
:1004100080E090E015C080913903E82FF0E0ED5CBA
:10042000FD4F998190838F5F8093390380933803C8
:1004300005C061E0CE0101960E94710181E090E06B
:100440000F90DF91CF9108956F927F928F929F923C
:10045000AF92BF92CF92DF92EF92FF920F931F93D2
:10046000CF93DF93EC01EE81AE2FB0E020E833E3D1
:1004700041EE51E00E94100D4B015C0122EB37E090
:10048000FD0104E610E080E9E82EFF24F394C901A1
:10049000825B97408E179F07DCF4C9018370992710
:1004A000892B99F4C901B8010E94CB0C892B31F436
:1004B000C901B7010E94CB0C892B39F480E8880E62
:1004C00081E5981E81E0A81EB11C2F5F3F4FDFCF52
:1004D0006D80712CEE54F84FCF0164E670E00E94FD
:1004E000CB0C7C01CF0160E971E00E94CB0C6C0168
:1004F00001E010E0E370FF27061517052CF5023028
:10050000110581F4309771F4E114F10419F4C11468
:10051000D10441F480E8880E8BE3981E86E2A81E81
:10052000B11C0FC0D801AD5FBE4FAC91B0E020E868
:1005300031E541E050E00E94100D860E971EA81E86
:10054000B91E0F5F1F4FD8CF49812A8130E0A0E14B
:10055000BEE00E94010D6B017C01242F30E0ACE372
:10056000B0E00E94010DDC01CB018C0D9D1DAE1D84
:10057000BF1D28816C017D01C20ED11CE11CF11C44
:10058000AC81B0E0119720E831E541E050E00E94F5
:100590001B0DDC01CB018C0D9D1DAE1DBF1DBC01D3
:1005A000CD01680D791D8A1D9B1DDF91CF911F9193
:1005B0000F91FF90EF90DF90CF90BF90AF909F9002
:1005C0008F907F906F9008956F927F928F929F92FD
:1005D000AF92BF92CF92DF92EF92FF920F931F9351
:1005E000CF93DF93EA012CE3C22ED12CE12CF12C26
:1005F000A70196010E94DF0C6883CA01B901A70117
:1006000096010E94DF0C6983CA01B90128E130E03C
:1006100040E050E00E94DF0C69017A016A83CA0160
:10062000B9016C5F7F4F8F4F9F4F27E030E040E074
:1006300050E00E94DF0C6F5F6B83812C912C540182
:1006400040E034E6632E712C00E911E0242F30E005
:100650002E54384FF901E370FF27309789F4C90110
:10066000B3010E94CB0C892B31F4C901B8010E945F
:10067000CB0C892B29F48EE691E0A0E0B0E004C019
:100680008DE691E0A0E0B0E0880E991EAA1EBB1E88
:10069000D501C401AA27BB27C816D906EA06FB065E
:1006A00010F04F5FD3CF4E83309799F4C90164E6C1
:1006B00070E00E94CB0C892B39F4C90160E971E02C
:1006C0000E94CB0C892B29F48EE691E0A0E0B0E0EB
:1006D00004C08DE691E0A0E0B0E0881A990AAA0A69
:1006E000BB0AC818D908EA08FB08C90164E670E02B
:1006F0000E94CB0C8C01C90160E971E00E94CB0C17
:10070000A4E0B1E020E0213041F4309751F401152C
:10071000110529F4009729F402C04C9103C04DE162
:1007200001C04CE150E060E070E0C416D506E6067A
:10073000F70640F0C41AD50AE60AF70A2F5F1196A9
:100740002C3009F72F5F2D83C394CC82DF91CF919A
:100750001F910F91FF90EF90DF90CF90BF90AF90DF
:100760009F908F907F906F900895CF92DF92EF923D
:10077000FF92C090E201D090E301E090E401F0909C
:10078000E5016C157D058E059F0571F06B017C01FF
:100790004BED51E00E94E402C092E201D092E301ED
:1007A000E092E401F092E501FF90EF90DF90CF90AE
:1007B0000895982F92959F702AEF929F800D112493
:1007C000089580E391E00C940B070E943D0DCF93B8
:1007D000DF93CDB7DEB727970FB6F894DEBF0FBE15
:1007E000CDBF81E08093320288E68093530210925D
:1007F00039031092380360E08CE393E00E94F50126
:1008000081E00E949207882331F08093DA0160E052
:1008100070E0CB013FC067E088E60E944E0710926F
:100820003B0380933A038CE393E00E94A9018F7706
:100830000E94D90389838CE393E00E94A9010E945E
:10084000D9038A838CE393E00E94A9018F7B0E94E5
:10085000D9038B838CE393E00E94A9018C838CE302
:1008600093E00E94A9010E94D9038D838CE393E059
:100870000E94A9018F770E94D9038E838CE393E0B5
:100880000E94A9010E94D903825E8F83CE01019646
:100890000E94240227960FB6F894DEBF0FBECDBF8C
:1008A000DF91CF9108958F929F92AF92BF92CF9296
:1008B000DF92EF92FF926B017C010E94B503809062
:1008C000DF01912CA12CB12CC701B6010E94B50308
:1008D0008091DF0190E00A971CF085E991E002C069
:1008E0008FE491E00E940B074AE050E0C501B4019B
:1008F0000E949F09C701B6010E94B5038090E101E3
:10090000912C8EE4881A88EF980A092C000CAA080A
:10091000BB08C701B6010E94B5032091E00183E046
:10092000289F90011124A0EDB1E080E090E0FC014F
:10093000E20FF31FE859FF4FE491ED9301968330E6
:100940009105A9F71092D30180ED91E00E940B0769
:100950004AE050E0C501B4010E949F0960E288E9C5
:1009600092E00E949809C701B6010E94B5038090E9
:10097000DD01912CA12CB12CC701B6010E94B50359
:100980008091DD0190E00A971CF085E991E002C0BA
:100990008FE491E00E940B074AE050E0C501B401EA
:1009A0000E949F096AE388E992E00E949809C701C2
:1009B000B6010E94B5038090DC01912CA12CB12CD2
:1009C000C701B6010E94B5038091DC0190E00A974F
:1009D0001CF085E991E002C08FE491E00E940B07D2
:1009E0004AE050E0C501B4010E949F096AE388E92A
:1009F00092E00E949809C701B6010E94B503809059
:100A0000DB01912CA12CB12CC701B6010E94B503CA
:100A10008091DB0190E00A971CF085E991E002C02B
:100A20008FE491E00E940B074AE050E0C501B40159
:100A3000FF90EF90DF90CF90BF90AF909F908F90FE
:100A40000C949F091F920F920FB60F9211242F93AF
:100A50003F934F935F936F937F938F939F93AF9346
:100A6000BF93EF93FF9388E992E00E94D300FF9138
:100A7000EF91BF91AF919F918F917F916F915F9116
:100A80004F913F912F910F900FBE0F901F9018958F
:100A90001F920F920FB60F9211242F938F939F9353
:100AA000EF93FF93E091A802F091A9028081E09179
:100AB000AE02F091AF0282FD12C090818091B1022E
:100AC0008F5F8F732091B202821751F0E091B102D3
:100AD000F0E0E856FD4F958F8093B10201C0808110
:100AE000FF91EF919F918F912F910F900FBE0F90DB
:100AF0001F9018951F920F920FB60F9211242F93EB
:100B00003F934F935F936F937F938F939F93AF9395
:100B1000BF93EF93FF938091B900887F803609F4EB
:100B20009CC068F5883209F45BC090F4803109F408
:100B300054C038F4882309F4F6C0883009F44DC055
:100B4000F6C0883109F44CC0803209F45DC0EFC0B2
:100B5000803409F468C048F4803309F455C0883300
:100B600009F0E5C080939702D8C0803509F44FC0E2
:100B7000883509F45DC0883409F0D9C0D6C08839F9
:100B800009F4C7C0A8F4883709F467C038F4883678
:100B900009F463C0803709F460C0C9C0883809F41B
:100BA000B8C0803909F45FC0803809F0C0C05BC0AC
:100BB000803B09F486C038F4803A09F466C0883A6C
:100BC00009F47FC0B4C0803C09F4A7C0883C09F494
:100BD000A4C0883B09F48AC0AAC08091940210C0C6
:100BE0009091960280919502981770F5E091960287
:100BF00081E08E0F80939602F0E0EC58FD4F8081EB
:100C00008093BB0085EC86C0809397028EC0E091F4
:100C1000960281E08E0F809396028091BB00F0E0F7
:100C2000EC58FD4F808390919602809195026EC0A2
:100C3000E091960281E08E0F809396028091BB0036
:100C4000F0E0EC58FD4F80838091360381116DC038
:100C500081E08093350384EA61C083E080933703A9
:100C600010922C02CFCF80912C02803208F051C01C
:100C7000E0912C0281E08E0F80932C028091BB00CA
:100C8000F0E0E45FFD4F8083BDCF85EC8093BC0036
:100C90001092370380912C02803230F4E0912C02C4
:100CA000F0E0E45FFD4F108260912C0270E0E09173
:100CB0000A02F0910B028CE092E0099510922C024E
:100CC00036C084E080933703109209021092080224
:100CD000E0910602F09107020995809108028111C6
:100CE00005C081E0809308021092E601E0910902BC
:100CF00081E08E0F80930902F0E0EA51FE4F80817F
:100D00008093BB009091090280910802981708F423
:100D100079CF85E88093BC000AC085EC8093BC0045
:100D20001092370304C0109297020E946701FF914E
:100D3000EF91BF91AF919F918F917F916F915F9153
:100D40004F913F912F910F900FBE0F901F901895CC
:100D50003FB7F8948091490390914A03A0914B03C7
:100D6000B0914C0326B5A89B05C02F3F19F0019602
:100D7000A11DB11D3FBFBA2FA92F982F8827820F21
:100D8000911DA11DB11DBC01CD0142E0660F771F71
:100D9000881F991F4A95D1F708950895CF92DF9241
:100DA000EF92FF920F931F93CF93DF936C017A0121
:100DB0008B01C0E0D0E0CE15DF0589F0D8016D9140
:100DC0008D01D601ED91FC910190F081E02DC601DD
:100DD0000995892B11F47E0102C02196ECCFC70141
:100DE000DF91CF911F910F91FF90EF90DF90CF9007
:100DF0000895009769F0FC0101900020E9F7319710
:100E0000AF01481B590BBC0188E992E00C94CE0657
:100E100080E090E008950C94F9068F929F92AF9233
:100E2000BF920F931F93CF93DF93CDB7DEB7A197F8
:100E30000FB6F894DEBF0FBECDBF19A2423008F442
:100E40004AE08E010F5D1F4F842E912CA12CB12CF6
:100E5000A50194010E94DF0CE62FB901CA010150DF
:100E60001109EA3014F4E05D01C0E95CD801EC93AB
:100E7000232B242B252B61F7C8010E94F906A1968C
:100E80000FB6F894DEBF0FBECDBFDF91CF911F919B
:100E90000F91BF90AF909F908F90089590913703DE
:100EA0009111FCCF91E090933703909336032FEF8D
:100EB0002093970210929602260F2093950290930A
:100EC000940290919402880F892B809394028091D0
:100ED0003503813061F41092350380919402809340
:100EE000BB008091BC0083FDF8CF85EC01C085EE8E
:100EF0008093BC00809137038130E1F380919602AA
:100F0000861710F460919602A4E7B2E024E532E07F
:100F1000F9018E2F821B861718F48D918193F9CFDA
:100F2000862F0895382F2091380390915302213253
:100F300008F049C0809137038111FCCF42E0409313
:100F40003703309336033FEF3093970210929602A7
:100F500020939502A3E3B2E044E752E0FA013E2F6A
:100F6000341B321718F43D913193F9CF109294024B
:100F700020919402990F922B9093940290913503B3
:100F8000913061F410923503909194029093BB00DC
:100F90009091BC0093FDF8CF95EC01C095EE909335
:100FA000BC00909137039230E1F3909197029F3FFC
:100FB00079F080919702803241F0809197028033DE
:100FC00031F084E005C081E003C082E001C083E02D
:100FD0001092390310923803109232020895CF9381
:100FE000C62F91E09093320298E6909353021092AC
:100FF000390310923803682F8CE393E00E94F501C7
:101000006C2F8CE393E00E94F50181E0CF910C946A
:1010100092070F931F93CF938B0191E0909332022D
:1010200098E6909353021092390310923803682F78
:101030008CE393E00E94F50181E00E949207C82FA3
:1010400081110EC061E088E60E944E0710923B03BA
:1010500080933A038CE393E00E94A901F801808316
:101060008C2FCF911F910F9108951F93CF93DF93F2
:101070001F92CDB7DEB7182FBE016F5F7F4F8FE095
:101080000E9409086981115081E090E001C0880F39
:101090001A95EAF7262F282339F0809568238FE0E8
:1010A0000E94EF0781E001C080E00F90DF91CF91B7
:1010B0001F9108958F929F92AF92BF92CF92DF922D
:1010C000EF92FF920E94A8064B015C0184EFC82EAC
:1010D000DD24D394E12CF12C0E94A806DC01CB0185
:1010E00088199909AA09BB09883E9340A105B10551
:1010F00058F021E0C21AD108E108F10888EE880E04
:1011000083E0981EA11CB11CC114D104E104F104B8
:1011100019F7FF90EF90DF90CF90BF90AF909F9026
:101120008F90089590E0FC01E453FF4F2491FC015F
:10113000E854FF4F3491FC01EC55FF4FE491EE234E
:10114000B1F1222339F1233091F038F42130A9F0A4
:10115000223001F584B58F7D12C0273091F0283000
:10116000A1F02430B9F4809180008F7D03C080917C
:1011700080008F77809380000DC084B58F7784BD09
:1011800009C08091B0008F7703C08091B0008F7D3F
:101190008093B000F0E0EE0FFF1FE656FF4FA591E1
:1011A000B4918FB7F894EC913E2B3C938FBF089588
:1011B0000F931F93CF93DF931F92CDB7DEB7182FF6
:1011C000062FBE016F5F7F4F8EE00E9409082981C4
:1011D000115081E090E001C0880F1A95EAF70023D2
:1011E00019F0622F682B03C08095682F62238EE070
:1011F0000E94EF070F90DF91CF911F910F910895FB
:101200001F920F920FB60F9211242F933F938F933B
:101210009F93AF93BF9380912D0290912E02A09146
:101220002F02B09130023091480323E0230F2D3775
:1012300020F40196A11DB11D05C026E8230F0296DA
:10124000A11DB11D2093480380932D0290932E027F
:10125000A0932F02B09330028091490390914A03EA
:10126000A0914B03B0914C030196A11DB11D809339
:10127000490390934A03A0934B03B0934C03BF914F
:10128000AF919F918F913F912F910F900FBE0F9033
:101290001F9018951F920F920FB60F9211242F9343
:1012A0003F934F935F936F937F938F939F93AF93EE
:1012B000BF93EF93FF93E0910201F0910301099531
:1012C000FF91EF91BF91AF919F918F917F916F911E
:1012D0005F914F913F912F910F900FBE0F901F90F4
:1012E00018951F920F920FB60F9211242F933F93D0
:1012F0004F935F936F937F938F939F93AF93BF931E
:10130000EF93FF93E0910001F09101010995FF91A6
:10131000EF91BF91AF919F918F917F916F915F916D
:101320004F913F912F910F900FBE0F901F901895E6
:10133000DC01ED91FC910190F081E02D0994CF92B8
:10134000DF92EF92FF92CF93DF936B017C01411507
:10135000510581F4E0919802F09199020190F08199
:10136000E02D88E992E0DF91CF91FF90EF90DF9040
:10137000CF9009944A305105E1F497FF19C06DE20E
:1013800088E992E00E949809EC0166277727CB0153
:101390006C197D098E099F094AE00E940D078C0F88
:1013A0009D1FDF91CF91FF90EF90DF90CF90089538
:1013B0004AE0C701B601DF91CF91FF90EF90DF9037
:1013C000CF900C940D07CF93DF93CDB7DEB72A975C
:1013D0000FB6F894DEBF0FBECDBF789484B582609F
:1013E00084BD84B5816084BD85B5826085BD85B5C9
:1013F000816085BD80916E00816080936E00109247
:1014000081008091810082608093810080918100C1
:101410008160809381008091800081608093800052
:101420008091B10084608093B1008091B0008160B0
:101430008093B00080917A00846080937A008091DC
:101440007A00826080937A0080917A008160809334
:101450007A0080917A00806880937A001092C100AF
:10146000E091A802F091A90282E08083E091A402B9
:10147000F091A5021082E091A602F091A70280E10E
:1014800080831092B002E091AC02F091AD0286E050
:101490008083E091AA02F091AB0280818061808319
:1014A000E091AA02F091AB02808188608083E09194
:1014B000AA02F091AB02808180688083E091AA0249
:1014C000F091AB0280818F7D8083EFEBF0E024917F
:1014D000EBEAF0E08491882399F090E0880F991F5F
:1014E000FC01E057FF4FA591B491FC01E656FF4F78
:1014F000859194918FB7F894EC91E22BEC938FBF88
:1015000060E087E00E94EF0760E088E00E94EF075C
:1015100060E089E00E94EF0761E08AE00E94EF0747
:1015200060E08BE00E94EF0760E08CE00E94EF0734
:1015300061E08DE00E94EF0781E00E94350882E0C3
:101540000E94350860E081E00E94D80860E082E0F7
:101550000E94D808BE016F5F7F4F8EE00E9409088D
:10156000698164608EE00E94EF078AE491E6AEE64E
:1015700088879987AA871B86BE01685F7F4F81E5B0
:1015800091E00E94420D8155914063E070E00E941D
:10159000CB0C6F5F6E838AE791E00E94990C8D837C
:1015A0008DE791E00E94990C825B8F8382E891E045
:1015B0000E94990C8B8385E891E00E94990C8A83A4
:1015C00088E891E00E94990C8983CE0101960E94DF
:1015D0002402665F7F4F8F4F9F4FAE014F5F5F4F7B
:1015E0000E94E40281E08093320288E680935302F5
:1015F000109239031092380360E08CE393E00E946C
:10160000F50129811AE0822F612F0E94BF0C682FFB
:10161000660F860F682F660F620F8CE393E00E94BF
:10162000F5012A81822F612F0E94BF0C682F660F5F
:10163000860F682F660F620F8CE393E00E94F5011E
:101640002B81822F612F0E94BF0C682F660F860F9F
:10165000682F660F620F8CE393E00E94F5016C81A6
:101660008CE393E00E94F5012D81822F612F0E946F
:10167000BF0C682F660F860F682F660F620F8CE312
:1016800093E00E94F5012E81822F612F0E94BF0CF2
:10169000682F660F860F682F660F620F8CE393E04A
:1016A0000E94F5012F812E51822F612F0E94BF0CC5
:1016B000682F660F680F660F620F8CE393E00E943D
:1016C000F50181E00E949207BE01685F7F4F8FE0C5
:1016D0000E94090868856F778FE00E94EF0765E038
:1016E00087E00E94EF0760E888E00E94EF0760E86B
:1016F00089E00E94EF0761E88AE00E94EF0781E03D
:101700000E9435082FB7F89460912D0270912E0237
:1017100080912F02909130022FBF4AE00E940D0766
:101720008BE891E00E940B070E94E7030E9453049C
:1017300083E991E00E94F90601EE13E048EBE42E04
:1017400040E0F42E54EAC52E50E0D52E6DECA62EC6
:1017500066E0B62E109301010093000180916900AC
:101760008C7F80936900E89AF7012491F6018491B7
:101770008823C9F090E0880F991FFC01E057FF4FC4
:10178000A591B49186569F4FFC01459154919FB706
:10179000F8943C91822F809583238C93FA01808169
:1017A000282B20839FBF61E081E00E94D80883B787
:1017B000817F846083BF83B7816083BF86E991E0C6
:1017C0000E940B070E945A0883B7816083BF8895E7
:1017D00083B78E7F83BFE898B0920101A092000189
:1017E00083B78E7F83BF87E00E94920888EA91E0EA
:1017F0000E940B070E945A0881E00E943508882346
:10180000D1F02FB7F89460912D0270912E02809143
:101810002F02909130022FBF4AE00E940D078BEB00
:1018200091E00E940B070E94E7030E94530483E9A2
:1018300091E00E94F90682E00E9435088823D1F0E9
:101840002FB7F89460912D0270912E0280912F0293
:10185000909130022FBF4AE00E940D0785EC91E085
:101860000E940B070E94E7030E94530483E991E062
:101870000E94F9060E945D016DCFE8E9F2E0138253
:10188000128288EE93E0A0E0B0E084839583A68383
:10189000B78324E131E03183208325EC30E03587C4
:1018A000248724EC30E03787268720EC30E0318B2A
:1018B000208B21EC30E0338B228B22EC30E0358B17
:1018C000248B26EC30E0378B268B118E128E138EF4
:1018D000148EECE3F3E01382128284839583A68353
:1018E000B78384E291E09183808310923B0310924E
:1018F0003A0310923903109238031092370381E0B3
:10190000809336031092350382E10E94920883E1AE
:101910000E949208E9EBF0E080818E7F80838081D5
:101920008D7F808388E48093B80085E48093BC0039
:101930000895FC0188279927E89421912032E9F342
:10194000293010F02E30C8F32B3241F02D3239F40B
:10195000689404C00E94B70C820F911D21912053FE
:101960002A30C0F31EF4909581959F4F08957AE038
:10197000979F902D879F802D910D11240895991B7D
:1019800079E004C0991F961708F0961B881F7A9576
:10199000C9F78095089597FB072E16F4009407D099
:1019A00077FD09D00E94230D07FC05D03EF49095E9
:1019B00081959F4F0895709561957F4F0895A1E29D
:1019C0001A2EAA1BBB1BFD010DC0AA1FBB1FEE1FB9
:1019D000FF1FA217B307E407F50720F0A21BB30B04
:1019E000E40BF50B661F771F881F991F1A9469F780
:1019F00060957095809590959B01AC01BD01CF01DC
:101A00000895A29FB001B39FC001A39F700D811DD7
:101A10001124911DB29F700D811D1124911D0895F7
:101A20000E94010DA59F900DB49F900DA49F800D65
:101A3000911D11240895B7FF0C94100D0E94100DF4
:101A4000821B930B0895AA1BBB1B51E107C0AA1F61
:101A5000BB1FA617B70710F0A61BB70B881F991F4F
:101A60005A95A9F780959095BC01CD010895EE0F88
:101A7000FF1F0590F491E02D099481E090E0F89427
:101A80000C945C0DFB0151915523A9F0BF01DC01C1
:101A90004D9145174111E1F759F4CD010190002016
:101AA00049F04D9140154111C9F3FB014111EFCFB0
:0C1AB00081E090E001970895F894FFCFCA
:101ABC00CD06CD061F1C1F1E1F1E1F1F1E1F1E1F07
:101ACC0000000000F400CE06BD009B00AF003B01FF
:101ADC0000000000F501C501BD01A9019A019901A1
:101AEC006C27696E74657272757074696F6E20659F
:101AFC0073742073757276656E756520210A0030DB
:101B0C00004A616E4665624D61724170724D617939
:101B1C004A756E4A756C4175675365704F63744EA8
:101B2C006F76446563004A616E2033312032303168
:101B3C00380032323A31393A303100205374617204
:101B4C007420000D0A00656E646F726D6F6E7320E9
:101B5C006E6F757320210A006A6520737569732096
:101B6C0072657665696C6CC3A90A0020414C4152C0
:101B7C004D5F31200020414C41524D5F322000001E
:00000001FF
