:100000000C9471000C943E090C9417090C949900FF
:100010000C9499000C9499000C9499000C949900FC
:100020000C9499000C9499000C9499000C949900EC
:100030000C9499000C9499000C9499000C949900DC
:100040000C94CD080C9499000C945B050C94350528
:100050000C9499000C9499000C9499000C949900BC
:100060000C948D050C9499004572724A616E466538
:10007000624D61724170724D61794A756E4A756C5C
:100080004175675365704F63744E6F7644656300C6
:1000900000000000240027002A00000000002500C6
:1000A00028002B00040404040404040402020202D5
:1000B000020203030303030301020408102040802B
:1000C00001020408102001020408102000000008AA
:1000D000000201000003040700000000000000000F
:1000E0001B0C11241FBECFEFD8E0DEBFCDBF11E047
:1000F000A0E0B1E0E8E7FAE102C005900D92A43D6E
:10010000B107D9F723E0A4EDB1E001C01D92A135FC
:10011000B207E1F710E0C1E7D0E004C02197FE018B
:100120000E94150DC037D107C9F70E94B0090C9481
:100130003A0D0C940000FC01538D448D252F30E0C6
:10014000842F90E0821B930B541710F0CF960895E4
:1001500001970895FC01918D828D981761F0828D31
:10016000DF01A80FB11D5D968C91928D9F5F9F73EB
:10017000928F90E008958FEF9FEF0895FC01918D8D
:10018000828D981731F0828DE80FF11D858D90E0FA
:1001900008958FEF9FEF0895FC01918D228D892F97
:1001A00090E0805C9F4F821B91098F73992708957F
:1001B0008CE992E00E94CC0021E0892B09F420E038
:1001C000822F0895FC01848DDF01A80FB11DA35A71
:1001D000BF4F2C91848D90E001968F739927848F67
:1001E000A689B7892C93A089B1898C9180648C935E
:1001F000938D848D981306C00288F389E02D808149
:100200008F7D80830895EF92FF920F931F93CF937A
:10021000DF93EC0181E0888F9B8D8C8D981305C056
:10022000E889F989808185FD24C0F62E0B8D10E0C8
:100230000F5F1F4F0F731127E02E8C8DE8120CC03B
:100240000FB607FCFACFE889F989808185FFF5CFE1
:10025000CE010E94E200F1CF8B8DFE01E80FF11D6F
:10026000E35AFF4FF0820B8FEA89FB89808180621D
:1002700007C0EE89FF896083E889F98980818064FD
:10028000808381E090E0DF91CF911F910F91FF90EB
:10029000EF900895CF93DF93EC01888D8823C9F008
:1002A000EA89FB89808185FD05C0A889B9898C917F
:1002B00086FD0FC00FB607FCF5CF808185FFF2CF1A
:1002C000A889B9898C9185FFEDCFCE010E94E2000B
:1002D000E7CFDF91CF91089580E090E0892B29F05E
:1002E0000E94D80081110C940000089585ED809340
:1002F000BC008091BC0084FDFCCF10923B030895AC
:1003000040910C02262F30E0240F311D213231059F
:10031000DCF420913B032430C9F4FC0180E090E040
:10032000861758F430910C022191DC01A651BE4F82
:10033000A30FB11D2C930196F3CF80910C02680F8F
:1003400060930C0280E0089581E0089582E00895B2
:100350000895E0913F0380913E03E81730F4F0E008
:10036000E85AFD4F808190E008958FEF9FEF089548
:1003700090913F0380913E03981750F4E92FF0E0ED
:10038000E85AFD4F208130E09F5F90933F0302C009
:100390002FEF3FEFC901089580913E0390E0209137
:1003A0003F03821B91090895CF92DF92EF92FF9253
:1003B0000F931F93CF93DF937C01262F972F8A01F2
:1003C00080913602882391F0C62FD72F6E01C40E7C
:1003D000D51ECC15DD0571F06991D701ED91FC9129
:1003E0000190F081E02DC7010995F3CF642F822F92
:1003F0000E948001C801DF91CF911F910F91FF9062
:10040000EF90DF90CF900895CF93DF931F92CDB7F9
:10041000DEB76983209136022223D1F020913C037C
:10042000203240F021E030E0FC013383228380E081
:1004300090E015C080913D03E82FF0E0E95CFD4FAE
:10044000998190838F5F80933D0380933C0305C027
:1004500061E0CE0101960E94800181E090E00F9062
:10046000DF91CF910895089580E090E008956F9214
:100470007F928F929F92AF92BF92CF92DF92EF9234
:10048000FF920F931F93CF93DF93EC01EE81AE2F7A
:10049000B0E020E833E341EE51E00E94EE0C4B0166
:1004A0005C0122EB37E0FD0104E610E080E9E82E74
:1004B000FF24F394C901825B97408E179F07DCF4F9
:1004C000C90183709927892B99F4C901B8010E9449
:1004D000A90C892B31F4C901B7010E94A90C892B01
:1004E00039F480E8880E81E5981E81E0A81EB11CD1
:1004F0002F5F3F4FDFCF6D80712CEE54F84FCF014F
:1005000064E670E00E94A90C7C01CF0160E971E013
:100510000E94A90C6C0101E010E0E370FF270615B2
:1005200017052CF50230110581F4309771F4E114B0
:10053000F10419F4C114D10441F480E8880E8BE36E
:10054000981E86E2A81EB11C0FC0D801AD5FBE4F39
:10055000AC91B0E020E831E541E050E00E94EE0CC3
:10056000860E971EA81EB91E0F5F1F4FD8CF498158
:100570002A8130E0A0E1BEE00E94DF0C6B017C012B
:10058000242F30E0ACE3B0E00E94DF0CDC01CB01B3
:100590008C0D9D1DAE1DBF1D28816C017D01C20EFD
:1005A000D11CE11CF11CAC81B0E0119720E831E5D1
:1005B00041E050E00E94F90CDC01CB018C0D9D1D47
:1005C000AE1DBF1DBC01CD01680D791D8A1D9B1D8F
:1005D000DF91CF911F910F91FF90EF90DF90CF901F
:1005E000BF90AF909F908F907F906F9008956F9283
:1005F0007F928F929F92AF92BF92CF92DF92EF92B3
:10060000FF920F931F93CF93DF93EA012CE3C22E47
:10061000D12CE12CF12CA70196010E94BD0C68831E
:10062000CA01B901A70196010E94BD0C6983CA01E4
:10063000B90128E130E040E050E00E94BD0C6901C2
:100640007A016A83CA01B9016C5F7F4F8F4F9F4F58
:1006500027E030E040E050E00E94BD0C6F5F6B830C
:10066000812C912C540140E034E6632E712C00E97A
:1006700011E0242F30E02E54384FF901E370FF27AA
:10068000309789F4C901B3010E94A90C892B31F478
:10069000C901B8010E94A90C892B29F48EE691E0CA
:1006A000A0E0B0E004C08DE691E0A0E0B0E0880EEC
:1006B000991EAA1EBB1ED501C401AA27BB27C816B6
:1006C000D906EA06FB0610F04F5FD3CF4E83309772
:1006D00099F4C90164E670E00E94A90C892B39F4F1
:1006E000C90160E971E00E94A90C892B29F48EE60A
:1006F00091E0A0E0B0E004C08DE691E0A0E0B0E0C1
:10070000881A990AAA0ABB0AC818D908EA08FB0875
:10071000C90164E670E00E94A90C8C01C90160E97E
:1007200071E00E94A90CA4E0B1E020E0213041F486
:10073000309751F40115110529F4009729F402C0EE
:100740004C9103C04DE101C04CE150E060E070E02D
:10075000C416D506E606F70640F0C41AD50AE60A1E
:10076000F70A2F5F11962C3009F72F5F2D83C39462
:10077000CC82DF91CF911F910F91FF90EF90DF908E
:10078000CF90BF90AF909F908F907F906F90089583
:10079000CF92DF92EF92FF92C090E601D090E701F6
:1007A000E090E801F090E9016C157D058E059F054C
:1007B00071F06B017C014FED51E00E94F702C09295
:1007C000E601D092E701E092E801F092E901FF90A2
:1007D000EF90DF90CF900895982F92959F702AEF19
:1007E000929F800D1124089584E391E00C941E07DC
:1007F0000E941B0DCF93DF93CDB7DEB727970FB6BF
:10080000F894DEBF0FBECDBF81E08093360288E64C
:100810008093570210923D0310923C0360E080E405
:1008200093E00E94040281E00E94A507882331F032
:100830008093DE0160E070E0CB013FC067E088E6B6
:100840000E94610710923F0380933E0380E493E08F
:100850000E94B8018F770E94EC03898380E493E0C3
:100860000E94B8010E94EC038A8380E493E00E9416
:10087000B8018F7B0E94EC038B8380E493E00E949D
:10088000B8018C8380E493E00E94B8010E94EC03DD
:100890008D8380E493E00E94B8018F770E94EC037F
:1008A0008E8380E493E00E94B8010E94EC03825E94
:1008B0008F83CE0101960E94370227960FB6F894D7
:1008C000DEBF0FBECDBFDF91CF9108958F929F9273
:1008D000AF92BF92CF92DF92EF92FF926B017C01B9
:1008E0000E94C8038090E301912CA12CB12CC70178
:1008F000B6010E94C8038091E30190E00A971CF0C2
:1009000089E991E002C083E591E00E941E074AE078
:1009100050E0C501B4010E946C09C701B6010E94F4
:10092000C8038090E501912C8EE4881A88EF980A1C
:10093000092C000CAA08BB08C701B6010E94C80315
:100940002091E40183E0289F90011124A4EDB1E0FF
:1009500080E090E0FC01E20FF31FE859FF4FE491C3
:10096000ED93019683309105A9F71092D70184ED9C
:1009700091E00E941E074AE050E0C501B4010E94C8
:100980006C0960E28CE992E00E946509C701B6013A
:100990000E94C8038090E101912CA12CB12CC701C9
:1009A000B6010E94C8038091E10190E00A971CF013
:1009B00089E991E002C083E591E00E941E074AE0C8
:1009C00050E0C501B4010E946C096AE38CE992E031
:1009D0000E946509C701B6010E94C8038090E0012A
:1009E000912CA12CB12CC701B6010E94C8038091A3
:1009F000E00190E00A971CF089E991E002C083E5EC
:100A000091E00E941E074AE050E0C501B4010E9437
:100A10006C096AE38CE992E00E946509C701B6019E
:100A20000E94C8038090DF01912CA12CB12CC7013A
:100A3000B6010E94C8038091DF0190E00A971CF084
:100A400089E991E002C083E591E00E941E074AE037
:100A500050E0C501B401FF90EF90DF90CF90BF90C0
:100A6000AF909F908F900C946C091F920F920FB6CD
:100A70000F9211242F933F934F935F936F937F9324
:100A80008F939F93AF93BF93EF93FF938CE992E083
:100A90000E94E200FF91EF91BF91AF919F918F91E2
:100AA0007F916F915F914F913F912F910F900FBE6A
:100AB0000F901F9018951F920F920FB60F9211244E
:100AC0002F938F939F93EF93FF93E091AC02F0915C
:100AD000AD028081E091B202F091B30282FD12C0BA
:100AE00090818091B5028F5F8F732091B60282173B
:100AF00051F0E091B502F0E0E456FD4F958F809300
:100B0000B50201C08081FF91EF919F918F912F914C
:100B10000F900FBE0F901F9018951F920F920FB657
:100B20000F9211242F933F934F935F936F937F9373
:100B30008F939F93AF93BF93EF93FF938091B900EF
:100B4000887F803609F49CC068F5883209F45BC060
:100B500090F4803109F454C038F4882309F4F6C0C5
:100B6000883009F44DC0F6C0883109F44CC0803299
:100B700009F45DC0EFC0803409F468C048F48033E4
:100B800009F455C0883309F0E5C080939B02D8C0B2
:100B9000803509F44FC0883509F45DC0883409F008
:100BA000D9C0D6C0883909F4C7C0A8F4883709F479
:100BB00067C038F4883609F463C0803709F460C030
:100BC000C9C0883809F4B8C0803909F45FC08038DA
:100BD00009F0C0C05BC0803B09F486C038F4803A9D
:100BE00009F466C0883A09F47FC0B4C0803C09F4B7
:100BF000A7C0883C09F4A4C0883B09F48AC0AAC0F5
:100C00008091980210C090919A0280919902981751
:100C100070F5E0919A0281E08E0F80939A02F0E0E5
:100C2000E858FD4F80818093BB0085EC86C080939F
:100C30009B028EC0E0919A0281E08E0F80939A020F
:100C40008091BB00F0E0E858FD4F808390919A02BC
:100C5000809199026EC0E0919A0281E08E0F80939C
:100C60009A028091BB00F0E0E858FD4F80838091AC
:100C70003A0381116DC081E08093390384EA61C039
:100C800083E080933B0310923002CFCF80913002FB
:100C9000803208F051C0E091300281E08E0F8093E5
:100CA00030028091BB00F0E0E05FFD4F8083BDCF5C
:100CB00085EC8093BC0010923B038091300280321F
:100CC00030F4E0913002F0E0E05FFD4F108260917F
:100CD000300270E0E0910E02F0910F0280E192E0AC
:100CE00009951092300236C084E080933B03109245
:100CF0000D0210920C02E0910A02F0910B0209958C
:100D000080910C02811105C081E080930C02109249
:100D1000EA01E0910D0281E08E0F80930D02F0E078
:100D2000E651FE4F80818093BB0090910D0280912F
:100D30000C02981708F479CF85E88093BC000AC0AC
:100D400085EC8093BC0010923B0304C010929B0280
:100D50000E947601FF91EF91BF91AF919F918F918A
:100D60007F916F915F914F913F912F910F900FBEA7
:100D70000F901F9018953FB7F89480914D03909174
:100D80004E03A0914F03B091500326B5A89B05C018
:100D90002F3F19F00196A11DB11D3FBFBA2FA92FFA
:100DA000982F8827820F911DA11DB11DBC01CD0177
:100DB00042E0660F771F881F991F4A95D1F7089563
:100DC0000895CF92DF92EF92FF920F931F93CF93EC
:100DD000DF936C017A018B01C0E0D0E0CE15DF0516
:100DE00089F0D8016D918D01D601ED91FC910190B2
:100DF000F081E02DC6010995892B11F47E0102C016
:100E00002196ECCFC701DF91CF911F910F91FF90F9
:100E1000EF90DF90CF900895009769F0FC0101906A
:100E20000020E9F73197AF01481B590BBC018CE951
:100E300092E00C94E10680E090E008950C940C0799
:100E40008F929F92AF92BF920F931F93CF93DF9396
:100E5000CDB7DEB7A1970FB6F894DEBF0FBECDBFFA
:100E600019A2423008F44AE08E010F5D1F4F842E14
:100E7000912CA12CB12CA50194010E94BD0CE62F50
:100E8000B901CA0101501109EA3014F4E05D01C052
:100E9000E95CD801EC93232B242B252B61F7C801A7
:100EA0000E940C07A1960FB6F894DEBF0FBECDBF0F
:100EB000DF91CF911F910F91BF90AF909F908F9036
:100EC000089590913B039111FCCF91E090933B03E7
:100ED00090933A032FEF20939B0210929A02260FD1
:100EE000209399029093980290919802880F892BF1
:100EF0008093980280913903813061F41092390314
:100F0000809198028093BB008091BC0083FDF8CF54
:100F100085EC01C085EE8093BC0080913B0381305D
:100F2000E1F380919A02861710F460919A02A8E783
:100F3000B2E028E532E0F9018E2F821B861718F403
:100F40008D918193F9CF862F0895382F20913C03FE
:100F500090915702213208F049C080913B038111E2
:100F6000FCCF42E040933B0330933A033FEF309392
:100F70009B0210929A0220939902A7E3B2E048E7FD
:100F800052E0FA013E2F341B321718F43D91319391
:100F9000F9CF1092980220919802990F922B90937A
:100FA000980290913903913061F410923903909135
:100FB00098029093BB009091BC0093FDF8CF95EC04
:100FC00001C095EE9093BC0090913B039230E1F309
:100FD00090919B029F3F79F080919B02803241F07B
:100FE00080919B02803331F084E005C081E003C032
:100FF00082E001C083E010923D0310923C03109206
:1010000036020895CF93C62F91E09093360298E66A
:101010009093570210923D0310923C03682F80E496
:1010200093E00E9404026C2F80E493E00E9404028B
:1010300081E0CF910C94A5070F931F93CF938B0161
:1010400091E09093360298E69093570210923D03F8
:1010500010923C03682F80E493E00E94040281E038
:101060000E94A507C82F81110EC061E088E60E948A
:10107000610710923F0380933E0380E493E00E9457
:10108000B801F80180838C2FCF911F910F910895A3
:101090001F93CF93DF931F92CDB7DEB7182FBE01FA
:1010A0006F5F7F4F8FE00E941C086981115081E0C3
:1010B00090E001C0880F1A95EAF7262F282339F00F
:1010C000809568238FE00E94020881E001C080E0E3
:1010D0000F90DF91CF911F9108958F929F92AF92C1
:1010E000BF92CF92DF92EF92FF920E94BB064B011C
:1010F0005C0184EFC82EDD24D394E12CF12C0E94F6
:10110000BB06DC01CB0188199909AA09BB09883EF5
:101110009340A105B10558F021E0C21AD108E108B9
:10112000F10888EE880E83E0981EA11CB11CC11442
:10113000D104E104F10419F7FF90EF90DF90CF9014
:10114000BF90AF909F908F9008950F931F93CF9370
:10115000DF931F92CDB7DEB7182F062FBE016F5F4A
:101160007F4F8EE00E941C082981115081E090E0A1
:1011700001C0880F1A95EAF7002319F0622F682B37
:1011800003C08095682F62238EE00E9402080F90B2
:10119000DF91CF911F910F9108951F920F920FB67B
:1011A0000F9211242F933F938F939F93AF93BF93ED
:1011B0008091310290913202A0913302B0913402B9
:1011C00030914C0323E0230F2D3720F40196A11D0D
:1011D000B11D05C026E8230F0296A11DB11D209365
:1011E0004C038093310290933202A0933302B09368
:1011F000340280914D0390914E03A0914F03B09122
:1012000050030196A11DB11D80934D0390934E0391
:10121000A0934F03B0935003BF91AF919F918F91D3
:101220003F912F910F900FBE0F901F9018951F9216
:101230000F920FB60F9211242F933F934F935F930A
:101240006F937F938F939F93AF93BF93EF93FF938E
:10125000E0910201F09103010995FF91EF91BF9197
:10126000AF919F918F917F916F915F914F913F913E
:101270002F910F900FBE0F901F9018951F920F92F5
:101280000FB60F9211242F933F934F935F936F9359
:101290007F938F939F93AF93BF93EF93FF93E091CF
:1012A0000001F09101010995FF91EF91BF91AF917C
:1012B0009F918F917F916F915F914F913F912F916E
:1012C0000F900FBE0F901F901895DC01ED91FC91CF
:1012D0000190F081E02D0994CF92DF92EF92FF927E
:1012E000CF93DF936B017C014115510581F4E091AF
:1012F0009C02F0919D020190F081E02D8CE992E03A
:10130000DF91CF91FF90EF90DF90CF9009944A301A
:101310005105E1F497FF19C06DE28CE992E00E945B
:101320006509EC0166277727CB016C197D098E09C9
:101330009F094AE00E9420078C0F9D1FDF91CF91EB
:10134000FF90EF90DF90CF9008954AE0C701B6017B
:10135000DF91CF91FF90EF90DF90CF900C9420071A
:10136000CF93DF93CDB7DEB72A970FB6F894DEBFE1
:101370000FBECDBF789484B5826084BD84B5816092
:1013800084BD85B5826085BD85B5816085BD809150
:101390006E00816080936E001092810080918100C8
:1013A00082608093810080918100816080938100C0
:1013B000809180008160809380008091B100846082
:1013C0008093B1008091B00081608093B0008091E3
:1013D0007A00846080937A0080917A0082608093A2
:1013E0007A0080917A00816080937A0080917A00FF
:1013F000806880937A001092C100E091AC02F09175
:10140000AD0282E08083E091A802F091A9021082EF
:10141000E091AA02F091AB0280E180831092B402C5
:10142000E091B002F091B10286E08083E091AE02DB
:10143000F091AF02808180618083E091AE02F091F3
:10144000AF02808188608083E091AE02F091AF02AC
:10145000808180688083E091AE02F091AF0280814C
:101460008F7D808360E087E00E94020860E088E072
:101470000E94020860E089E00E94020861E08AE0C0
:101480000E94020860E08BE00E94020860E08CE0AD
:101490000E94020861E08DE00E94020881E00E9443
:1014A000480882E00E94480860E081E00E94A508A8
:1014B00060E082E00E94A508BE016F5F7F4F8EE072
:1014C0000E941C08698164608EE00E94020881E429
:1014D00090E7A2E788879987AA871B86BE01685F85
:1014E0007F4F85E591E00E94200D8555914063E096
:1014F00070E00E94A90C6F5F6E838EE791E00E94FE
:10150000770C8D8381E891E00E94770C825B8F835A
:1015100086E891E00E94770C8B8389E891E00E9435
:10152000770C8A838CE891E00E94770C8983CE0146
:1015300001960E943702665F7F4F8F4F9F4FAE012B
:101540004F5F5F4F0E94F70281E08093360288E68A
:101550008093570210923D0310923C0360E080E4B8
:1015600093E00E94040229811AE0822F612F0E94D9
:101570009D0C682F660F860F682F660F620F80E440
:1015800093E00E9404022A81822F612F0E949D0C09
:10159000682F660F860F682F660F620F80E493E056
:1015A0000E9404022B81822F612F0E949D0C682FC4
:1015B000660F860F682F660F620F80E493E00E942B
:1015C00004026C8180E493E00E9404022D81822F4A
:1015D000612F0E949D0C682F660F860F682F660F83
:1015E000620F80E493E00E9404022E81822F612F1B
:1015F0000E949D0C682F660F860F682F660F620F82
:1016000080E493E00E9404022F812E51822F612FEB
:101610000E949D0C682F660F680F660F620F80E4B2
:1016200093E00E94040281E00E94A507BE01685F6A
:101630007F4F8FE00E941C0868856F778FE00E94C3
:10164000020865E087E00E94020860E888E00E94E6
:10165000020860E889E00E94020861E88AE00E94CE
:10166000020881E00E9448082FB7F8946091310287
:101670007091320280913302909134022FBF4AE080
:101680000E9420078FE891E00E941E070E94FA0343
:101690000E94660487E991E00E940C0707EB11E0C5
:1016A00043EAE42E41E0F42EF8012491F7018491FD
:1016B0008823C9F090E0880F991FFC01E057FF4F85
:1016C000A591B49186569F4FFC01459154919FB7C7
:1016D000F8943C91822F809583238C93FA0180812A
:1016E000282B20839FBF61E081E00E94A50883B77B
:1016F000817F846083BF83B7816083BF8AE991E083
:101700000E941E070E946D0883B7816083BF889581
:1017100083B78E7F83BF83B78E7F83BF8CEA91E0D0
:101720000E941E070E946D0881E00E9448088823DD
:10173000D1F02FB7F894609131027091320280910C
:101740003302909134022FBF4AE00E9420078FEBB2
:1017500091E00E941E070E94FA030E94660487E936
:1017600091E00E940C0782E00E9448088823D1F093
:101770002FB7F89460913102709132028091330258
:10178000909134022FBF4AE00E94200789EC91E03B
:101790000E941E070E94FA030E94660487E991E0F6
:1017A0000E940C070E946C017FCF90E0FC01E45383
:1017B000FF4F2491FC01E854FF4F3491FC01EC559C
:1017C000FF4FE491EE23B1F1222339F1233091F060
:1017D00038F42130A9F0223001F584B58F7D12C094
:1017E000273091F02830A1F02430B9F480918000A6
:1017F0008F7D03C0809180008F77809380000DC023
:1018000084B58F7784BD09C08091B0008F7703C005
:101810008091B0008F7D8093B000F0E0EE0FFF1F4D
:10182000E656FF4FA591B4918FB7F894EC913E2BFB
:101830003C938FBF0895ECE9F2E01382128288EEA8
:1018400093E0A0E0B0E084839583A683B78324E18E
:1018500031E03183208325EC30E03587248724EC88
:1018600030E03787268720EC30E0318B208B21EC6D
:1018700030E0338B228B22EC30E0358B248B26EC4E
:1018800030E0378B268B118E128E138E148EE0E48F
:10189000F3E01382128284839583A683B78386E262
:1018A00091E09183808310923F0310923E03109247
:1018B0003D0310923C0310923B0381E080933A0376
:1018C0001092390382E10E94D50B83E10E94D50B6F
:1018D000E9EBF0E080818E7F808380818D7F808343
:1018E00088E48093B80085E48093BC000895FC01EF
:1018F00088279927E89421912032E9F3293010F0C4
:101900002E30C8F32B3241F02D3239F4689404C0E4
:101910000E94950C820F911D219120532A30C0F313
:101920001EF4909581959F4F08957AE0979F902D92
:10193000879F802D910D11240895991B79E004C093
:10194000991F961708F0961B881F7A95C9F78095FE
:10195000089597FB072E16F4009407D077FD09D061
:101960000E94010D07FC05D03EF4909581959F4F94
:101970000895709561957F4F0895A1E21A2EAA1BD4
:10198000BB1BFD010DC0AA1FBB1FEE1FFF1FA2172F
:10199000B307E407F50720F0A21BB30BE40BF50B2C
:1019A000661F771F881F991F1A9469F760957095B5
:1019B000809590959B01AC01BD01CF010895A29F38
:1019C000B001B39FC001A39F700D811D1124911D13
:1019D000B29F700D811D1124911D08950E94DF0C8E
:1019E000A59F900DB49F900DA49F800D911D112473
:1019F0000895B7FF0C94EE0C0E94EE0C821B930B23
:101A00000895AA1BBB1B51E107C0AA1FBB1FA61745
:101A1000B70710F0A61BB70B881F991F5A95A9F797
:101A200080959095BC01CD010895EE0FFF1F0590A4
:101A3000F491E02D099481E090E0F8940C943A0D33
:101A4000FB0151915523A9F0BF01DC014D914517D0
:101A50004111E1F759F4CD010190002049F04D9179
:101A600040154111C9F3FB014111EFCF81E090E036
:081A700001970895F894FFCFDF
:101A7800E006E0061F1C1F1E1F1E1F1F1E1F1E1F25
:101A8800000000000301E1069B004A01CC00AA0007
:101A9800BE00000000000402D4013402A801CC01F9
:101AA800B801A9016C27696E7465727275707469E2
:101AB8006F6E206573742073757276656E75652018
:101AC800210A0030004A616E4665624D61724170BC
:101AD800724D61794A756E4A756C417567536570C8
:101AE8004F63744E6F7644656300417072203237DD
:101AF80020323031390032323A34343A313700202A
:101B0800537461727420000D0A00656E646F726D03
:101B18006F6E73206E6F757320210A006A652073DB
:101B28007569732072657665696C6CC3A90A0020B3
:101B3800414C41524D5F31200020414C41524D5F94
:041B48003220000047
:00000001FF
