:100000000C9498000C94C0000C94C0000C94C00098
:100010000C94C0000C94C0000C94C0000C94C00060
:100020000C94C0000C94C0000C94C0000C94C00050
:100030000C94C0000C94C0000C94C0000C94C00040
:100040000C94DF050C94C0000C944F060C94290608
:100050000C94C0000C94C0000C94C0000C94C00020
:100060000C9481060C94C0004572724A616E46651C
:10007000624D61724170724D61794A756E4A756C5C
:100080004175675365704F63744E6F7644656300C6
:10009000204641494C21005254432053796E63005D
:1000A000204600204320200020200052544320738B
:1000B000657420746F3A20004572726F723A20594D
:1000C000656172206D7573742062652074776F208E
:1000D000646967697473206F7220666F757220643B
:1000E0006967697473210000000000250028002B57
:1000F00000040404040404040402020202020203D1
:1001000003030303030102040810204080010204DA
:10011000081020010204081020000000080002015D
:1001200000000304070000000000000000000F0DA5
:1001300011241FBECFEFD8E0DEBFCDBF22E0ACE37D
:10014000B1E001C01D92AD3CB207E1F711E0A0E0C3
:10015000B1E0E8E5F0E202C005900D92AC33B107E2
:10016000D9F710E0C8E9D0E004C02197FE010E9451
:100170001F10C739D107C9F70E94C40A0C942A106E
:100180000C940000CF92DF92EF92FF920F931F9397
:10019000CF93DF936C017A018B01C0E0D0E0CE15E4
:1001A000DF0589F0D8016D918D01D601ED91FC91AB
:1001B0000190F081E02DC6010995892B11F47E0193
:1001C00002C02196ECCFC701DF91CF911F910F9113
:1001D000FF90EF90DF90CF900895FC01918D828D7C
:1001E000981761F0828DDF01A80FB11D5D968C918B
:1001F000928D9F5F9F73928F90E008958FEF9FEF96
:100200000895FC01918D828D981731F0828DE80F51
:10021000F11D858D90E008958FEF9FEF0895FC010B
:10022000918D228D892F90E0805C9F4F821B9109D8
:100230008F73992708958DE192E00E940F0121E0CC
:10024000892B09F420E0822F0895FC01848DDF01C1
:10025000A80FB11DA35ABF4F2C91848D90E0019639
:100260008F739927848FA689B7892C93A089B18928
:100270008C9180648C93938D848D981306C0028832
:10028000F389E02D80818F7D80830895EF92FF9226
:100290000F931F93CF93DF93EC0181E0888F9B8DA9
:1002A0008C8D981305C0E889F989808185FD24C06B
:1002B000F62E0B8D10E00F5F1F4F0F731127E02EEE
:1002C0008C8DE8120CC00FB607FCFACFE889F989CB
:1002D000808185FFF5CFCE010E942501F1CF8B8D66
:1002E000FE01E80FF11DE35AFF4FF0820B8FEA8900
:1002F000FB898081806207C0EE89FF896083E8897D
:10030000F98980818064808381E090E0DF91CF91E2
:100310001F910F91FF90EF900895CF93DF93EC0121
:10032000888D8823C9F0EA89FB89808185FD05C015
:10033000A889B9898C9186FD0FC00FB607FCF5CF4F
:10034000808185FFF2CFA889B9898C9185FFEDCF97
:10035000CE010E942501E7CFDF91CF91089580E083
:1003600090E0892B29F00E941B0181110C94000060
:10037000089585ED8093BC008091BC0084FDFCCF86
:100380001092BC02089540917101262F30E0240F95
:10039000311D21323105DCF42091BC022430C9F436
:1003A000FC0180E090E0861758F4309171012191B2
:1003B000DC01A15BBE4FA30FB11D2C930196F3CFBF
:1003C00080917101680F6093710180E0089581E070
:1003D000089582E008950895E091C0028091BF02DF
:1003E000E81730F4F0E0E752FE4F808190E0089586
:1003F0008FEF9FEF08959091C0028091BF029817F0
:1004000050F4E92FF0E0E752FE4F208130E09F5F8B
:100410009093C00202C02FEF3FEFC9010895809171
:10042000BF0290E02091C002821B91090895CF92F3
:10043000DF92EF92FF920F931F93CF93DF937C0194
:10044000262F972F8A018091B701882391F0C62F1C
:10045000D72F6E01C40ED51ECC15DD0571F0699144
:10046000D701ED91FC910190F081E02DC701099534
:10047000F3CF642F822F0E94C301C801DF91CF9177
:100480001F910F91FF90EF90DF90CF900895CF9341
:10049000DF931F92CDB7DEB769832091B701222386
:1004A000D1F02091BD02203240F021E030E0FC018B
:1004B0003383228380E090E015C08091BE02E82F54
:1004C000F0E0E854FE4F998190838F5F8093BE02E5
:1004D0008093BD0205C061E0CE0101960E94C30178
:1004E00081E090E00F90DF91CF9108956F927F921D
:1004F0008F929F92AF92BF92CF92DF92EF92FF9234
:100500000F931F93CF93DF93EC01EE81AE2FB0E0FA
:1005100020E833E341EE51E00E948F0E4B015C0175
:1005200022EB37E0FD0104E610E080E9E82EFF242D
:10053000F394C901825B97408E179F07DCF4C901D1
:1005400083709927892B99F4C901B8010E94CD0FB6
:10055000892B31F4C901B7010E94CD0F892B39F4E1
:1005600080E8880E81E5981E81E0A81EB11C2F5FEF
:100570003F4FDFCF6D80712CEE54F84FCF0164E612
:1005800070E00E94CD0F7C01CF0160E971E00E9414
:10059000CD0F6C0101E010E0E370FF270615170591
:1005A0002CF50230110581F4309771F4E114F10457
:1005B00019F4C114D10441F480E8880E8BE3981E2D
:1005C00086E2A81EB11C0FC0D801A150BF4FAC914C
:1005D000B0E020E831E541E050E00E948F0E860E49
:1005E000971EA81EB91E0F5F1F4FD8CF49812A81C1
:1005F00030E0A0E1BEE00E949A0E6B017C01242F46
:1006000030E0ACE3B0E00E949A0EDC01CB018C0D2F
:100610009D1DAE1DBF1D28816C017D01C20ED11C28
:10062000E11CF11CAC81B0E0119720E831E541E01C
:1006300050E00E940310DC01CB018C0D9D1DAE1D0E
:10064000BF1DBC01CD01680D791D8A1D9B1DDF9169
:10065000CF911F910F91FF90EF90DF90CF90BF90BF
:10066000AF909F908F907F906F9008956F927F9240
:100670008F929F92AF92BF92CF92DF92EF92FF92B2
:100680000F931F93CF93DF93EA012CE3C22ED12C5B
:10069000E12CF12CA70196010E94E10F6883CA01A9
:1006A000B901A70196010E94E10F6983CA01B9014E
:1006B00028E130E040E050E00E94E10F69017A015A
:1006C0006A83CA01B9016C5F7F4F8F4F9F4F27E04C
:1006D00030E040E050E00E94E10F6F5F6B83812CBF
:1006E000912C540140E034E6632E712C00E911E0B6
:1006F000242F30E02E54384FF901E370FF27309754
:1007000089F4C901B3010E94CD0F892B31F4C901CD
:10071000B8010E94CD0F892B29F48EE691E0A0E06C
:10072000B0E004C08DE691E0A0E0B0E0880E991E34
:10073000AA1EBB1ED501C401AA27BB27C816D9060D
:10074000EA06FB0610F04F5FD3CF4E83309799F443
:10075000C90164E670E00E94CD0F892B39F4C9010C
:1007600060E971E00E94CD0F892B29F48EE691E0BB
:10077000A0E0B0E004C08DE691E0A0E0B0E0881A0F
:10078000990AAA0ABB0AC818D908EA08FB08C901CD
:1007900064E670E00E94CD0F8C01C90160E971E050
:1007A0000E94CD0FA0E0B1E020E0213041F430976D
:1007B00051F40115110529F4009729F402C04C9158
:1007C00003C04DE101C04CE150E060E070E0C416B0
:1007D000D506E606F70640F0C41AD50AE60AF70A77
:1007E0002F5F11962C3009F72F5F2D83C394CC8295
:1007F000DF91CF911F910F91FF90EF90DF90CF90FD
:10080000BF90AF909F908F907F906F900895CF9200
:10081000DF92EF92FF92C0904701D0904801E090A4
:100820004901F0904A016C157D058E059F0571F018
:100830006B017C0142EA51E00E943603C0924701FD
:10084000D0924801E0924901F0924A01FF90EF9066
:10085000DF90CF900895982F92959F702AEF929FE6
:10086000800D112408950E94251060939A017093C1
:100870009B0180939C0190939D01DC01CB01845DE1
:100880009E4FAF4FBF4F8093960190939701A093D7
:100890009801B093990182E090E09093A101809338
:1008A000A0010E94050A60934B0170934C01809354
:1008B0004D0190934E010895CF92DF92EF92FF92F7
:1008C0000F931F930E94050AC0904B01D0904C01DA
:1008D000E0904D01F0904E018B019C010C191D0917
:1008E0002E093F0980919A0190919B01A0919C0152
:1008F000B0919D01083E134021053105D0F00196CD
:10090000A11DB11D80939A0190939B01A0939C011E
:10091000B0939D01B701A60148515C4F6F4F7F4FC7
:1009200040934B0150934C0160934D0170934E01E5
:10093000C9CF4091960150919701609198017091B3
:10094000990184179507A607B70788F1E0919E01E2
:10095000F0919F01309759F1099561157105810555
:10096000910519F00E94350422C080919A0190915E
:100970009B01A0919C01B0919D01845D9E4FAF4F62
:10098000BF4F8093960190939701A0939801B093E5
:10099000990181E090E02091A0013091A101232BE9
:1009A00011F480E090E09093A1018093A001609108
:1009B0009A0170919B0180919C0190919D011F91E2
:1009C0000F91FF90EF90DF90CF900895CF93DF933A
:1009D000CDB7DEB727970FB6F894DEBF0FBECDBFF9
:1009E00081E08093B70188E68093D8011092BE021F
:1009F0001092BD0260E081EC92E00E94470281E02B
:100A00000E947C09882331F08093460160E070E009
:100A1000CB013FC067E088E60E9438091092C0020F
:100A20008093BF0281EC92E00E94FB018F770E94CD
:100A30002B04898381EC92E00E94FB010E942B042D
:100A40008A8381EC92E00E94FB018F7B0E942B0441
:100A50008B8381EC92E00E94FB018C8381EC92E01D
:100A60000E94FB010E942B048D8381EC92E00E9486
:100A7000FB018F770E942B048E8381EC92E00E9411
:100A8000FB010E942B04825E8F83CE0101960E949F
:100A9000760227960FB6F894DEBF0FBECDBFDF916A
:100AA000CF9108951F93CF93DF93EC01162F0A97F0
:100AB0001CF480E30E940208BE01DD0F880B990B35
:100AC0004AE050E00E940D08111634F4812FDF91A6
:100AD000CF911F910C940208DF91CF911F9108953F
:100AE0008F929F92AF92BF92CF92DF92EF92FF923E
:100AF0004B015C010E9407048091A60160E090E038
:100B00000E945205C501B4010E940704C090A801CB
:100B1000D12C8EE4C81A88EFD80A0D2C000CEE08F0
:100B2000FF08C501B4010E9407042091A70183E0DA
:100B3000289F90011124ACE3B1E080E090E0FC013B
:100B4000E20FF31FE859FF4FE491ED9301968330D4
:100B50009105A9F710923F018CE391E00E94AF0745
:100B60004AE050E0C701B6010E940D0880E20E94F1
:100B70000208C501B4010E9407048091A4016AE340
:100B800090E00E945205C501B4010E9407048091C3
:100B9000A3016AE390E00E945205C501B4010E94DE
:100BA00007048091A20160E290E0FF90EF90DF9057
:100BB000CF90BF90AF909F908F900C9452051F9252
:100BC0000F920FB60F9211242F933F938F939F9301
:100BD000AF93BF938091B2019091B301A091B40102
:100BE000B091B5013091B10123E0230F2D3720F4EE
:100BF0000196A11DB11D05C026E8230F0296A11D77
:100C0000B11D2093B1018093B2019093B301A093E1
:100C1000B401B093B5018091AD019091AE01A09166
:100C2000AF01B091B0010196A11DB11D8093AD013E
:100C30009093AE01A093AF01B093B001BF91AF917B
:100C40009F918F913F912F910F900FBE0F901F900A
:100C500018951F920F920FB60F9211242F933F9366
:100C60004F935F936F937F938F939F93AF93BF93B4
:100C7000EF93FF938DE192E00E942501FF91EF91A8
:100C8000BF91AF919F918F917F916F915F914F91A4
:100C90003F912F910F900FBE0F901F9018951F92AC
:100CA0000F920FB60F9211242F938F939F93EF9370
:100CB000FF93E0912D02F0912E028081E0913302AA
:100CC000F091340282FD12C09081809136028F5FD4
:100CD0008F7320913702821751F0E0913602F0E0D5
:100CE000E35EFD4F958F8093360201C08081FF91B6
:100CF000EF919F918F912F910F900FBE0F901F90AA
:100D000018951F920F920FB60F9211242F933F93B5
:100D10004F935F936F937F938F939F93AF93BF9303
:100D2000EF93FF938091B900887F803609F49CC0CF
:100D300068F5883209F45BC090F4803109F454C03E
:100D400038F4882309F4F6C0883009F44DC0F6C0A1
:100D5000883109F44CC0803209F45DC0EFC08034A2
:100D600009F468C048F4803309F455C0883309F0A9
:100D7000E5C080931C02D8C0803509F44FC0883587
:100D800009F45DC0883409F0D9C0D6C0883909F4A7
:100D9000C7C0A8F4883709F467C038F4883609F466
:100DA00063C0803709F460C0C9C0883809F4B8C08E
:100DB000803909F45FC0803809F0C0C05BC0803B57
:100DC00009F486C038F4803A09F466C0883A09F418
:100DD0007FC0B4C0803C09F4A7C0883C09F4A4C01B
:100DE000883B09F48AC0AAC08091190210C0909172
:100DF0001B0280911A02981770F5E0911B0281E0A6
:100E00008E0F80931B02F0E0E750FE4F80818093AD
:100E1000BB0085EC86C080931C028EC0E0911B0253
:100E200081E08E0F80931B028091BB00F0E0E750C1
:100E3000FE4F808390911B0280911A026EC0E09158
:100E40001B0281E08E0F80931B028091BB00F0E0BB
:100E5000E750FE4F80838091BB0281116DC081E01D
:100E60008093BA0284EA61C083E08093BC0210924E
:100E70009501CFCF80919501803208F051C0E0916B
:100E8000950181E08E0F809395018091BB00F0E089
:100E9000EB58FE4F8083BDCF85EC8093BC00109251
:100EA000BC0280919501803230F4E0919501F0E030
:100EB000EB58FE4F10826091950170E0E091730154
:100EC000F091740185E791E009951092950136C083
:100ED00084E08093BC021092720110927101E09143
:100EE0006F01F0917001099580917101811105C028
:100EF00081E08093710110924F01E091720181E0D5
:100F00008E0F80937201F0E0E15BFE4F8081809351
:100F1000BB009091720180917101981708F479CF0C
:100F200085E88093BC000AC085EC8093BC001092D9
:100F3000BC0204C010921C020E94B901FF91EF9103
:100F4000BF91AF919F918F917F916F915F914F91E1
:100F50003F912F910F900FBE0F901F901895009703
:100F600069F0FC0101900020E9F73197AF01481BBF
:100F7000590BBC018DE192E00C94C20080E090E03E
:100F800008958F929F92AF92BF920F931F93CF932A
:100F9000DF93CDB7DEB7A1970FB6F894DEBF0FBED3
:100FA000CDBF19A2423008F44AE08E010F5D1F4FF9
:100FB000842E912CA12CB12CA50194010E94E10F4B
:100FC000E62FB901CA0101501109EA3014F4E05DBD
:100FD00001C0E95CD801EC93232B242B252B61F76E
:100FE000C8010E94AF07A1960FB6F894DEBF0FBEEE
:100FF000CDBFDF91CF911F910F91BF90AF909F9088
:101000008F900895E0911D02F0911E020190F081F1
:10101000E02D682F8DE192E00994CF92DF92EF925C
:10102000FF92CF93DF936B017C014115510581F451
:10103000E0911D02F0911E020190F081E02D8DE102
:1010400092E0DF91CF91FF90EF90DF90CF900994E5
:101050004A305105D1F497FF17C08DE20E94020873
:10106000EC0166277727CB016C197D098E099F0952
:101070004AE00E94C1078C0F9D1FDF91CF91FF9026
:10108000EF90DF90CF9008954AE0C701B601DF915D
:10109000CF91FF90EF90DF90CF900C94C1078CE23E
:1010A00091E00C94AF070F931F93CF93DF938C01C4
:1010B000C0E0D0E0F801EC0FFD1F6491662371F0F1
:1010C000E0911D02F0911E020190F081E02D8DE172
:1010D00092E00995892B11F02196ECCFCE01DF919A
:1010E000CF911F910F9108958F929F92AF92BF92CF
:1010F000CF92DF92EF92FF92CF93DF936B017C014F
:101100009B01AC010E94BC0F882319F08FE291E093
:1011100027C046015701E894B7F82FEF3FEF4FE79C
:101120005FE7C501B4010E94BC0F81110DC02FEF14
:101130003FEF4FE75FE7C501B4010E946B0D181642
:101140001CF483E391E00CC02FEF3FEF4FE75FE427
:10115000C701B6010E94B70F181674F487E391E037
:10116000DF91CF91FF90EF90DF90CF90BF90AF9045
:101170009F908F900C94AF072FEF3FEF4FE75FECFE
:10118000C701B6010E946B0D87FDE8CF20E030E07B
:10119000A901C701B6010E946B0D87FF09C08DE24E
:1011A0000E940208EC01F7FAF094F7F8F09402C0FC
:1011B000C0E0D0E02AE037ED43EA5BE3C701B601C7
:1011C0000E94AA0E4B015C010E94880F6B017C01FA
:1011D0000E94700D9B01AC01C501B4010E94A90ED3
:1011E0004B015C014AE0C701B6010E94C107C80F6C
:1011F000D91F8EE20E940208C80FD91F20E030E0FC
:1012000040E251E4C501B4010E94D10D4B015C01E3
:101210000E94880F6B01E12CF12C4AE0C701B60156
:101220000E94C107C80FD91FC701B6010E94700DE7
:101230009B01AC01C501B4010E94A90E20E030E081
:1012400040E251E40E94D10D0E94880F80E090E0BE
:101250004AE00E94C1078C0F9D1FDF91CF91FF9044
:10126000EF90DF90CF90BF90AF909F908F900895B8
:101270009091BC029111FCCF91E09093BC029093AD
:10128000BB022FEF20931C0210921B02260F20930B
:101290001A029093190290911902880F892B80935A
:1012A00019028091BA02813061F41092BA028091E1
:1012B00019028093BB008091BC0083FDF8CF85ECC0
:1012C00001C085EE8093BC008091BC028130E1F3C7
:1012D00080911B02861710F460911B02A9EFB1E008
:1012E00029ED31E0F9018E2F821B861718F48D91BC
:1012F0008193F9CF862F0895382F2091BD029091C8
:10130000D801213208F049C08091BC028111FCCF84
:1013100042E04093BC023093BB023FEF30931C028B
:1013200010921B0220931A02A8EBB1E049EF51E0A2
:10133000FA013E2F341B321718F43D913193F9CF47
:101340001092190220911902990F922B9093190271
:101350009091BA02913061F41092BA029091190200
:101360009093BB009091BC0093FDF8CF95EC01C029
:1013700095EE9093BC009091BC029230E1F3909175
:101380001C029F3F79F080911C02803241F08091D5
:101390001C02803331F084E005C081E003C082E0AC
:1013A00001C083E01092BE021092BD021092B701FC
:1013B00008950F931F93CF938B0191E09093B70102
:1013C00098E69093D8011092BE021092BD02682F49
:1013D00081EC92E00E94470281E00E947C09C82FC4
:1013E00081110EC061E088E60E9438091092C002A7
:1013F0008093BF0281EC92E00E94FB01F8018083A0
:101400008C2FCF911F910F9108952FB7F894609171
:10141000B2017091B3018091B4019091B5012FBFD9
:1014200008950F931F930E94050A609325027093FD
:1014300026028093270290932802E0911D02F091EA
:101440001E020084F185E02D8DE192E0099597FF61
:101450001FC00E94050A00912502109126022091CA
:10146000270230912802DC01CB01801B910BA20BDB
:10147000B30B00912102109122022091230230919E
:10148000240280179107A207B307B8F28FEF9FEFEE
:101490001F910F910895FF920F931F93CF93DF93A6
:1014A00000D000D0CDB7DEB70E94110AFC0197FD35
:1014B00011C08D32910591F0C0970A9778F0E091B4
:1014C0001D02F0911E020680F781E02D8DE192E071
:1014D0000995EACF60E070E0CB014CC020E030E03D
:1014E000A901F12CE130F105F1F0ED32F105C9F07F
:1014F000CF01C0970A97B8F4AAE0B0E00E948F0E1F
:101500008F01FF0F220B330BDC01CB01800F911FEA
:10151000A21FB31F9C01AD0120533109410951099C
:1015200002C0FF24F394E0911D02F0911E02068098
:10153000F781E02D8DE192E029833A834B835C8330
:1015400009950E94110AFC01C09729813A814B81BB
:101550005C810A9738F2E130F10521F2FF2041F079
:1015600066277727CB01621B730B840B950B02C098
:10157000CA01B9010F900F900F900F90DF91CF919A
:101580001F910F91FF900895CF93DF93CDB7DEB7F2
:101590002F970FB6F894DEBF0FBECDBF789484B5F9
:1015A000826084BD84B5816084BD85B5826085BD5F
:1015B00085B5816085BD80916E00816080936E00ED
:1015C00010928100809181008260809381008091DF
:1015D0008100816080938100809180008160809390
:1015E00080008091B10084608093B1008091B00050
:1015F00081608093B00080917A00846080937A004B
:1016000080917A00826080937A0080917A00816074
:1016100080937A0080917A00806880937A0010929B
:10162000C100E0912D02F0912E0282E08083E091D2
:101630002902F0912A021082E0912B02F0912C02F3
:1016400080E1808310923502E0913102F091320204
:1016500086E08083E0912F02F091300280818061EA
:101660008083E0912F02F091300280818860808336
:10167000E0912F02F0913002808180688083E091B8
:101680002F02F091300280818F7D808386EE94E07E
:1016900090939F0180939E0180919A0190919B016C
:1016A000A0919C01B0919D01809396019093970128
:1016B000A0939801B09399010E945C0487E990E09F
:1016C0000E9453080E945C048091A0019091A101A6
:1016D000029721F080E990E00E9453080E944F0891
:1016E00001E098E6F92E1AE08DE192E00E940F01E8
:1016F0000C970CF4D8C00E944B0A9B012456310968
:101700002438334038F488EB90E00E9453080E945C
:101710004F08C9C0683E23E0720714F0625B01C045
:10172000625E6E870E944B0A6D870E944B0A6C872F
:101730000E944B0A6A870E944B0A69870E944B0AE3
:101740006887CE0108960E9476024B015C01AE01CB
:101750004F5F5F4F0E9436030093B701F092D801AC
:101760001092BE021092BD0260E081EC92E00E94F5
:1017700047022981822F612F0E94C10F682F660FB7
:10178000860F682F660F620F81EC92E00E9447027D
:101790002A81822F612F0E94C10F682F660F860F4A
:1017A000682F660F620F81EC92E00E9447022B8146
:1017B000822F612F0E94C10F682F660F860F682F3E
:1017C000660F620F81EC92E00E9447026C8181EC0F
:1017D00092E00E9447022D81822F612F0E94C10F4B
:1017E000682F660F860F682F660F620F81EC92E0FC
:1017F0000E9447022E81822F612F0E94C10F982FD5
:10180000990F980F990F692F620F81EC92E00E9457
:1018100047022F812E51822F612F0E94C10F682F06
:10182000660F860F880F682F620F81EC92E00E948E
:10183000470281E00E947C09BE01615F7F4F8FE01B
:101840000E94D909EF840093B701F092D801109259
:10185000BE021092BD026FE081EC92E00E9447024E
:101860006E2D6F7781EC92E00E94470281E00E942A
:101870007C09C501B4010E9435048BEA90E00E9406
:101880005308C501B4010E9470050E944F088DE104
:1018900092E00E940F01181619062CF48DE192E0D7
:1018A0000E94ED00F4CF0E945C044B015C0180912A
:1018B000A9019091AA01A091AB01B091AC01881649
:1018C0009906AA06BB0609F461C08092A90190920C
:1018D000AA01A092AB01B092AC01C501B4010E9473
:1018E0007005C501B4010E9407048091A201811115
:1018F0004BC0BE016F5F7F4F82E10E94D909E98032
:10190000BE016F5F7F4F81E10E94D9098E2D9981C1
:1019100097FDCF96BC0186E0759567958A95E1F7AE
:10192000072E000C880B990B0E94720D20E030E00E
:1019300040E85EE30E94D10D4B015C0188EA90E033
:101940000E945308C501B4010E94740883EA90E024
:101950000E94530820E030E040E151E4C501B401A9
:101960000E94D10D20E030E040EA50E40E94160FC2
:1019700020E030E040E052E40E94AA0E0E94740889
:1019800080EA90E00E9453080E944F080E94AF0135
:10199000ABCE90E0FC01E75EFE4F2491FC01EB5FD3
:1019A000FE4F3491FC01EF50FF4FE491EE23B1F173
:1019B000222339F1233091F038F42130A9F022307C
:1019C00001F584B58F7D12C0273091F02830A1F049
:1019D0002430B9F4809180008F7D03C08091800015
:1019E0008F77809380000DC084B58F7784BD09C048
:1019F0008091B0008F7703C08091B0008F7D80937D
:101A0000B000F0E0EE0FFF1FE951FF4FA591B49138
:101A10008FB7F894EC913E2B3C938FBF0895EDE186
:101A2000F2E01382128288EE93E0A0E0B0E08483BB
:101A30009583A683B78320E131E03183208325ECB1
:101A400030E03587248724EC30E03787268720EC88
:101A500030E0318B208B21EC30E0338B228B22EC79
:101A600030E0358B248B26EC30E0378B268B118EC3
:101A7000128E138E148EE1ECF2E0138212828483B4
:101A80009583A683B78380E291E09183808310924F
:101A9000C0021092BF021092BE021092BD021092BC
:101AA000BC0281E08093BB021092BA0282E10E94E4
:101AB000C90C83E10E94C90CE9EBF0E080818E7FC4
:101AC000808380818D7F808388E48093B80085E463
:101AD0008093BC0008950E94AD0D08F481E0089544
:101AE000E89409C097FB3EF49095809570956195B8
:101AF0007F4F8F4F9F4F9923A9F0F92F96E9BB276E
:101B00009395F695879577956795B795F111F8CFE9
:101B1000FAF4BB0F11F460FF1BC06F5F7F4F8F4F54
:101B20009F4F16C0882311F096E911C0772321F04A
:101B30009EE8872F762F05C0662371F096E8862FE2
:101B400070E060E02AF09A95660F771F881FDAF739
:101B5000880F9695879597F90895990F0008550F66
:101B6000AA0BE0E8FEEF16161706E807F907C0F023
:101B700012161306E407F50798F0621B730B840B2B
:101B8000950B39F40A2661F0232B242B252B21F405
:101B900008950A2609F4A140A6958FEF811D811DA5
:101BA00008950E94E40D0C94550E0E94470E38F0E3
:101BB0000E944E0E20F0952311F00C943E0E0C94D2
:101BC000440E11240C94890E0E94660E70F3959FAA
:101BD000C1F3950F50E0551F629FF001729FBB2724
:101BE000F00DB11D639FAA27F00DB11DAA1F649FC0
:101BF0006627B00DA11D661F829F2227B00DA11D73
:101C0000621F739FB00DA11D621F839FA00D611DF8
:101C1000221F749F3327A00D611D231F849F600D19
:101C2000211D822F762F6A2F11249F5750409AF042
:101C3000F1F088234AF0EE0FFF1FBB1F661F771FCE
:101C4000881F91505040A9F79E3F510580F00C9499
:101C50003E0E0C94890E5F3FE4F3983ED4F38695D4
:101C600077956795B795F795E7959F5FC1F7FE2B39
:101C7000880F911D9695879597F9089597F99F6715
:101C800080E870E060E008959FEF80EC0895002404
:101C90000A941616170618060906089500240A94D1
:101CA00012161306140605060895092E0394000C57
:101CB00011F4882352F0BB0F40F4BF2B11F460FFE6
:101CC00004C06F5F7F4F8F4F9F4F089557FD90580F
:101CD000440F551F59F05F3F71F04795880F97FBF0
:101CE000991F61F09F3F79F08795089512161306AA
:101CF0001406551FF2CF4695F1DF08C016161706D9
:101D00001806991FF1CF869571056105089408950D
:101D1000E894BB2766277727CB0197F908950E949F
:101D20009A0EA59F900DB49F900DA49F800D911DBC
:101D300011240895A29FB001B39FC001A39F700D0D
:101D4000811D1124911DB29F700D811D1124911DC3
:101D500008955058BB27AA270E94C10E0C94550E17
:101D60000E94470E38F00E944E0E20F039F49F3F3B
:101D700019F426F40C94440E0EF4E095E7FB0C9451
:101D80003E0EE92F0E94660E58F3BA1762077307DA
:101D90008407950720F079F4A6F50C94880E0EF4CC
:101DA000E0950B2EBA2FA02D0B01B90190010C016B
:101DB000CA01A0011124FF27591B99F0593F50F483
:101DC000503E68F11A16F040A22F232F342F4427DB
:101DD000585FF3CF469537952795A795F0405395D3
:101DE000C9F77EF41F16BA0B620B730B840BBAF0A3
:101DF0009150A1F0FF0FBB1F661F771F881FC2F70E
:101E00000EC0BA0F621F731F841F48F48795779521
:101E10006795B795F7959E3F08F0B0CF9395880FDB
:101E200008F09927EE0F9795879508950E942A0F3D
:101E30000C94550E0E944E0E58F00E94470E40F032
:101E400029F45F3F29F00C943E0E51110C94890E39
:101E50000C94440E0E94660E68F39923B1F3552347
:101E600091F3951B550BBB27AA27621773078407AD
:101E700038F09F5F5F4F220F331F441FAA1FA9F343
:101E800035D00E2E3AF0E0E832D091505040E69531
:101E9000001CCAF72BD0FE2F29D0660F771F881F92
:101EA000BB1F261737074807AB07B0E809F0BB0B85
:101EB000802DBF01FF2793585F4F3AF09E3F510599
:101EC00078F00C943E0E0C94890E5F3FE4F3983E3C
:101ED000D4F3869577956795B795F7959F5FC9F782
:101EE000880F911D9695879597F90895E1E0660F03
:101EF000771F881FBB1F621773078407BA0720F07C
:101F0000621B730B840BBA0BEE1F88F7E0950895E4
:101F10000E946E0E88F09F5798F0B92F9927B751FD
:101F2000B0F0E1F0660F771F881F991F1AF0BA957D
:101F3000C9F714C0B13091F00E94880EB1E0089545
:101F40000C94880E672F782F8827B85F39F0B93F37
:101F5000CCF3869577956795B395D9F73EF4909530
:101F60008095709561957F4F8F4F9F4F08950E9488
:101F7000AD0D08F48FEF08950E94AD0D880B990BFD
:101F80000895991B79E004C0991F961708F0961BD5
:101F9000881F7A95C9F78095089597FB072E16F448
:101FA000009407D077FD09D00E940B1007FC05D0E4
:101FB0003EF4909581959F4F0895709561957F4F60
:101FC0000895A1E21A2EAA1BBB1BFD010DC0AA1F7A
:101FD000BB1FEE1FFF1FA217B307E407F50720F092
:101FE000A21BB30BE40BF50B661F771F881F991F0D
:101FF0001A9469F760957095809590959B01AC0156
:10200000BD01CF010895B7FF0C948F0E0E948F0E73
:10201000821B930B0895AA1BBB1B51E107C0AA1F8B
:10202000BB1FA617B70710F0A61BB70B881F991F79
:102030005A95A9F780959095BC01CD010895EE0FB2
:10204000FF1F0590F491E02D099481E090E0F89451
:082050000C942A10F894FFCF54
:102058001F1C1F1E1F1E1F1F1E1F1E1F000000000B
:102068004601C2000F01ED0001018D0100000000D2
:10207800470217020F02FB01EC01EB010D0A006E8B
:0C208800616E00696E66006F76660000F5
:00000001FF
