:100000000C945E000C9486000C9486000C94860080
:100010000C9486000C9486000C9486000C94860048
:100020000C9486000C9486000C9486000C94860038
:100030000C9486000C9486000C9486000C94860028
:100040000C9466040C9486000C94D6040C94B004B2
:100050000C9486000C9486000C9486000C94860008
:100060000C9486000C948600000000080002010039
:100070000003040700000000000000000000000072
:10008000250028002B0000000000240027002A0083
:10009000040404040404040402020202020203032E
:1000A0000303030301020408102040800102040836
:1000B00010200102040810200805010711241FBEAA
:1000C000CFEFD8E0DEBFCDBF22E0A0E6B1E001C0B7
:1000D0001D92AD32B207E1F711E0A0E0B1E0EAE332
:1000E000F3E102C005900D92A036B107D9F710E0F8
:1000F000CDE5D0E004C02197FE010E947E07CC35FB
:10010000D107C9F70E9459050C9490090C9400007E
:1001100090E0FC01EC55FF4F2491FC01E057FF4FAC
:100120008491882399F090E0880F991FFC01EA5789
:10013000FF4FA591B491FC01E458FF4F8591949134
:100140008FB7F894EC91E22BEC938FBF089590E079
:10015000FC01E859FF4F3491FC01EC55FF4F24910D
:10016000FC01E057FF4FE491EE2309F43BC0332339
:1001700039F1333091F038F43130A9F0323001F5F3
:1001800084B58F7D12C0373091F03830A1F0343013
:10019000B9F4809180008F7D03C0809180008F77BB
:1001A000809380000DC084B58F7784BD09C0809195
:1001B000B0008F7703C08091B0008F7D8093B00036
:1001C000F0E0EE0FFF1FE458FF4FA591B4918FB7F9
:1001D000F894EC91611103C020952E2301C02E2BC1
:1001E0002C938FBF08953FB7F89480916A01909146
:1001F0006B01A0916C01B0916D0126B5A89B05C063
:100200002F3F19F00196A11DB11D3FBFBA2FA92F95
:10021000982F8827820F911DA11DB11DBC01CD0112
:1002200042E0660F771F881F991F4A95D1F70895FE
:10023000CF92DF92EF92FF920F931F93CF93DF93B2
:100240006C017A018B01C0E0D0E0CE15DF0589F0AA
:10025000D8016D918D01D601ED91FC910190F08155
:10026000E02DC6010995892B11F47E0102C021966B
:10027000ECCFC701DF91CF911F910F91FF90EF90CD
:10028000DF90CF900895FC01918D828D981761F0D9
:10029000828DDF01A80FB11D5D968C91928D9F5FBD
:1002A0009F73928F90E008958FEF9FEF0895FC0168
:1002B000918D828D981731F0828DE80FF11D858D1B
:1002C00090E008958FEF9FEF0895FC01918D228DAE
:1002D000892F90E0805C9F4F821B91098F73992733
:1002E00008958EE691E00E94650121E0892B09F4D2
:1002F00020E0822F0895FC01848DDF01A80FB11D3D
:10030000A35ABF4F2C91848D90E001968F7399274B
:10031000848FA689B7892C93A089B1898C91806438
:100320008C93938D848D981306C00288F389E02DF9
:1003300080818F7D80830895EF92FF920F931F93AA
:10034000CF93DF93EC0181E0888F9B8D8C8D981388
:1003500005C0E889F989808185FD24C0F62E0B8DC2
:1003600010E00F5F1F4F0F731127E02E8C8DE812E6
:100370000CC00FB607FCFACFE889F989808185FFA8
:10038000F5CFCE010E947B01F1CF8B8DFE01E80FEE
:10039000F11DE35AFF4FF0820B8FEA89FB898081C0
:1003A000806207C0EE89FF896083E889F9898081CE
:1003B0008064808381E090E0DF91CF911F910F9165
:1003C000FF90EF900895CF93DF93EC01888D882301
:1003D000C9F0EA89FB89808185FD05C0A889B989B2
:1003E0008C9186FD0FC00FB607FCF5CF808185FF8D
:1003F000F2CFA889B9898C9185FFEDCFCE010E94FB
:100400007B01E7CFDF91CF91089580E090E0892BC9
:1004100029F00E94710181110C9400000895CF937E
:10042000DF93EC0160E08E810E94A70061E08E8185
:100430000E94A70060E08E810E94A7008BE891E0F7
:100440000197F1F7DF91CF910895CF92DF92EF926C
:10045000FF920F931F93CF93DF937C016C0187E092
:10046000C80ED11CC0E0D0E0062F10E0B8010C2E61
:1004700002C0759567950A94E2F76170F601819163
:100480006F010E94A7002196C430D10579F7C701FA
:10049000DF91CF911F910F91FF90EF90DF90CF9060
:1004A0000C940F02CF92DF92EF92FF920F931F9363
:1004B000CF93DF93EC01F62E642F8C810E94A7006E
:1004C0008D818F3F19F060E00E94A7008F850F2D6E
:1004D00010E084FF25C06E0187E0C80ED11CE12C1E
:1004E000F12CB8010E2C02C0759567950A94E2F7BD
:1004F0006170F60181916F010E94A700FFEFEF1A72
:10050000FF0A88E0E816F10461F7CE01DF91CF9190
:100510001F910F91FF90EF90DF90CF900C940F02FE
:10052000B80184E0759567958A95E1F7CE010E9440
:1005300025026F2DCE01DF91CF911F910F91FF907A
:10054000EF90DF90CF900C94250241E00E94520280
:1005500081E090E0089540E00C94520261E00E9436
:10056000AB028BE39FE10197F1F70895EF92FF92C1
:100570000F931F93CF93DF93EC01623018F08F85B8
:1005800088608F876B8B1C8A80E48D8B80E18E8BDB
:1005900080E58F8B8C810E9488008D818F3F11F0C8
:1005A0000E9488008E810E9488007E0187E0E80E0C
:1005B000F11C00E010E08F8584FD03C084E090E032
:1005C00002C088E090E00817190744F4F701819110
:1005D0007F010E9488000F5F1F4FEDCF8BE39DE0EE
:1005E0000197F1F760E08C810E94A70060E08E81A6
:1005F0000E94A7008D818F3F19F060E00E94A70044
:100600006F8564FD1DC063E0CE010E9425020BE4EE
:1006100016E4C8010197F1F763E0CE010E942502BC
:10062000C8010197F1F763E0CE010E94250283E53E
:1006300092E00197F1F762E0CE010E94250216C018
:100640006062CE010E94AB028BE496E40197F1F761
:100650006F856062CE010E94AB0283E592E0019754
:10066000F1F76F856062CE010E94AB026F85606218
:10067000CE010E94AB0284E0888B6CE0CE010E9428
:10068000AB02CE010E94AE0282E0898B66E0CE0111
:10069000DF91CF911F910F91FF90EF900C94AB02DF
:1006A0000E947B090F931F93CF93DF93EC01888106
:1006B0009981009729F02A813B812617370788F412
:1006C0008B016F5F7F4F0E94B108009761F09983A3
:1006D00088831B830A832C813D81232B11F4FC0129
:1006E000108281E001C080E0DF91CF911F910F91D6
:1006F0000895EF92FF920F931F93CF93DF93FC0126
:10070000248135816115710511F480E019C041150E
:100710005105A9F07B01EC018A01020F131FB801FA
:100720000E945203882389F3288139818C819D811D
:10073000B701820F931F0E9489091D830C8381E0FA
:10074000DF91CF911F910F91FF90EF900895CF937C
:10075000DF93EC0188819981009711F00E941908BC
:10076000198218821D821C821B821A82DF91CF910E
:100770000895CF93DF93EC01FB01448155816081A3
:1007800071810E947903811103C0CE010E94A703E9
:10079000CE01DF91CF910895EF92FF920F931F93B7
:1007A000CF93DF93EC017B018A01BA010E945203CF
:1007B000811104C0CE010E94A70307C01D830C83D2
:1007C000B701888199810E948909CE01DF91CF917B
:1007D0001F910F91FF90EF900895EF92FF920F936A
:1007E0001F93CF93DF93CDB7DEB762970FB6F89420
:1007F000DEBF0FBECDBF8C01CB01F801118210828C
:10080000138212821582148250E09E012F5F3F4FA7
:100810007901B9010E940707F70101900020E9F76B
:100820003197AF014E195F09B701C8010E94CC038F
:1008300062960FB6F894DEBF0FBECDBFDF91CF91A9
:100840001F910F91FF90EF900895FC01118210828B
:1008500013821282158214826115710551F0FB0119
:1008600001900020E9F73197AF01461B570B0C941C
:10087000CC0308956115710579F0FB01019000200A
:10088000E9F73197AF01461B570BDC01ED91FC9165
:100890000280F381E02D099480E090E00895CF93E9
:1008A000DF93FC0144815581608171818EE691E086
:1008B0000E941801EC016EE171E08EE691E00E9469
:1008C0003A048C0F9D1FDF91CF9108951F920F92D4
:1008D0000FB60F9211242F933F938F939F93AF9353
:1008E000BF938091660190916701A0916801B091DA
:1008F00069013091650123E0230F2D3720F4019623
:10090000A11DB11D05C026E8230F0296A11DB11D32
:10091000209365018093660190936701A09368011D
:10092000B093690180916A0190916B01A0916C0173
:10093000B0916D010196A11DB11D80936A01909344
:100940006B01A0936C01B0936D01BF91AF919F912A
:100950008F913F912F910F900FBE0F901F90189580
:100960001F920F920FB60F9211242F933F934F9324
:100970005F936F937F938F939F93AF93BF93EF9307
:10098000FF938EE691E00E947B01FF91EF91BF9172
:10099000AF919F918F917F916F915F914F913F9117
:1009A0002F910F900FBE0F901F9018951F920F92CE
:1009B0000FB60F9211242F938F939F93EF93FF9372
:1009C000E0917E01F0917F018081E0918401F091BE
:1009D000850182FD12C09081809187018F5F8F73A6
:1009E00020918801821751F0E0918701F0E0E259EF
:1009F000FE4F958F8093870101C08081FF91EF9119
:100A00009F918F912F910F900FBE0F901F9018956F
:100A1000EEE6F1E01382128288EE93E0A0E0B0E00F
:100A200084839583A683B7838AE091E09183808352
:100A300085EC90E09587848784EC90E097878687A3
:100A400080EC90E0918B808B81EC90E0938B828B9B
:100A500082EC90E0958B848B86EC90E0978B868B74
:100A6000118E128E138E148EE1E1F2E01382128247
:100A70008AE191E09183808389E084838FEF85838D
:100A80008AE0868385E0878384E0808783E08187AE
:100A900082E082871386148615861686178661E0A3
:100AA000CF010E94B60260E271E08BE092E00C940C
:100AB0002504CF93DF93CDB7DEB762970FB6F894D6
:100AC000DEBF0FBECDBF789484B5826084BD84B58F
:100AD000816084BD85B5826085BD85B5816085BD39
:100AE00080916E00816080936E00109281008091F1
:100AF0008100826080938100809181008160809379
:100B00008100809180008160809380008091B1009D
:100B100084608093B1008091B00081608093B000C8
:100B200080917A00846080937A0080917A0082605C
:100B300080937A0080917A00816080937A0080911E
:100B40007A00806880937A001092C100E0917E0163
:100B5000F0917F0182E08083E0917A01F0917B0146
:100B60001082E0917C01F0917D018FEC80831092E6
:100B70008601E0918201F091830186E08083E0911B
:100B80008001F0918101808180618083E09180010A
:100B9000F0918101808188608083E0918001F091F3
:100BA0008101808180688083E0918001F0918101E2
:100BB00080818F7D808362E081E192E00E94B602B5
:100BC00081E192E00E94AE0261E271E081E192E097
:100BD0000E943A04E0912402E23010F4E15001C096
:100BE000E1E0F0E0EF5EFD4F6489606881E192E052
:100BF0000E94AB028EE691E00E946501181619066C
:100C00000CF0F8C08EE691E00E94430190936401DD
:100C10008093630120916101309162012F5F3F4F0A
:100C200030936201209361014AE0BC01CE0101963C
:100C30000E94ED0360916101709162014AE0CE0172
:100C400007960E94ED0369E271E0CE010D960E94C5
:100C50002504BE01695F7F4FCE010D960E94B90346
:100C60007C0143E050E06AE371E00E94790388234D
:100C700009F4C3C0BE016F5F7F4FC7010E94B90373
:100C80000E944F048D859E850E9419088F8198854A
:100C90000E94190889819A810E941908E0906301D5
:100CA000F090640129E0E216F10409F061C081E1ED
:100CB00092E00E94AE026EE371E08EE691E00E9447
:100CC0003A046EE171E08EE691E00E943A0461E53B
:100CD00071E0CE0101960E9425046BE072E0CE0126
:100CE00001960E94B9030E944F0489819A810E9453
:100CF000190840910F025091100260910B027091FF
:100D00000C0281E192E00E94180140E050E060E2B4
:100D100071E08BE092E00E94CC031092620110928D
:100D200061010E94F3004B015C0184E6C82ED12CC6
:100D3000E12CF12C0E94F300DC01CB018819990908
:100D4000AA09BB09883E9340A105B10558F081E08E
:100D5000C81AD108E108F10828EE820E23E0921E9D
:100D6000A11CB11CC114D104E104F10419F742C063
:100D7000E09260011A8219821C821B821E821D82EF
:100D800060910B0270910C026115710549F0409160
:100D90000F0250911002CE0101960E94CC0304C0B4
:100DA000CE0101960E94A703EF82188641E050E031
:100DB000BE01695F7F4FCE0101960E9479038111C8
:100DC00004C0CE0101960E94A70369817A81611552
:100DD000710539F04D815E818BE092E00E94CC0379
:100DE00004C08BE092E00E94A70389819A810E944F
:100DF000190800CF0E940502FDCEC7010E94A7037B
:100E000039CF80910B0290910C020C941908453255
:100E1000510520F4423010F00C941207FB011082AF
:100E2000CB010895BB274A3031F4992322F4BDE267
:100E3000909581959F4F0C941E07BB27FB0155276A
:100E4000AA27880F991FAA1FA41710F0A41B839527
:100E50005051B9F7A05DAA3308F0A95DA19300979E
:100E600079F7B111B1931192CB010C943707DC01E2
:100E7000FC01672F71917723E1F7329704C07C91D1
:100E80006D9370836291AE17BF07C8F308952F92D8
:100E90003F924F925F926F927F928F929F92AF920A
:100EA000BF92CF92DF92EF92FF920F931F93CF9357
:100EB000DF93CDB7DEB7CA1BDB0B0FB6F894DEBFEE
:100EC0000FBECDBF09942A88398848885F846E8414
:100ED0007D848C849B84AA84B984C884DF80EE805E
:100EE000FD800C811B81AA81B981CE0FD11D0FB667
:100EF000F894DEBF0FBECDBFED010895EE0FFF1FCA
:100F00000590F491E02D0994CF93DF938230910501
:100F100010F482E090E0E0912B02F0912C0220E0AE
:100F200030E0C0E0D0E0309711F1408151814817A6
:100F30005907C0F04817590761F4828193812097BF
:100F400019F09B838A832BC090932C0280932B02F1
:100F500026C02115310519F04217530718F49A01DC
:100F6000BE01DF01EF010280F381E02DDCCF21150E
:100F7000310509F1281B390B2430310590F4129604
:100F80008D919C9113976115710521F0FB0193835D
:100F9000828304C090932C0280932B02FD01329631
:100FA00044C0FD01E20FF31F819391932250310958
:100FB0002D933C933AC02091290230912A02232B91
:100FC00041F4209102013091030130932A022093D1
:100FD000290220910001309101012115310541F4D0
:100FE0002DB73EB74091040150910501241B350BEC
:100FF000E0912902F0912A02E217F307A0F42E1BD8
:101000003F0B2817390778F0AC014E5F5F4F24176C
:10101000350748F04E0F5F1F50932A024093290274
:101020008193919302C0E0E0F0E0CF01DF91CF9196
:1010300008950F931F93CF93DF93009709F48CC00B
:10104000FC0132971382128200912B0210912C0224
:101050000115110581F420813181820F931F2091A8
:10106000290230912A022817390779F5F0932A02CC
:10107000E093290271C0D80140E050E0AE17BF07ED
:1010800050F412962D913C911397AD012115310525
:1010900009F1D901F3CF9D01DA0133832283608105
:1010A0007181860F971F8217930769F4EC012881DD
:1010B0003981260F371F2E5F3F4F318320838A816E
:1010C0009B8193838283452B29F4F0932C02E09338
:1010D0002B0242C01396FC93EE931297ED014991B7
:1010E00059919E01240F351FE217F30771F4808197
:1010F0009181840F951F029611969C938E93828105
:10110000938113969C938E931297E0E0F0E0D801C0
:1011100012968D919C911397009719F0F8018C010C
:10112000F6CF8D919C9198012E5F3F4F820F931FB8
:101130002091290230912A022817390769F4309743
:1011400029F410922C0210922B0202C013821282F8
:1011500010932A0200932902DF91CF911F910F91E2
:101160000895A0E0B0E0E7EBF8E00C944B07EC0149
:10117000009721F4CB010E948407B8C0FC01E60F60
:10118000F71F9C0122503109E217F30708F4ACC0A5
:10119000D9010D911C91119706171707B0F0053072
:1011A000110508F49FC0C80104978617970708F433
:1011B00099C002501109061B170B019311936D93EF
:1011C0007C93CF010E9419088DC05B01A01AB10A5F
:1011D0004C01800E911EA0912B02B0912C0240E098
:1011E00050E0E12CF12C109709F44AC0A815B9057C
:1011F000D1F56D907C901197630182E0C80ED11CEF
:10120000CA14DB0480F1A3014A195B096A0182E078
:10121000C80ED11C1296BC9012971396AC91B5E0F3
:10122000CB16D10440F0B282A38351834083D9010D
:101230006D937C930AC00E5F1F4FC301800F911FF7
:10124000F90191838083EB2DFA2FE114F10431F041
:10125000D7011396FC93EE93129744C0F0932C029F
:10126000E0932B023FC08D919C911197481759072D
:1012700008F4AC017D0112960D90BC91A02DB3CF66
:101280008091290290912A0288159905E1F4461768
:101290005707C8F48091000190910101009741F433
:1012A0008DB79EB74091040150910501841B950BA9
:1012B000E817F907C8F4F0932A02E0932902F9012C
:1012C000718360830FC0CB010E9484077C0100976B
:1012D00059F0A801BE010E948009CE010E941908A0
:1012E000C70104C0CE0102C080E090E0CDB7DEB7F8
:1012F000EEE00C94670781E090E0F8940C9490097C
:10130000FB01DC0102C001900D9241505040D8F722
:101310000895FB01DC0101900D920020E1F7089592
:1013200010E0CDE5D0E004C0FE010E947E072196CA
:0A133000CE35D107C9F7F894FFCFBE
:10133A0000002D028000000000009C0118016501D8
:10134A0043015701E30100000000A50218010D0A3C
:10135A0000626F6E6A6F7572004173636969204338
:10136A0061726163746572652000203D20005361DB
:10137A007574206465206C69676E65207265637593
:10138A0000436861696E652072656375653D00009A
:00000001FF
