:100000000C9462000C9449020C9422020C948A0015
:100010000C948A000C948A000C948A000C948A0038
:100020000C948A000C948A000C948A000C948A0028
:100030000C948A000C948A000C948A000C948A0018
:100040000C94D8010C948A000C948A000C948A00B9
:100050000C948A000C948A000C948A000C948A00F8
:100060000C9470020C948A00000000002400270009
:100070002A0000000000250028002B0004040404CE
:100080000404040402020202020203030303030342
:10009000010204081020408001020408102001021F
:1000A00004081020000000080002010000030407FB
:1000B00000000000000000000000000023002600F7
:1000C0002900C40A11241FBECFEFD8E0DEBFCDBF88
:1000D00011E0A0E0B1E0E6EEFAE102C005900D9279
:1000E000A236B107D9F722E0A2E6B1E001C01D9225
:1000F000AC35B207E1F710E0C2E6D0E004C02197CA
:10010000FE010E94660DC136D107C9F70E94C509DC
:100110000C94710D0C9400000895CF92DF92EF9231
:10012000FF920F931F93CF93DF936C017A018B01A2
:10013000C0E0D0E0CE15DF0589F0D8016D918D01CA
:10014000D601ED91FC910190F081E02DC601099559
:10015000892B11F47E0102C02196ECCFC701DF91FB
:10016000CF911F910F91FF90EF90DF90CF90089566
:1001700081E08093AB01089585ED8093BC00809170
:10018000BC0084FDFCCF1092F901089540918401D8
:10019000262F30E0240F311D21323105DCF420916F
:1001A000F9012430C9F4FC0180E090E0861758F48E
:1001B000309184012191DC01AE59BE4FA30FB11DD6
:1001C0002C930196F3CF80918401680F6093840192
:1001D00080E0089581E0089582E008950895E09117
:1001E000B2018091B101E81730F4F0E0ED54FE4F18
:1001F000808190E008958FEF9FEF08959091B20174
:100200008091B101981750F4E92FF0E0ED54FE4FC2
:10021000208130E09F5F9093B20102C02FEF3FEF4B
:10022000C90108958091B10190E02091B201821B33
:1002300091090895CF92DF92EF92FF920F931F934F
:10024000CF93DF937C01262F972F8A0180911C0288
:10025000882391F0C62FD72F6E01C40ED51ECC1562
:10026000DD0571F06991D701ED91FC910190F0816C
:10027000E02DC7010995F3CF642F822F0E94C6009D
:10028000C801DF91CF911F910F91FF90EF90DF9008
:10029000CF900895CF93DF931F92CDB7DEB76983D8
:1002A00020911C022223D1F020911A02203240F02A
:1002B00021E030E0FC013383228380E090E015C030
:1002C00080911B02E82FF0E0E650FE4F9981908369
:1002D0008F5F80931B0280931A0205C061E0CE01FC
:1002E00001960E94C60081E090E00F90DF91CF91CF
:1002F0000895089580E090E008951092F90181E05A
:100300008093F8011092D30161E082E10E946506BA
:1003100061E083E10E946506E9EBF0E080818E7F79
:10032000808380818D7F808388E48093B80085E41A
:100330008093BC000895CF93DF93EC0160E08E8141
:100340000E94650661E08E810E94650660E08E81F4
:100350000E9465068BE891E00197F1F7DF91CF915C
:1003600008950E946C0D3FB7F8948091AD01909173
:10037000AE01A091AF01B091B00126B5A89B05C018
:100380002F3F19F00196A11DB11D3FBFBA2FA92F14
:10039000982F8827820F911DA11DB11DBC01CD0191
:1003A00042E0660F771F881F991F4A95D1F708957D
:1003B0001F920F920FB60F9211242F933F938F939A
:1003C0009F93AF93BF9380911D0290911E02A091C5
:1003D0001F02B09120023091AC0123E0230F2D3792
:1003E00020F40196A11DB11D05C026E8230F029639
:1003F000A11DB11D2093AC0180931D0290931E029C
:10040000A0931F02B09320028091AD019091AE01A4
:10041000A091AF01B091B0010196A11DB11D8093D3
:10042000AD019093AE01A093AF01B093B001BF9125
:10043000AF919F918F913F912F910F900FBE0F9091
:100440001F9018951F920F920FB60F9211242F93A1
:100450003F934F935F936F937F938F939F93AF934C
:10046000BF93EF93FF93E0910201F091030109958F
:10047000FF91EF91BF91AF919F918F917F916F917C
:100480005F914F913F912F910F900FBE0F901F9052
:1004900018951F920F920FB60F9211242F933F932E
:1004A0004F935F936F937F938F939F93AF93BF937C
:1004B000EF93FF93E0910001F09101010995FF9105
:1004C000EF91BF91AF919F918F917F916F915F91CC
:1004D0004F913F912F910F900FBE0F901F90189545
:1004E0001F920F920FB60F9211242F933F934F93A9
:1004F0005F936F937F938F939F93AF93BF93EF938C
:10050000FF938091B900887F803609F49CC068F51C
:10051000883209F45BC090F4803109F454C038F497
:10052000882309F4F6C0883009F44DC0F6C088313C
:1005300009F44CC0803209F45DC0EFC0803409F486
:1005400068C048F4803309F455C0883309F0E5C029
:100550008093F701D8C0803509F44FC0883509F47D
:100560005DC0883409F0D9C0D6C0883909F4C7C045
:10057000A8F4883709F467C038F4883609F463C0F2
:10058000803709F460C0C9C0883809F4B8C0803920
:1005900009F45FC0803809F0C0C05BC0803B09F43B
:1005A00086C038F4803A09F466C0883A09F47FC0FE
:1005B000B4C0803C09F4A7C0883C09F4A4C0883BBF
:1005C00009F48AC0AAC08091D40110C09091F601AC
:1005D0008091F501981770F5E091F60181E08E0F9A
:1005E0008093F601F0E0EB52FE4F80818093BB00D8
:1005F00085EC86C08093F7018EC0E091F60181E022
:100600008E0F8093F6018091BB00F0E0EB52FE4F1D
:1006100080839091F6018091F5016EC0E091F60122
:1006200081E08E0F8093F6018091BB00F0E0EB52E9
:10063000FE4F80838091F80181116DC081E080932D
:10064000D30184EA61C083E08093F9011092A8018C
:10065000CFCF8091A801803208F051C0E091A8016D
:1006600081E08E0F8093A8018091BB00F0E0E857F5
:10067000FE4F8083BDCF85EC8093BC001092F901C2
:100680008091A801803230F4E091A801F0E0E857B1
:10069000FE4F10826091A80170E0E0918601F09118
:1006A000870188E891E009951092A80136C084E09E
:1006B0008093F9011092850110928401E0918201EA
:1006C000F0918301099580918401811105C081E039
:1006D0008093840110926201E091850181E08E0F88
:1006E00080938501F0E0EE59FE4F80818093BB003E
:1006F0009091850180918401981708F479CF85E85D
:100700008093BC000AC085EC8093BC001092F90174
:1007100004C01092F7010E94BC00FF91EF91BF91BD
:10072000AF919F918F917F916F915F914F913F9189
:100730002F910F900FBE0F901F901895CF92DF92C0
:10074000EF92FF920F931F93CF93DF937C016C0185
:1007500087E0C80ED11CC0E0D0E0062F10E0B80141
:100760000C2E02C0759567950A94E2F76170F60148
:1007700081916F010E9465062196C430D10579F7F9
:10078000C701DF91CF911F910F91FF90EF90DF9004
:10079000CF900C949B01CF92DF92EF92FF920F9338
:1007A0001F93CF93DF93EC01F62E642F8C810E9470
:1007B00065068D818F3F19F060E00E9465068F8588
:1007C0000F2D10E084FF25C06E0187E0C80ED11CFC
:1007D000E12CF12CB8010E2C02C0759567950A9496
:1007E000E2F76170F60181916F010E946506FFEFEB
:1007F000EF1AFF0A88E0E816F10461F7CE01DF91F5
:10080000CF911F910F91FF90EF90DF90CF900C94BC
:100810009B01B80184E0759567958A95E1F7CE0153
:100820000E949E036F2DCE01DF91CF911F910F91FA
:10083000FF90EF90DF90CF900C949E0341E00E94D8
:10084000CB0381E090E0089540E00C94CB0361E09D
:100850000E9424048BE39FE10197F1F708954F92E2
:100860005F926F927F928F929F92AF92BF92CF9240
:10087000DF92EF92FF92CF931092B2011092B101EA
:1008800010921B0210921A020E947D016AE570E02C
:1008900080E090E00E948B07809145028823A9F0B8
:1008A0000E94C507892B39F0C12CD12C80ECE82E91
:1008B0008FE7F82E35C06091480270E080E090E04C
:1008C0000E94200C6B017C012BC00E94C507892B64
:1008D00059F7C09149026091480270E080E090E0D1
:1008E0000E94220C6B017C018C2F8F77682F70E0A7
:1008F00080E090E00E94200C20E030E040E251E4F3
:100900000E94780B9B01AC01C701B6010E940C0B41
:100910006B017C01C7FF04C0F7FAF094F7F8F0947C
:1009200080914502882369F00E94C507892B09F050
:10093000CAC06091460270E080E090E00E94200C06
:1009400022C00E94C507892B09F0BDC060914602F4
:1009500070E080E090E00E94220C4B015C018091ED
:100960004702682F70E080E090E00E94200C20E0B9
:1009700030E040E251E40E94780B9B01AC01C501DC
:10098000B4010E940C0B4B015C019B01AC010E9465
:100990001B0D811198C0A7019601C701B6010E94E5
:1009A0001B0D811190C08DE292E00E942704E1E0CE
:1009B000809140028111E0E0E195F0E0E35DFD4FC0
:1009C000648960688DE292E00E94240482E291E0F2
:1009D0000E94BA05C701B6010E94EA0B2B013C0137
:1009E000CB010E94CC0589E291E00E94BA05B201D8
:1009F000550C880B990B0E94220C9B01AC01C7017E
:100A0000B6010E940B0B20E030E040E251E40E946E
:100A1000AE0C0E94EA0BCB010E94CC05E091400293
:100A2000E23010F4E15001C0E1E0F0E0E35DFD4FA1
:100A3000648960688DE292E00E9424048BE291E078
:100A40000E94BA05C501B4010E94EA0B6B017C014A
:100A5000CB010E94CC0589E291E00E94BA05B60163
:100A6000DD0C880B990B0E94220C9B01AC01C50187
:100A7000B4010E940B0B20E030E040E251E40E9400
:100A8000AE0C0E94EA0BCB010E94CC0561E083E131
:100A90000E94B10661E082E10E94B10660E083E15C
:100AA0000E94650660E082E1CF91FF90EF90DF90B9
:100AB000CF90BF90AF909F908F907F906F905F90FE
:100AC0004F900C9465068DE292E00E94270487E324
:100AD00091E00E94BA05DACF8F929F92AF92BF92B7
:100AE000CF92DF92EF92FF92CF93DF93A0915502C6
:100AF000882311F03A2F01C030E08091560290E037
:100B0000880F991F88549F4FC0905702D090580269
:100B1000E0905902F0905A0240E050E0BA01FC0126
:100B2000C591D49128812A2323130FC04A015B0168
:100B30002FEF821A920AA20AB20A4C155D056E05C1
:100B40007F0538F4B501A401EACF342F252FCB015E
:100B500004C030E020E080E090E0632F722FDF914E
:100B6000CF91FF90EF90DF90CF90BF90AF909F908C
:100B70008F900895009769F0FC0101900020E9F73B
:100B80003197AF01481B590BBC018DE292E00C94E8
:100B90008D0080E090E008958F929F92AF92BF9277
:100BA000CF92DF92EF92FF920F931F93CF93DF9339
:100BB000CDB7DEB7A1970FB6F894DEBF0FBECDBF9D
:100BC0006C01990FEE08FF08F7FE31C0E0912D028D
:100BD000F0912E020190F081E02D6DE28DE292E025
:100BE00009958C0122273327A9012C193D094E09AB
:100BF0005F0919A2CE0181967C019AE0892E912C81
:100C0000A12CB12CCA01B901A50194010E94440D87
:100C1000605DF70162937F012115310541055105A2
:100C200089F7CF010E94BA05800F911F1DC0A7014F
:100C3000960119A28E010F5D1F4F8AE0C82ED12C9C
:100C4000E12CF12CCA01B901A70196010E94440DC3
:100C5000605DF80162938F01211531054105510551
:100C600089F7CF010E94BA05A1960FB6F894DEBFAE
:100C70000FBECDBFDF91CF911F910F91FF90EF90ED
:100C8000DF90CF90BF90AF909F908F90089582306B
:100C9000D8F4E82FF0E0EE0FFF1FE050FF4F28EBF5
:100CA00030E031832083813041F0809169008C7F76
:100CB000826080936900E89A089580916900837F3B
:100CC000886080936900E99A089590E0FC01EC55F2
:100CD000FF4F3491FC01E057FF4F2491FC01E45891
:100CE000FF4FE491EE2309F43BC0332339F1333055
:100CF00091F038F43130A9F0323001F584B58F7DB0
:100D000012C0373091F03830A1F03430B9F480910E
:100D100080008F7D03C0809180008F77809380005A
:100D20000DC084B58F7784BD09C08091B0008F77E6
:100D300003C08091B0008F7D8093B000F0E0EE0F93
:100D4000FF1FEE58FF4FA591B4918FB7F894EC9127
:100D5000611103C020952E2301C02E2B2C938FBF31
:100D60000895CF93DF9390E0FC01E057FF4F24916B
:100D7000FC01E458FF4F8491882361F190E0880FD3
:100D8000991FFC01E859FF4FC591D491FC01EE5821
:100D9000FF4FA591B491611109C09FB7F894888164
:100DA000209582238883EC912E230BC0623061F45E
:100DB0009FB7F8943881822F809583238883EC91A4
:100DC0002E2B2C939FBF06C08FB7F894E8812E2B53
:100DD00028838FBFDF91CF910895EF92FF920F93F9
:100DE0001F93CF93DF93EC01623018F08F858860FA
:100DF0008F876B8B1C8A80E48D8B80E18E8B80E5E6
:100E00008F8B61E08C810E94B1068D818F3F19F03C
:100E100061E00E94B10661E08E810E94B1067E0110
:100E200087E0E80EF11C00E010E08F8584FD03C030
:100E300084E090E002C088E090E0081719074CF4C5
:100E400061E0F70181917F010E94B1060F5F1F4FA2
:100E5000ECCF8BE39DE00197F1F760E08C810E947D
:100E6000650660E08E810E9465068D818F3F19F0D6
:100E700060E00E9465066F8564FD1DC063E0CE01E1
:100E80000E949E030BE416E4C8010197F1F763E0AA
:100E9000CE010E949E03C8010197F1F763E0CE01E5
:100EA0000E949E0383E592E00197F1F762E0CE0194
:100EB0000E949E0316C06062CE010E9424048BE44F
:100EC00096E40197F1F76F856062CE010E942404D9
:100ED00083E592E00197F1F76F856062CE010E9491
:100EE00024046F856062CE010E94240484E0888B14
:100EF0006CE0CE010E942404CE010E94270482E00F
:100F0000898B66E0CE01DF91CF911F910F91FF9009
:100F1000EF900C9424048F929F92AF92BF92CF9245
:100F2000DF92EF92FF926B017C010E94B3014B01B3
:100F30005C01C114D104E104F104F1F00E94B30199
:100F4000DC01CB0188199909AA09BB09883E9340A5
:100F5000A105B10570F321E0C21AD108E108F1083A
:100F600088EE880E83E0981EA11CB11CC114D10428
:100F7000E104F10419F7DDCFFF90EF90DF90CF90FF
:100F8000BF90AF909F908F900895CF92DF92EF9295
:100F9000FF920F931F93CF93DF93CDB7DEB7C0546B
:100FA000D1400FB6F894DEBF0FBECDBF2FB7F89477
:100FB00080911D0290911E02A0911F02B09120020B
:100FC0002FBF40914E0250914F026091500270919C
:100FD00051028C019D01041B150B260B370BB90127
:100FE000A801403D57406105710528F480915202E7
:100FF00090915302BAC180934E0290934F02A093F6
:101000005002B093510280914502882309F4AEC08A
:1010100010924A021092490210924802109247021E
:101020001092460261E0809154020E9465066AEFC8
:1010300070E080E090E00E948B0761E080915402B4
:101040000E94B10660E0809154020E94650664E14E
:1010500070E080E090E00E948B07F89461E080915E
:1010600054020E9465068BE990E00197F1F762E077
:10107000809154020E94B10683E290E00197F1F75B
:1010800080E00E946C05672B682B692B19F483E0C4
:1010900090E053C181E00E946C05672B682B692B9F
:1010A00019F484E090E049C18E010F5F1F4F6E017B
:1010B0002FEBC21A2EEFD20A780180E00E946C0555
:1010C000F701608371838283938381E00E946C05C2
:1010D000F7016483758386839783F8E0EF0EF11C34
:1010E000EC14FD0451F720E030E0F801408151811B
:1010F00062817381C480D580E680F78041155105F7
:101100006105710529F0C114D104E104F10419F459
:1011100082E090E012C1F90193E0F595E7959A9588
:10112000E1F7EB5BFD4F8181880F4C155D056E0586
:101130007F0508F4816081832F5F3F4F085F1F4F59
:101140002832310591F69091470280914602890F2D
:1011500090914802890F90914902890F90914A021B
:10116000981709F4F0C081E090E0E7C010914B02BD
:1011700081E080931C0210935B0210921B0210927C
:101180001A0260E081E292E00E944A0190911A0204
:10119000913208F04AC08091F9018111FCCF22E020
:1011A0002093F90121E02093F8012FEF2093F7011C
:1011B0001092F6019093F501AAEFB1E045ED51E0F0
:1011C000FA012E2F241B291718F42D912193F9CF02
:1011D0001092D4019091D401110F192B1093D401C6
:1011E0009091D301913061F41092D3019091D40188
:1011F0009093BB009091BC0093FDF8CF95EC01C09B
:1012000095EE9093BC009091F9019230E1F39091AA
:10121000F7019F3F79F08091F701803241F0809192
:10122000F701803331F084E005C081E003C082E043
:1012300001C083E010921B0210921A0210921C024D
:10124000882319F085E090E085C080914B02909151
:10125000F9019111FCCF91E09093F9019093F8017D
:101260002FEF2093F7011092F60124E02093F5016F
:101270009093D4019091D401880F892B8093D4014D
:101280008091D301813061F41092D3018091D40117
:101290008093BB008091BC0083FDF8CF85EC01C03A
:1012A00085EE8093BC008091F9018130E1F380915B
:1012B000F601853018F41091F60101C015E0A5ED96
:1012C000B1E023EB31E0F9018E2F821B811718F476
:1012D0008D918193F9CF1092B2011093B10186E400
:1012E000E82E82E0F82E05E00E0D81E292E00E94E9
:1012F000FE00F70181937F010E13F7CF61E070E0EC
:1013000080E090E00E948B078091B201181719F0DD
:1013100082E090E01FC09091470280914602890FC1
:1013200090914802890F90914902890F90914A0249
:101330009817A9F081E090E00DC09093530280933C
:101340005202789412C0109253021092520280E01E
:1013500090E0F7CF909353028093520206C0109210
:1013600053021092520280E090E0C05CDE4F0FB654
:10137000F894DEBF0FBECDBFDF91CF911F910F91CB
:10138000FF90EF90DF90CF900895789484B58260BD
:1013900084BD84B5816084BD85B5826085BD85B519
:1013A000816085BD80916E00816080936E00109297
:1013B0008100809181008260809381008091810012
:1013C00081608093810080918000816080938000A3
:1013D0008091B10084608093B1008091B000816001
:1013E0008093B00080917A00846080937A0080912D
:1013F0007A00826080937A0080917A008160809385
:101400007A0080917A00806880937A001092C100FF
:1014100062E08DE292E00E94ED068DE292E00E9491
:1014200027048FE298EFAFEFBFEF80934E029093C7
:101430004F02A0935002B09351028091450288233D
:1014400031F062E0809154020E94B1060AC010920D
:10145000B2011092B10110921B0210921A020E9466
:101460007D0161E08CE00E94B106C0E0D0E00CE8B4
:1014700010E060E08CE00E94650662E080E00E947F
:10148000B10680E00E94470662E370E080E090E0F1
:101490000E948B078091AB01882349F08091A901BC
:1014A0009091AA0101969093AA018093A901E090DE
:1014B000A901F090AA01E114F104C9F161E08CE006
:1014C0000E94650668EC70E080E090E00E948B0767
:1014D00081E0E816F10459F082E0E816F10451F4D5
:1014E0000E942F041092AA011092A90120C00E940C
:1014F0002F041DC08DE292E00E942704E1E080915C
:1015000040028111E0E0E195F0E0E35DFD4F648988
:1015100060688DE292E00E94240489E591E00E94D7
:10152000BA0560ED77E080E090E00E948B0760ED07
:1015300077E080E090E00E948B078DE292E00E94CD
:10154000270460E08CE00E94650683B7817F846099
:1015500083BF83B7816083BF80E00E94470683B763
:10156000816083BF889583B78E7F83BF83B78E7F6B
:1015700083BFE8981093010100930001209709F4BC
:1015800078CF0E94000075CFE1E2F2E01382128270
:1015900088EE93E0A0E0B0E084839583A683B783D0
:1015A00088E091E091838083E5E4F2E010828CE5AD
:1015B000868382E1878383E1808711861286138682
:1015C000148689E090E09687858783E08787108A74
:1015D000118A128A138A148A158AEDE2F2E01382C4
:1015E00012822AE131E03183208399E094839FEFD6
:1015F00095839AE09683878384E0808785E081875E
:1016000086E082871386148615861686178661E023
:10161000CF010C94ED065058BB27AA270E94230B3C
:101620000C94740C0E94660C38F00E946D0C20F033
:1016300039F49F3F19F426F40C94630C0EF4E095F2
:10164000E7FB0C945D0CE92F0E94850C58F3BA1748
:10165000620773078407950720F079F4A6F50C94C8
:10166000A70C0EF4E0950B2EBA2FA02D0B01B9019B
:1016700090010C01CA01A0011124FF27591B99F008
:10168000593F50F4503E68F11A16F040A22F232F14
:10169000342F4427585FF3CF469537952795A79564
:1016A000F0405395C9F77EF41F16BA0B620B730B0B
:1016B000840BBAF09150A1F0FF0FBB1F661F771F7C
:1016C000881FC2F70EC0BA0F621F731F841F48F431
:1016D000879577956795B795F7959E3F08F0B0CFBA
:1016E0009395880F08F09927EE0F979587950895A1
:1016F0000E948C0B0C94740C0E946D0C58F00E948C
:10170000660C40F029F45F3F29F00C945D0C5111F8
:101710000C94A80C0C94630C0E94850C68F399231C
:10172000B1F3552391F3951B550BBB27AA276217DD
:101730007307840738F09F5F5F4F220F331F441FEA
:10174000AA1FA9F335D00E2E3AF0E0E832D091501E
:101750005040E695001CCAF72BD0FE2F29D0660F0B
:10176000771F881FBB1F261737074807AB07B0E84E
:1017700009F0BB0B802DBF01FF2793585F4F3AF054
:101780009E3F510578F00C945D0C0C94A80C5F3FC3
:10179000E4F3983ED4F3869577956795B795F795DA
:1017A0009F5FC9F7880F911D9695879597F90895C2
:1017B000E1E0660F771F881FBB1F6217730784075E
:1017C000BA0720F0621B730B840BBA0BEE1F88F76D
:1017D000E09508950E94F10B6894B1110C94A80C47
:1017E00008950E948D0C88F09F5798F0B92F992783
:1017F000B751B0F0E1F0660F771F881F991F1AF0FC
:10180000BA95C9F714C0B13091F00E94A70CB1E0AD
:1018100008950C94A70C672F782F8827B85F39F0AC
:10182000B93FCCF3869577956795B395D9F73EF494
:1018300090958095709561957F4F8F4F9F4F08953C
:10184000E89409C097FB3EF490958095709561955A
:101850007F4F8F4F9F4F9923A9F0F92F96E9BB2710
:101860009395F695879577956795B795F111F8CF8C
:10187000FAF4BB0F11F460FF1BC06F5F7F4F8F4FF7
:101880009F4F16C0882311F096E911C0772321F0ED
:101890009EE8872F762F05C0662371F096E8862F85
:1018A00070E060E02AF09A95660F771F881FDAF7DC
:1018B000880F9695879597F9089597F99F6780E81F
:1018C00070E060E008959FEF80EC089500240A9492
:1018D0001616170618060906089500240A9412160B
:1018E0001306140605060895092E0394000C11F43E
:1018F000882352F0BB0F40F4BF2B11F460FF04C0EB
:101900006F5F7F4F8F4F9F4F089557FD9058440F43
:10191000551F59F05F3F71F04795880F97FB991F4E
:1019200061F09F3F79F0879508951216130614060B
:10193000551FF2CF4695F1DF08C016161706180698
:10194000991FF1CF86957105610508940895E89473
:10195000BB2766277727CB0197F908950E94C10C12
:101960000C94740C0E94660C38F00E946D0C20F0F0
:10197000952311F00C945D0C0C94630C11240C94C1
:10198000A80C0E94850C70F3959FC1F3950F50E051
:10199000551F629FF001729FBB27F00DB11D639F21
:1019A000AA27F00DB11DAA1F649F6627B00DA11DC7
:1019B000661F829F2227B00DA11D621F739FB00D6D
:1019C000A11D621F839FA00D611D221F749F3327DD
:1019D000A00D611D231F849F600D211D822F762F76
:1019E0006A2F11249F5750409AF0F1F088234AF053
:1019F000EE0FFF1FBB1F661F771F881F91505040BF
:101A0000A9F79E3F510580F00C945D0C0C94A80C36
:101A10005F3FE4F3983ED4F3869577956795B79545
:101A2000F795E7959F5FC1F7FE2B880F911D96955F
:101A3000879597F908950E94200D880B990B0895BA
:101A4000990F0008550FAA0BE0E8FEEF16161706CF
:101A5000E807F907C0F012161306E407F50798F037
:101A6000621B730B840B950B39F40A2661F0232B50
:101A7000242B252B21F408950A2609F4A140A695CC
:101A80008FEF811D811D0895A1E21A2EAA1BBB1B99
:101A9000FD010DC0AA1FBB1FEE1FFF1FA217B3073A
:101AA000E407F50720F0A21BB30BE40BF50B661F50
:101AB000771F881F991F1A9469F760957095809514
:101AC00090959B01AC01BD01CF010895EE0FFF1F62
:101AD0000590F491E02D099481E090E0F8940C9445
:061AE000710DF894FFCF28
:101AE6008C008C00000000004A011A017A01EE0009
:101AF6001201FE00EF00000000001E048D007A01B6
:101B0600790174656D703A20002E0068756D696400
:101B1600697465203A20004661696C656420746FBB
:101B260020726561642066726F6D204448543132BC
:101B36002073656E736F72210070726F626C656DD3
:021B4600650038
:00000001FF
