:100000000C9462000C94F7020C94D0020C948A00B9
:100010000C948A000C948A000C948A000C948A0038
:100020000C948A000C948A000C948A000C948A0028
:100030000C948A000C948A000C948A000C948A0018
:100040000C9486020C948A000C948A000C948A000A
:100050000C948A000C948A000C948A000C948A00F8
:100060000C941E030C948A0000000000240027005A
:100070002A0000000000250028002B0004040404CE
:100080000404040402020202020203030303030342
:10009000010204081020408001020408102001021F
:1000A00004081020000000080002010000030407FB
:1000B00000000000000000000000000023002600F7
:1000C0002900DF0B11241FBECFEFD8E0DEBFCDBF6C
:1000D00011E0A0E0B1E0E4E2FDE102C005900D9284
:1000E000A238B107D9F722E0A2E8B1E001C01D9221
:1000F000AB38B207E1F710E0C2E6D0E004C02197C8
:10010000FE010E94850EC136D107C9F70E9445093C
:100110000C94900E0C9400003FB7F8948091DB0192
:100120009091DC01A091DD01B091DE0126B5A89B84
:1001300005C02F3F19F00196A11DB11D3FBFBA2F79
:10014000A92F982F8827820F911DA11DB11DBC01D9
:10015000CD0142E0660F771F881F991F4A95D1F79E
:1001600008958230E8F4E82FF0E0EE0FFF1FE05032
:10017000FF4F71836083813041F0809169008C7FF3
:10018000482B40936900E89A089580916900440FD4
:10019000551F440F551F837F482B40936900E99AF0
:1001A00008950895CF92DF92EF92FF920F931F93DD
:1001B000CF93DF936C017A018B01C0E0D0E0CE15C4
:1001C000DF0589F0D8016D918D01D601ED91FC918B
:1001D0000190F081E02DC6010995892B11F47E0173
:1001E00002C02196ECCFC701DF91CF911F910F91F3
:1001F000FF90EF90DF90CF90089581E08093D90138
:10020000089585ED8093BC008091BC0084FDFCCFF7
:1002100010922C0208954091A401262F30E0240F63
:10022000311D21323105DCF420912C022430C9F437
:10023000FC0180E090E0861758F43091A4012191F0
:10024000DC01AE57BE4FA30FB11D2C930196F3CF27
:100250008091A401680F6093A40180E0089581E07B
:10026000089582E008950895E091E4018091E3010A
:10027000E81730F4F0E0EB51FE4F808190E00895F4
:100280008FEF9FEF08959091E4018091E30198171B
:1002900050F4E92FF0E0EB51FE4F208130E09F5FFA
:1002A0009093E40102C02FEF3FEFC90108958091C0
:1002B000E30190E02091E401821B91090895CF921F
:1002C000DF92EF92FF920F931F93CF93DF937C0106
:1002D000262F972F8A0180912D02882391F0C62F17
:1002E000D72F6E01C40ED51ECC15DD0571F06991B6
:1002F000D701ED91FC910190F081E02DC7010995A6
:10030000F3CF642F822F0E940B01C801DF91CF91A0
:100310001F910F91FF90EF90DF90CF900895CF93B2
:10032000DF931F92CDB7DEB7698320912D02222380
:10033000D1F020914F02203240F021E030E0FC016A
:100340003383228380E090E015C080912E02E82F55
:10035000F0E0E15DFD4F998190838F5F80932E02E5
:1003600080934F0205C061E0CE0101960E940B010F
:1003700081E090E00F90DF91CF910895089580E0A3
:1003800090E00895CF93DF93EC0160E08E810E94AE
:10039000CD0661E08E810E94CD0660E08E810E94D4
:1003A000CD068BE891E00197F1F7DF91CF910895A9
:1003B0000E948B0E83B7817F846083BF83B7816087
:1003C00083BF42E050E06DEF70E080E00E94B1003A
:1003D00083B7816083BF889583B78E7F83BF83B7E0
:1003E0008E7F83BFE89881ED90E090930101809328
:1003F00000010895CF93DF9390E0FC01E057FF4F99
:100400002491FC01E458FF4F8491882361F190E02E
:10041000880F991FFC01E859FF4FC591D491FC0149
:10042000EE58FF4FA591B491611109C09FB7F894A0
:100430008881209582238883EC912E230BC0623023
:1004400061F49FB7F8943881822F80958323888345
:10045000EC912E2B2C939FBF06C08FB7F894E881A8
:100460002E2B28838FBFDF91CF9108958F929F927B
:10047000AF92BF92CF92DF92EF92FF926B017C011D
:100480000E948C004B015C01C114D104E104F10411
:10049000F1F00E948C00DC01CB0188199909AA09AE
:1004A000BB09883E9340A105B10570F321E0C21A53
:1004B000D108E108F10888EE880E83E0981EA11C9F
:1004C000B11CC114D104E104F10419F7DDCFFF9090
:1004D000EF90DF90CF90BF90AF909F908F90089556
:1004E00081E090E09093D6018093D50161E08DE0AA
:1004F0000E94FA0161E08DE00E94CD0668EC70E098
:1005000080E090E00E9436020C9424061F920F9225
:100510000FB60F9211242F933F938F939F93AF9316
:10052000BF938091DF019091E001A091E101B09132
:10053000E2013091DA0123E0230F2D3720F40196F8
:10054000A11DB11D05C026E8230F0296A11DB11DF6
:100550002093DA018093DF019093E001A093E10101
:10056000B093E2018091DB019091DC01A091DD016B
:10057000B091DE010196A11DB11D8093DB01909326
:10058000DC01A093DD01B093DE01BF91AF919F919B
:100590008F913F912F910F900FBE0F901F90189544
:1005A0001F920F920FB60F9211242F933F934F93E8
:1005B0005F936F937F938F939F93AF93BF93EF93CB
:1005C000FF93E0910201F09103010995FF91EF91F2
:1005D000BF91AF919F918F917F916F915F914F915B
:1005E0003F912F910F900FBE0F901F9018951F9263
:1005F0000F920FB60F9211242F933F934F935F9357
:100600006F937F938F939F93AF93BF93EF93FF93DA
:10061000E0910001F09101010995FF91EF91BF91E7
:10062000AF919F918F917F916F915F914F913F918A
:100630002F910F900FBE0F901F9018951F920F9241
:100640000FB60F9211242F933F934F935F936F93A5
:100650007F938F939F93AF93BF93EF93FF9380917B
:10066000B900887F803609F49CC068F5883209F4A7
:100670005BC090F4803109F454C038F4882309F445
:10068000F6C0883009F44DC0F6C0883109F44CC07A
:10069000803209F45DC0EFC0803409F468C048F4CA
:1006A000803309F455C0883309F0E5C080932A02ED
:1006B000D8C0803509F44FC0883509F45DC088344E
:1006C00009F0D9C0D6C0883909F4C7C0A8F4883762
:1006D00009F467C038F4883609F463C0803709F438
:1006E00060C0C9C0883809F4B8C0803909F45FC057
:1006F000803809F0C0C05BC0803B09F486C038F484
:10070000803A09F466C0883A09F47FC0B4C0803CDE
:1007100009F4A7C0883C09F4A4C0883B09F48AC046
:10072000AAC08091070210C09091290280912802EE
:10073000981770F5E091290281E08E0F80932902CD
:10074000F0E0E85FFD4F80818093BB0085EC86C0C0
:1007500080932A028EC0E091290281E08E0F80935F
:1007600029028091BB00F0E0E85FFD4F808390910B
:100770002902809128026EC0E091290281E08E0F4B
:10078000809329028091BB00F0E0E85FFD4F8083F9
:1007900080912B0281116DC081E08093060284EA72
:1007A00061C083E080932C021092C801CFCF80916A
:1007B000C801803208F051C0E091C80181E08E0F7D
:1007C0008093C8018091BB00F0E0E855FE4F808324
:1007D000BDCF85EC8093BC0010922C028091C801A3
:1007E000803230F4E091C801F0E0E855FE4F10820D
:1007F0006091C80170E0E091A601F091A70188EA3C
:1008000091E009951092C80136C084E080932C02D3
:100810001092A5011092A401E091A201F091A30110
:1008200009958091A401811105C081E08093A40104
:1008300010928201E091A50181E08E0F8093A501C5
:10084000F0E0EE57FE4F80818093BB009091A501B0
:100850008091A401981708F479CF85E88093BC00B3
:100860000AC085EC8093BC0010922C0204C0109248
:100870002A020E940101FF91EF91BF91AF919F91D8
:100880008F917F916F915F914F913F912F910F9039
:100890000FBE0F901F901895CF92DF92EF92FF92AC
:1008A0000F931F93CF93DF937C016C0187E0C80EF9
:1008B000D11CC0E0D0E0062F10E0B8010C2E02C021
:1008C000759567950A94E2F76170F60181916F0161
:1008D0000E94CD062196C430D10579F7C701DF917A
:1008E000CF911F910F91FF90EF90DF90CF900C94DC
:1008F000C201CF92DF92EF92FF920F931F93CF939B
:10090000DF93EC01F62E642F8C810E94CD068D8141
:100910008F3F19F060E00E94CD068F850F2D10E00B
:1009200084FF25C06E0187E0C80ED11CE12CF12C9C
:10093000B8010E2C02C0759567950A94E2F76170B4
:10094000F60181916F010E94CD06FFEFEF1AFF0AB9
:1009500088E0E816F10461F7CE01DF91CF911F9195
:100960000F91FF90EF90DF90CF900C94C201B801EF
:1009700084E0759567958A95E1F7CE010E944C0455
:100980006F2DCE01DF91CF911F910F91FF90EF90CE
:10099000DF90CF900C944C0441E00E94790481E0F8
:1009A00090E0089540E00C94790461E00E94D20444
:1009B0008BE39FE10197F1F70895382F20914F02C3
:1009C00090918A02213208F049C080912C02811155
:1009D000FCCF42E040932C0230932B023FEF309348
:1009E0002A021092290220932802AFE2B2E048E0E6
:1009F00052E0FA013E2F341B321718F43D91319327
:100A0000F9CF1092070220910702990F922B909331
:100A1000070290910602913061F4109206029091C3
:100A200007029093BB009091BC0093FDF8CF95EC2A
:100A300001C095EE9093BC0090912C029230E1F3AE
:100A400090912A029F3F79F080912A02803241F0F2
:100A500080912A02803331F084E005C081E003C038
:100A600082E001C083E010922E0210924F02109299
:100A70002D02089590912C029111FCCF91E090935A
:100A80002C0290932B022FEF20932A02109229021E
:100A9000260F209328029093070290910702880F57
:100AA000892B8093070280910602813061F41092B5
:100AB0000602809107028093BB008091BC0083FDF9
:100AC000F8CF85EC01C085EE8093BC0080912C02AC
:100AD0008130E1F380912902861710F46091290298
:100AE000A8E0B2E025EE31E0F9018E2F821B8617D7
:100AF00018F48D918193F9CF862F08958F929F924C
:100B0000AF92BF92CF92DF92EF92FF92CF93DF939B
:100B1000A0916C02882311F03A2F01C030E080913F
:100B20006D0290E0880F991F88549F4FC0906E020D
:100B3000D0906F02E0907002F090710240E050E0BF
:100B4000BA01FC01C591D49128812A2323130FC037
:100B50004A015B012FEF821A920AA20AB20A4C15CF
:100B60005D056E057F0538F4B501A401EACF342F89
:100B7000252FCB0104C030E020E080E090E0632F1F
:100B8000722FDF91CF91FF90EF90DF90CF90BF90C9
:100B9000AF909F908F900895009769F0FC010190AD
:100BA0000020E9F73197AF01481B590BBC0182E7E0
:100BB00092E00C94D20080E090E00895CF93C62F8D
:100BC00091E090932D0298E690938A0210922E0263
:100BD00010924F02682F80E592E00E948F016C2FE7
:100BE00080E592E00E948F0181E0CF910C94DD04BA
:100BF0000F931F93CF938B0191E090932D0298E672
:100C000090938A0210922E0210924F02682F80E574
:100C100092E00E948F0181E00E94DD04C82F8111C3
:100C20000EC061E088E60E943A051092E4018093CC
:100C3000E30180E592E00E944301F80180838C2F5C
:100C4000CF911F910F910895CF93DF931F92CDB74E
:100C5000DEB7BE016F5F7F4F8FE00E94F8056981AC
:100C600060FF06C06E7F8FE00E94DE0581E001C05C
:100C700080E00F90DF91CF9108950C94CC058430E3
:100C800008F083E090918502891710F08FEF890FAB
:100C9000E82FF0E0EE58FD4F6489606882E792E04B
:100CA0000C94D2048F929F92AF92BF92CF92DF9218
:100CB000EF92FF920F931F93CF93DF93CDB7DEB7E1
:100CC000A1970FB6F894DEBF0FBECDBF6C01990F90
:100CD000EE08FF08F7FE31C0E0917202F091730256
:100CE0000190F081E02D6DE282E792E009958C01A0
:100CF00022273327A9012C193D094E095F0919A2A2
:100D0000CE0181967C019AE0892E912CA12CB12CE8
:100D1000CA01B901A50194010E94630E605DF7014B
:100D200062937F01211531054105510589F7CF01F6
:100D30000E94CC05800F911F1DC0A701960119A22A
:100D40008E010F5D1F4F8AE0C82ED12CE12CF12CB3
:100D5000CA01B901A70196010E94630E605DF80106
:100D600062938F01211531054105510589F7CF01A6
:100D70000E94CC05A1960FB6F894DEBF0FBECDBF82
:100D8000DF91CF911F910F91FF90EF90DF90CF9067
:100D9000BF90AF909F908F90089590E0FC01EC552C
:100DA000FF4F3491FC01E057FF4F2491FC01E458C0
:100DB000FF4FE491EE2309F43BC0332339F1333084
:100DC00091F038F43130A9F0323001F584B58F7DDF
:100DD00012C0373091F03830A1F03430B9F480913E
:100DE00080008F7D03C0809180008F77809380008A
:100DF0000DC084B58F7784BD09C08091B0008F7716
:100E000003C08091B0008F7D8093B000F0E0EE0FC2
:100E1000FF1FEE58FF4FA591B4918FB7F894EC9156
:100E2000611103C020952E2301C02E2B2C938FBF60
:100E30000895EF92FF920F931F93CF93DF93EC01EE
:100E4000623018F08F8588608F876B8B1C8A80E4F6
:100E50008D8B80E18E8B80E58F8B61E08C810E9491
:100E6000FA018D818F3F19F061E00E94FA0161E083
:100E70008E810E94FA017E0187E0E80EF11C00E0FD
:100E800010E08F8584FD03C084E090E002C088E01C
:100E900090E0081719074CF461E0F70181917F0198
:100EA0000E94FA010F5F1F4FECCF8BE39DE001978B
:100EB000F1F760E08C810E94CD0660E08E810E9497
:100EC000CD068D818F3F19F060E00E94CD066F85C1
:100ED00064FD1DC063E0CE010E944C040BE416E4E7
:100EE000C8010197F1F763E0CE010E944C04C801EC
:100EF0000197F1F763E0CE010E944C0483E592E094
:100F00000197F1F762E0CE010E944C0416C06062C6
:100F1000CE010E94D2048BE496E40197F1F76F852D
:100F20006062CE010E94D20483E592E00197F1F75E
:100F30006F856062CE010E94D2046F856062CE012F
:100F40000E94D20484E0888B6CE0CE010E94D2041F
:100F5000CE010E94D50482E0898B66E0CE01DF914C
:100F6000CF911F910F91FF90EF900C94D204CF92EC
:100F7000DF92EF92FF920F931F93CF93DF93CDB742
:100F8000DEB7C054D1400FB6F894DEBF0FBECDBF60
:100F90002FB7F8948091DF019091E001A091E101D9
:100FA000B091E2012FBF40916502509166026091BD
:100FB0006702709168028C019D01041B150B260BC2
:100FC000370BB901A801403D57406105710528F470
:100FD0008091690290916A0222C180936502909388
:100FE0006602A0936702B093680280915C02882336
:100FF00009F4AEC0109261021092600210925F027A
:1010000010925E0210925D0261E080916B020E947C
:10101000CD066AEF70E080E090E00E94360261E069
:1010200080916B020E94FA0160E080916B020E9445
:10103000CD0664E170E080E090E00E943602F89412
:1010400061E080916B020E94CD068BE990E00197F0
:10105000F1F762E080916B020E94FA0183E290E076
:101060000197F1F780E00E947E05672B682B692BC2
:1010700019F483E090E0BBC081E00E947E05672BFD
:10108000682B692B19F484E090E0B1C08E010F5FEA
:101090001F4F6E012FEBC21A2EEFD20A780180E0AB
:1010A0000E947E05F701608371838283938381E0D0
:1010B0000E947E05F7016483758386839783F8E039
:1010C000EF0EF11CEC14FD0451F720E030E0F801C4
:1010D0004081518162817381C480D580E680F78030
:1010E000411551056105710529F0C114D104E104D0
:1010F000F10419F482E090E07AC0F90193E0F595EB
:10110000E7959A95E1F7E45AFD4F8181880F4C15D8
:101110005D056E057F0508F4816081832F5F3F4F79
:10112000085F1F4F2832310591F690915E02809141
:101130005D02890F90915F02890F90916002890F83
:1011400090916102981709F458C081E090E04FC077
:101150008091620291E090932D0280938A02109216
:101160002E0210924F0260E080E592E00E948F0113
:1011700081E00E94DD04882319F085E090E044C0FE
:1011800065E0809162020E943A05F82E1092E40117
:101190008093E3010DE512E085E0E82EE00E80E5A6
:1011A00092E00E944301F80181938F01EE12F7CF84
:1011B00061E070E080E090E00E9436028091E401FE
:1011C000F81619F082E090E01FC090915E028091C5
:1011D0005D02890F90915F02890F90916002890FE3
:1011E000909161029817A9F081E090E00DC0909372
:1011F0006A0280936902789412C010926A02109277
:10120000690280E090E0F7CF90936A0280936902D0
:1012100006C010926A021092690280E090E0C05C01
:10122000DE4F0FB6F894DEBF0FBECDBFDF91CF917A
:101230001F910F91FF90EF90DF90CF900895109243
:10124000E4011092E30110922E0210924F021092CC
:101250002C0281E080932B021092060261E082E171
:101260000E94CD0661E083E10E94CD06E9EBF0E04B
:1012700080818E7F808380818D7F808388E48093CE
:10128000B80085E48093BC000895CF93DF931F924C
:10129000CDB7DEB7789484B5826084BD84B58160B3
:1012A00084BD85B5826085BD85B5816085BD809131
:1012B0006E00816080936E001092810080918100A9
:1012C00082608093810080918100816080938100A1
:1012D000809180008160809380008091B100846063
:1012E0008093B1008091B00081608093B0008091C4
:1012F0007A00846080937A0080917A008260809383
:101300007A0080917A00816080937A0080917A00DF
:10131000806880937A001092C10062E081E00E94B0
:10132000FA0162E080E00E94FA0161E08CE00E9434
:10133000FA0162E082E792E00E94190782E792E0F8
:101340000E94D5048FE298EFAFEFBFEF8093650264
:1013500090936602A0936702B093680280915C024A
:10136000882331F062E080916B020E94FA0102C092
:101370000E941F09BE016F5F7F4F8EE00E94F8053B
:1013800069816E7F8EE00E94DE05BE016F5F7F4F38
:101390008EE00E94F805698164608EE00E94DE059F
:1013A00065E087E00E94DE0560E888E00E94DE05D7
:1013B00060E889E00E94DE0561E88AE00E94DE05BF
:1013C0000E94240690E4B92E00E010E060E08CE07A
:1013D0000E94CD0662E080E00E94FA0142E050E007
:1013E0006DEF70E080E00E94B10061E083E10E9457
:1013F000FA0161E082E10E94FA0160E083E10E946B
:10140000CD0660E082E10E94CD068091D90188235B
:1014100049F08091D7019091D80101969093D8011D
:101420008093D701E090D701F090D801E114F10446
:1014300009F4D2C061E08CE00E94CD0668EE73E052
:1014400080E090E00E94360281E0E816F10421F18C
:1014500082E0E816F10409F0A0C082E792E00E9461
:10146000D50480E00E943F0687E391E00E943D069C
:1014700081E00E943F068091D1019091D2010E94AB
:10148000520660ED77E080E090E00E943602109214
:10149000D8011092D70192C082E792E00E94D50451
:1014A00080E00E943F0682E291E00E943D0660914A
:1014B000CD017091CE018091CF019091D0010E9419
:1014C000090DCB010E94520689E291E00E943D067F
:1014D000C090CD01D090CE01E090CF01F090D0012E
:1014E000C701B6010E94090D072E000C880B990B4D
:1014F0000E94410D9B01AC01C701B6010E942A0C5C
:1015000020E030E040E251E40E94CD0D0E94090D40
:10151000CB010E94520681E00E943F068BE291E0DF
:101520000E943D066091C9017091CA018091CB0172
:101530009091CC010E94090DCB010E94520689E2D4
:1015400091E00E943D06C090C901D090CA01E09090
:10155000CB01F090CC01C701B6010E94090D072E06
:10156000000C880B990B0E94410D9B01AC01C70137
:10157000B6010E942A0C20E030E040E251E40E94D3
:10158000CD0D0E94090DCB010E94520664EF71E05F
:1015900080E090E00E9436020BC082E792E00E9459
:1015A000D50480E00E943F068AE491E00E943D0657
:1015B00060ED77E080E090E00E94360282E792E002
:1015C0000E94D50483E591E00E943D068091D701F9
:1015D0009091D8010E94520682E792E00E94D504C1
:1015E00060E08CE00E94CD060E94DA010E94240691
:1015F000882309F4D2C00E941F096AE570E080E0E8
:1016000090E00E94360280915C028823A9F00E943B
:10161000B707892B39F0C12CD12C80ECE82E8FE74D
:10162000F82E35C060915F0270E080E090E00E948B
:101630003F0D6B017C012BC00E94B707892B59F726
:101640007090600260915F0270E080E090E00E9424
:10165000410D6B017C01872D8F77682F70E080E052
:1016600090E00E943F0D20E030E040E251E40E9413
:10167000970C9B01AC01C701B6010E942B0C6B01BA
:101680007C0177FE04C0F7FAF094F7F8F094C0926A
:10169000CD01D092CE01E092CF01F092D0018091A5
:1016A0005C02882389F00E94B707892B29F060E04B
:1016B00070E080EC9FE729C060915D0270E080E0FF
:1016C00090E00E943F0D21C00E94B707892B79F757
:1016D00060915D0270E080E090E00E94410D2B017E
:1016E0003C0180915E02682F70E080E090E00E94F3
:1016F0003F0D20E030E040E251E40E94970C9B0156
:10170000AC01C301B2010E942B0C6093C90170931C
:10171000CA018093CB019093CC019B01AC010E9444
:101720003A0E811143C0A7019601C701B6010E947C
:101730003A0E81113BC0B0927C0080917A008064A7
:1017400080937A0080917A0086FDFCCF80917800AA
:101750002091790090E0922B9093D2018093D10157
:101760001092D6011092D50164EF71E080E090E014
:101770000E94360260E08DE00E94CD068091D30188
:101780009091D40101969093D4018093D30164EF9A
:1017900071E080E090E00E9436020E94DA010115BB
:1017A000110509F413CE0E94000010CE82E792E0EA
:1017B0000E94D5048FE591E00E943D06BCCFE0E594
:1017C000F2E01382128288EE93E0A0E0B0E084831E
:1017D0009583A683B78388E091E0918380830E94FC
:1017E0001F09E2E7F2E0138212828AE191E091831D
:1017F000808389E084838FEF85838AE0868387E016
:10180000878384E0808785E0818786E082871386EE
:10181000148615861686178661E0CF010E94190787
:10182000ECE5F2E010828CE5868382E1878383E138
:101830008087118612861386148689E090E0968749
:10184000858783E08787108A118A128A138A148A0F
:10185000158A08955058BB27AA270E94420C0C9461
:10186000930D0E94850D38F00E948C0D20F039F404
:101870009F3F19F426F40C94820D0EF4E095E7FBDB
:101880000C947C0DE92F0E94A40D58F3BA1762073F
:1018900073078407950720F079F4A6F50C94C60D1C
:1018A0000EF4E0950B2EBA2FA02D0B01B90190017B
:1018B0000C01CA01A0011124FF27591B99F0593FBF
:1018C00050F4503E68F11A16F040A22F232F342F07
:1018D0004427585FF3CF469537952795A795F04055
:1018E0005395C9F77EF41F16BA0B620B730B840B6A
:1018F000BAF09150A1F0FF0FBB1F661F771F881F22
:10190000C2F70EC0BA0F621F731F841F48F4879579
:1019100077956795B795F7959E3F08F0B0CF93956B
:10192000880F08F09927EE0F9795879508950E94E4
:10193000AB0C0C94930D0E948C0D58F00E94850DF9
:1019400040F029F45F3F29F00C947C0D51110C9468
:10195000C70D0C94820D0E94A40D68F39923B1F376
:10196000552391F3951B550BBB27AA2762177307C5
:10197000840738F09F5F5F4F220F331F441FAA1F59
:10198000A9F335D00E2E3AF0E0E832D09150504015
:10199000E695001CCAF72BD0FE2F29D0660F771FC3
:1019A000881FBB1F261737074807AB07B0E809F0A9
:1019B000BB0B802DBF01FF2793585F4F3AF09E3F2E
:1019C000510578F00C947C0D0C94C70D5F3FE4F347
:1019D000983ED4F3869577956795B795F7959F5F71
:1019E000C9F7880F911D9695879597F90895E1E0BD
:1019F000660F771F881FBB1F621773078407BA071C
:101A000020F0621B730B840BBA0BEE1F88F7E09576
:101A100008950E94100D6894B1110C94C70D08959B
:101A20000E94AC0D88F09F5798F0B92F9927B751B5
:101A3000B0F0E1F0660F771F881F991F1AF0BA9572
:101A4000C9F714C0B13091F00E94C60DB1E00895FD
:101A50000C94C60D672F782F8827B85F39F0B93FEF
:101A6000CCF3869577956795B395D9F73EF4909525
:101A70008095709561957F4F8F4F9F4F0895E894A3
:101A800009C097FB3EF490958095709561957F4FC6
:101A90008F4F9F4F9923A9F0F92F96E9BB27939574
:101AA000F695879577956795B795F111F8CFFAF484
:101AB000BB0F11F460FF1BC06F5F7F4F8F4F9F4FB5
:101AC00016C0882311F096E911C0772321F09EE813
:101AD000872F762F05C0662371F096E8862F70E079
:101AE00060E02AF09A95660F771F881FDAF7880F53
:101AF0009695879597F9089597F99F6780E870E024
:101B000060E008959FEF80EC089500240A94161673
:101B1000170618060906089500240A9412161306DB
:101B2000140605060895092E0394000C11F4882369
:101B300052F0BB0F40F4BF2B11F460FF04C06F5F85
:101B40007F4F8F4F9F4F089557FD9058440F551F5B
:101B500059F05F3F71F04795880F97FB991F61F02F
:101B60009F3F79F087950895121613061406551FA6
:101B7000F2CF4695F1DF08C0161617061806991F12
:101B8000F1CF86957105610508940895E894BB2707
:101B900066277727CB0197F908950E94E00D0C94F2
:101BA000930D0E94850D38F00E948C0D20F0952336
:101BB00011F00C947C0D0C94820D11240C94C70D23
:101BC0000E94A40D70F3959FC1F3950F50E0551F2F
:101BD000629FF001729FBB27F00DB11D639FAA2782
:101BE000F00DB11DAA1F649F6627B00DA11D661FD1
:101BF000829F2227B00DA11D621F739FB00DA11DF2
:101C0000621F839FA00D611D221F749F3327A00DAB
:101C1000611D231F849F600D211D822F762F6A2F47
:101C200011249F5750409AF0F1F088234AF0EE0FAC
:101C3000FF1FBB1F661F771F881F91505040A9F7D9
:101C40009E3F510580F00C947C0D0C94C70D5F3FB6
:101C5000E4F3983ED4F3869577956795B795F79515
:101C6000E7959F5FC1F7FE2B880F911D969587958D
:101C700097F908950E943F0E880B990B0895990FCC
:101C80000008550FAA0BE0E8FEEF16161706E80746
:101C9000F907C0F012161306E407F50798F0621B67
:101CA000730B840B950B39F40A2661F0232B242B3C
:101CB000252B21F408950A2609F4A140A6958FEF5B
:101CC000811D811D0895A1E21A2EAA1BBB1BFD01D7
:101CD0000DC0AA1FBB1FEE1FFF1FA217B307E4070B
:101CE000F50720F0A21BB30BE40BF50B661F771F63
:101CF000881F991F1A9469F7609570958095909543
:101D00009B01AC01BD01CF010895EE0FFF1F0590AF
:101D1000F491E02D099481E090E0F8940C94900EF9
:041D2000F894FFCF65
:101D2400D100D100000000008F015F01BF01330129
:101D340057014301340100000000CC04D200BF016C
:101D4400BE0174656D703A20002E0068756D69647B
:101D5400697465203A200068756D6964697465204A
:101D6400647520736F6C203A200070726F626C652A
:101D74006D65006E6272206170707569203A00466C
:101D840061696C656420746F207265616420667299
:101D94006F6D2044485431322073656E736F722125
:021DA40000003D
:00000001FF
