:100000000C9462000C94C0020C9499020C948A0027
:100010000C948A000C948A000C948A000C948A0038
:100020000C948A000C948A000C948A000C948A0028
:100030000C948A000C948A000C948A000C948A0018
:100040000C944F020C948A000C948A000C948A0041
:100050000C948A000C948A000C948A000C948A00F8
:100060000C94E7020C948A00000000002400270092
:100070002A0000000000250028002B0004040404CE
:100080000404040402020202020203030303030342
:10009000010204081020408001020408102001021F
:1000A00004081020000000080002010000030407FB
:1000B00000000000000000000000000023002600F7
:1000C0002900600D11241FBECFEFD8E0DEBFCDBFE9
:1000D00011E0A0E0B1E0EAEBF0E202C005900D9281
:1000E000A43AB107D9F722E0A4EAB1E001C01D9219
:1000F000AA3BB207E1F710E0C2E6D0E004C02197C6
:10010000FE010E945010C136D107C9F70E94A5090F
:100110000C945B100C9400008230E8F4E82FF0E0BF
:10012000EE0FFF1FE050FF4F71836083813041F07D
:10013000809169008C7F482B40936900E89A08956C
:1001400080916900440F551F440F551F837F482B32
:1001500040936900E99A08950895CF92DF92EF9253
:10016000FF920F931F93CF93DF936C017A018B0162
:10017000C0E0D0E0CE15DF0589F0D8016D918D018A
:10018000D601ED91FC910190F081E02DC601099519
:10019000892B11F47E0102C02196ECCFC701DF91BB
:1001A000CF911F910F91FF90EF90DF90CF90089526
:1001B00081E080930802089585ED8093BC008091D2
:1001C000BC0084FDFCCF10925B0208954091C701F2
:1001D000262F30E0240F311D21323105DCF420912F
:1001E0005B022430C9F4FC0180E090E0861758F4EB
:1001F0003091C7012191DC01AB55BE4FA30FB11D5A
:100200002C930196F3CF8091C701680F6093C701CB
:1002100080E0089581E0089582E008950895E091D6
:10022000130280911202E81730F4F0E0EC5EFD4F0B
:10023000808190E008958FEF9FEF089590911302D1
:1002400080911202981750F4E92FF0E0EC5EFD4F18
:10025000208130E09F5F9093130202C02FEF3FEFA9
:10026000C90108958091120290E020911302821B2F
:1002700091090895CF92DF92EF92FF920F931F930F
:10028000CF93DF937C01262F972F8A0180915C0208
:10029000882391F0C62FD72F6E01C40ED51ECC1522
:1002A000DD0571F06991D701ED91FC910190F0812C
:1002B000E02DC7010995F3CF642F822F0E94E6003D
:1002C000C801DF91CF911F910F91FF90EF90DF90C8
:1002D000CF900895CF93DF931F92CDB7DEB7698398
:1002E00020915C022223D1F020917F02203240F045
:1002F00021E030E0FC013383228380E090E015C0F0
:1003000080915D02E82FF0E0E25AFD4F99819083E1
:100310008F5F80935D0280937F0205C061E0CE0114
:1003200001960E94E60081E090E00F90DF91CF916E
:100330000895089580E090E00895982F92959F7019
:100340002AEF929F800D11240895CF93DF93EC0143
:1003500060E08E810E94B70661E08E810E94B70640
:1003600060E08E810E94B7068BE891E00197F1F77B
:10037000DF91CF91089581E090E090930502809302
:10038000040261E08DE00E94290761E08DE00E9497
:10039000B70668EC70E080E090E00E9403080C94DF
:1003A000120683B7817F846083BF83B7816083BF78
:1003B00042E050E068ED70E080E00E948C0083B77E
:1003C000816083BF889583B78E7F83BF83B78E7F1D
:1003D00083BFE8988CEA90E090930101809300013C
:1003E00008950E9456101F93CF93DF93EC0181E094
:1003F00080935C0288E680937E0210925D021092E8
:100400007F0260E080E892E00E946A0181E00E9441
:100410002B05182F882319F08093A4013BC067E0B7
:1004200088E60E94A205109213028093120280E8CF
:1004300092E00E941E018F770E949D01888380E8D0
:1004400092E00E941E010E949D01898380E892E053
:100450000E941E018F7B0E949D018A8380E892E0AA
:100460000E941E018B8380E892E00E941E010E9480
:100470009D018C8380E892E00E941E018F770E948C
:100480009D018D8380E892E00E941E010E949D01E3
:10049000825E8E83812FDF91CF911F9108951F92ED
:1004A0000F920FB60F9211242F933F938F939F9328
:1004B000AF93BF9380910E0290910F02A091100212
:1004C000B09111023091090223E0230F2D3720F45F
:1004D0000196A11DB11D05C026E8230F0296A11D9E
:1004E000B11D2093090280930E0290930F02A093F6
:1004F0001002B093110280910A0290910B02A09118
:100500000C02B0910D020196A11DB11D80930A024B
:1005100090930B02A0930C02B0930D02BF91AF9188
:100520009F918F913F912F910F900FBE0F901F9031
:1005300018951F920F920FB60F9211242F933F938D
:100540004F935F936F937F938F939F93AF93BF93DB
:10055000EF93FF93E0910201F09103010995FF9160
:10056000EF91BF91AF919F918F917F916F915F912B
:100570004F913F912F910F900FBE0F901F901895A4
:100580001F920F920FB60F9211242F933F934F9308
:100590005F936F937F938F939F93AF93BF93EF93EB
:1005A000FF93E0910001F09101010995FF91EF9116
:1005B000BF91AF919F918F917F916F915F914F917B
:1005C0003F912F910F900FBE0F901F9018951F9283
:1005D0000F920FB60F9211242F933F934F935F9377
:1005E0006F937F938F939F93AF93BF93EF93FF93FB
:1005F0008091B900887F803609F49CC068F5883204
:1006000009F45BC090F4803109F454C038F48823B5
:1006100009F4F6C0883009F44DC0F6C0883109F4F9
:100620004CC0803209F45DC0EFC0803409F468C06A
:1006300048F4803309F455C0883309F0E5C080934D
:100640005902D8C0803509F44FC0883509F45DC01F
:10065000883409F0D9C0D6C0883909F4C7C0A8F4D5
:10066000883709F467C038F4883609F463C08037E6
:1006700009F460C0C9C0883809F4B8C0803909F4E9
:100680005FC0803809F0C0C05BC0803B09F486C001
:1006900038F4803A09F466C0883A09F47FC0B4C0DF
:1006A000803C09F4A7C0883C09F4A4C0883B09F445
:1006B0008AC0AAC08091360210C0909158028091E1
:1006C0005702981770F5E091580281E08E0F8093E1
:1006D0005802F0E0E95CFD4F80818093BB0085EC1F
:1006E00086C0809359028EC0E091580281E08E0F3F
:1006F000809358028091BB00F0E0E95CFD4F80835D
:1007000090915802809157026EC0E091580281E0AA
:100710008E0F809358028091BB00F0E0E95CFD4FA2
:10072000808380915A0281116DC081E080933502EF
:1007300084EA61C083E080935B021092EB01CFCF2B
:100740008091EB01803208F051C0E091EB0181E033
:100750008E0F8093EB018091BB00F0E0E553FE4FDC
:100760008083BDCF85EC8093BC0010925B028091AA
:10077000EB01803230F4E091EB01F0E0E553FE4F05
:1007800010826091EB0170E0E091C901F091CA0123
:100790008BEC91E009951092EB0136C084E08093D8
:1007A0005B021092C8011092C701E091C501F0915F
:1007B000C60109958091C701811105C081E0809330
:1007C000C7011092A501E091C80181E08E0F8093CE
:1007D000C801F0E0EB55FE4F80818093BB00909103
:1007E000C8018091C701981708F479CF85E88093F4
:1007F000BC000AC085EC8093BC0010925B0204C070
:10080000109259020E94DC00FF91EF91BF91AF91CD
:100810009F918F917F916F915F914F913F912F9118
:100820000F900FBE0F901F901895CF92DF92EF920E
:10083000FF920F931F93CF93DF937C016C0187E0AE
:10084000C80ED11CC0E0D0E0062F10E0B8010C2E7D
:1008500002C0759567950A94E2F76170F60181917F
:100860006F010E94B7062196C430D10579F7C70100
:10087000DF91CF911F910F91FF90EF90DF90CF907C
:100880000C94A501CF92DF92EF92FF920F931F93EA
:10089000CF93DF93EC01F62E642F8C810E94B70674
:1008A0008D818F3F19F060E00E94B7068F850F2D74
:1008B00010E084FF25C06E0187E0C80ED11CE12C3A
:1008C000F12CB8010E2C02C0759567950A94E2F7D9
:1008D0006170F60181916F010E94B706FFEFEF1A78
:1008E000FF0A88E0E816F10461F7CE01DF91CF91AD
:1008F0001F910F91FF90EF90DF90CF900C94A50186
:10090000B80184E0759567958A95E1F7CE010E945C
:1009100015046F2DCE01DF91CF911F910F91FF90A4
:10092000EF90DF90CF900C94150441E00E944204B8
:1009300081E090E0089540E00C94420461E00E9460
:100940009B048BE39FE10197F1F708958F929F92AB
:10095000AF92BF92CF92DF92EF92FF92CF93DF934D
:10096000A0919C02882311F03A2F01C030E08091C1
:100970009D0290E0880F991F88549F4FC0909E025F
:10098000D0909F02E090A002F090A10240E050E0E1
:10099000BA01FC01C591D49128812A2323130FC0E9
:1009A0004A015B012FEF821A920AA20AB20A4C1581
:1009B0005D056E057F0538F4B501A401EACF342F3B
:1009C000252FCB0104C030E020E080E090E0632FD1
:1009D000722FDF91CF91FF90EF90DF90CF90BF907B
:1009E000AF909F908F9008953FB7F89480910A023E
:1009F00090910B02A0910C02B0910D0226B5A89B1C
:100A000005C02F3F19F00196A11DB11D3FBFBA2FA0
:100A1000A92F982F8827820F911DA11DB11DBC0100
:100A2000CD0142E0660F771F881F991F4A95D1F7C5
:100A30000895009769F0FC0101900020E9F73197D3
:100A4000AF01481B590BBC0182EA92E00C94AD0047
:100A500080E090E00895382F20917F0290917E02EF
:100A6000213208F049C080915B028111FCCF42E045
:100A700040935B0230935A023FEF30935902109239
:100A8000580220935702AEE5B2E047E352E0FA0184
:100A90003E2F341B321718F43D913193F9CF109249
:100AA000360220913602990F922B90933602909144
:100AB0003502913061F41092350290913602909394
:100AC000BB009091BC0093FDF8CF95EC01C095EE72
:100AD0009093BC0090915B029230E1F390915902A7
:100AE0009F3F79F080915902803241F08091590204
:100AF000803331F084E005C081E003C082E001C0B2
:100B000083E010925D0210927F0210925C020895C1
:100B1000CF93C62F91E090935C0298E690937E026B
:100B200010925D0210927F02682F80E892E00E948E
:100B30006A016C2F80E892E00E946A0181E0CF9107
:100B40000C942B0590915B029111FCCF91E0909356
:100B50005B0290935A022FEF209359021092580291
:100B6000260F209357029093360290913602880FF9
:100B7000892B8093360280913502813061F4109286
:100B80003502809136028093BB008091BC0083FDCA
:100B9000F8CF85EC01C085EE8093BC0080915B02AC
:100BA0008130E1F380915802861710F46091580269
:100BB000A7E3B2E024E132E0F9018E2F821B861711
:100BC00018F48D918193F9CF862F08950F931F9379
:100BD000CF938B0191E090935C0298E690937E0214
:100BE00010925D0210927F02682F80E892E00E94CE
:100BF0006A0181E00E942B05C82F81110EC061E0BF
:100C000088E60E94A205109213028093120280E8E7
:100C100092E00E941E01F80180838C2FCF911F91DA
:100C20000F910895CF93DF931F92CDB7DEB7BE012A
:100C30006F5F7F4F8FE00E94E605698160FF06C00D
:100C40006E7F8FE00E94880581E001C080E00F90F8
:100C5000DF91CF9108950C941905843008F083E05A
:100C60009091B502891710F08FEF890FE82FF0E00F
:100C7000EE55FD4F6489606882EA92E00C949B0413
:100C80008F929F92AF92BF920F931F93CF93DF9358
:100C9000CDB7DEB7A1970FB6F894DEBF0FBECDBFBC
:100CA00019A2423008F44AE08E010F5D1F4F842ED6
:100CB000912CA12CB12CA50194010E94F80FE62FD4
:100CC000B901CA0101501109EA3014F4E05D01C014
:100CD000E95CD801EC93232B242B252B61F7C80169
:100CE0000E941905A1960FB6F894DEBF0FBECDBFC6
:100CF000DF91CF911F910F91BF90AF909F908F90F8
:100D00000895CF92DF92EF92FF92CF93DF936C0121
:100D1000990FEE08FF08F7FE1FC0E091A202F091C4
:100D2000A3020190F081E02D6DE282EA92E0099544
:100D3000EC0166277727CB016C197D098E099F0985
:100D40004AE00E9440068C0F9D1FDF91CF91FF90DB
:100D5000EF90DF90CF9008954AE0C701B601DF9190
:100D6000CF91FF90EF90DF90CF900C94400690E0F1
:100D7000FC01EC55FF4F3491FC01E057FF4F2491EB
:100D8000FC01E458FF4FE491EE2309F43BC0332308
:100D900039F1333091F038F43130A9F0323001F5C7
:100DA00084B58F7D12C0373091F03830A1F03430E7
:100DB000B9F4809180008F7D03C0809180008F778F
:100DC000809380000DC084B58F7784BD09C0809169
:100DD000B0008F7703C08091B0008F7D8093B0000A
:100DE000F0E0EE0FFF1FEE58FF4FA591B4918FB7C3
:100DF000F894EC91611103C020952E2301C02E2B95
:100E00002C938FBF08951092130210921202109229
:100E10005D0210927F0210925B0281E080935A0281
:100E20001092350261E082E10E94B70661E083E141
:100E30000E94B706E9EBF0E080818E7F808380819D
:100E40008D7F808388E48093B80085E48093BC0024
:100E50000895CF93DF9390E0FC01E057FF4F24917A
:100E6000FC01E458FF4F8491882361F190E0880FE2
:100E7000991FFC01E859FF4FC591D491FC01EE5830
:100E8000FF4FA591B491611109C09FB7F894888173
:100E9000209582238883EC912E230BC0623061F46D
:100EA0009FB7F8943881822F809583238883EC91B3
:100EB0002E2B2C939FBF06C08FB7F894E8812E2B62
:100EC00028838FBFDF91CF910895EF92FF920F9308
:100ED0001F93CF93DF93EC01623018F08F85886009
:100EE0008F876B8B1C8A80E48D8B80E18E8B80E5F5
:100EF0008F8B61E08C810E9429078D818F3F19F0D3
:100F000061E00E94290761E08E810E9429077E012D
:100F100087E0E80EF11C00E010E08F8584FD03C03F
:100F200084E090E002C088E090E0081719074CF4D4
:100F300061E0F70181917F010E9429070F5F1F4F38
:100F4000ECCF8BE39DE00197F1F760E08C810E948C
:100F5000B70660E08E810E94B7068D818F3F19F041
:100F600060E00E94B7066F8564FD1DC063E0CE019E
:100F70000E9415040BE416E4C8010197F1F763E041
:100F8000CE010E941504C8010197F1F763E0CE017C
:100F90000E94150483E592E00197F1F762E0CE012B
:100FA0000E94150416C06062CE010E949B048BE46F
:100FB00096E40197F1F76F856062CE010E949B0471
:100FC00083E592E00197F1F76F856062CE010E94A0
:100FD0009B046F856062CE010E949B0484E0888B35
:100FE0006CE0CE010E949B04CE010E949E0482E030
:100FF000898B66E0CE01DF91CF911F910F91FF9019
:10100000EF900C949B048F929F92AF92BF92CF92DD
:10101000DF92EF92FF926B017C010E94F4044B017E
:101020005C01C114D104E104F104F1F00E94F40464
:10103000DC01CB0188199909AA09BB09883E9340B4
:10104000A105B10570F321E0C21AD108E108F10849
:1010500088EE880E83E0981EA11CB11CC114D10437
:10106000E104F10419F7DDCFFF90EF90DF90CF900E
:10107000BF90AF909F908F900895CF92DF92EF92A4
:10108000FF920F931F93CF93DF93CDB7DEB7C0547A
:10109000D1400FB6F894DEBF0FBECDBF2FB7F89486
:1010A00080910E0290910F02A0911002B091110256
:1010B0002FBF4091950250919602609197027091D6
:1010C00098028C019D01041B150B260B370BB901EF
:1010D000A801403D57406105710528F480919902AF
:1010E00090919A0222C18093950290939602A093C8
:1010F0009702B093980280918C02882309F4AEC0C5
:10110000109291021092900210928F0210928E0211
:1011100010928D0261E080919B020E94B7066AEFF7
:1011200070E080E090E00E94030861E080919B0203
:101130000E94290760E080919B020E94B70664E14B
:1011400070E080E090E00E940308F89461E08091F4
:101150009B020E94B7068BE990E00197F1F762E0ED
:1011600080919B020E94290783E290E00197F1F7AA
:1011700080E00E94A604672B682B692B19F483E09A
:1011800090E0BBC081E00E94A604672B682B692B0E
:1011900019F484E090E0B1C08E010F5F1F4F6E0123
:1011A0002FEBC21A2EEFD20A780180E00E94A6042B
:1011B000F701608371838283938381E00E94A60498
:1011C000F7016483758386839783F8E0EF0EF11C43
:1011D000EC14FD0451F720E030E0F801408151812A
:1011E00062817381C480D580E680F7804115510506
:1011F0006105710529F0C114D104E104F10419F469
:1012000082E090E07AC0F90193E0F595E7959A9530
:10121000E1F7E457FD4F8181880F4C155D056E05A0
:101220007F0508F4816081832F5F3F4F085F1F4F68
:101230002832310591F690918E0280918D02890FAE
:1012400090918F02890F90919002890F9091910255
:10125000981709F458C081E090E04FC08091920245
:1012600091E090935C0280937E0210925D02109256
:101270007F0260E080E892E00E946A0181E00E94C3
:101280002B05882319F085E090E044C065E080914B
:1012900092020E94A205F82E10921302809312026D
:1012A0000DE812E085E0E82EE00E80E892E00E9472
:1012B0001E01F80181938F01EE12F7CF61E070E01B
:1012C00080E090E00E94030880911302F81619F064
:1012D00082E090E01FC090918E0280918D02890F74
:1012E00090918F02890F90919002890F90919102B5
:1012F0009817A9F081E090E00DC090939A02809336
:101300009902789412C010929A021092990280E089
:1013100090E0F7CF90939A028093990206C01092C2
:101320009A021092990280E090E0C05CDE4F0FB606
:10133000F894DEBF0FBECDBFDF91CF911F910F910B
:10134000FF90EF90DF90CF900895CF93DF93CDB7CC
:10135000DEB727970FB6F894DEBF0FBECDBF7894E7
:1013600084B5826084BD84B5816084BD85B58260AA
:1013700085BD85B5816085BD80916E00816080935B
:101380006E001092810080918100826080938100C4
:1013900080918100816080938100809180008160D4
:1013A000809380008091B10084608093B10080912F
:1013B000B00081608093B00080917A008460809357
:1013C0007A0080917A00826080937A0080917A001E
:1013D000816080937A0080917A00806880937A009F
:1013E0001092C10062E081E00E94290762E080E083
:1013F0000E94290761E08CE00E94290762E082EAEE
:1014000092E00E94650782EA92E00E949E048FE2C9
:1014100098EFAFEFBFEF8093950290939602A09361
:101420009702B093980280918C02882331F062E099
:1014300080919B020E94290702C00E940307BE01FF
:101440006F5F7F4F8EE00E94E60569816E7F8EE0C0
:101450000E948805BE016F5F7F4F8EE00E94E60507
:10146000698164608EE00E94880565E087E00E94E3
:10147000880560E888E00E94880560E889E00E94AD
:10148000880561E88AE00E9488050E94120604E649
:1014900010E090E9E92EFF24F39460E08CE00E94D4
:1014A000B70662E080E00E94290742E050E068ED64
:1014B00070E080E00E948C0061E083E10E942907D7
:1014C00061E082E10E94290760E083E10E94B706A3
:1014D00060E082E10E94B70680910802882349F00B
:1014E00080910602909107020196909307028093E3
:1014F00006028091060290910702892B09F4E9C146
:1015000061E08CE00E94B70682EA92E00E949E04AD
:101510008EE291E00E942B068091060290910702D4
:101520000E94810664EF71E080E090E00E94030871
:1015300080910602909107028230910509F480C0E3
:101540008330910509F497C0019709F0ADC182EA93
:1015500092E00E949E0480E00E942D068AE391E0C2
:101560000E942B066091FC017091FD018091FE01AB
:101570009091FF010E948A0ECB010E94810681E4B6
:1015800091E00E942B068090FC019090FD01A090BC
:10159000FE01B090FF01C501B4010E948A0E072E22
:1015A000000C880B990B0E94C20E9B01AC01C50177
:1015B000B4010E94AB0D20E030E040E251E40E9413
:1015C0004E0F0E948A0ECB010E94810681E00E948C
:1015D0002D0683E491E00E942B066091F801709142
:1015E000F9018091FA019091FB010E948A0ECB01D2
:1015F0000E94810681E491E00E942B068090F80110
:101600009090F901A090FA01B090FB01C501B401DE
:101610000E948A0E072E000C880B990B0E94C20EA6
:101620009B01AC01C501B4010E94AB0D20E030E08C
:1016300040E251E40E944E0F0E948A0ECB0112C07C
:1016400082EA92E00E949E0480E00E942D068FE4D0
:1016500091E00E942B0681E00E942D0680910002FD
:10166000909101020E94810660ED77E080E090E0B9
:101670000E9403082EC1109207021092060282EA0D
:1016800092E00E949E0482E691E00E942B0681E097
:101690000E942D0680910202909103020E94810611
:1016A00060E273E080E090E00E9403088091F00126
:1016B0008111A8C0CE0101960E94F301811194C04E
:1016C000DF80AD2DB0E020E833E341EE51E00E9431
:1016D00029102B013C01E2EBF7E09D01CF01825B79
:1016E000974082179307D4F4CF0183709927892BF1
:1016F00099F4CF01B8010E94E40F892B31F4CF0196
:10170000B7010E94E40F892B39F480E8480E81E587
:10171000581E81E0681E711C3196E0CF2E80312C5E
:101720002E54384FC901B8010E94E40F6C01C90161
:10173000B7010E94E40F5C01E1E0F0E0490193E0B1
:1017400089229924E215F3052CF5E230F10589F49C
:101750008114910471F4C114D10419F4A114B104D9
:1017600041F480E8480E8BE3581E86E2681E711C27
:101770000FC0DF01AD5FBE4FAC91B0E020E831E5B6
:1017800041E050E00E942910460E571E681E791E47
:101790003196D8CF4A812B8130E0A0E1BEE00E9493
:1017A0001A104B015C01242F30E0ACE3B0E00E9442
:1017B0001A10860E971EA81EB91E8981880E911CCC
:1017C000A11CB11CAD81B0E0119720E831E541E0EA
:1017D00050E00E943410860E971EA81EB91E480CB9
:1017E000591C6A1C7B1C03C0412C512C32014092B5
:1017F000EC015092ED016092EE017092EF0181E0F8
:101800008093F001CE0101960E94F30182EA92E0FA
:101810000E949E046D8170E080E090E04AE00E94AA
:10182000400686E791E00E942B066E8170E080E022
:1018300090E04AE00E94400686E791E00E942B0675
:101840008F8190E04E970E94810684E791E00E948C
:101850002B0681E00E942D066B8170E080E090E015
:101860004AE00E94400688E391E00E942B066A81CC
:1018700070E080E090E04AE00E94400688E391E05A
:101880000E942B06698170E080E090E04AE00E94AF
:10189000400668EC70E080E090E00E94030868EE8B
:1018A00073E080E090E0E4CE82EA92E00E949E0441
:1018B00080E00E942D0688E791E00E942B0660EDF3
:1018C00077E080E090E00E940308109207021092F7
:1018D000060282EA92E00E949E0460E08CE00E9490
:1018E000B7060E94D1010E941206882309F4D5C0D0
:1018F00061E08CE00E94B7060E9403076EEB70E087
:1019000080E090E00E94030880918C028823A9F077
:101910000E943D08892B39F0812C912C80ECA82E57
:101920008FE7B82E34C060918F0270E080E090E0C5
:101930000E94C00E4B015C012AC00E943D08892B09
:1019400059F7D090900260918F0270E080E090E0B3
:101950000E94C20E4B015C016D2D6F7770E080E03C
:1019600090E00E94C00E20E030E040E251E40E948E
:10197000180E9B01AC01C501B4010E94AC0D4B01D6
:101980005C01D7FE04C0B7FAB094B7F8B094809267
:10199000FC019092FD01A092FE01B092FF018091A6
:1019A0008C02882389F00E943D08892B29F060E091
:1019B00070E080EC9FE728C060918D0270E080E0CD
:1019C00090E00E94C00E20C00E943D08892B79F74C
:1019D00060918D0270E080E090E00E94C20E2B01C9
:1019E0003C0160918E0270E080E090E00E94C00EA9
:1019F00020E030E040E251E40E94180E9B01AC016F
:101A0000C301B2010E94AC0D6093F8017093F9011B
:101A10008093FA019093FB019B01AC010E94BB0FE4
:101A2000811145C0A5019401C501B4010E94BB0FFD
:101A300081113DC090E490937C0080917A00806495
:101A400080937A0080917A0086FDFCCF80917800A7
:101A50002091790090E0922B9093010280930002F4
:101A6000109205021092040264EF71E080E090E0B1
:101A70000E94030860E08DE00E94B7068091020298
:101A8000909103020196909303028093020264EF07
:101A900071E080E090E00E9403080E94D10180E0A4
:101AA00090E0892B09F4F9CC0E940000F6CC82EA80
:101AB00092E00E949E0481E891E00E942B06BACF3A
:101AC000E0E8F2E01382128288EE93E0A0E0B0E05A
:101AD00084839583A683B78384E191E09183808397
:101AE0000E940307E2EAF2E01382128286E291E0AA
:101AF0009183808389E084838FEF85838AE0868366
:101B000087E0878384E0808785E0818786E082871D
:101B10001386148615861686178661E0CF010E940B
:101B20006507ECE8F2E010828CE5868382E187832A
:101B300083E18087118612861386148689E090E0FF
:101B40009687858783E08787108A118A128A138A8D
:101B5000148A158A08955058BB27AA270E94C30DDE
:101B60000C94140F0E94060F38F00E940D0F20F005
:101B700039F49F3F19F426F40C94030F0EF4E0950A
:101B8000E7FB0C94FD0EE92F0E94250F58F3BA17BE
:101B9000620773078407950720F079F4A6F50C9483
:101BA000470F0EF4E0950B2EBA2FA02D0B01B901B3
:101BB00090010C01CA01A0011124FF27591B99F0C3
:101BC000593F50F4503E68F11A16F040A22F232FCF
:101BD000342F4427585FF3CF469537952795A7951F
:101BE000F0405395C9F77EF41F16BA0B620B730BC6
:101BF000840BBAF09150A1F0FF0FBB1F661F771F37
:101C0000881FC2F70EC0BA0F621F731F841F48F4EB
:101C1000879577956795B795F7959E3F08F0B0CF74
:101C20009395880F08F09927EE0F9795879508955B
:101C30000E942C0E0C94140F0E940D0F58F00E945D
:101C4000060F40F029F45F3F29F00C94FD0E51116E
:101C50000C94480F0C94030F0E94250F68F39923EE
:101C6000B1F3552391F3951B550BBB27AA27621798
:101C70007307840738F09F5F5F4F220F331F441FA5
:101C8000AA1FA9F335D00E2E3AF0E0E832D09150D9
:101C90005040E695001CCAF72BD0FE2F29D0660FC6
:101CA000771F881FBB1F261737074807AB07B0E809
:101CB00009F0BB0B802DBF01FF2793585F4F3AF00F
:101CC0009E3F510578F00C94FD0E0C94480F5F3F39
:101CD000E4F3983ED4F3869577956795B795F79595
:101CE0009F5FC9F7880F911D9695879597F908957D
:101CF000E1E0660F771F881FBB1F62177307840719
:101D0000BA0720F0621B730B840BBA0BEE1F88F727
:101D1000E09508950E94910E6894B1110C94480FBB
:101D200008950E942D0F88F09F5798F0B92F99279A
:101D3000B751B0F0E1F0660F771F881F991F1AF0B6
:101D4000BA95C9F714C0B13091F00E94470FB1E0C5
:101D500008950C94470F672F782F8827B85F39F0C4
:101D6000B93FCCF3869577956795B395D9F73EF44F
:101D700090958095709561957F4F8F4F9F4F0895F7
:101D8000E89409C097FB3EF4909580957095619515
:101D90007F4F8F4F9F4F9923A9F0F92F96E9BB27CB
:101DA0009395F695879577956795B795F111F8CF47
:101DB000FAF4BB0F11F460FF1BC06F5F7F4F8F4FB2
:101DC0009F4F16C0882311F096E911C0772321F0A8
:101DD0009EE8872F762F05C0662371F096E8862F40
:101DE00070E060E02AF09A95660F771F881FDAF797
:101DF000880F9695879597F9089597F99F6780E8DA
:101E000070E060E008959FEF80EC089500240A944C
:101E10001616170618060906089500240A941216C5
:101E20001306140605060895092E0394000C11F4F8
:101E3000882352F0BB0F40F4BF2B11F460FF04C0A5
:101E40006F5F7F4F8F4F9F4F089557FD9058440FFE
:101E5000551F59F05F3F71F04795880F97FB991F09
:101E600061F09F3F79F087950895121613061406C6
:101E7000551FF2CF4695F1DF08C016161706180653
:101E8000991FF1CF86957105610508940895E8942E
:101E9000BB2766277727CB0197F908950E94610F2A
:101EA0000C94140F0E94060F38F00E940D0F20F0C2
:101EB000952311F00C94FD0E0C94030F11240C9437
:101EC000480F0E94250F70F3959FC1F3950F50E0C6
:101ED000551F629FF001729FBB27F00DB11D639FDC
:101EE000AA27F00DB11DAA1F649F6627B00DA11D82
:101EF000661F829F2227B00DA11D621F739FB00D28
:101F0000A11D621F839FA00D611D221F749F332797
:101F1000A00D611D231F849F600D211D822F762F30
:101F20006A2F11249F5750409AF0F1F088234AF00D
:101F3000EE0FFF1FBB1F661F771F881F9150504079
:101F4000A9F79E3F510580F00C94FD0E0C94480FAC
:101F50005F3FE4F3983ED4F3869577956795B79500
:101F6000F795E7959F5FC1F7FE2B880F911D96951A
:101F7000879597F908950E94C00F880B990B0895D3
:101F8000990F0008550FAA0BE0E8FEEF161617068A
:101F9000E807F907C0F012161306E407F50798F0F2
:101FA000621B730B840B950B39F40A2661F0232B0B
:101FB000242B252B21F408950A2609F4A140A69587
:101FC0008FEF811D811D089597FB072E16F4009455
:101FD00007D077FD09D00E943C1007FC05D03EF4E5
:101FE000909581959F4F0895709561957F4F0895C5
:101FF000A1E21A2EAA1BBB1BFD010DC0AA1FBB1F0D
:10200000EE1FFF1FA217B307E407F50720F0A21B7E
:10201000B30BE40BF50B661F771F881F991F1A94EB
:1020200069F760957095809590959B01AC01BD0115
:10203000CF010895A29FB001B39FC001A39F700D6F
:10204000811D1124911DB29F700D811D1124911DC0
:1020500008950E941A10A59F900DB49F900DA49F03
:10206000800D911D11240895B7FF0C9429100E9432
:102070002910821B930B0895AA1BBB1B51E107C0BB
:10208000AA1FBB1FA617B70710F0A61BB70B881F08
:10209000991F5A95A9F780959095BC01CD01089597
:1020A000EE0FFF1F0590F491E02D099481E090E080
:0A20B000F8940C945B10F894FFCF35
:1020BA00AC00AC001F1C1F1E1F1E1F1F1E1F1E1F51
:1020CA00000000006A013A019A010E0132011E0164
:1020DA000F01000000009504AD009A0199016E629B
:1020EA0072206170707569203A0074656D703A20CB
:1020FA00002E0068756D6964697465203A2000686D
:10210A00756D696469746520647520736F6C203A13
:10211A0020006E6F6D627265206465206D6573754F
:10212A007265203A20002F0070726F626C656D65CF
:10213A00004661696C656420746F20726561642071
:10214A0066726F6D2044485431322073656E736F26
:04215A0072210000EE
:00000001FF
